:400000000080002011000000411B0000411B000080B500AF024A034B1B68136001F09AFDBC760040FA46004010B5054C237833B9044B13B10448AFF300800123237010BDC7
:400040003881FF1F0000000070240000084B10B51BB108490848AFF300800848036803B910BD074B002BFBD0BDE81040184700BF000000003C81FF1F70240000C880FF1FFA
:400080000000000080B483B000AF78607B6803F108027B685A607B684FF0FF329A607B6803F108027B68DA607B6803F108027B681A617B6800221A6000BF0C37BD4680BC8A
:4000C000704700BF80B483B000AF78607B6800221A6100BF0C37BD4680BC704780B485B000AF786039607B685B68FB603B68FA685A60FB689A683B689A60FB689B683A68D1
:400100005A60FB683A689A603B687A681A617B681B685A1C7B681A6000BF1437BD4680BC704700BF80B485B000AF786039603B681B68BB60BB68B3F1FF3F03D17B681B6904
:40014000FB600CE07B680833FB6002E0FB685B68FB60FB685B681A68BB689A42F6D9FB685A683B685A603B685B683A689A603B68FA689A60FB683A685A603B687A681A61A4
:400180007B681B685A1C7B681A6000BF1437BD4680BC704780B485B000AF78607B681B69FB607B685B687A6892689A607B689B687A6852685A60FB685A687B689A4203D1E4
:4001C0007B689A68FB685A607B6800221A61FB681B685A1EFB681A60FB681B6818461437BD4680BC704700BF80B584B000AF786039607B68FB6001F0F7F8FB681A68FB680F
:40020000DB6BF968096C01FB03F31A44FB689A60FB6800229A63FB681A68FB685A60FB681A68FB68DB6B013BF968096C01FB03F31A44FB68DA60FB68FF2283F84420FB681E
:40024000FF2283F845203B68002B14D1FB681B69002B1AD0FB681033184600F00FFE0346002B12D00C4B4FF080521A60BFF34F8FBFF36F8F09E0FB6810331846FFF702FF71
:40028000FB6824331846FFF7FDFE01F0C5F8012318461037BD4680BD04ED00E080B58AB002AFF860B9601346FB71FB68BA6802FB03F3FB61FB694833184601F027F9B8611C
:4002C000BB69002B0DD0BB697B617B6948337B61FA79BB69009313467A69B968F86800F005F8BB6918462037BD4680BD80B584B000AFF860B9607A60FB70BB68002B03D1BA
:40030000BB69BA691A6002E0BB697A681A60BB69FA68DA63BB69BA681A640121B869FFF763FF00BF1037BD4680BD00BF80B58AB000AFF860B9607A603B6000237B62FB680C
:400340003B6201F051F83B6A9A6B3B6ADB6B9A4202D33B68022B29D13A68B968386A00F031F9F8613B6A5B6A002B10D03B6A2433184600F083FD0346002B13D03F4B4FF05F
:4003800080521A60BFF34F8FBFF36F8F0AE0FB69002B07D0394B4FF080521A60BFF34F8FBFF36F8F01F038F8012363E07B68002B03D101F031F800235CE07B6A002B06D148
:4003C00007F11403184600F0ADFD01237B6201F023F800F08DFB01F007F83B6A93F844305BB2B3F1FF3F03D13B6A002283F844203B6A93F845305BB2B3F1FF3F03D13B6A67
:40040000002283F8452001F007F83A1D07F114031146184600F09CFD0346002B24D1386A00F0C8F90346002B18D03B6A10337A681146184600F00CFD386A00F053F900F0C8
:4004400065FB0346002B7FF47CAF0C4B4FF080521A60BFF34F8FBFF36F8F72E7386A00F041F900F053FB6CE7386A00F03BF900F04DFB002318462837BD4680BD04ED00E043
:4004800080B58AB000AFF860B9607A6000237B62FB683B6200F0A8FF3B6A9B6BFB61FB69002B1FD0B968386A00F0F6F8FB695A1E3B6A9A633B6A1B69002B0FD03B6A10337D
:4004C000184600F0DBFC0346002B07D03C4B4FF080521A60BFF34F8FBFF36F8F00F09CFF012369E07B68002B03D100F095FF002362E07B6A002B06D107F11403184600F033
:4005000011FD01237B6200F087FF00F0F1FA00F06BFF3B6A93F844305BB2B3F1FF3F03D13B6A002283F844203B6A93F845305BB2B3F1FF3F03D13B6A002283F8452000F0F5
:400540006BFF3A1D07F114031146184600F000FD0346002B23D1386A00F016F90346002B17D03B6A24337A681146184600F070FC386A00F0B7F800F0C9FA0346002B89D1F4
:400580000F4B4FF080521A60BFF34F8FBFF36F8F80E7386A00F0A6F800F0B8FA7AE7386A00F0A0F800F0B2FA386A00F0EDF80346002B3FF46FAF002318462837BD4680BD5A
:4005C00004ED00E080B586B000AFF860B9607A6000237B61FB689B6B3B61FB681B6C002B0DD1FB681B68002B4DD1FB689B68184600F0A6FD7861FB6800229A6043E07B68EA
:40060000002B19D1FB685868FB681B6C1A46B96801F01AFFFB685A68FB681B6C1A44FB685A60FB685A68FB689B689A422BD3FB681A68FB685A6026E0FB68D868FB681B6C89
:400640001A46B96801F000FFFB68DA68FB681B6C5B421A44FB68DA60FB68DA68FB681B689A4207D2FB689A68FB681B6C5B421A44FB68DA607B68022B05D13B69002B02D034
:400680003B69013B3B613B695A1CFB689A637B6918461837BD4680BD80B582B000AF786039607B681B6C002B18D07B68DA687B681B6C1A447B68DA607B68DA687B689B685A
:4006C0009A4203D37B681A687B68DA607B68D9687B681B6C1A46386801F0B6FE00BF0837BD4680BD80B584B000AF786000F07CFE7B6893F84530FB7311E07B685B6A002BE6
:4007000012D07B682433184600F0B8FB0346002B01D000F063FCFB7B013BDBB2FB7397F90F30002BE9DC00E000BF7B68FF2283F8452000F071FE00F057FE7B6893F8443093
:40074000BB7311E07B681B69002B12D07B681033184600F093FB0346002B01D000F03EFCBB7B013BDBB2BB7397F90E30002BE9DC00E000BF7B68FF2283F8442000F04CFECE
:4007800000BF1037BD4680BD80B584B000AF786000F02AFE7B689B6B002B02D10123FB6001E00023FB6000F037FEFB6818461037BD4680BD80B584B000AF786000F014FEC7
:4007C0007B689A6B7B68DB6B9A4202D10123FB6001E00023FB6000F01FFEFB6818461037BD4680BD80B58CB004AFF860B9603B601346FB80FB889B00184600F087FE786138
:400800007B69002B0ED0502000F080FEF861FB69002B03D0FB697A691A6305E0786900F007FF01E00023FB61FB69002B13D0FA8800230393FB690293FB6A0193BB6A0093FB
:400840003B68B968F86800F00FF8F86900F08CF80123BB6102E04FF0FF33BB61BB6918462037BD4680BD00BF80B586B000AFF860B9607A603B60BB6A186B7B689B001A467B
:40088000A52101F0ECFDBB6A1A6B7B6803F18043013B9B0013443B613B6923F007033B61BB68002B1FD000237B6112E0BA687B6913441978BA6A7B69134434330A461A7071
:4008C000BA687B6913441B78002B06D07B6901337B617B690B2BE9D900E000BFBB6A002283F83F2003E0BB6A002283F834203B6A042B01D904233B62BB6A3A6ADA62BB6AE2
:400900003A6A1A64BB6A00225A64BB6A04331846FFF7D8FBBB6A18331846FFF7D3FBBB6ABA6A1A613B6AC3F10502BB6A9A61BB6ABA6A5A62BB6A00229A64BB6A002283F82B
:400940004C203A68F968386900F0C4FC0246BB6A1A607B6A002B02D07B6ABA6A1A6000BF1837BD4680BD00BF80B582B000AF786000F03AFD2A4B1B680133294A1360294BC3
:400980001B68002B09D1274A7B681360244B1B68012B10D100F038FB0DE0234B1B68002B09D1204B1B68DA6A7B68DB6A9A4202D81C4A7B6813601D4B1B6801331B4A136020
:4009C0007B68DB6A01229A40194B1B681343184A13607B68DA6A13469B0013449B00154A1A447B68043319461046FFF777FB00F013FD0D4B1B68002B0ED00A4B1B68DA6ABF
:400A00007B68DB6A9A4207D20B4B4FF080521A60BFF34F8FBFF36F8F00BF0837BD4680BD2C82FF1F5481FF1F3882FF1F4882FF1F3482FF1F5881FF1F04ED00E080B584B0F6
:400A400000AF78600023FB607B68002B08D000F04FF80021786800F0D7FB00F057F8F860FB68002B07D1064B4FF080521A60BFF34F8FBFF36F8F00BF1037BD4680BD00BF73
:400A800004ED00E080B584B002AF134B0193002300930023642211491148FFF7A3FE78607B68012B14D14FF0A00383F31188BFF36F8FBFF34F8F3B600A4B4FF0FF321A60D9
:400AC000094B01221A60094B00221A6000F06CFC00BF0837BD4680BD5082FF1F74240000F50F00004C82FF1F3882FF1F3082FF1F80B400AF044B1B680133034A136000BFF7
:400B0000BD4680BC704700BF5482FF1F80B584B000AF0023FB600023BB6000F065FC394B1B68013B374A1360364B1B68002B61D1354B1B68002B5DD02EE0344BDB68DB68E1
:400B4000FB60FB6818331846FFF724FBFB6804331846FFF71FFBFB68DB6A01229A402C4B1B6813432A4A1360FB68DA6A13469B0013449B00274A1A44FB680433194610466A
:400B8000FFF7ACFAFB68DA6A234B1B68DB6A9A4202D3224B01221A601C4B1B68002BCCD1FB68002B01D000F0ABFA1D4B1B687B607B68002B10D000F037F80346002B02D042
:400BC000164B01221A607B68013B7B607B68002BF1D1134B00221A60104B1B68002B09D00123BB600F4B4FF080521A60BFF34F8FBFF36F8F00F010FCBB6818461037BD4626
:400C000080BD00BF5482FF1F2C82FF1FEC81FF1F3482FF1F5881FF1F5481FF1F4082FF1F3C82FF1F04ED00E080B586B000AF00237B61464B1B68002B7DD1454B1B68013335
:400C40003B61434A3B6913603B69002B10D1414B1B68FB60404B1B683E4A13603E4AFB6813603E4B1B6801333C4A136000F048FA3B4B1B683A699A4248D3364B1B681B681E
:400C8000002B04D1364B4FF0FF321A603EE0314B1B68DB68DB68BB60BB685B687B603A697B689A4203D22E4A7B6813602EE0BB6804331846FFF76EFABB689B6A002B04D0FA
:400CC000BB6818331846FFF765FABB68DB6A01229A40244B1B681343224A1360BB68DA6A13469B0013449B001F4A1A44BB68043319461046FFF7F2F9BB68DA6A1B4B1B68F3
:400D0000DB6A9A42B9D301237B61B6E7174B1B68DA6A154913469B0013449B000B441B68012B01D901237B61114B1B68002B07D001237B6104E00F4B1B6801330D4A136084
:400D40007B6918461837BD4680BD00BF5482FF1F3082FF1FE481FF1FE881FF1F4482FF1F4C82FF1F3482FF1F5881FF1F5481FF1F4082FF1F3C82FF1F80B586B000AF2F4B37
:400D80001B68002B03D02E4B01221A6051E02C4B00221A602B4B1B681B6B7B614FF0A5333B617B691A683B699A4211D17B6904331A683B699A420BD17B6908331A683B6944
:400DC0009A4205D17B690C331A683B699A4208D01C4B1A681B4B1B6834331946104600F0D7FC194B1B687B607B68B3FA83F3FB70FB78C3F11F03FB60FA6813469B0013440F
:400E00009B00124A1344BB60BB685B685A68BB685A60BB685A68BB6808339A4204D1BB685B685A68BB685A60BB685B68DB68054A136000BF1837BD4680BD00BF5482FF1F5F
:400E40004082FF1F5481FF1F3482FF1F5881FF1F80B582B000AF78603960074B1B68183319467868FFF75EF90121386800F0CCF900BF0837BD4680BD5481FF1F80B584B090
:400E800000AF78607B68DB68DB68BB60BB6818331846FFF77FF91D4B1B68002B1CD1BB6804331846FFF776F9BB68DB6A01229A40174B1B681343164A1360BB68DA6A13469A
:400EC0009B0013449B00134A1A44BB68043319461046FFF703F905E0BB68183319460E48FFF7FCF8BB68DA6A0C4B1B68DB6A9A4205D90123FB600A4B01221A6001E0002302
:400F0000FB60FB6818461037BD4680BD5482FF1F3482FF1F5881FF1FEC81FF1F5481FF1F4082FF1F80B483B000AF7860064B1A687B681A60054B1A687B685A6000BF0C3762
:400F4000BD4680BC704700BF4482FF1F3082FF1F80B586B000AF7860396000F045FA1D4B1B683B617B685B683A69D31AFB603B681B68B3F1FF3F02D100237B6123E07B6876
:400F80001A68154B1B689A4207D07B685A683B699A4202D801237B6115E03B681A68FB689A420BD93B681A68FB68D21A3B681A607868FFF7B7FF00237B6104E03B68002218
:400FC0001A6001237B6100F027FA7B6918461837BD4680BD3082FF1F4482FF1F80B400AF034B01221A6000BFBD4680BC704700BF4082FF1F80B582B000AF786000F044F8A5
:4010000000F0A8FBFAE700BF80B582B000AF00237B600CE07A6813469B0013449B00124A13441846FFF72EF87B6801337B607B68042BEFD90D48FFF725F80D48FFF722F8EF
:401040000C48FFF71FF80C48FFF71CF80B48FFF719F80B4B054A1A600A4B054A1A6000BF0837BD4680BD00BF5881FF1FBC81FF1FD081FF1FEC81FF1F0082FF1F1882FF1F79
:40108000E481FF1FE881FF1F80B582B000AF19E000F0AAF90F4BDB68DB687B607B6804331846FFF777F80C4B1B68013B0A4A13600A4B1B68013B094A136000F0ADF97868BF
:4010C00000F00EF8054B1B68002BE1D100BF0837BD4680BD0082FF1F2C82FF1F1482FF1F80B582B000AF78607B681B6B184600F09FFA786800F09CFA00BF0837BD4680BD0A
:4011000080B483B000AF0C4B1B681B68002B04D10A4B4FF0FF321A6008E0074B1B68DB68DB687B607B685B68044A136000BF0C37BD4680BC704700BFE481FF1F4C82FF1F52
:4011400080B584B000AF78607B68BB600023FB607B68002B4FD0BB685B6C5A1EBB685A64BB68DA6ABB681B6C9A4244D0BB685B6C002B40D1BB6804331846FFF70BF8034672
:40118000002B15D1BB68DA6A1D4913469B0013449B000B441B68002B0AD1BB68DB6A012202FA03F3DA43174B1B681340154A1360BB681A6CBB68DA62BB68DB6AC3F10502C4
:4011C000BB689A61BB68DB6A01229A400D4B1B6813430C4A1360BB68DA6A13469B0013449B00074A1A44BB68043319461046FEF775FF0123FB60FB6818461037BD4680BD37
:401200005881FF1F3482FF1F80B584B000AF78603960294B1B68FB60284B1B6804331846FEF7B8FF0346002B0BD1244B1B68DB6A012202FA03F3DA43214B1B681340204A6C
:4012400013607B68B3F1FF3F0AD13B68002B07D01A4B1B68043319461A48FEF73FFF26E0FA687B681344BB60144B1B68BA685A60BA68FB689A4209D2134B1A680F4B1B682F
:40128000043319461046FEF74DFF10E00F4B1A680A4B1B68043319461046FEF743FF0C4B1B68BA689A4202D2094ABB68136000BF1037BD4680BD00BF3082FF1F5481FF1FDD
:4012C0003482FF1F1882FF1FE881FF1FE481FF1F4C82FF1F80B485B000AFF860B9607A60FB68043BFB60FB684FF080721A60FB68043BFB60BB6823F00102FB681A60FB6888
:40130000043BFB60084AFB681A60FB68143BFB607A68FB681A60FB68203BFB60FB6818461437BD4680BC70472D13000080B483B000AF00233B604FF0A00383F31188BFF346
:401340006F8FBFF34F8F7B6000BF3B68002BFCD000BF0C37BD4680BC704700BF00000000074B19680868B0E8F00F80F30988BFF36F8F4FF0000080F311884EF00D0E70470B
:401380005481FF1F00BF00BF06480068006880F3088862B661B6BFF34F8FBFF36F8F00DF00BF00BF08ED00E080B500AF0C4A0C4B1B6843F460031360094A094B1B6843F07C
:4013C0006043136000F088F8064B00221A60FFF7DBFFFFF7D1FCFFF7A9FF0023184680BD20ED00E0CC80FF1F80B483B000AF4FF0A00383F31188BFF36F8FBFF34F8F7B6012
:40140000044B1B680133034A136000BF0C37BD4680BC7047CC80FF1F80B483B000AF094B1B68013B074A1360064B1B68002B04D100237B607B6883F3118800BF0C37BD46CE
:4014400080BC7047CC80FF1F0000000000000000EFF30980BFF36F8F0D4B1A6820E9F00F10602DE908404FF0A00080F31188FFF783FC4FF0000080F31188BDE8084019682B
:401480000868B0E8F00F80F30988BFF36F8F70475481FF1F00BF00BF80B582B000AF4FF0A00383F31188BFF36F8FBFF34F8F3B60FFF7BAFB0346002B03D0064B4FF0805213
:4014C0001A6000237B607B6883F3118800BF0837BD4680BD04ED00E080B400AF084B00221A60084B00221A60074B45F6BF521A60034B07221A6000BFBD4680BC704700BF35
:4015000010E000E018E000E014E000E080B588B000AF786000237B61FFF7EAFA404B1B68002B04D100F0BEF83D4B01221A607B68002B0ED008231A467B6813447B607B681A
:4015400003F00703002B04D07B6823F0070308337B607B68002B57D07B6847F6F772934252D8304BBB612F4B1B68FB6104E0FB69BB61FB691B68FB61FB695A687B689A4220
:4015800003D2FB691B68002BF1D1FB69264A93423AD0BB691B68082213447B61FB691A68BB691A60FB695A687B68D31A08225200934222D9FA697B681344FB60FB695A68E7
:4015C0007B68D21AFB685A60FB697A685A60FB685B68BB60134B3B6102E03B691B683B613B691B685A68BB689A42F6D33B691A68FB681A603B69FA681A600C4B1A68FB69AE
:401600005B68D31A094A1360FFF780FA7B69002B01D100F0CDF87B6918462037BD4680BD680200205802002060020020D080FF1F80B586B000AF78607B683B617B68002BE2
:4016400027D008235B423A6913443B613B69FB60FFF74EFAFB685B68BB60104B7B6102E07B691B687B617B691B685A68BB689A42F6D37B691A68FB681A607B69FA681A6047
:40168000FB685A68064B1B681344054A1360FFF73DFA00BF1837BD4680BD00BF58020020D080FF1F80B483B000AF0F4B23F007037B600E4A7B6813600C4B00225A600C4B56
:4016C00047F6F8725A600A4B00221A607B683B603B6847F6F8725A603B68054A1A6000BF0C37BD4680BC70476082FF1F580200206002002080B582B002AF00F031F8002263
:4017000001210520FEF7CAFD02460D4B1A60002301930223009300234FF47A7209490A48FFF760F8002301930123009300234FF47A7206490648FFF755F8FFF7A3F9FEE7C2
:40174000700200207C240000CD170000882400001918000080B400AF00BFBD4680BC704780B500AF00F066FB054B064ADA62044B054A9A63024B054ADA6300BF80BD00BF9E
:401780000080FF1F61130000511400009914000080B485B000AF786039604FF0A00383F31188BFF36F8FBFF34F8FFB60FEE700BF80B483B000AF4FF0A00383F31188BFF393
:4017C0006F8FBFF34F8F7B60FEE700BF80B584B000AF78604FF47A73FB600823FB720123BB72012000F0A2FABA7A07F10801F87A002300F00BFD074B186807F10801002313
:401800000022FEF793FD002000F090FAF868FFF715F9E6E77002002080B584B000AF7860104B1B6807F10F014FF0FF321846FEF727FE97F90F30002B03D1012000F06EFD9C
:40184000EEE797F90F30012B03D1012000F084FDE6E797F90F30022BE2D1012000F09AFDDEE700BF7002002080B582B000AF786039603A680021786800F0F1FD00BF0837F2
:40188000BD4680BD80B584B000AFF860B9607A607A68B968F86800F0D7FD00BF1037BD4680BD00BF80B483B000AF0346FB71FEE780B487B000AF7860396000233B6100233C
:4018C0007B6127E07B699B007A6813441B68BB60BB68FB73BB6823F0FF03BB6014E03B695B003A6813441B781A46BB68134419463B695B003A6813445B780B703B690133F5
:401900003B61FB7B013BFB73FB7B002BE7D17B6901337B617B69092BD4D900BF1C37BD4680BC704780B582B000AF294B02221A704FF0402308221A70264B03221A70264BB2
:40194000264A1278D2B21A70254B08221A80254B41F251221A800023FB7019237B6014E0FB785B00DAB2204B1B78DBB203F00103DBB21343DBB203F00303FB704FF4F0708F
:4019800000F026FD7B68013B7B607B68002B02D0FB78032BE4D17B68002B02D10320FFF781FF124B4FF480721A80104B07221A700F4B00221A700F4B48221A700B4B002264
:4019C0001A700D4B02221A7000BF0837BD4680BD0043004000420040A1460040080100492242004020420040254200400440004006400040084000400140004080B483B034
:401A000000AF0B4B1B78FB710A4AFB7903F00703DBB21370084AFB791B09DBB21370074B44221A7000BF0C37BD4680BC704700BFCF0100496E5800406F58004076580040A6
:401A400080B582B000AF72B62F4A2F4B1B78DBB243F00403DBB213700023FB7113E0FA7913465B0013445B00284A13443B603B681A683B689B889BB219461046FFF7F4FE37
:401A8000FB790133FB71FB79092BE8D920494FF09040FFF70DFF1F4A1E4B1B78DBB243F00203DBB213701C4A1B4B1B78DBB243F00203DBB213700A2218491948FFF7E2FEFD
:401AC000082218491848FFF7DDFE184A174B1B78DBB243F00803DBB21370154B61221A70FFF720FF124B81221A70124B01221A70FFF784FF0E2210491048FFF7C3FE00BF12
:401B00000837BD4680BD00BFE84600409424000028000048035001401350014060000048105100406C00004822510040224300400048004004000840A0430040B04300401A
:401B400080B500AF00F054FC03461B680C2B00D1FEE7FEE780B586B000AF224B7B61224B3B61204B7B6135E03B691B68FB603B695B68BB603B699B683B6000237B600CE0AB
:401B8000FB681A68BB681A60BB680433BB60FB680433FB607B6804337B607A683B689A42EED13B69DB683B6000237B6008E0BB6800221A60BB680433BB607B6804337B6093
:401BC0007A683B689A42F2D13B6910333B617B69013B7B617B69002BC6D100F00FFCFFF789FDFEE701000000F824000080B582B000AF184B184A1A60184A184B1B6843F44F
:401C00000073136000237B600FE07B68032B04D8134A7B6852F8233000E0124B12497A6841F822307B6801337B607B682F2BECD90E4B1B78DAB20E4B1A700E4B0A4A1A608C
:401C4000FFF7FEFE0C4B00221A6000BF0837BD4680BD00BF0CED00E00004FA0514ED00E000000000411B00000080FF1FBC760040C480FF1F08ED00E0C080FF1F80B483B05D
:401C800000AF0346FB7101BE00BF0C37BD4680BC704700BF80B584B000AF03463960FB710F4B1B68FB60FB791F2B02D90020FFF7E5FFFB7903F01F0310339B00FA681344F9
:401CC0001B68BB60FB7903F01F0310339B00FA6813443A681A60BB6818461037BD4680BD08ED00E080B582B000AF03460A46FB711346BB71BB79072B02D90020FFF7BEFF79
:401D0000FB791F2B02D90020FFF7B8FFFB7903F01F0303F1604303F56443BA795201D2B21A7000BF0837BD4680BD00BF80B485B000AF0346FB710B4B1B78DBB223F0020392
:401D4000FB730849FB795B00DBB203F00203DAB2FB7B1343DBB20B7000BF1437BD4680BC704700BF2051004080B500AF144B02221A70144B81221A70134B08221A70134B93
:401D80000F221A70124B00221A70124B4FF400421A6007210F20FFF7A5FF0F490F20FFF779FF0E4B10221A700D4B00221A700D4B00221A700C4B00221A7000BF80BD00BF42
:401DC000D6490040C8490040CA490040DB490040DC49004080E100E0651E0000740200207A020020820200207802002080B582B000AF00F0F5FA0346FB710C4A0B4B1B78FA
:401E0000DBB243F00403DBB21370094A084B1B78DBB243F00403DBB21370FB79184600F0E3FA00BF0837BD4680BD00BFA5430040B543004080B500AF084B1B78002B04D1F5
:401E4000FFF792FF054B01221A70FFF7CFFF044B4FF400421A6000BF80BD00BF6C02002000E100E080B582B000AFA74B1B78FB71A64B1B78DBB203F04003DBB2002B00F0CC
:401E8000A981FB7903F00103002B00F080819F4B1B78DBB2453B052B00F2758101A252F823F000BFBD1E0000E31F00008721000087210000BD1E0000CF200000FB7923F092
:401EC0002003FB71FB7903F00A03DBB2082B46D18E4B1B78DBB2452B3AD18D4B1B78DBB2002B0FD08B4A8C4B1B681B78DBB21370854B04221A70894B01221A70834B462289
:401F00001A7044E1864B1B78DBB203F00203002B0FD0844B1B78DBB243F00A03DAB2814B1A707A4B60221A707F4B4FF400421A602DE17E4A7D4B1B78DBB243F01003DBB2C3
:401F400013707B4B10221A706F4B04221A701EE16D4B00221A706D4B4A221A7017E1FB7903F00A03DBB20A2B37D16E4B1B78DBB263F05F03DAB26B4B1A70694B1B78DBB27D
:401F800003F00203002B19D0604B1B78DBB203F00803002B01D0092300E00A23DAB2614B1B78DBB21343DAB25E4B1A70574B60221A705D4B4FF400421A60E8E05B4A5B4B42
:401FC0001B78DBB243F01003DBB21370584B10221A704D4B04221A70D9E00020FFF74EFED5E0FB7903F00203002B42D14B4B1B78DAB2474B1B78DBB29A4214D2454A464B01
:402000001B6846490978C9B20B441B78DBB213703D4B04221A70414B1B78DBB20133DAB23E4B1A70B3E03E4B1B78DBB203F00203002B0FD03B4B1B78DBB243F00A03DAB239
:40204000384B1A70314B60221A70374B4FF400421A609CE0354A354B1B78DBB243F01003DBB21370324B10221A70274B04221A708DE02B4B1B78DBB203F00203002B0FD0F9
:40208000284B1B78DBB263F06503DAB2254B1A701E4B60221A70244B4FF400421A6076E0224A224B1B78DBB243F01003DBB213701F4B10221A70144B04221A70194B1B7898
:4020C000DBB263F06F03DAB2164B1A705FE0194B1B68194A1278D2B213440E4A1278D2B21A70154B1B78DBB20133DAB2124B1A70114B1B78DAB2114B1B78DBB29A421FD24E
:40210000014B10221A7042E0D74900407402002079020020D84900408402002078020020800200207A02002080E100E0D6490040D94900407C02002082020020810200201E
:402140002C4B1B78DBB203F00203002B0FD02A4B1B78DBB243F00903DAB2274B1A70274B60221A70264B4FF400421A600FE0254A244B1B78DBB243F01003DBB21370224BCC
:4021800000221A7003E00020FFF778FD00BFFB7903F02003002B28D0184B1B78DBB203F00803002B01D0012300E00223DAB2124B1B78DBB21343DAB20F4B1A70114A114B6D
:4021C0001B78DBB223F01003DBB213700B4B10221A700AE0094B1B78DBB203F01003DBB2002B02D1054B10221A7000BF0837BD4680BD00BF800200207A02002074020020AB
:4022000080E100E0D6490040D749004080B485B000AF396011461A460346FB710B46BB7113467B710223FB733B68002B59D0304B1B78DBB2102B0CD12E4B1B78DBB203F0F6
:402240000803002B02D10023FB7315E00123FB7312E0274B1B78DBB2602B0DD10023FB73254B4FF400421A60244B1B78DBB223F00803DAB2214B1A70FB7B002B31D11C4B17
:4022800049221A701E4B00221A701E4ABB7913701D4A3B6813601D4A7B791370174B1B78DBB223F00103DAB2144B1A70184AFB795B00DBB243F00103DBB213707B7903F0A0
:4022C0000103002B06D00B4B12221A70114B04221A7002E0074B01221A700F4B4FF400421A60FB7B18461437BD4680BC704700BF74020020D949004080E200E07A020020D5
:4023000082020020810200207C02002080020020D8490040D749004000E100E080B485B000AF0346FB710B4B1B78DBB223F00403FB730849FB799B00DBB203F00403DAB256
:40234000FB7B1343DBB20B7000BF1437BD4680BC704700BF1051004080B485B000AF0346FB710B4B1B78DBB223F01003FB730849FB791B01DBB203F01003DAB2FB7B134386
:40238000DBB20B7000BF1437BD4680BC704700BF1051004080B485B000AF0346FB710B4B1B78DBB223F02003FB730849FB795B01DBB203F02003DAB2FB7B1343DBB20B70AA
:4023C00000BF1437BD4680BC704700BF105100400230800803D000BF01380046FCD17047EFF3108072B6704780F31088704700BF014B1868704700BF3481FF1F0E4B70B5C9
:402400001E460E4C0025E41AA410A54204D056F8253098470135F8E700F05CF8084B094C1E46E41AA4100025A54204D056F8253098470135F8E770BDE0240000E024000007
:40244000E0240000E824000010B5431E0A44914204D011F8014B03F8014FF8E710BD03460244934202D003F8011BFAE7704700000000000049444C45000000004932435FC5
:40248000496E7075740000004932435F4C45445F53455400C84900401900005100401000305100404000C05100401000F051004010000000014000100014014000080040E3
:4024C0000140000A004C0140000200500140200043000000F8B500BFF8BC08BC9E4670474D000000ED1B0000F8B500BFF8BC08BC9E4670472900000008250000C880FF1FFF
:40250000700000005081000000000000AAAAAAAAF87F00000000000000000000000000000000000000000000000000000000000000000000D0240000000000000000000047
:4025400000000000000000000000000000000000000000000000000000000000000000000000000000000000000000000000000000000000D480FF1F0000000000000000E9
:40258000000000000000000000000000000000000000000000000000000000000000000000000000000000000000000000000000000000000000000000000000000000001B
:4025C00000000000000000000000000000000000000000000000000000000000000000000000000000000000000000000000000000000000000000000000000000000000DB
:40260000000000000000000000000000000000000000000000000000000000000000000000000000000000000000000000000000000000000000000000000000000000009A
:40264000000000000000000000000000000000000000000000000000000000000000000000000000000000000000000000000000000000000000000000000000000000005A
:020000040003F7
:0200000480007A
:400000000252004001150140011B014002420140014301400148014002490140104C0140014D01400151014009400CC0EA01EA013E10CE2096109610AA10EA8008100E04D8
:400040001220132017013C013E045B01622078107C01C203C40ED602D802DE03AB2003C0C000003FFF00C00000000000000202000000000000000000000000000000000027
:400080000000000000000000000000000000000000000000000000000000000000000000000000000000000000000000000000000000000000000000000000000000000040
:4000C0000000000000000000000000000000000000000000000000000000000000000000000000000000000000000000000000000000000000000000000000000000000000
:4001000000000000000000000000000000000000000000000000000000000000000000000000000000000000000000000000000000000000000000000000000000000000BF
:40014000000000000000000000000000000000000000000000000000000000000000000000000000000000000000000000000000000000000000000000000000000000007F
:0200000490006A
:0400000000004005B7
:0200000490105A
:04000000BC90ACAF55
:0200000490303A
:02000000E10E0F
:0200000490402A
:4000000000000000000000000000000000000000000000000000000000000000000000000000000000000000000000000000000000000000000000000000000000000000C0
:400040000000000000000000000000000000000000000000000000000000000000000000000000000000000000000000000000000000000000000000000000000000000080
:400080000000000000000000000000000000000000000000000000000000000000000000000000000000000000000000000000000000000000000000000000000000000040
:4000C0000000000000000000000000000000000000000000000000000000000000000000000000000000000000000000000000000000000000000000000000000000000000
:0200000490501A
:0C00000000012E16106900012E24F1777B
:00000001FF