:400000000080002011000000A5250000A525000080B500AF024A034B1B68136002F0CCFABC760040FA46004010B5054C237833B9044B13B10448AFF300800123237010BDBB
:400040009881FF1F0000000020490000084B10B51BB108490848AFF300800848036803B910BD074B002BFBD0BDE81040184700BF000000009C81FF1F20490000C880FF1F90
:400080000000000080B483B000AF78607B6803F108027B685A607B684FF0FF329A607B6803F108027B68DA607B6803F108027B681A617B6800221A6000BF0C37BD4680BC8A
:4000C000704700BF80B483B000AF78607B6800221A6100BF0C37BD4680BC704780B485B000AF786039607B685B68FB603B68FA685A60FB689A683B689A60FB689B683A68D1
:400100005A60FB683A689A603B687A681A617B681B685A1C7B681A6000BF1437BD4680BC704700BF80B485B000AF786039603B681B68BB60BB68B3F1FF3F03D17B681B6904
:40014000FB600CE07B680833FB6002E0FB685B68FB60FB685B681A68BB689A42F6D9FB685A683B685A603B685B683A689A603B68FA689A60FB683A685A603B687A681A61A4
:400180007B681B685A1C7B681A6000BF1437BD4680BC704780B485B000AF78607B681B69FB607B685B687A6892689A607B689B687A6852685A60FB685A687B689A4203D1E4
:4001C0007B689A68FB685A607B6800221A61FB681B685A1EFB681A60FB681B6818461437BD4680BC704700BF80B584B000AF786039607B68FB6001F0F7F8FB681A68FB680F
:40020000DB6BF968096C01FB03F31A44FB689A60FB6800229A63FB681A68FB685A60FB681A68FB68DB6B013BF968096C01FB03F31A44FB68DA60FB68FF2283F84420FB681E
:40024000FF2283F845203B68002B14D1FB681B69002B1AD0FB681033184600F00FFE0346002B12D00C4B4FF080521A60BFF34F8FBFF36F8F09E0FB6810331846FFF702FF71
:40028000FB6824331846FFF7FDFE01F0C5F8012318461037BD4680BD04ED00E080B58AB002AFF860B9601346FB71FB68BA6802FB03F3FB61FB694833184601F027F9B8611C
:4002C000BB69002B0DD0BB697B617B6948337B61FA79BB69009313467A69B968F86800F005F8BB6918462037BD4680BD80B584B000AFF860B9607A60FB70BB68002B03D1BA
:40030000BB69BA691A6002E0BB697A681A60BB69FA68DA63BB69BA681A640121B869FFF763FF00BF1037BD4680BD00BF80B58AB000AFF860B9607A603B6000237B62FB680C
:400340003B6201F051F83B6A9A6B3B6ADB6B9A4202D33B68022B29D13A68B968386A00F031F9F8613B6A5B6A002B10D03B6A2433184600F083FD0346002B13D03F4B4FF05F
:4003800080521A60BFF34F8FBFF36F8F0AE0FB69002B07D0394B4FF080521A60BFF34F8FBFF36F8F01F038F8012363E07B68002B03D101F031F800235CE07B6A002B06D148
:4003C00007F11403184600F0ADFD01237B6201F023F800F08DFB01F007F83B6A93F844305BB2B3F1FF3F03D13B6A002283F844203B6A93F845305BB2B3F1FF3F03D13B6A67
:40040000002283F8452001F007F83A1D07F114031146184600F09CFD0346002B24D1386A00F0C8F90346002B18D03B6A10337A681146184600F00CFD386A00F053F900F0C8
:4004400065FB0346002B7FF47CAF0C4B4FF080521A60BFF34F8FBFF36F8F72E7386A00F041F900F053FB6CE7386A00F03BF900F04DFB002318462837BD4680BD04ED00E043
:4004800080B58AB000AFF860B9607A6000237B62FB683B6200F0A8FF3B6A9B6BFB61FB69002B1FD0B968386A00F0F6F8FB695A1E3B6A9A633B6A1B69002B0FD03B6A10337D
:4004C000184600F0DBFC0346002B07D03C4B4FF080521A60BFF34F8FBFF36F8F00F09CFF012369E07B68002B03D100F095FF002362E07B6A002B06D107F11403184600F033
:4005000011FD01237B6200F087FF00F0F1FA00F06BFF3B6A93F844305BB2B3F1FF3F03D13B6A002283F844203B6A93F845305BB2B3F1FF3F03D13B6A002283F8452000F0F5
:400540006BFF3A1D07F114031146184600F000FD0346002B23D1386A00F016F90346002B17D03B6A24337A681146184600F070FC386A00F0B7F800F0C9FA0346002B89D1F4
:400580000F4B4FF080521A60BFF34F8FBFF36F8F80E7386A00F0A6F800F0B8FA7AE7386A00F0A0F800F0B2FA386A00F0EDF80346002B3FF46FAF002318462837BD4680BD5A
:4005C00004ED00E080B586B000AFF860B9607A6000237B61FB689B6B3B61FB681B6C002B0DD1FB681B68002B4DD1FB689B68184600F0A4FD7861FB6800229A6043E07B68EC
:40060000002B19D1FB685868FB681B6C1A46B96804F072F9FB685A68FB681B6C1A44FB685A60FB685A68FB689B689A422BD3FB681A68FB685A6026E0FB68D868FB681B6C34
:400640001A46B96804F058F9FB68DA68FB681B6C5B421A44FB68DA60FB68DA68FB681B689A4207D2FB689A68FB681B6C5B421A44FB68DA607B68022B05D13B69002B02D0DF
:400680003B69013B3B613B695A1CFB689A637B6918461837BD4680BD80B582B000AF786039607B681B6C002B18D07B68DA687B681B6C1A447B68DA607B68DA687B689B685A
:4006C0009A4203D37B681A687B68DA607B68D9687B681B6C1A46386804F00EF900BF0837BD4680BD80B584B000AF786000F07CFE7B6893F84530FB7311E07B685B6A002B90
:4007000012D07B682433184600F0B8FB0346002B01D000F063FCFB7B013BDBB2FB7397F90F30002BE9DC00E000BF7B68FF2283F8452000F071FE00F057FE7B6893F8443093
:40074000BB7311E07B681B69002B12D07B681033184600F093FB0346002B01D000F03EFCBB7B013BDBB2BB7397F90E30002BE9DC00E000BF7B68FF2283F8442000F04CFECE
:4007800000BF1037BD4680BD80B584B000AF786000F02AFE7B689B6B002B02D10123FB6001E00023FB6000F037FEFB6818461037BD4680BD80B584B000AF786000F014FEC7
:4007C0007B689A6B7B68DB6B9A4202D10123FB6001E00023FB6000F01FFEFB6818461037BD4680BD80B58CB004AFF860B9603B601346FB80FB889B00184600F087FE786138
:400800007B69002B0ED0502000F080FEF861FB69002B03D0FB697A691A6305E0786900F007FF01E00023FB61FB69002B13D0FA8800230393FB690293FB6A0193BB6A0093FB
:400840003B68B968F86800F00FF8F86900F08CF80123BB6102E04FF0FF33BB61BB6918462037BD4680BD00BF80B586B000AFF860B9607A603B60BB6A186B7B689B001A467B
:40088000A52104F044F8BB6A1A6B7B6803F18043013B9B0013443B613B6923F007033B61BB68002B1FD000237B6112E0BA687B6913441978BA6A7B69134434330A461A701B
:4008C000BA687B6913441B78002B06D07B6901337B617B690B2BE9D900E000BFBB6A002283F83F2003E0BB6A002283F834203B6A042B01D904233B62BB6A3A6ADA62BB6AE2
:400900003A6A1A64BB6A00225A64BB6A04331846FFF7D8FBBB6A18331846FFF7D3FBBB6ABA6A1A613B6AC3F10502BB6A9A61BB6ABA6A5A62BB6A00229A64BB6A002283F82B
:400940004C203A68F968386900F0C2FC0246BB6A1A607B6A002B02D07B6ABA6A1A6000BF1837BD4680BD00BF80B582B000AF786000F03AFD2A4B1B680133294A1360294BC5
:400980001B68002B09D1274A7B681360244B1B68012B10D100F036FB0DE0234B1B68002B09D1204B1B68DA6A7B68DB6A9A4202D81C4A7B6813601D4B1B6801331B4A136022
:4009C0007B68DB6A01229A40194B1B681343184A13607B68DA6A13469B0013449B00154A1A447B68043319461046FFF777FB00F013FD0D4B1B68002B0ED00A4B1B68DA6ABF
:400A00007B68DB6A9A4207D20B4B4FF080521A60BFF34F8FBFF36F8F00BF0837BD4680BD8C82FF1FB481FF1F9882FF1FA882FF1F9482FF1FB881FF1F04ED00E080B584B0B6
:400A400000AF78600023FB607B68002B08D000F04FF80021786800F0D5FB00F057F8F860FB68002B07D1064B4FF080521A60BFF34F8FBFF36F8F00BF1037BD4680BD00BF75
:400A800004ED00E080B584B002AF134B0193002300930023642211491148FFF7A3FE78607B68012B14D14FF0A00383F31188BFF36F8FBFF34F8F3B600A4B4FF0FF321A60D9
:400AC000094B01221A60094B00221A6000F06CFC00BF0837BD4680BDB082FF1F24490000F50F0000AC82FF1F9882FF1F9082FF1F80B400AF044B1B680133034A136000BFA2
:400B0000BD4680BC704700BFB482FF1F80B584B000AF0023FB600023BB6000F065FC394B1B68013B374A1360364B1B68002B61D1354B1B68002B5DD02EE0344BDB68DB6881
:400B4000FB60FB6818331846FFF724FBFB6804331846FFF71FFBFB68DB6A01229A402C4B1B6813432A4A1360FB68DA6A13469B0013449B00274A1A44FB680433194610466A
:400B8000FFF7ACFAFB68DA6A234B1B68DB6A9A4202D3224B01221A601C4B1B68002BCCD1FB68002B01D000F0A9FA1D4B1B687B607B68002B10D000F037F80346002B02D044
:400BC000164B01221A607B68013B7B607B68002BF1D1134B00221A60104B1B68002B09D00123BB600F4B4FF080521A60BFF34F8FBFF36F8F00F010FCBB6818461037BD4626
:400C000080BD00BFB482FF1F8C82FF1F4C82FF1F9482FF1FB881FF1FB481FF1FA082FF1F9C82FF1F04ED00E080B586B000AF00237B61464B1B68002B7DD1454B1B68013334
:400C40003B61434A3B6913603B69002B10D1414B1B68FB60404B1B683E4A13603E4AFB6813603E4B1B6801333C4A136000F046FA3B4B1B683A699A4248D3364B1B681B6820
:400C8000002B04D1364B4FF0FF321A603EE0314B1B68DB68DB68BB60BB685B687B603A697B689A4203D22E4A7B6813602EE0BB6804331846FFF76EFABB689B6A002B04D0FA
:400CC000BB6818331846FFF765FABB68DB6A01229A40244B1B681343224A1360BB68DA6A13469B0013449B001F4A1A44BB68043319461046FFF7F2F9BB68DA6A1B4B1B68F3
:400D0000DB6A9A42B9D301237B61B6E7174B1B68DA6A154913469B0013449B000B441B68012B01D901237B61114B1B68002B07D001237B6104E00F4B1B6801330D4A136084
:400D40007B6918461837BD4680BD00BFB482FF1F9082FF1F4482FF1F4882FF1FA482FF1FAC82FF1F9482FF1FB881FF1FB481FF1FA082FF1F9C82FF1F80B586B000AF2F4B15
:400D80001B68002B03D02E4B01221A6051E02C4B00221A602B4B1B681B6B7B614FF0A5333B617B691A683B699A4211D17B6904331A683B699A420BD17B6908331A683B6944
:400DC0009A4205D17B690C331A683B699A4208D01C4B1A681B4B1B6834331946104600F0B9FC194B1B687B607B68B3FA83F3FB70FB78C3F11F03FB60FA6813469B0013442D
:400E00009B00124A1344BB60BB685B685A68BB685A60BB685A68BB6808339A4204D1BB685B685A68BB685A60BB685B68DB68054A136000BF1837BD4680BD00BFB482FF1FFF
:400E4000A082FF1FB481FF1F9482FF1FB881FF1F80B582B000AF78603960074B1B68183319467868FFF75EF90121386800F0CAF900BF0837BD4680BDB481FF1F80B584B0B2
:400E800000AF78607B68DB68DB68BB60BB6818331846FFF77FF91D4B1B68002B1CD1BB6804331846FFF776F9BB68DB6A01229A40174B1B681343164A1360BB68DA6A13469A
:400EC0009B0013449B00134A1A44BB68043319461046FFF703F905E0BB68183319460E48FFF7FCF8BB68DA6A0C4B1B68DB6A9A4205D90123FB600A4B01221A6001E0002302
:400F0000FB60FB6818461037BD4680BDB482FF1F9482FF1FB881FF1F4C82FF1FB481FF1FA082FF1F80B483B000AF7860064B1A687B681A60054B1A687B685A6000BF0C3721
:400F4000BD4680BC704700BFA482FF1F9082FF1F80B586B000AF7860396000F045FA1D4B1B683B617B685B683A69D31AFB603B681B68B3F1FF3F02D100237B6123E07B68B6
:400F80001A68154B1B689A4207D07B685A683B699A4202D801237B6115E03B681A68FB689A420BD93B681A68FB68D21A3B681A607868FFF7B7FF00237B6104E03B68002218
:400FC0001A6001237B6100F027FA7B6918461837BD4680BD9082FF1FA482FF1F80B400AF034B01221A6000BFBD4680BC704700BFA082FF1F80B582B000AF786000F042F887
:40100000FCE700BF80B582B000AF00237B600CE07A6813469B0013449B00124A13441846FFF730F87B6801337B607B68042BEFD90D48FFF727F80D48FFF724F80C48FFF730
:4010400021F80C48FFF71EF80B48FFF71BF80B4B054A1A600A4B054A1A6000BF0837BD4680BD00BFB881FF1F1C82FF1F3082FF1F4C82FF1F6082FF1F7882FF1F4482FF1F96
:401080004882FF1F80B582B000AF19E000F0ACF90F4BDB68DB687B607B6804331846FFF779F80C4B1B68013B0A4A13600A4B1B68013B094A136000F0AFF9786800F00EF8E5
:4010C000054B1B68002BE1D100BF0837BD4680BD6082FF1F8C82FF1F7482FF1F80B582B000AF78607B681B6B184600F0A1FA786800F09EFA00BF0837BD4680BD80B483B075
:4011000000AF0C4B1B681B68002B04D10A4B4FF0FF321A6008E0074B1B68DB68DB687B607B685B68044A136000BF0C37BD4680BC704700BF4482FF1FAC82FF1F80B584B08F
:4011400000AF78607B68BB600023FB607B68002B4FD0BB685B6C5A1EBB685A64BB68DA6ABB681B6C9A4244D0BB685B6C002B40D1BB6804331846FFF70DF80346002B15D1C8
:40118000BB68DA6A1D4913469B0013449B000B441B68002B0AD1BB68DB6A012202FA03F3DA43174B1B681340154A1360BB681A6CBB68DA62BB68DB6AC3F10502BB689A61B7
:4011C000BB68DB6A01229A400D4B1B6813430C4A1360BB68DA6A13469B0013449B00074A1A44BB68043319461046FEF777FF0123FB60FB6818461037BD4680BDB881FF1FFC
:401200009482FF1F80B584B000AF78603960294B1B68FB60284B1B6804331846FEF7BAFF0346002B0BD1244B1B68DB6A012202FA03F3DA43214B1B681340204A13607B68AB
:40124000B3F1FF3F0AD13B68002B07D01A4B1B68043319461A48FEF741FF26E0FA687B681344BB60144B1B68BA685A60BA68FB689A4209D2134B1A680F4B1B6804331946ED
:401280001046FEF74FFF10E00F4B1A680A4B1B68043319461046FEF745FF0C4B1B68BA689A4202D2094ABB68136000BF1037BD4680BD00BF9082FF1FB481FF1F9482FF1F7B
:4012C0007882FF1F4882FF1F4482FF1FAC82FF1F80B485B000AFF860B9607A60FB68043BFB60FB684FF080721A60FB68043BFB60BB6823F00102FB681A60FB68043BFB6040
:40130000084AFB681A60FB68143BFB607A68FB681A60FB68203BFB60FB6818461437BD4680BC70472913000080B483B000AF00233B604FF0A00383F31188BFF36F8FBFF334
:401340004F8F7B6000BF3B68002BFCD000BF0C37BD4680BC704700BF0000000000000000074B19680868B0E8F00F80F30988BFF36F8F4FF0000080F311884EF00D0E7047BB
:40138000B481FF1F00BF00BF06480068006880F3088862B661B6BFF34F8FBFF36F8F00DF00BF00BF08ED00E080B500AF0C4A0C4B1B6843F460031360094A094B1B6843F01C
:4013C0006043136000F088F8064B00221A60FFF7DBFFFFF7D1FCFFF7A7FF0023184680BD20ED00E0CC80FF1F80B483B000AF4FF0A00383F31188BFF36F8FBFF34F8F7B6014
:40140000044B1B680133034A136000BF0C37BD4680BC7047CC80FF1F80B483B000AF094B1B68013B074A1360064B1B68002B04D100237B607B6883F3118800BF0C37BD46CE
:4014400080BC7047CC80FF1F0000000000000000EFF30980BFF36F8F0D4B1A6820E9F00F10602DE908404FF0A00080F31188FFF783FC4FF0000080F31188BDE8084019682B
:401480000868B0E8F00F80F30988BFF36F8F7047B481FF1F00BF00BF80B582B000AF4FF0A00383F31188BFF36F8FBFF34F8F3B60FFF7BAFB0346002B03D0064B4FF08052B3
:4014C0001A6000237B607B6883F3118800BF0837BD4680BD04ED00E080B400AF084B00221A60084B00221A60074B45F6BF521A60034B07221A6000BFBD4680BC704700BF35
:4015000010E000E018E000E014E000E080B588B000AF786000237B61FFF7EAFA404B1B68002B04D100F0BEF83D4B01221A607B68002B0ED008231A467B6813447B607B681A
:4015400003F00703002B04D07B6823F0070308337B607B68002B57D07B6847F6F772934252D8304BBB612F4B1B68FB6104E0FB69BB61FB691B68FB61FB695A687B689A4220
:4015800003D2FB691B68002BF1D1FB69264A93423AD0BB691B68082213447B61FB691A68BB691A60FB695A687B68D31A08225200934222D9FA697B681344FB60FB695A68E7
:4015C0007B68D21AFB685A60FB697A685A60FB685B68BB60134B3B6102E03B691B683B613B691B685A68BB689A42F6D33B691A68FB681A603B69FA681A600C4B1A68FB69AE
:401600005B68D31A094A1360FFF780FA7B69002B01D100F0AFF87B6918462037BD4680BDC8020020B8020020C0020020D080FF1F80B586B000AF78607B683B617B68002BE0
:4016400027D008235B423A6913443B613B69FB60FFF74EFAFB685B68BB60104B7B6102E07B691B687B617B691B685A68BB689A42F6D37B691A68FB681A607B69FA681A6047
:40168000FB685A68064B1B681344054A1360FFF73DFA00BF1837BD4680BD00BFB8020020D080FF1F80B483B000AF0F4B23F007037B600E4A7B6813600C4B00225A600C4BF6
:4016C00047F6F8725A600A4B00221A607B683B603B6847F6F8725A603B68054A1A6000BF0C37BD4680BC7047C082FF1FB8020020C002002080B500AF00F008F800F048F892
:4017000000F0EEFAFFF7BEF9FEE700BF80B500AF0C4B0D4ADA620B4B0C4A9A63094B0C4ADA6301F035FF01F0CFF801F00BFC01F0E1FC01F0A5FD02F061F9022000F002FB91
:4017400000BF80BD0080FF1F61130000511400009914000080B485B000AF786039604FF0A00383F31188BFF36F8FBFF34F8FFB60FEE700BF80B483B000AF4FF0A00383F322
:401780001188BFF36F8FBFF34F8F7B60FEE700BF80B582B002AF002201210120FEF77EFD02462E4B1A60002201210120FEF776FD02462A4B5A60002201210120FEF76EFDA0
:4017C0000246264B9A60002202210120FEF766FD0246234B1A60002202210120FEF75EFD0246204B1A6000230193022300931E4B64221E491E48FEF7F5FF1E4A0023019332
:4018000002230093134664221B491948FEF7EAFF1A4A00230193022300931346642216491348FEF7DFFF002301930223009300234FF47A7212491348FEF7D4FF0023019339
:401840000423009300234FF47A720F490F48FEF7C9FF00F0EFF900BFBD4680BD10030020200300201C0300203C49000040490000911800003D490000484900003E4900000F
:40188000504900005919000054490000A11B000080B586B000AF78607B687B617B691B78012B1DD0022B35D0002B52D1294B1B6807F10F014FF0FF321846FEF7E1FD3861CA
:4018C0003B69012B40D1FB7B002B04D00623184601F0C8FB38E01323184601F0C3FB33E01C4B5B6807F10F014FF0FF321846FEF7C7FD38613B69012B28D1FB7B002B04D059
:401900000623184601F0BEFB20E01323184601F0B9FB1BE00F4B9B6807F10F014FF0FF321846FEF7ADFD38613B69012B10D1FB7B002B04D00623184601F06AFC08E01323B5
:40194000184601F065FC03E000BFA7E700BFA5E700BFA3E71003002090B587B000AF64233B610023FB75FB7D83F00103DBB2002B04D001F05FFD0123FB75F4E7012001F096
:4019800071FD0346002BEED0FB7D002BEBD001F089FD0346184602F04BFB4FF00002224B02F0D6FC03460C46184621461CA3D3E9002302F0A3FB03460C461846214602F081
:4019C000AFFD0346FB60F86800F036F8B8601749B86802F0F5FD03467B60786802F040FF03467B80124B1A68124913465B0013445B000B447A881A800D4B1B6801330C4A34
:401A000013600B4B1B682822934202D1084B00221A600023FB753869FFF710F8A3E700BF000000000070A7400000B04000007A44CC02002024030020B0B584B000AF7860A4
:401A4000534B184602F006FB4FA3D3E9002302F0A1F903460C46184621464FF000024D4B02F076FC03460C4625461C464A4B184602F0F0FA44A3D3E9002302F08BF90246C2
:401A80000B46104619464FF00002424B02F060FC02460B462046294602F07CF903460C461A4623464FF000003A4902F051FC03460C461846214602F033FD0346FB60F86844
:401AC00002F0C8FA04460D46314B184602F0C2FA2DA3D3E9002302F05DF902460B462046294602F00BFB03460C46184621464FF00002284B02F02CFC03460C461A4623461E
:401B00004FF00000254902F045F903460C461846214602F005FD0346BB60F86802F09AFA04460D46786802F095FA17A3D3E9002302F030F902460B462046294602F0DEFA40
:401B400003460C46184621464FF00002114B02F0FFFB03460C4625461C46B86802F07AFA02460B462046294602F016F903460C461846214602F0D4FC034618461037BD460C
:401B8000B0BD00BFAFF3008000000000007097400080BB4400000840140EFE4400001C4080B584B000AF4FF4FA63BB600123FB73FB7B002B03D00023FB7301F0EFFD0D4B6A
:401BC0001B78DBB2002BF3D001F00AFE002001F0FBFE0346FB80084B1868B91D00234FF0FF32FEF7A3FB0123FB73B868FEF726FFDEE700BF0C0300201C03002080B582B01C
:401C000000AF094B1B68B91D4FF0FF321846FEF737FC064801F0C2FCFB88184601F0F8FC034801F0BBFCECE71C030020604900006C49000080B582B002AF00230193012339
:401C400000930023642208490848FEF7CBFD00230193032300930023642205490548FEF7C1FD00BFBD4680BD70490000791C00007C490000FD1B000080B582B000AF0123FF
:401C8000FB700023BB70C8237B60FB78002B04D00023FB700123BB7003E00123FB700023BB700E4B1868F91C00234FF0FF32FEF73DFB0A4B5868B91C00234FF0FF32FEF776
:401CC00035FB064B9868F91C00234FF0FF32FEF72DFB7868FEF7B2FED7E700BF1003002080B582B002AF002301930A23009300234FF47A7210491148FEF774FD0022042129
:401D00000120FEF7CBFA02460D4B1A60002204210120FEF7C3FA0246094B5A60002204210120FEF7BBFA0246054B9A6000F046F800BFBD4680BD00BF94490000651D00004F
:401D40001404002080B582B000AF0346FB80FB88184600F0B5F800F0C3F800BF0837BD4680BD00BF80B500AF00F09CF80346002B1AD00E4800F0BCF80D4B186800234FF031
:401D8000FF320A49FEF7D2FA094B586800234FF0FF320849FEF7CAFA054B986800234FF0FF320549FEF7C2FA00BF80BDD802002014040020DC020020E002002080B582B0B6
:401DC00002AF002301930A23009300234FF47A7203490448FEF706FD00BFBD4680BD00BF9C490000E91D000080B584B000AF284B1B68391D4FF0FF321846FEF741FB244B5E
:401E000058683B1D04334FF0FF321946FEF738FB1F4B98683B1D08334FF0FF321946FEF72FFB1C4801F0BAFB7B68184602F018FD03469BB2184601F0EBFB174801F0AEFB5B
:401E4000164801F0ABFBBB68184602F009FD03469BB2184601F0DCFB0F4801F09FFB104801F09CFBFB68184602F0FAFC03469BB2184601F0CDFB084801F090FB064801F015
:401E80008DFB054801F08AFB00BF1037BD4680BD14040020A8490000B0490000B4490000BC49000080B500AF40F2022000F0DEF80346002B14BF01230023DBB2184680BDB9
:401EC00080B582B000AF0346FB80FB8819464FF48C4000F099F800BF0837BD4680BD00BF80B500AF0021102000F08EF800BF80BD80B58EB000AF786007F1180300221A6049
:401F00005A609A60DA601A8200237B6100233B610023FB604FF000037B634FF000033B634FF00003FB624FF4407000F049F807F118031221184600F0D7F83B7E1A067B7EE3
:401F40001B041A43FB7E1B0213433A7F13437B61BB7F1A06FB7F1B041A4397F821301B02134397F8222013433B6197F824301A0697F825301B041A4397F827301B021343EC
:401F800097F828201343FB6007F1140304221946786802F0B1FC7B68043307F110010422184602F0A9FC7B68083307F10C010422184602F0A1FC00BF3837BD4680BD00BFE5
:401FC00080B584B000AF0346FB80FB881B0A9BB2DBB23B73FB88DBB27B7307F10C0100230222612000F05CFE00F066FF034603F00203002B00D1F7E700BF00F085FF00BF5E
:402000001037BD4680BD00BF80B584B000AF03460A46FB801346BB8007F1080300221A601A71FB881B0A9BB2DBB23B72FB88DBB27B72BB881B0A9BB2DBB2BB72BB88DBB205
:40204000FB7207F1080302330221184600F06AF80346FB73FB7B3B7307F108030521184600F026F800BF1037BD4680BD80B584B000AF0346FB8007F10C0300210A461A8044
:402080000A469A70FB881846FFF79AFF07F10C030321184600F028F83B7B1B021AB27B7B1BB213431BB29BB218461037BD4680BD80B582B000AF78600B46FB70FA780023C7
:4020C0007968612000F0ECFD00F0F6FE034603F00203002B00D1F7E700BF00F015FF00BF0837BD4680BD00BF80B582B000AF78600B46FB70322000F0FFFAFA78002379688B
:40210000612000F051FE00F0D7FE034603F00103002B00D1F7E700BF00F0F6FE00BF0837BD4680BD80B485B000AF78600B46FB70FF237B730023BB7320E0BB7B7A681344A3
:402140001A787B7B53407B730823FB7310E097F90D30002B06DA7B7B5B00DBB283F031037B7302E07B7B5B007B73FB7B013BFB73FB7B002BEBD1BB7B0133BB73BA7BFB78A4
:402180009A42DAD37B7B18461437BD4680BC704780B582B000AF786039603A680021786802F0B5FB00BF0837BD4680BD80B584B000AFF860B9607A607A68B968F86802F03F
:4021C0009BFB00BF1037BD4680BD00BF80B483B000AF0346FB71FEE780B487B000AF7860396000233B6100237B6127E07B699B007A6813441B68BB60BB68FB73BB6823F027
:40220000FF03BB6014E03B695B003A6813441B781A46BB68134419463B695B003A6813445B780B703B6901333B61FB7B013BFB73FB7B002BE7D17B6901337B617B691D2B76
:40224000D4D900BF1C37BD4680BC704780B582B000AF404B40F252721A803F4B18221A703E4B45F6BF521A803D4B18221A7004223C493D48FFF79AFF3C4B02221A704FF03C
:40228000402308221A703A4B03221A70394B3A4A1278D2B21A70394B08221A80384B41F251221A800023FB7019237B6014E0FB785B00DAB2334B1B78DBB203F00103DBB213
:4022C0001343DBB203F00303FB704FF4F07001F0E3FC7B68013B7B607B68002B02D0FB78032BE4D17B68002B02D10320FFF76EFF254B4FF480721A80234B07221A70234BBF
:4023000000221A70224B48221A701F4B00221A70204B02221A70204B04221A701F4A1F4B1B78DBB243F00303DBB213701C4A1C4B1B78DBB243F00103DBB21370194A194B0F
:402340001B78DBB263F07F03DBB2137000BF0837BD4680BD80400040824000408440004086400040D8030048004100400043004000420040A1460040080100492242004048
:402380002042004025420040044000400640004008400040014000400B400040A2430040A1430040A043004080B582B000AF1E4B1B78FB711D4B1B78BB711D4B1B787B713E
:4023C0001C4AFB7903F00703DBB213701A4AFB791B09DBB21370154ABB7943F00303DBB21370134A7B7943F00303DBB21370134B08221A70124B80221A70124B80221A7050
:40240000114B20221A700A2000F098F9084A7B791370064ABB7913700C4B44221A7000BF0837BD4680BD00BFCF010049F8460040F94600406E5800406F5800400D510040F4
:4024400001590040205B0040235B00407658004080B582B000AF72B63D4A3D4B1B78DBB243F00403DBB213700023FB7113E0FA7913465B0013445B00364A13443B603B6814
:402480001A683B689B889BB219461046FFF780FEFB790133FB71FB79072BE8D92E494FF09040FFF799FE2D4B2D4A1A602D4A2D4B1B78DBB243F00203DBB213702A4A2A4B27
:4024C0001B78DBB243F00203DBB21370274A274B1B78DBB243F04003DBB21370244A244B1B78DBB243F01003DBB213700A2221492148FFF75BFE0A2220492148FFF756FE02
:40250000082220492048FFF751FE08221F492048FFF74CFE1F4A1F4B1B78DBB243F00803DBB213701C4B61221A70FFF78FFE1A4B81221A70194B01221A70FFF735FF0E22EC
:402540000A491748FFF732FE00BF0837BD4680BDE8460040C449000078000048D8020140040404C40350014013500140A0430040C2430040B003004800510040BC030048EC
:40258000C0510040C803004812510040D003004822510040224300400048004004000840B043004080B500AF02F07AF903461B680C2B00D1FEE7FEE780B586B000AF224B2C
:4025C0007B61224B3B61204B7B6135E03B691B68FB603B695B68BB603B699B683B6000237B600CE0FB681A68BB681A60BB680433BB60FB680433FB607B6804337B607A68A7
:402600003B689A42EED13B69DB683B6000237B6008E0BB6800221A60BB680433BB607B6804337B607A683B689A42F2D13B6910333B617B69013B7B617B69002BC6D102F090
:4026400035F9FFF757F8FEE701000000884A000080B582B000AF184B184A1A60184A184B1B6843F40073136000237B600FE07B68032B04D8134A7B6852F8233000E0124B81
:4026800012497A6841F822307B6801337B607B682F2BECD90E4B1B78DAB20E4B1A700E4B0A4A1A60FFF7D4FE0C4B00221A6000BF0837BD4680BD00BF0CED00E00004FA0548
:4026C00014ED00E000000000A52500000080FF1FBC760040C480FF1F08ED00E0C080FF1F80B483B000AF0346FB7101BE00BF0C37BD4680BC704700BF80B582B000AF78605B
:4027000008E00C4B1B68184601F0C6FA7B68A3F500437B607B68B3F5004FF2D8064B1B687A6802FB03F3184601F0B6FA00BF0837BD4680BDE080FF1FD880FF1F80B582B04A
:4027400000AF0346FB80FB88054A127802FB03F3184601F0A1FA00BF0837BD4680BD00BFDC80FF1F80B584B000AF03463960FB710F4B1B68FB60FB791F2B02D90020FFF7E9
:40278000AFFFFB7903F01F0310339B00FA6813441B68BB60FB7903F01F0310339B00FA6813443A681A60BB6818461037BD4680BD08ED00E080B582B000AF03460A46FB7179
:4027C0001346BB71BB79072B02D90020FFF788FFFB791F2B02D90020FFF782FFFB7903F01F0303F1604303F56443BA795201D2B21A7000BF0837BD4680BD00BF80B500AF12
:40280000144B02221A70144B81221A70134B08221A70134B0F221A70124B00221A70124B4FF400421A6007210F20FFF7C3FF0F490F20FFF797FF0E4B10221A700D4B0022BE
:402840001A700D4B00221A700C4B00221A7000BF80BD00BFD6490040C8490040CA490040DB490040DC49004080E100E0F928000020040020260400202E04002024040020B6
:4028800080B582B000AF01F00FFA0346FB710C4A0B4B1B78DBB243F00403DBB21370094A084B1B78DBB243F00403DBB21370FB79184601F0FDF900BF0837BD4680BD00BF77
:4028C000A5430040B543004080B500AF084B1B78002B04D1FFF792FF054B01221A70FFF7CFFF044B4FF400421A6000BF80BD00BFE402002000E100E080B582B000AFA74B8E
:402900001B78FB71A64B1B78DBB203F04003DBB2002B00F0A981FB7903F00103002B00F080819F4B1B78DBB2453B052B00F2758101A252F823F000BF51290000772A00007C
:402940001B2C00001B2C000051290000632B0000FB7923F02003FB71FB7903F00A03DBB2082B46D18E4B1B78DBB2452B3AD18D4B1B78DBB2002B0FD08B4A8C4B1B681B7828
:40298000DBB21370854B04221A70894B01221A70834B46221A7044E1864B1B78DBB203F00203002B0FD0844B1B78DBB243F00A03DAB2814B1A707A4B60221A707F4B4FF43F
:4029C00000421A602DE17E4A7D4B1B78DBB243F01003DBB213707B4B10221A706F4B04221A701EE16D4B00221A706D4B4A221A7017E1FB7903F00A03DBB20A2B37D16E4B1B
:402A00001B78DBB263F05F03DAB26B4B1A70694B1B78DBB203F00203002B19D0604B1B78DBB203F00803002B01D0092300E00A23DAB2614B1B78DBB21343DAB25E4B1A70AA
:402A4000574B60221A705D4B4FF400421A60E8E05B4A5B4B1B78DBB243F01003DBB21370584B10221A704D4B04221A70D9E00020FFF736FED5E0FB7903F00203002B42D16F
:402A80004B4B1B78DAB2474B1B78DBB29A4214D2454A464B1B6846490978C9B20B441B78DBB213703D4B04221A70414B1B78DBB20133DAB23E4B1A70B3E03E4B1B78DBB2DA
:402AC00003F00203002B0FD03B4B1B78DBB243F00A03DAB2384B1A70314B60221A70374B4FF400421A609CE0354A354B1B78DBB243F01003DBB21370324B10221A70274BB0
:402B000004221A708DE02B4B1B78DBB203F00203002B0FD0284B1B78DBB263F06503DAB2254B1A701E4B60221A70244B4FF400421A6076E0224A224B1B78DBB243F0100394
:402B4000DBB213701F4B10221A70144B04221A70194B1B78DBB263F06F03DAB2164B1A705FE0194B1B68194A1278D2B213440E4A1278D2B21A70154B1B78DBB20133DAB232
:402B8000124B1A70114B1B78DAB2114B1B78DBB29A421FD2014B10221A7042E0D74900402004002025040020D849004030040020240400202C0400202604002080E100E07B
:402BC000D6490040D9490040280400202E0400202D0400202C4B1B78DBB203F00203002B0FD02A4B1B78DBB243F00903DAB2274B1A70274B60221A70264B4FF400421A6042
:402C00000FE0254A244B1B78DBB243F01003DBB21370224B00221A7003E00020FFF760FD00BFFB7903F02003002B28D0184B1B78DBB203F00803002B01D0012300E00223D0
:402C4000DAB2124B1B78DBB21343DAB20F4B1A70114A114B1B78DBB223F01003DBB213700B4B10221A700AE0094B1B78DBB203F01003DBB2002B02D1054B10221A7000BFAC
:402C80000837BD4680BD00BF2C040020260400202004002080E100E0D6490040D749004080B485B000AF396011461A460346FB710B46BB7113467B710223FB733B68002BB8
:402CC00056D02E4B1B78DBB2102B0CD12C4B1B78DBB203F00803002B02D10023FB7315E00123FB7312E0254B1B78DBB2602B0DD10023FB73234B4FF400421A60224B1B7869
:402D0000DBB223F00803DAB21F4B1A70FB7B002B2ED11A4B45221A701C4B00221A701C4ABB7913701B4A3B6813601B4A7B791370154B1B78DBB223F00203DAB2124B1A70E0
:402D4000164AFB795B00DBB213707B7903F00103002B06D00A4B12221A70114B04221A7002E0074B01221A700E4B4FF400421A60FB7B18461437BD4680BC70472004002077
:402D8000D949004080E200E0260400202404002025040020300400202C040020D8490040D749004000E100E080B485B000AF396011461A460346FB710B46BB7113467B718F
:402DC0000223FB733B68002B59D0304B1B78DBB2102B0CD12E4B1B78DBB203F00803002B02D10023FB7315E00123FB7312E0274B1B78DBB2602B0DD10023FB73254B4FF4B8
:402E000000421A60244B1B78DBB223F00803DAB2214B1A70FB7B002B31D11C4B49221A701E4B00221A701E4ABB7913701D4A3B6813601D4A7B791370174B1B78DBB223F084
:402E40000103DAB2144B1A70184AFB795B00DBB243F00103DBB213707B7903F00103002B06D00B4B12221A70114B04221A7002E0074B01221A700F4B4FF400421A60FB7B18
:402E800018461437BD4680BC704700BF20040020D949004080E200E0260400202E0400202D040020280400202C040020D8490040D749004000E100E080B483B000AF0E4B52
:402EC0004FF400421A600D4B1B78FB710C4B1B78DBB203F04003DBB2002B03D0FB7943F00403FB71074B4FF400421A60FB7918460C37BD4680BC704780E100E02604002043
:402F00002004002000E100E080B483B000AF0A4B4FF400421A60094B1B78FB71074B00221A70074B4FF400421A60FB7918460C37BD4680BC704700BF80E100E0260400202B
:402F400000E100E080B500AF064B1B78002B04D100F00AF8034B01221A7000F045F800BF80BD00BFE502002080B582B000AF1C4B1B78DBB223F03F03FB71194AFB7943F084
:402F80000903DBB21370174A164B1B78DBB243F00103DBB21370FF2000F036F8FF2000F051F8062000F05EF8132000F06BF8002000F078F800F078FE0346BB71094A094B43
:402FC0001B78DBB243F01003DBB21370BB79184600F06EFE00F028F800BF0837BD4680BD706400409064004080B400AF054A054B1B78DBB263F07F03DBB2137000BFBD468E
:4030000080BC70477064004080B483B000AF0346FB71044AFB79137000BF0C37BD4680BC704700BF0064004080B500AF01E000F055F800F047F8034603F01003002BF6D1AC
:4030400000BF80BD80B483B000AF0346FB71044AFB79137000BF0C37BD4680BC704700BF4064004080B483B000AF0346FB71044AFB79137000BF0C37BD4680BC704700BFE2
:403080002064004080B483B000AF0346FB71044AFB79137000BF0C37BD4680BC704700BF3064004080B483B000AF0346FB71044AFB79137000BF0C37BD4680BC704700BFEA
:4030C0008064004080B400AF034B1B78DBB21846BD4680BC704700BF6064004080B400AF034B1B78DBB21846BD4680BC704700BF5064004080B500AF064B1B78002B04D124
:4031000000F00AF8034B01221A7000F043F800BF80BD00BFE602002080B582B000AF1B4B1B78DBB223F03F03FB71184AFB7943F00903DBB21370164A154B1B78DBB243F01F
:403140000103DBB21370FF2000F034F8FF2000F04FF8062000F05CF8002000F069F800F0A3FD0346BB710A4A094B1B78DBB243F01003DBB21370BB79184600F099FD00F0A4
:4031800029F800BF0837BD4680BD00BF756400409564004080B400AF054A054B1B78DBB263F07F03DBB2137000BFBD4680BC70477564004080B483B000AF0346FB71044A31
:4031C000FB79137000BF0C37BD4680BC704700BF0564004080B500AF01E000F045F800F037F8034603F01003002BF6D100BF80BD80B483B000AF0346FB71044AFB7913701A
:4032000000BF0C37BD4680BC704700BF4564004080B483B000AF0346FB71044AFB79137000BF0C37BD4680BC704700BF2564004080B483B000AF0346FB71044AFB7913704E
:4032400000BF0C37BD4680BC704700BF8564004080B400AF034B1B78DBB21846BD4680BC704700BF6564004080B400AF034B1B78DBB21846BD4680BC704700BF55640040A4
:4032800080B500AF064B1B78002B04D100F00AF8034B01221A7000F029F800BF80BD00BFE702002080B500AF102000F057F907210020FFF77FFA0A490020FFF753FA094A70
:4032C000084B1B78DBB243F00603DBB213700C2000F086F8044B00221A8000BF80BD00BF51350000015900403804002080B582B000AF00F0D9FC0346FB712E4A2D4B1B7820
:40330000DBB243F00103DBB213702B4A2A4B1B78DBB243F00103DBB21370284A274B1B78DBB243F00103DBB21370254A244B1B78DBB243F00103DBB21370224B1B78BB71AC
:40334000BB7943F00203BB71BB7943F00103BB711C4ABB7913701C4B18221A701B4A1B4B1B78DBB243F04003DBB21370174A174B1B78DBB223F00303DBB21370144BCE220A
:403380001A70144B02221A70134A134B1B78DBB243F00803DBB213700A20FFF7CFF90F4B01221A60FB79184600F082FC00BF0837BD4680BDAB430040BB430040A143004060
:4033C000B14300400359004006590040055900400059004014460040275B004080E200E080B584B000AF0346FB71FB790A2B07D00C2B02D0082B06D008E0C223FB730BE004
:403400008223FB7308E04223FB7305E0C223FB730020FFF765F900BF054AFB7B1370FB79184600F057F800BF1037BD4680BD00BF0259004080B400AF094A094B1B78DBB2B0
:4034400023F00403DBB21370054A054B1B78DBB243F00103DBB2137000BFBD4680BC70470059004080B584B000AF0346FB710C4B1B78DBB203F00103FB73FB7B012B02D0B1
:40348000FB79002BF3D0FB7B012B04D10120FFF755F9034B1B78FB7B18461037BD4680BD0159004080B483B000AF084B1B88FB80074B1B881BB29BB2FA88D31A9BB21BB2D9
:4034C00018460C37BD4680BC704700BFA05B00403A04002080B584B000AF0346FB71FB790A2B08D00C2B02D0082B08D00BE04FF48053FB600DE04FF48063FB6009E04FF485
:403500008073FB6005E00023FB600020FFF7E8F800BF0C4B00221A80FB6842F2107202FB03F303F58063002B01DA03F2FF73DB121A46054B1A60054B00221A8000BF103795
:40354000BD4680BD3C040020340400203A04002080B400AF00BFBD4680BC704780B483B000AF0346FB710949084B1B78DBB25AB297F9073023F007035BB213435BB2DBB2E0
:403580000B7000BF0C37BD4680BC70470241004080B400AF00BFBD4680BC704780B584B000AF78600123FB737B681B78BB730BE0BB7B184600F080FBFB7B7A6813441B782B
:4035C000BB73FB7B0133FB73BB7B002BF0D100BF1037BD4680BD00BF80B582B000AF0346FB71FB791B09DBB21A46084B9B5C184600F062FBFB7903F00F03044AD35C1846C5
:4036000000F05AFB00BF0837BD4680BDF449000080B582B000AF0346FB80FB881B0A9BB2DBB21846FFF7D8FFFB88DBB21846FFF7D3FF00BF0837BD4680BD00BF80B400AF2D
:40364000034B01221A7000BFBD4680BC704700BF0C03002080B582B000AF1420FFF76EF8FF2000F0ABFA002000F0DCF90A20FFF765F8012000F0D6F90520FFF75FF800207E
:4036800000F09CFA002000F0CDF900F0DBF90346FB71FB7918460837BD4680BD80B582B000AF0346FB711420FFF748F8002000F0B9F9FB79002B03D13220FFF73FF802E019
:4036C0000A20FFF73BF8012000F0ACF900BF0837BD4680BD80B584B000AF0346FB71FF2000F06CFA0023FB730EE0FA79FB7B42FA03F3DBB203F00103BB73BB7B1846FFF76B
:40370000CDFFFB7B0133FB73FB7B072BEDD900BF1037BD4680BD00BF80B582B000AF0023FB710AE0FB791B4A1B499B0013440A4610681860FB790133FB71FB79072BF1D9B0
:403740000023BB71002000F06DF9FF2000F036FA4FF4F070FEF7F2FF012000F063F90520FEF7ECFF002000F029FA002000F05AF93720FEF7E3FF00F065F90346BB71C820DB
:40378000FEF7DCFFBB79DB43DBB218460837BD4680BD00BFEC020020F080FF1F80B500AFFFF7BAFF03461A460B4B1A700A4B1B78002B04D1094B01221A7000230AE0CC2024
:4037C000FFF788FF4420FFF785FF012000F006FA014B1B78184680BD3E0400200C03002080B58AB000AF3B1D20220021184601F08EF8724B1B78DBB2002B01D10023D9E0EE
:403800006E4B00221A706E4B1B78002B01D10023D0E0FFF781FF03461A46694B1A70684B1B78002B01D10023C4E0654B1B7887F82530002387F8273016E097F8273097F825
:40384000251097F8272041FA02F2D2B202F00102D2B29B0007F128010B4403F8222C97F82730013387F8273097F82730002BE4D0CC20FFF72FFFBE20FFF72CFF002387F857
:40388000263042E0FFF7E6FE034687F82430002387F8273030E097F827309B0007F12802134413F8223C002B21D097F8272097F827309B0007F128010B4433F8243C19B2F5
:4038C00097F8240097F8273040FA03F303F0010097F8263000FA03F31BB20B431BB299B2930007F1280213440A4623F8242C97F82730013387F8273097F82730002BCAD0A1
:4039000097F82630013387F8263097F826300B2BB8D9002387F8273046E097F827309B0007F12802134413F8223C002B1FD097F827309B0007F12802134433F8243CB3F524
:40394000006F1ED397F8272097F827309B0007F128010B4433F8243CA3F5805399B2930007F1280213440A4623F8242C09E097F827309B0007F1280213444FF4704223F825
:40398000242C97F8273097F827200E49920007F1280002449B000B44243A1068186097F82730013387F8273097F82730072BB4D997F8253018462837BD4680BD0C030020CF
:4039C0003E040020EC02002080B485B000AF0346FB71FB79084A32F82330FB81B7F90E30642202FB03F308331B091BB218461437BD4680BC704700BFEC02002080B500AFE8
:403A0000064800F0FBF840F2EE2000F0A9F800F05DF8034B00221A7000BF80BD3D3600000C03002080B483B000AF0346FB71044AFB79137000BF0C37BD4680BC704700BFE0
:403A40007164004080B400AF034B1B78DBB21846BD4680BC704700BF6264004080B582B000AF40F2ED2000F05FF840F2ED2000F077F800F019F90346FB710B4A0A4B1B7899
:403A8000DBB243F01003DBB21370FB79184600F00FF900F075F800F083F8002000F028F800BF0837BD4680BD9364004080B400AF054A054B1B78DBB263F07F03DBB2137065
:403AC00000BFBD4680BC70477364004080B500AF064B1B78002B04D1FFF7C0FF034B01221A70FFF7E3FF00BF80BD00BFE802002080B483B000AF0346FB71044AFB791370D5
:403B000000BF0C37BD4680BC704700BF8364004080B400AF034B1B78DBB21846BD4680BC704700BF6364004080B483B000AF0346FB80044AFB88138000BF0C37BD4680BCBD
:403B4000704700BF4468004080B400AF034B1B889BB21846BD4680BC704700BF8468004080B483B000AF0346FB80044AFB88138000BF0C37BD4680BC704700BF04680040E2
:403B800080B400AF054A054B1B78DBB243F01003DBB2137000BFBD4680BC70477364004080B500AF01E0FFF7CFFFFFF7B1FF034603F00803002BF6D100BF80BD80B483B076
:403BC00000AF0346FB71044AFB79137000BF0C37BD4680BC704700BF7264004080B483B000AF0346FB71044AFB79137000BF0C37BD4680BC704700BF7464004080B582B009
:403C000000AF786000F03CF8786800F009F8072000F018F800F028F800BF0837BD4680BD80B485B000AF7860054B1B68FB60FB6844337A681A6000BF1437BD4680BC70473F
:403C400008ED00E080B483B000AF0346FB71054AFB795B01DBB2137000BF0C37BD4680BC704700BF01E400E080B400AF034B02221A6000BFBD4680BC704700BF00E100E0F5
:403C800080B400AF034B02221A6000BFBD4680BC704700BF80E100E00230800803D000BF01380046FCD17047EFF3108072B6704780F31088704700BFFEB5494652465B46E4
:403CC0000EB40746244909688A46244A12682448022100F047F8030020480068C018204900F040F8143883460121C9430C4601250026FFF7D9FF814651460B7823400B70B7
:403D000058460130FFF7C8FF3800F04028400B78234003430B705846FFF7BEFF0136072EF2D9002001300138013001200B78234003430B7058460430FFF7AEFF4846FFF77C
:403D4000B7FF00BF00BF00BF0EBC894692469B46FEBD00BFAFF30080EC80FF1FD480FF1F00C20100002902D0B0FBF1F0704708B14FF0FF3000F008B80029F8D00246B0FBAA
:403D8000F1F000FB11217047704700BF81F0004102E000BF83F0004330B54FEA41044FEA430594EA050F08BF90EA020F1FBF54EA000C55EA020C7FEA645C7FEA655C00F03F
:403DC000E2804FEA5454D4EB5555B8BF6D420CDD2C4480EA020281EA030382EA000083EA010180EA020281EA0303362D88BF30BD11F0004F4FEA01314FF4801C4CEA113156
:403E000002D0404261EB410113F0004F4FEA03334CEA133302D0524263EB430394EA050F00F0A780A4F10104D5F1200E0DDB02FA0EFC22FA05F2801841F1000103FA0EF269
:403E4000801843FA05F359410EE0A5F120050EF1200E012A03FA0EFC28BF4CF0020C43FA05F3C01851EBE37101F0004507D54FF0000EDCF1000C7EEB00006EEB0101B1F563
:403E8000801F1BD3B1F5001F0CD349085FEA30004FEA3C0C04F101044FEA445212F5800F80F09A80BCF1004F08BF5FEA500C50F1000041EB045141EA050130BD5FEA4C0CB4
:403EC000404141EB010111F4801FA4F10104E9D191F0000F04BF01460020B1FA81F308BF2033A3F10B03B3F120020CDA0C3208DD02F1140CC2F10C0201FA0CF021FA02F1DE
:403F00000CE002F11402D8BFC2F1200C01FA02F120FA0CFCDCBF41EA0C019040E41AA2BF01EB0451294330BD6FEA04041F3C1CDA0C340EDC04F11404C4F1200220FA04F09C
:403F400001FA02F340EA030021FA04F345EA030130BDC4F10C04C4F1200220FA02F001FA04F340EA0300294630BD21FA04F0294630BD94F0000F83F4801306BF81F48011FC
:403F80000134013D4EE77FEA645C18BF7FEA655C29D094EA050F08BF90EA020F05D054EA000C04BF1946104630BD91EA030F1EBF0021002030BD5FEA545C05D1400049419D
:403FC00028BF41F0004130BD14F580043CBF01F5801130BD01F0004545F0FE4141F470014FF0000030BD7FEA645C1ABF194610467FEA655C1CBF0B46024650EA013406BF7A
:4040000052EA033591EA030F41F4002130BD00BF90F0000F04BF0021704730B54FF4806404F132044FF000054FF0000150E700BF90F0000F04BF0021704730B54FF480646C
:4040400004F1320410F0004548BF40424FF000013EE700BF42004FEAE2014FEA31014FEA02701FBF12F07F4393F07F4F81F06051704792F0000F14BF93F07F4F704730B592
:404080004FF4607401F0004521F0004120E700BF50EA010208BF704730B54FF000050AE050EA010208BF704730B511F0004502D5404261EB41014FF4806404F132045FEA65
:4040C000915C3FF4DCAE4FF003025FEADC0C18BF03325FEADC0C18BF033202EBDC02C2F1200300FA03FC20FA02F001FA03FE40EA0E0021FA02F11444C1E600BF70B54FF04E
:40410000FF0C4CF4E06C1CEA11541DBF1CEA135594EA0C0F95EA0C0F00F0DEF82C4481EA030621EA4C5123EA4C5350EA013518BF52EA033541F4801143F4801338D0A0FB14
:4041400002CE4FF00005E1FB02E506F00042E0FB03E54FF00006E1FB03569CF0000F18BF4EF0010EA4F1FF04B6F5007F64F5407404D25FEA4E0E6D4146EB060642EAC621EC
:4041800041EA55514FEAC52040EA5E504FEACE2EB4F1FD0C88BFBCF5E06F1ED8BEF1004F08BF5FEA500E50F1000041EB045170BD06F0004646EA010140EA020081EA0301B4
:4041C000B4EB5C04C2BFD4EB0C0541EA045170BD41F480114FF0000E013C00F3AB8014F1360FDEBF002001F0004170BDC4F10004203C35DA0C341BDC04F11404C4F12005AC
:4042000000FA05F320FA04F001FA05F240EA020001F0004221F0004110EBD37021FA04F642EB06015EEA430E08BF20EAD37070BDC4F10C04C4F1200500FA04F320FA05F0DB
:4042400001FA04F240EA020001F0004110EBD37041F100015EEA430E08BF20EAD37070BDC4F1200500FA05F24EEA020E20FA04F301FA05F243EA020321FA04F001F000411B
:4042800021FA04F220EA020000EBD3705EEA430E08BF20EAD37070BD94F0000F0FD101F00046400041EB010111F4801F08BF013CF7D041EA060195F0000F18BF704703F00B
:4042C0000046520043EB030313F4801F08BF013DF7D043EA0603704794EA0C0F0CEA135518BF95EA0C0F0CD050EA410618BF52EA4306D1D181EA030101F000414FF00000F0
:4043000070BD50EA410606BF1046194652EA430619D094EA0C0F02D150EA013613D195EA0C0F05D152EA03361CBF104619460AD181EA030101F0004141F0FE4141F470011F
:404340004FF0000070BD41F0FE4141F4780170BD70B54FF0FF0C4CF4E06C1CEA11541DBF1CEA135594EA0C0F95EA0C0F00F0A7F8A4EB050481EA030E52EA03354FEA013121
:4043800000F088804FEA03334FF0805545EA131343EA12634FEA022245EA111545EA10654FEA00260EF000419D4208BF964244F1FD0404F5407402D25B084FEA3202B61AC2
:4043C00065EB03055B084FEA32024FF480104FF4002CB6EB020E75EB030E22BFB61A754640EA0C005B084FEA3202B6EB020E75EB030E22BFB61A754640EA5C005B084FEA0F
:404400003202B6EB020E75EB030E22BFB61A754640EA9C005B084FEA3202B6EB020E75EB030E22BFB61A754640EADC0055EA060E18D04FEA051545EA16754FEA06164FEABA
:40444000C30343EA52734FEAC2025FEA1C1CC0D111F4801F0BD141EA00014FF000004FF0004CB6E711F4801F04BF01430020B4F1FD0C88BFBCF5E06F3FF6AFAEB5EB030C61
:4044800004BFB6EB020C5FEA500C50F1000041EB045170BD0EF0004E4EEA113114EB5C04C2BFD4EB0C0541EA045170BD41F480114FF0000E013C90E645EA060E8DE60CEA61
:4044C000135594EA0C0F08BF95EA0C0F3FF43BAF94EA0C0F0AD150EA01347FF434AF95EA0C0F7FF425AF104619462CE795EA0C0F06D152EA03353FF4FDAE1046194622E7DA
:4045000050EA410618BF52EA43067FF4C5AE50EA41047FF40DAF52EA43057FF4EBAE12E74FEA4102B2F1E04324BFB3F5001CDCF1FE5C0DD901F0004C4FEAC0024CEA50705D
:40454000B2F1004F40EB830008BF20F00100704711F0804F21D113F13872BCBF01F00040704741F480114FEA5252C2F11802C2F1200C10FA0CF320FA02F018BF40F00100CD
:404580004FEAC1234FEAD32303FA0CFC40EA0C0023FA02F34FEA4303CCE77FEA625307D150EA01331EBF4FF0FE4040F44000704701F0004040F0FE4040F40000704700BFFE
:4045C0004FF0FF0C1CEAD0521EBF1CEAD15392EA0C0F93EA0C0F6FD01A4480EA010C400218BF5FEA41211ED04FF0006343EA501043EA5111A0FB01310CF00040B1F5000FD1
:404600003EBF490041EAD3715B0040EA010062F17F02FD2A1DD8B3F1004F40EBC25008BF20F00100704790F0000F0CF0004C08BF49024CEA502040EA51207F3AC2BFD2F169
:40464000FF0340EAC250704740F400004FF00003013A5DDC12F1190FDCBF00F000407047C2F10002410021FA02F1C2F1200200FA02FC5FEA310040F1000053EA4C0308BFDF
:4046800020EADC70704792F0000F00F0004C02BF400010F4000F013AF9D040EA0C0093F0000F01F0004C02BF490011F4000F013BF9D041EA0C018FE70CEAD15392EA0C0F81
:4046C00018BF93EA0C0F0AD030F0004C18BF31F0004CD8D180EA010000F00040704790F0000F17BF90F0004F084691F0000F91F0004F14D092EA0C0F01D142020FD193EAF6
:404700000C0F03D14B0218BF084608D180EA010000F0004040F0FE4040F40000704740F0FE4040F4400070474FF0FF0C1CEAD0521EBF1CEAD15392EA0C0F93EA0C0F69D0D1
:40474000A2EB030280EA010C49024FEA402037D04FF0805343EA111143EA10130CF000408B4238BF5B0042F17D024FF4000C8B4224BF5B1A40EA0C00B3EB510F24BFA3EB6E
:40478000510340EA5C00B3EB910F24BFA3EB910340EA9C00B3EBD10F24BFA3EBD10340EADC001B0118BF5FEA1C1CE0D1FD2A3FF650AF8B4240EBC25008BF20F00100704734
:4047C0000CF0004C4CEA50207F32C2BFD2F1FF0340EAC250704740F400004FF00003013A37E792F0000F00F0004C02BF400010F4000F013AF9D040EA0C0093F0000F01F074
:40480000004C02BF490011F4000F013BF9D041EA0C0195E70CEAD15392EA0C0F08D142027FF47DAF93EA0C0F7FF470AF084676E793EA0C0F04D14B023FF44CAF08466EE788
:4048400030F0004C18BF31F0004CCAD130F000427FF45CAF31F000437FF43CAF5FE700BF42000ED2B2F1FE4F0BD34FF09E03B3EB126209D44FEA002343F0004323FA02F0A6
:4048800070474FF00000704712F1610F01D1420202D14FF0FF3070474FF00000704700BF014B1868704700BF9481FF1F0E4B70B51E460E4C0025E41AA410A54204D056F884
:4048C000253098470135F8E700F0CCF8084B094C1E46E41AA4100025A54204D056F8253098470135F8E770BD704A0000704A0000704A0000784A000010B5431E0A44914222
:4049000004D011F8014B03F8014FF8E710BD03460244934202D003F8011BFAE7704700000000000049444C4500000000280000000080BB44140EFE4406130000000102002D
:4049400050756D702031000050756D70203200005048000056616E6454656D7000000000576174657274656D703A20000A000000546573742050756D702031005465737429
:404980002057617465722054656D7000693A2000203078005343443330000000534344333054657374000000434F323A200000000A00000054454D503A20000052483A20CD
:4049C00000000000C84900401900305100404000F0510040100000000140001000140140000800400140000A004C01400002005001402000303132333435363738394142B2
:404A0000434445460000000039383736353433323130313233343536373839002D0000002E3030002E3036002E3133002E3139002E3235002E3331002E3338002E343400AB
:404A40002E3530002E3536002E3633002E3639002E3735002E3831002E3838002E39340043000000F8B500BFF8BC08BC9E4670474D00000051260000F8B500BFF8BC08BC02
:404A80009E46704729000000984A0000C880FF1FD0000000A882000000000000AAAAAAAAF87F000000366E01C05D0000180000000000E02E070000000C00000067500040DF
:404AC00000F00000204A0000244A0000284A00002C4A0000304A0000344A0000384A00003C4A0000404A0000444A0000484A00004C4A0000504A0000544A0000584A0000EC
:404B00005C4A00000000000000000000000000000000000000000000000000000000000000000000604A000000000000000000000000000000000000000000000000000025
:404B40000000000000000000000000000000000000000000000000000000000000000000000000003481FF1F00000000000000000000000000000000000000000000000062
:404B800000000000000000000000000000000000000000000000000000000000000000000000000000000000000000000000000000000000000000000000000000000000F5
:404BC00000000000000000000000000000000000000000000000000000000000000000000000000000000000000000000000000000000000000000000000000000000000B5
:404C00000000000000000000000000000000000000000000000000000000000000000000000000000000000000000000000000000000000000000000000000000000000074
:404C40000000000000000000000000000000000000000000000000000000000000000000000000000000000000000000000000000000000000000000000000000000000034
:020000040003F7
:0200000480007A
:4000000006520040056400403000014020010140590201403D0301402E040140200501400107014001090140010B0140010F0140031501400117014001190140031B014018
:40004000054001400F4101400742014003430140024401400545014004460140014701400348014010490140084C0140064D01400350014002510140000101110301104054
:400080001140600271017201800F830D850D0B0C0D080E0D1202150216081B0326012E04300231043204330134083508360137023E044040410545D146504720482B49FF60
:4000C0004AFF4BFF4DA04F04501852805407580459045A045B045F01604062C06440654066C068C06AC06CC06EC0DB04DF0100400A400B201022184019241B802108225074
:400100002340302031083B604040482249015002531059055AA06D80724085408F80C001C20CC405CC06CE0CD001D208D60F0201320138803E404065410449FF4AFF4BFFBF
:400140004F01501858045A045B045C015D015F016040624064406540668068806A806C806E808210830E8410880E8A808C088D048E4090FE910C9404964097089B019C02BA
:400180009E419F0DA27FA301AA6FAB04AE3EAF01B030B101B2C0B30CB401B502B60EB701BE10BF40C025C104C5ECC720C823C9FFCAFFCBFFCD83CE03CF01D018D290D4017B
:4001C000D804D904DA04DB04DC11DD11DF05E040E240E440E540E680E880EA80EC80EE80001202520340074009020A211080111012011380181419021A011B101D401E02A6
:400200001F48210B225029022A102B0A3080310A32103A4140044102450249054A024E024F205202530259055A805C205D085E025F40654867886F0170807380790285019F
:4002400087019920C01FC20DC40BCA0DCC0FCE09D085D238D6FBD8F0DE015201530156105B045D105F018301920596049E09A901AE02B002B101B208B404B601BE10C04016
:40028000C106C5D0C620C710C82AC9FFCAFFCBFFCDA0CF04D018D280D405D804D904DA04DB04DF01E040E2C0E440E540E6C0E8C0EAC0ECC0EEC00E800F2217401D021E88F7
:4002C0001F4824402F083F0245024F2157115C405E085F01680177408B40A401AD12AF40B020B168B304C2B0C480CA20CE80D080D220D6D0E680EE04EE04E820E040E0082C
:40030000E401EA05E602E602E008E401EA05332034108720CC30E24000085F2062086B80841087809B209C10A720C010D620D840DC20E240E6403E108A08A608A720AC0435
:40034000CE20EC409610AB20EE208E02E0025B0266029A02D602D8011B04B302C608E804AB0484049610E6401220164074047B0282208640A004A302AA10AB02C430DC80EA
:40038000DE20E010E480EAA01108132014107B107F408410C40EDE03831087409780A710A904AB20000308030A03000F03C000000100001110001101080000008300008391
:4003C0008000030000000000000B0B000000000000C0C000C00000000E001801000000000000000000000000000000000000000000000000000000000000000000000000FD
:4004000000000000000000000000000000000000000000000000000000000000000000000000000000000000000000000000000000000000000000000000000000000000BC
:40044000000000000000000000000000000000000000000000000000000000000000000000000000000000000000000000000000000000000000000000000000000000007C
:40048000000000000000000000000000000000000000000000000000000000000000000000000000000000000000000000000000000000000000000000000000000000003C
:4004C00000000000000000000000000000000000000000000000000000000000000000000000000000000000000000000000000000000000000000000000000000000000FC
:0200000490006A
:0400000000004005B7
:0200000490105A
:04000000BC90ACAF55
:0200000490303A
:0200000002A755
:0200000490402A
:4000000000000000000000000000000000000000000000000000000000000000000000000000000000000000000000000000000000000000000000000000000000000000C0
:400040000000000000000000000000000000000000000000000000000000000000000000000000000000000000000000000000000000000000000000000000000000000080
:400080000000000000000000000000000000000000000000000000000000000000000000000000000000000000000000000000000000000000000000000000000000000040
:4000C0000000000000000000000000000000000000000000000000000000000000000000000000000000000000000000000000000000000000000000000000000000000000
:0200000490501A
:0C00000000012E16106900012E351310AF
:00000001FF