:400000000080002011000000F11F0000F11F000080B500AF024A034B1B68136001F0F2FFBC760040FA46004010B5054C237833B9044B13B10448AFF300800123237010BD05
:400040005881FF1F00000000A4370000084B10B51BB108490848AFF300800848036803B910BD074B002BFBD0BDE81040184700BF000000005C81FF1FA4370000C880FF1F2C
:400080000000000080B483B000AF78607B6803F108027B685A607B684FF0FF329A607B6803F108027B68DA607B6803F108027B681A617B6800221A6000BF0C37BD4680BC8A
:4000C000704700BF80B483B000AF78607B6800221A6100BF0C37BD4680BC704780B485B000AF786039607B685B68FB603B68FA685A60FB689A683B689A60FB689B683A68D1
:400100005A60FB683A689A603B687A681A617B681B685A1C7B681A6000BF1437BD4680BC704700BF80B485B000AF786039603B681B68BB60BB68B3F1FF3F03D17B681B6904
:40014000FB600CE07B680833FB6002E0FB685B68FB60FB685B681A68BB689A42F6D9FB685A683B685A603B685B683A689A603B68FA689A60FB683A685A603B687A681A61A4
:400180007B681B685A1C7B681A6000BF1437BD4680BC704780B485B000AF78607B681B69FB607B685B687A6892689A607B689B687A6852685A60FB685A687B689A4203D1E4
:4001C0007B689A68FB685A607B6800221A61FB681B685A1EFB681A60FB681B6818461437BD4680BC704700BF80B584B000AF786039607B68FB6001F0F7F8FB681A68FB680F
:40020000DB6BF968096C01FB03F31A44FB689A60FB6800229A63FB681A68FB685A60FB681A68FB68DB6B013BF968096C01FB03F31A44FB68DA60FB68FF2283F84420FB681E
:40024000FF2283F845203B68002B14D1FB681B69002B1AD0FB681033184600F00FFE0346002B12D00C4B4FF080521A60BFF34F8FBFF36F8F09E0FB6810331846FFF702FF71
:40028000FB6824331846FFF7FDFE01F0C5F8012318461037BD4680BD04ED00E080B58AB002AFF860B9601346FB71FB68BA6802FB03F3FB61FB694833184601F027F9B8611C
:4002C000BB69002B0DD0BB697B617B6948337B61FA79BB69009313467A69B968F86800F005F8BB6918462037BD4680BD80B584B000AFF860B9607A60FB70BB68002B03D1BA
:40030000BB69BA691A6002E0BB697A681A60BB69FA68DA63BB69BA681A640121B869FFF763FF00BF1037BD4680BD00BF80B58AB000AFF860B9607A603B6000237B62FB680C
:400340003B6201F051F83B6A9A6B3B6ADB6B9A4202D33B68022B29D13A68B968386A00F031F9F8613B6A5B6A002B10D03B6A2433184600F083FD0346002B13D03F4B4FF05F
:4003800080521A60BFF34F8FBFF36F8F0AE0FB69002B07D0394B4FF080521A60BFF34F8FBFF36F8F01F038F8012363E07B68002B03D101F031F800235CE07B6A002B06D148
:4003C00007F11403184600F0ADFD01237B6201F023F800F08DFB01F007F83B6A93F844305BB2B3F1FF3F03D13B6A002283F844203B6A93F845305BB2B3F1FF3F03D13B6A67
:40040000002283F8452001F007F83A1D07F114031146184600F09CFD0346002B24D1386A00F0C8F90346002B18D03B6A10337A681146184600F00CFD386A00F053F900F0C8
:4004400065FB0346002B7FF47CAF0C4B4FF080521A60BFF34F8FBFF36F8F72E7386A00F041F900F053FB6CE7386A00F03BF900F04DFB002318462837BD4680BD04ED00E043
:4004800080B58AB000AFF860B9607A6000237B62FB683B6200F0A8FF3B6A9B6BFB61FB69002B1FD0B968386A00F0F6F8FB695A1E3B6A9A633B6A1B69002B0FD03B6A10337D
:4004C000184600F0DBFC0346002B07D03C4B4FF080521A60BFF34F8FBFF36F8F00F09CFF012369E07B68002B03D100F095FF002362E07B6A002B06D107F11403184600F033
:4005000011FD01237B6200F087FF00F0F1FA00F06BFF3B6A93F844305BB2B3F1FF3F03D13B6A002283F844203B6A93F845305BB2B3F1FF3F03D13B6A002283F8452000F0F5
:400540006BFF3A1D07F114031146184600F000FD0346002B23D1386A00F016F90346002B17D03B6A24337A681146184600F070FC386A00F0B7F800F0C9FA0346002B89D1F4
:400580000F4B4FF080521A60BFF34F8FBFF36F8F80E7386A00F0A6F800F0B8FA7AE7386A00F0A0F800F0B2FA386A00F0EDF80346002B3FF46FAF002318462837BD4680BD5A
:4005C00004ED00E080B586B000AFF860B9607A6000237B61FB689B6B3B61FB681B6C002B0DD1FB681B68002B4DD1FB689B68184600F0A4FD7861FB6800229A6043E07B68EC
:40060000002B19D1FB685868FB681B6C1A46B96803F0B4F8FB685A68FB681B6C1A44FB685A60FB685A68FB689B689A422BD3FB681A68FB685A6026E0FB68D868FB681B6CF4
:400640001A46B96803F09AF8FB68DA68FB681B6C5B421A44FB68DA60FB68DA68FB681B689A4207D2FB689A68FB681B6C5B421A44FB68DA607B68022B05D13B69002B02D09F
:400680003B69013B3B613B695A1CFB689A637B6918461837BD4680BD80B582B000AF786039607B681B6C002B18D07B68DA687B681B6C1A447B68DA607B68DA687B689B685A
:4006C0009A4203D37B681A687B68DA607B68D9687B681B6C1A46386803F050F800BF0837BD4680BD80B584B000AF786000F07CFE7B6893F84530FB7311E07B685B6A002B50
:4007000012D07B682433184600F0B8FB0346002B01D000F063FCFB7B013BDBB2FB7397F90F30002BE9DC00E000BF7B68FF2283F8452000F071FE00F057FE7B6893F8443093
:40074000BB7311E07B681B69002B12D07B681033184600F093FB0346002B01D000F03EFCBB7B013BDBB2BB7397F90E30002BE9DC00E000BF7B68FF2283F8442000F04CFECE
:4007800000BF1037BD4680BD80B584B000AF786000F02AFE7B689B6B002B02D10123FB6001E00023FB6000F037FEFB6818461037BD4680BD80B584B000AF786000F014FEC7
:4007C0007B689A6B7B68DB6B9A4202D10123FB6001E00023FB6000F01FFEFB6818461037BD4680BD80B58CB004AFF860B9603B601346FB80FB889B00184600F087FE786138
:400800007B69002B0ED0502000F080FEF861FB69002B03D0FB697A691A6305E0786900F007FF01E00023FB61FB69002B13D0FA8800230393FB690293FB6A0193BB6A0093FB
:400840003B68B968F86800F00FF8F86900F08CF80123BB6102E04FF0FF33BB61BB6918462037BD4680BD00BF80B586B000AFF860B9607A603B60BB6A186B7B689B001A467B
:40088000A52102F086FFBB6A1A6B7B6803F18043013B9B0013443B613B6923F007033B61BB68002B1FD000237B6112E0BA687B6913441978BA6A7B69134434330A461A70D4
:4008C000BA687B6913441B78002B06D07B6901337B617B690B2BE9D900E000BFBB6A002283F83F2003E0BB6A002283F834203B6A042B01D904233B62BB6A3A6ADA62BB6AE2
:400900003A6A1A64BB6A00225A64BB6A04331846FFF7D8FBBB6A18331846FFF7D3FBBB6ABA6A1A613B6AC3F10502BB6A9A61BB6ABA6A5A62BB6A00229A64BB6A002283F82B
:400940004C203A68F968386900F0C2FC0246BB6A1A607B6A002B02D07B6ABA6A1A6000BF1837BD4680BD00BF80B582B000AF786000F03AFD2A4B1B680133294A1360294BC5
:400980001B68002B09D1274A7B681360244B1B68012B10D100F036FB0DE0234B1B68002B09D1204B1B68DA6A7B68DB6A9A4202D81C4A7B6813601D4B1B6801331B4A136022
:4009C0007B68DB6A01229A40194B1B681343184A13607B68DA6A13469B0013449B00154A1A447B68043319461046FFF777FB00F013FD0D4B1B68002B0ED00A4B1B68DA6ABF
:400A00007B68DB6A9A4207D20B4B4FF080521A60BFF34F8FBFF36F8F00BF0837BD4680BD4C82FF1F7481FF1F5882FF1F6882FF1F5482FF1F7881FF1F04ED00E080B584B036
:400A400000AF78600023FB607B68002B08D000F04FF80021786800F0D5FB00F057F8F860FB68002B07D1064B4FF080521A60BFF34F8FBFF36F8F00BF1037BD4680BD00BF75
:400A800004ED00E080B584B002AF134B0193002300930023642211491148FFF7A3FE78607B68012B14D14FF0A00383F31188BFF36F8FBFF34F8F3B600A4B4FF0FF321A60D9
:400AC000094B01221A60094B00221A6000F06CFC00BF0837BD4680BD7082FF1FA8370000F50F00006C82FF1F5882FF1F5082FF1F80B400AF044B1B680133034A136000BF30
:400B0000BD4680BC704700BF7482FF1F80B584B000AF0023FB600023BB6000F065FC394B1B68013B374A1360364B1B68002B61D1354B1B68002B5DD02EE0344BDB68DB68C1
:400B4000FB60FB6818331846FFF724FBFB6804331846FFF71FFBFB68DB6A01229A402C4B1B6813432A4A1360FB68DA6A13469B0013449B00274A1A44FB680433194610466A
:400B8000FFF7ACFAFB68DA6A234B1B68DB6A9A4202D3224B01221A601C4B1B68002BCCD1FB68002B01D000F0A9FA1D4B1B687B607B68002B10D000F037F80346002B02D044
:400BC000164B01221A607B68013B7B607B68002BF1D1134B00221A60104B1B68002B09D00123BB600F4B4FF080521A60BFF34F8FBFF36F8F00F010FCBB6818461037BD4626
:400C000080BD00BF7482FF1F4C82FF1F0C82FF1F5482FF1F7881FF1F7481FF1F6082FF1F5C82FF1F04ED00E080B586B000AF00237B61464B1B68002B7DD1454B1B68013334
:400C40003B61434A3B6913603B69002B10D1414B1B68FB60404B1B683E4A13603E4AFB6813603E4B1B6801333C4A136000F046FA3B4B1B683A699A4248D3364B1B681B6820
:400C8000002B04D1364B4FF0FF321A603EE0314B1B68DB68DB68BB60BB685B687B603A697B689A4203D22E4A7B6813602EE0BB6804331846FFF76EFABB689B6A002B04D0FA
:400CC000BB6818331846FFF765FABB68DB6A01229A40244B1B681343224A1360BB68DA6A13469B0013449B001F4A1A44BB68043319461046FFF7F2F9BB68DA6A1B4B1B68F3
:400D0000DB6A9A42B9D301237B61B6E7174B1B68DA6A154913469B0013449B000B441B68012B01D901237B61114B1B68002B07D001237B6104E00F4B1B6801330D4A136084
:400D40007B6918461837BD4680BD00BF7482FF1F5082FF1F0482FF1F0882FF1F6482FF1F6C82FF1F5482FF1F7881FF1F7481FF1F6082FF1F5C82FF1F80B586B000AF2F4BD5
:400D80001B68002B03D02E4B01221A6051E02C4B00221A602B4B1B681B6B7B614FF0A5333B617B691A683B699A4211D17B6904331A683B699A420BD17B6908331A683B6944
:400DC0009A4205D17B690C331A683B699A4208D01C4B1A681B4B1B6834331946104600F0B1FC194B1B687B607B68B3FA83F3FB70FB78C3F11F03FB60FA6813469B00134435
:400E00009B00124A1344BB60BB685B685A68BB685A60BB685A68BB6808339A4204D1BB685B685A68BB685A60BB685B68DB68054A136000BF1837BD4680BD00BF7482FF1F3F
:400E40006082FF1F7481FF1F5482FF1F7881FF1F80B582B000AF78603960074B1B68183319467868FFF75EF90121386800F0CAF900BF0837BD4680BD7481FF1F80B584B0F2
:400E800000AF78607B68DB68DB68BB60BB6818331846FFF77FF91D4B1B68002B1CD1BB6804331846FFF776F9BB68DB6A01229A40174B1B681343164A1360BB68DA6A13469A
:400EC0009B0013449B00134A1A44BB68043319461046FFF703F905E0BB68183319460E48FFF7FCF8BB68DA6A0C4B1B68DB6A9A4205D90123FB600A4B01221A6001E0002302
:400F0000FB60FB6818461037BD4680BD7482FF1F5482FF1F7881FF1F0C82FF1F7481FF1F6082FF1F80B483B000AF7860064B1A687B681A60054B1A687B685A6000BF0C37A1
:400F4000BD4680BC704700BF6482FF1F5082FF1F80B586B000AF7860396000F045FA1D4B1B683B617B685B683A69D31AFB603B681B68B3F1FF3F02D100237B6123E07B6836
:400F80001A68154B1B689A4207D07B685A683B699A4202D801237B6115E03B681A68FB689A420BD93B681A68FB68D21A3B681A607868FFF7B7FF00237B6104E03B68002218
:400FC0001A6001237B6100F027FA7B6918461837BD4680BD5082FF1F6482FF1F80B400AF034B01221A6000BFBD4680BC704700BF6082FF1F80B582B000AF786000F042F847
:40100000FCE700BF80B582B000AF00237B600CE07A6813469B0013449B00124A13441846FFF730F87B6801337B607B68042BEFD90D48FFF727F80D48FFF724F80C48FFF730
:4010400021F80C48FFF71EF80B48FFF71BF80B4B054A1A600A4B054A1A6000BF0837BD4680BD00BF7881FF1FDC81FF1FF081FF1F0C82FF1F2082FF1F3882FF1F0482FF1F58
:401080000882FF1F80B582B000AF19E000F0ACF90F4BDB68DB687B607B6804331846FFF779F80C4B1B68013B0A4A13600A4B1B68013B094A136000F0AFF9786800F00EF825
:4010C000054B1B68002BE1D100BF0837BD4680BD2082FF1F4C82FF1F3482FF1F80B582B000AF78607B681B6B184600F0A1FA786800F09EFA00BF0837BD4680BD80B483B035
:4011000000AF0C4B1B681B68002B04D10A4B4FF0FF321A6008E0074B1B68DB68DB687B607B685B68044A136000BF0C37BD4680BC704700BF0482FF1F6C82FF1F80B584B00F
:4011400000AF78607B68BB600023FB607B68002B4FD0BB685B6C5A1EBB685A64BB68DA6ABB681B6C9A4244D0BB685B6C002B40D1BB6804331846FFF70DF80346002B15D1C8
:40118000BB68DA6A1D4913469B0013449B000B441B68002B0AD1BB68DB6A012202FA03F3DA43174B1B681340154A1360BB681A6CBB68DA62BB68DB6AC3F10502BB689A61B7
:4011C000BB68DB6A01229A400D4B1B6813430C4A1360BB68DA6A13469B0013449B00074A1A44BB68043319461046FEF777FF0123FB60FB6818461037BD4680BD7881FF1F3C
:401200005482FF1F80B584B000AF78603960294B1B68FB60284B1B6804331846FEF7BAFF0346002B0BD1244B1B68DB6A012202FA03F3DA43214B1B681340204A13607B68EB
:40124000B3F1FF3F0AD13B68002B07D01A4B1B68043319461A48FEF741FF26E0FA687B681344BB60144B1B68BA685A60BA68FB689A4209D2134B1A680F4B1B6804331946ED
:401280001046FEF74FFF10E00F4B1A680A4B1B68043319461046FEF745FF0C4B1B68BA689A4202D2094ABB68136000BF1037BD4680BD00BF5082FF1F7481FF1F5482FF1F3B
:4012C0003882FF1F0882FF1F0482FF1F6C82FF1F80B485B000AFF860B9607A60FB68043BFB60FB684FF080721A60FB68043BFB60BB6823F00102FB681A60FB68043BFB6040
:40130000084AFB681A60FB68143BFB607A68FB681A60FB68203BFB60FB6818461437BD4680BC70472913000080B483B000AF00233B604FF0A00383F31188BFF36F8FBFF334
:401340004F8F7B6000BF3B68002BFCD000BF0C37BD4680BC704700BF0000000000000000074B19680868B0E8F00F80F30988BFF36F8F4FF0000080F311884EF00D0E7047BB
:401380007481FF1F00BF00BF06480068006880F3088862B661B6BFF34F8FBFF36F8F00DF00BF00BF08ED00E080B500AF0C4A0C4B1B6843F460031360094A094B1B6843F05C
:4013C0006043136000F088F8064B00221A60FFF7DBFFFFF7D1FCFFF7A7FF0023184680BD20ED00E0CC80FF1F80B483B000AF4FF0A00383F31188BFF36F8FBFF34F8F7B6014
:40140000044B1B680133034A136000BF0C37BD4680BC7047CC80FF1F80B483B000AF094B1B68013B074A1360064B1B68002B04D100237B607B6883F3118800BF0C37BD46CE
:4014400080BC7047CC80FF1F0000000000000000EFF30980BFF36F8F0D4B1A6820E9F00F10602DE908404FF0A00080F31188FFF783FC4FF0000080F31188BDE8084019682B
:401480000868B0E8F00F80F30988BFF36F8F70477481FF1F00BF00BF80B582B000AF4FF0A00383F31188BFF36F8FBFF34F8F3B60FFF7BAFB0346002B03D0064B4FF08052F3
:4014C0001A6000237B607B6883F3118800BF0837BD4680BD04ED00E080B400AF084B00221A60084B00221A60074B45F6BF521A60034B07221A6000BFBD4680BC704700BF35
:4015000010E000E018E000E014E000E080B588B000AF786000237B61FFF7EAFA404B1B68002B04D100F0BEF83D4B01221A607B68002B0ED008231A467B6813447B607B681A
:4015400003F00703002B04D07B6823F0070308337B607B68002B57D07B6847F6F772934252D8304BBB612F4B1B68FB6104E0FB69BB61FB691B68FB61FB695A687B689A4220
:4015800003D2FB691B68002BF1D1FB69264A93423AD0BB691B68082213447B61FB691A68BB691A60FB695A687B68D31A08225200934222D9FA697B681344FB60FB695A68E7
:4015C0007B68D21AFB685A60FB697A685A60FB685B68BB60134B3B6102E03B691B683B613B691B685A68BB689A42F6D33B691A68FB681A603B69FA681A600C4B1A68FB69AE
:401600005B68D31A094A1360FFF780FA7B69002B01D100F0A7F87B6918462037BD4680BD880200207802002080020020D080FF1F80B586B000AF78607B683B617B68002BA8
:4016400027D008235B423A6913443B613B69FB60FFF74EFAFB685B68BB60104B7B6102E07B691B687B617B691B685A68BB689A42F6D37B691A68FB681A607B69FA681A6047
:40168000FB685A68064B1B681344054A1360FFF73DFA00BF1837BD4680BD00BF78020020D080FF1F80B483B000AF0F4B23F007037B600E4A7B6813600C4B00225A600C4B36
:4016C00047F6F8725A600A4B00221A607B683B603B6847F6F8725A603B68054A1A6000BF0C37BD4680BC70478082FF1F780200208002002080B500AF00F006F800F040F85C
:40170000FFF7C0F9FEE700BF80B500AF094B0A4ADA62084B094A9A63064B094ADA6300F071FD00F047FE00F00BFF01F091F800BF80BD00BF0080FF1F6113000051140000D1
:401740009914000080B485B000AF786039604FF0A00383F31188BFF36F8FBFF34F8FFB60FEE700BF80B483B000AF4FF0A00383F31188BFF36F8FBFF34F8F7B60FEE700BF3D
:4017800080B582B002AF002201210120FEF786FD0246254B1A60002201210120FEF77EFD0246214B5A60002201210120FEF776FD02461D4B9A60002202210120FEF76EFD82
:4017C00002461A4B1A600023019302230093184B642218491848FFF705F8184A00230193022300931346642215491348FEF7FAFF144A00230193022300931346642210495A
:401800000D48FEF7EFFF002301930223009300234FF47A720C490D48FEF7E4FF00F080F900BFBD4680BD00BF900200209C020020BC370000C037000051180000BD3700004F
:40184000C8370000BE370000D03700001919000080B586B000AF78607B687B617B691B78012B1DD0022B35D0002B52D1294B1B6807F10F014FF0FF321846FEF701FE386120
:401880003B69012B40D1FB7B002B04D00623184600F048FD38E01323184600F043FD33E01C4B5B6807F10F014FF0FF321846FEF7E7FD38613B69012B28D1FB7B002B04D077
:4018C0000623184600F03EFD20E01323184600F039FD1BE00F4B9B6807F10F014FF0FF321846FEF7CDFD38613B69012B10D1FB7B002B04D00623184600F0EAFD08E0132354
:40190000184600F0E5FD03E000BFA7E700BFA5E700BFA3E79002002090B587B000AF4FF47A733B610023FB75FB7D83F00103DBB2002B04D000F0DEFE0123FB75F4E70120A0
:4019400000F0F0FE0346002BEED0FB7D002BEBD000F008FF0346184601F09EF94FF000021B4B01F029FB03460C461846214616A3D3E9002301F0F6F903460C4618462146DF
:4019800001F002FC0346FB60F86800F025F8B860B86801F0A7FE03469BB21A465201D21A92001344DB009BB2FB800A4B1868B91D00234FF0FF32FEF7B9FC0023FB7538697C
:4019C000FFF73CF8B0E700BF000000000070A7400000B0409C020020B0B584B000AF78604B4B4B49184601F023FC0346184601F065F94FF00002474B01F0DEFA03460C467D
:401A000025461C46444B184601F058F93EA3D3E9002300F0F3FF02460B46104619464FF000023C4B01F0C8FA02460B462046294600F0E4FF03460C461A4623464FF000005B
:401A4000344901F0B9FA03460C461846214601F09BFB0346FB602E4B2D49184601F0E8FB0346F968184601F0EDFC0346184601F025F94FF00002274B01F09EFA03460C462A
:401A80001A4623464FF00000244900F0B7FF03460C461846214601F077FB0346BB60F86801F00CF904460D46786801F007F916A3D3E9002300F0A2FF02460B462046294689
:401AC00001F050F903460C46184621464FF00002104B01F071FA03460C4625461C46B86801F0ECF802460B462046294600F088FF03460C461846214601F046FB03461846D9
:401B00001037BD46B0BD00BF00000000007097400080BB4400000840140EFE4400001C4080B582B002AF00230193012300930023642208490848FEF755FE0023019302236D
:401B400000930023642205490548FEF74BFE00BFBD4680BDD4370000951B0000E0370000651B000080B582B000AF084B1B68B91D4FF0FF321846FEF783FCFB88184600F02A
:401B8000A7FE034800F06AFEEFE700BF9C020020F037000080B582B000AF0123FB700023BB70C8237B60FB78002B04D00023FB700123BB7003E00123FB700023BB700E4B42
:401BC0001868F91C00234FF0FF32FEF7AFFB0A4B5868B91C00234FF0FF32FEF7A7FB064B9868F91C00234FF0FF32FEF79FFB7868FEF724FFD7E700BF9002002080B582B0F4
:401C000000AF786039603A680021786801F0C1FD00BF0837BD4680BD80B584B000AFF860B9607A607A68B968F86801F0A7FD00BF1037BD4680BD00BF80B483B000AF034635
:401C4000FB71FEE780B487B000AF7860396000233B6100237B6127E07B699B007A6813441B68BB60BB68FB73BB6823F0FF03BB6014E03B695B003A6813441B781A46BB6887
:401C8000134419463B695B003A6813445B780B703B6901333B61FB7B013BFB73FB7B002BE7D17B6901337B617B690E2BD4D900BF1C37BD4680BC704780B582B000AF3D4BD7
:401CC00040F252721A803C4B18221A7004223B493B48FFF7A1FF3B4B02221A704FF0402308221A70384B03221A70384B384A1278D2B21A70374B08221A80374B41F251227F
:401D00001A800023FB7019237B6014E0FB785B00DAB2324B1B78DBB203F00103DBB21343DBB203F00303FB704FF4F07000F0E8FD7B68013B7B607B68002B02D0FB78032BBB
:401D4000E4D17B68002B02D10320FFF775FF244B4FF480721A80224B07221A70214B00221A70214B48221A701D4B00221A701F4B02221A701E4B04221A701E4A1D4B1B78C2
:401D8000DBB243F00103DBB213701B4A1A4B1B78DBB243F00103DBB21370184A174B1B78DBB263F07F03DBB2137000BF0837BD4680BD00BF8040004082400040A801004865
:401DC000004100400043004000420040A146004008010049224200402042004025420040044000400640004008400040014000400B400040A2430040A1430040A0430040ED
:401E000080B582B000AF1E4B1B78FB711D4B1B78BB711D4B1B787B711C4AFB7903F00703DBB213701A4AFB791B09DBB21370154ABB7943F00303DBB21370134A7B7943F0C3
:401E40000303DBB21370134B08221A70124B80221A70124B80221A70114B20221A700A2000F070F9084A7B791370064ABB7913700C4B44221A7000BF0837BD4680BD00BF69
:401E8000CF010049F8460040F94600406E5800406F5800400D51004001590040205B0040235B00407658004080B582B000AF72B63C4A3C4B1B78DBB243F00403DBB213708B
:401EC0000023FB7113E0FA7913465B0013445B00354A13443B603B681A683B689B889BB219461046FFF78AFEFB790133FB71FB79062BE8D92D494FF09040FFF7A3FE2C4A9F
:401F00002B4B1B78DBB243F00203DBB21370294A284B1B78DBB243F00203DBB21370264A254B1B78DBB243F04003DBB21370234A224B1B78DBB243F01003DBB21370082275
:401F40001F492048FFF768FE0A221F491F48FFF763FE08221E491F48FFF75EFE08221E491E48FFF759FE1E4A1D4B1B78DBB243F00803DBB213701B4B61221A70FFF79CFE14
:401F8000184B81221A70184B01221A70FFF738FF0E2209491548FFF73FFE00BF0837BD4680BD00BFE8460040F43700003C0000480350014013500140A0430040C243004088
:401FC00084010048025100408C010048C05100409801004812510040A001004822510040224300400048004004000840B043004080B500AF01F096FB03461B680C2B00D155
:40200000FEE7FEE780B586B000AF224B7B61224B3B61204B7B6135E03B691B68FB603B695B68BB603B699B683B6000237B600CE0FB681A68BB681A60BB680433BB60FB6884
:402040000433FB607B6804337B607A683B689A42EED13B69DB683B6000237B6008E0BB6800221A60BB680433BB607B6804337B607A683B689A42F2D13B6910333B617B699D
:40208000013B7B617B69002BC6D101F051FBFFF731FBFEE7010000005838000080B582B000AF184B184A1A60184A184B1B6843F40073136000237B600FE07B68032B04D8F9
:4020C000134A7B6852F8233000E0124B12497A6841F822307B6801337B607B682F2BECD90E4B1B78DAB20E4B1A700E4B0A4A1A60FFF7DAFE0C4B00221A6000BF0837BD46C6
:4021000080BD00BF0CED00E00004FA0514ED00E000000000F11F00000080FF1FBC760040C480FF1F08ED00E0C080FF1F80B483B000AF0346FB7101BE00BF0C37BD4680BC66
:40214000704700BF80B582B000AF0346FB80FB88054A127802FB03F3184600F0D1FB00BF0837BD4680BD00BFDC80FF1F80B584B000AF03463960FB710F4B1B68FB60FB791D
:402180001F2B02D90020FFF7D1FFFB7903F01F0310339B00FA6813441B68BB60FB7903F01F0310339B00FA6813443A681A60BB6818461037BD4680BD08ED00E080B582B0D6
:4021C00000AF03460A46FB711346BB71BB79072B02D90020FFF7AAFFFB791F2B02D90020FFF7A4FFFB7903F01F0303F1604303F56443BA795201D2B21A7000BF0837BD4600
:4022000080BD00BF80B500AF064B1B78002B04D100F00AF8034B01221A7000F045F800BF80BD00BF8C02002080B582B000AF1C4B1B78DBB223F03F03FB71194AFB7943F0EF
:402240000903DBB21370174A164B1B78DBB243F00103DBB21370FF2000F036F8FF2000F051F8062000F05EF8132000F06BF8002000F078F800F04CFB0346BB71094A094BBF
:402280001B78DBB243F01003DBB21370BB79184600F042FB00F028F800BF0837BD4680BD7B6400409B64004080B400AF054A054B1B78DBB263F07F03DBB2137000BFBD46F4
:4022C00080BC70477B64004080B483B000AF0346FB71044AFB79137000BF0C37BD4680BC704700BF0B64004080B500AF01E000F055F800F047F8034603F01003002BF6D1E4
:4023000000BF80BD80B483B000AF0346FB71044AFB79137000BF0C37BD4680BC704700BF4B64004080B483B000AF0346FB71044AFB79137000BF0C37BD4680BC704700BF24
:402340002B64004080B483B000AF0346FB71044AFB79137000BF0C37BD4680BC704700BF3B64004080B483B000AF0346FB71044AFB79137000BF0C37BD4680BC704700BF21
:402380008B64004080B400AF034B1B78DBB21846BD4680BC704700BF6B64004080B400AF034B1B78DBB21846BD4680BC704700BF5B64004080B500AF064B1B78002B04D150
:4023C00000F00AF8034B01221A7000F043F800BF80BD00BF8D02002080B582B000AF1B4B1B78DBB223F03F03FB71184AFB7943F00903DBB21370164A154B1B78DBB243F0C6
:402400000103DBB21370FF2000F034F8FF2000F04FF8062000F05CF8002000F069F800F077FA0346BB710A4A094B1B78DBB243F01003DBB21370BB79184600F06DFA00F04F
:4024400029F800BF0837BD4680BD00BF7A6400409A64004080B400AF054A054B1B78DBB263F07F03DBB2137000BFBD4680BC70477A64004080B483B000AF0346FB71044A6F
:40248000FB79137000BF0C37BD4680BC704700BF0A64004080B500AF01E000F045F800F037F8034603F01003002BF6D100BF80BD80B483B000AF0346FB71044AFB79137062
:4024C00000BF0C37BD4680BC704700BF4A64004080B483B000AF0346FB71044AFB79137000BF0C37BD4680BC704700BF2A64004080B483B000AF0346FB71044AFB79137092
:4025000000BF0C37BD4680BC704700BF8A64004080B400AF034B1B78DBB21846BD4680BC704700BF6A64004080B400AF034B1B78DBB21846BD4680BC704700BF5A640040E2
:4025400080B500AF064B1B78002B04D100F00AF8034B01221A7000F029F800BF80BD00BF8E02002080B500AF102000F057F907210020FFF723FE0A490020FFF7F7FD094AC7
:40258000084B1B78DBB243F00603DBB213700C2000F086F8044B00221A8000BF80BD00BF1128000001590040A402002080B582B000AF00F0ADF90346FB712E4A2D4B1B787F
:4025C000DBB243F00103DBB213702B4A2A4B1B78DBB243F00103DBB21370284A274B1B78DBB243F00103DBB21370254A244B1B78DBB243F00103DBB21370224B1B78BB71FA
:40260000BB7943F00203BB71BB7943F00103BB711C4ABB7913701C4B18221A701B4A1B4B1B78DBB243F04003DBB21370174A174B1B78DBB223F00303DBB21370144BCE2257
:402640001A70144B02221A70134A134B1B78DBB243F00803DBB213700A20FFF773FD0F4B01221A60FB79184600F056F900BF0837BD4680BDAB430040BB430040A143004034
:40268000B14300400359004006590040055900400059004014460040275B004080E200E080B584B000AF0346FB71FB790A2B07D00C2B02D0082B06D008E0C223FB730BE051
:4026C0008223FB7308E04223FB7305E0C223FB730020FFF72BFD00BF054AFB7B1370FB79184600F057F800BF1037BD4680BD00BF0259004080B400AF094A094B1B78DBB234
:4027000023F00403DBB21370054A054B1B78DBB243F00103DBB2137000BFBD4680BC70470059004080B584B000AF0346FB710C4B1B78DBB203F00103FB73FB7B012B02D0FE
:40274000FB79002BF3D0FB7B012B04D10120FFF7F9FC034B1B78FB7B18461037BD4680BD0159004080B483B000AF084B1B88FB80074B1B881BB29BB2FA88D31A9BB21BB27F
:4027800018460C37BD4680BC704700BFA05B0040A602002080B584B000AF0346FB71FB790A2B08D00C2B02D0082B08D00BE04FF48053FB600DE04FF48063FB6009E04FF468
:4027C0008073FB6005E00023FB600020FFF7AEFC00BF0C4B00221A80FB6842F2107202FB03F303F58063002B01DA03F2FF73DB121A46054B1A60054B00221A8000BF103719
:40280000BD4680BDA8020020A0020020A602002080B400AF00BFBD4680BC704780B483B000AF0346FB710949084B1B78DBB25AB297F9073023F007035BB213435BB2DBB2EF
:402840000B7000BF0C37BD4680BC70470241004080B400AF00BFBD4680BC704780B584B000AF78600123FB737B681B78BB730BE0BB7B184600F054F8FB7B7A6813441B78A7
:40288000BB73FB7B0133FB73BB7B002BF0D100BF1037BD4680BD00BF80B582B000AF0346FB71FB791B09DBB21A46084B9B5C184600F036F8FB7903F00F03044AD35C184641
:4028C00000F02EF800BF0837BD4680BD2038000080B582B000AF0346FB80FB881B0A9BB2DBB21846FFF7D8FFFB88DBB21846FFF7D3FF00BF0837BD4680BD00BF0000000072
:402900000230800803D000BF01380046FCD17047EFF3108072B6704780F31088704700BFFEB5494652465B460EB40746244909688A46244A12682448022100F047F8030095
:4029400020480068C018204900F040F8143883460121C9430C4601250026FFF7D9FF814651460B7823400B7058460130FFF7C8FF3800F04028400B78234003430B7058460F
:40298000FFF7BEFF0136072EF2D9002001300138013001200B78234003430B7058460430FFF7AEFF4846FFF7B7FF00BF00BF00BF0EBC894692469B46FEBD00BFAFF30080D0
:4029C000EC80FF1FD480FF1F00C20100002902D0B0FBF1F0704708B14FF0FF3000F008B80029F8D00246B0FBF1F000FB11217047704700BF81F0004102E000BF83F00043DB
:402A000030B54FEA41044FEA430594EA050F08BF90EA020F1FBF54EA000C55EA020C7FEA645C7FEA655C00F0E2804FEA5454D4EB5555B8BF6D420CDD2C4480EA020281EA12
:402A4000030382EA000083EA010180EA020281EA0303362D88BF30BD11F0004F4FEA01314FF4801C4CEA113102D0404261EB410113F0004F4FEA03334CEA133302D0524268
:402A800063EB430394EA050F00F0A780A4F10104D5F1200E0DDB02FA0EFC22FA05F2801841F1000103FA0EF2801843FA05F359410EE0A5F120050EF1200E012A03FA0EFC13
:402AC00028BF4CF0020C43FA05F3C01851EBE37101F0004507D54FF0000EDCF1000C7EEB00006EEB0101B1F5801F1BD3B1F5001F0CD349085FEA30004FEA3C0C04F10104F0
:402B00004FEA445212F5800F80F09A80BCF1004F08BF5FEA500C50F1000041EB045141EA050130BD5FEA4C0C404141EB010111F4801FA4F10104E9D191F0000F04BF01467C
:402B40000020B1FA81F308BF2033A3F10B03B3F120020CDA0C3208DD02F1140CC2F10C0201FA0CF021FA02F10CE002F11402D8BFC2F1200C01FA02F120FA0CFCDCBF41EA71
:402B80000C019040E41AA2BF01EB0451294330BD6FEA04041F3C1CDA0C340EDC04F11404C4F1200220FA04F001FA02F340EA030021FA04F345EA030130BDC4F10C04C4F1A8
:402BC000200220FA02F001FA04F340EA0300294630BD21FA04F0294630BD94F0000F83F4801306BF81F480110134013D4EE77FEA645C18BF7FEA655C29D094EA050F08BF35
:402C000090EA020F05D054EA000C04BF1946104630BD91EA030F1EBF0021002030BD5FEA545C05D14000494128BF41F0004130BD14F580043CBF01F5801130BD01F00045DC
:402C400045F0FE4141F470014FF0000030BD7FEA645C1ABF194610467FEA655C1CBF0B46024650EA013406BF52EA033591EA030F41F4002130BD00BF90F0000F04BF00210F
:402C8000704730B54FF4806404F132044FF000054FF0000150E700BF90F0000F04BF0021704730B54FF4806404F1320410F0004548BF40424FF000013EE700BF42004FEADE
:402CC000E2014FEA31014FEA02701FBF12F07F4393F07F4F81F06051704792F0000F14BF93F07F4F704730B54FF4607401F0004521F0004120E700BF50EA010208BF70479E
:402D000030B54FF000050AE050EA010208BF704730B511F0004502D5404261EB41014FF4806404F132045FEA915C3FF4DCAE4FF003025FEADC0C18BF03325FEADC0C18BFE5
:402D4000033202EBDC02C2F1200300FA03FC20FA02F001FA03FE40EA0E0021FA02F11444C1E600BF70B54FF0FF0C4CF4E06C1CEA11541DBF1CEA135594EA0C0F95EA0C0F95
:402D800000F0DEF82C4481EA030621EA4C5123EA4C5350EA013518BF52EA033541F4801143F4801338D0A0FB02CE4FF00005E1FB02E506F00042E0FB03E54FF00006E1FB34
:402DC00003569CF0000F18BF4EF0010EA4F1FF04B6F5007F64F5407404D25FEA4E0E6D4146EB060642EAC62141EA55514FEAC52040EA5E504FEACE2EB4F1FD0C88BFBCF5D1
:402E0000E06F1ED8BEF1004F08BF5FEA500E50F1000041EB045170BD06F0004646EA010140EA020081EA0301B4EB5C04C2BFD4EB0C0541EA045170BD41F480114FF0000ED9
:402E4000013C00F3AB8014F1360FDEBF002001F0004170BDC4F10004203C35DA0C341BDC04F11404C4F1200500FA05F320FA04F001FA05F240EA020001F0004221F00041AC
:402E800010EBD37021FA04F642EB06015EEA430E08BF20EAD37070BDC4F10C04C4F1200500FA04F320FA05F001FA04F240EA020001F0004110EBD37041F100015EEA430EB9
:402EC00008BF20EAD37070BDC4F1200500FA05F24EEA020E20FA04F301FA05F243EA020321FA04F001F0004121FA04F220EA020000EBD3705EEA430E08BF20EAD37070BDE3
:402F000094F0000F0FD101F00046400041EB010111F4801F08BF013CF7D041EA060195F0000F18BF704703F00046520043EB030313F4801F08BF013DF7D043EA0603704798
:402F400094EA0C0F0CEA135518BF95EA0C0F0CD050EA410618BF52EA4306D1D181EA030101F000414FF0000070BD50EA410606BF1046194652EA430619D094EA0C0F02D1AC
:402F800050EA013613D195EA0C0F05D152EA03361CBF104619460AD181EA030101F0004141F0FE4141F470014FF0000070BD41F0FE4141F4780170BD70B54FF0FF0C4CF44F
:402FC000E06C1CEA11541DBF1CEA135594EA0C0F95EA0C0F00F0A7F8A4EB050481EA030E52EA03354FEA013100F088804FEA03334FF0805545EA131343EA12634FEA02224C
:4030000045EA111545EA10654FEA00260EF000419D4208BF964244F1FD0404F5407402D25B084FEA3202B61A65EB03055B084FEA32024FF480104FF4002CB6EB020E75EBA9
:40304000030E22BFB61A754640EA0C005B084FEA3202B6EB020E75EB030E22BFB61A754640EA5C005B084FEA3202B6EB020E75EB030E22BFB61A754640EA9C005B084FEAF9
:403080003202B6EB020E75EB030E22BFB61A754640EADC0055EA060E18D04FEA051545EA16754FEA06164FEAC30343EA52734FEAC2025FEA1C1CC0D111F4801F0BD141EA00
:4030C00000014FF000004FF0004CB6E711F4801F04BF01430020B4F1FD0C88BFBCF5E06F3FF6AFAEB5EB030C04BFB6EB020C5FEA500C50F1000041EB045170BD0EF0004E15
:403100004EEA113114EB5C04C2BFD4EB0C0541EA045170BD41F480114FF0000E013C90E645EA060E8DE60CEA135594EA0C0F08BF95EA0C0F3FF43BAF94EA0C0F0AD150EA19
:4031400001347FF434AF95EA0C0F7FF425AF104619462CE795EA0C0F06D152EA03353FF4FDAE1046194622E750EA410618BF52EA43067FF4C5AE50EA41047FF40DAF52EAED
:4031800043057FF4EBAE12E74FEA4102B2F1E04324BFB3F5001CDCF1FE5C0DD901F0004C4FEAC0024CEA5070B2F1004F40EB830008BF20F00100704711F0804F21D113F1A9
:4031C0003872BCBF01F00040704741F480114FEA5252C2F11802C2F1200C10FA0CF320FA02F018BF40F001004FEAC1234FEAD32303FA0CFC40EA0C0023FA02F34FEA43033E
:40320000CCE77FEA625307D150EA01331EBF4FF0FE4040F44000704701F0004040F0FE4040F40000704700BF80F0004002E000BF81F0004142001FBF5FEA410392EA030F6B
:403240007FEA226C7FEA236C6AD04FEA1262D2EB1363C1BFD218414048404140B8BF5B42192B88BF704710F0004F40F4000020F07F4018BF404211F0004F41F4000121F0B9
:403280007F4118BF494292EA030F3FD0A2F1010241FA03FC10EB0C00C3F1200301FA03F100F0004302D5494260EB4000B0F5000F13D3B0F1807F06D340084FEA310102F1D9
:4032C0000102FE2A51D2B1F1004F40EBC25008BF20F0010040EA03007047490040EB000010F4000FA2F10102EDD1B0FA80FCACF1080CB2EB0C0200FA0CF0AABF00EBC250DD
:4033000052421843BCBFD0401843704792F0000F81F4000106BF80F400000132013BB5E74FEA41037FEA226C18BF7FEA236C21D092EA030F04D092F0000F08BF08467047C3
:4033400090EA010F1CBF0020704712F07F4F04D1400028BF40F00040704712F100723CBF00F50000704700F0004343F0FE4040F4000070477FEA226216BF08467FEA236374
:403380000146420206BF5FEA412390EA010F40F4800070474FF0000304E000BF10F0004348BF40425FEA000C08BF704743F0964301464FF000001CE050EA010208BF70474E
:4033C0004FF000030AE000BF50EA010208BF704711F0004302D5404261EB41015FEA010C02BF84460146002043F0B64308BFA3F18053A3F50003BCFA8CF2083AA3EBC253A6
:4034000010DB01FA02FC634400FA02FCC2F12002BCF1004F20FA02F243EB020008BF20F00100704702F1200201FA02FCC2F1200250EA4C0021FA02F243EB020008BF20EAF2
:40344000DC7070474FF0FF0C1CEAD0521EBF1CEAD15392EA0C0F93EA0C0F6FD01A4480EA010C400218BF5FEA41211ED04FF0006343EA501043EA5111A0FB01310CF0004014
:40348000B1F5000F3EBF490041EAD3715B0040EA010062F17F02FD2A1DD8B3F1004F40EBC25008BF20F00100704790F0000F0CF0004C08BF49024CEA502040EA51207F3A8A
:4034C000C2BFD2F1FF0340EAC250704740F400004FF00003013A5DDC12F1190FDCBF00F000407047C2F10002410021FA02F1C2F1200200FA02FC5FEA310040F1000053EA43
:403500004C0308BF20EADC70704792F0000F00F0004C02BF400010F4000F013AF9D040EA0C0093F0000F01F0004C02BF490011F4000F013BF9D041EA0C018FE70CEAD15393
:4035400092EA0C0F18BF93EA0C0F0AD030F0004C18BF31F0004CD8D180EA010000F00040704790F0000F17BF90F0004F084691F0000F91F0004F14D092EA0C0F01D142024D
:403580000FD193EA0C0F03D14B0218BF084608D180EA010000F0004040F0FE4040F40000704740F0FE4040F4400070474FF0FF0C1CEAD0521EBF1CEAD15392EA0C0F93EA5A
:4035C0000C0F69D0A2EB030280EA010C49024FEA402037D04FF0805343EA111143EA10130CF000408B4238BF5B0042F17D024FF4000C8B4224BF5B1A40EA0C00B3EB510F1D
:4036000024BFA3EB510340EA5C00B3EB910F24BFA3EB910340EA9C00B3EBD10F24BFA3EBD10340EADC001B0118BF5FEA1C1CE0D1FD2A3FF650AF8B4240EBC25008BF20F00C
:40364000010070470CF0004C4CEA50207F32C2BFD2F1FF0340EAC250704740F400004FF00003013A37E792F0000F00F0004C02BF400010F4000F013AF9D040EA0C0093F04D
:40368000000F01F0004C02BF490011F4000F013BF9D041EA0C0195E70CEAD15392EA0C0F08D142027FF47DAF93EA0C0F7FF470AF084676E793EA0C0F04D14B023FF44CAFBD
:4036C00008466EE730F0004C18BF31F0004CCAD130F000427FF45CAF31F000437FF43CAF5FE700BF42000ED2B2F1FE4F0BD34FF09E03B3EB126209D44FEA002343F00043A4
:4037000023FA02F070474FF00000704712F1610F01D1420202D14FF0FF3070474FF00000704700BF014B1868704700BF5081FF1F0E4B70B51E460E4C0025E41AA410A5426C
:4037400004D056F8253098470135F8E700F072F8084B094C1E46E41AA4100025A54204D056F8253098470135F8E770BD4038000040380000403800004838000010B5431E14
:403780000A44914204D011F8014B03F8014FF8E710BD03460244934202D003F8011BFAE7704700000000000049444C45000000000080BB44140EFE440613000000010200C6
:4037C00050756D702031000050756D702032000050480000546573742050756D7020310054657374205048207072696E740000000A000000305100404000F0510040100056
:4038000000000140001000140140000800400140000A004C0140000200500140200000003031323334353637383941424344454600430000F8B500BFF8BC08BC9E467047AB
:403840004D0000009D200000F8B500BFF8BC08BC9E4670472900000068380000C880FF1F900000005881000000000000AAAAAAAAF87F000000366E01C05D0000180000002E
:403880000000E02E070000000C0000006750004000000000000000000000000000000000000000000000000000000000000000003138000000000000000000000000000087
:4038C000000000000000000000000000000000000000000000000000000000000000000000000000000000000000000000000000F080FF1F0000000000000000000000003A
:403900000000000000000000000000000000000000000000000000000000000000000000000000000000000000000000000000000000000000000000000000000000000087
:403940000000000000000000000000000000000000000000000000000000000000000000000000000000000000000000000000000000000000000000000000000000000047
:403980000000000000000000000000000000000000000000000000000000000000000000000000000000000000000000000000000000000000000000000000000000000007
:4039C00000000000000000000000000000000000000000000000000000000000000000000000000000000000000000000000000000000000000000000000000000000000C7
:020000040003F7
:0200000480007A
:4000000001520040026400400107014002090140540A0140300B014002400140034101400142014003430140044501400846014001470140025001400151014011808A0DD4
:400040008B0FEE0CAF01EE0412021B011E05260C29012E01300432013408360237013E044010410545D14720482349FF4AFF4BFF4DA04F04501852805405580459045A04D4
:400080005B045F01604062C06440654066C068C06AC06CC06EC08401870E8B0199089A079E04A303AE08B004B102B201B304B402B501B608B708BF10C010C106C5D5C6201E
:4000C000C701C81BC9FFCAFFCBFFCDA0CF04D018D280D407D804D904DA04DB04DF01E040E2C0E440E540E6C0E8C0EAC0ECC0EEC0040409020A010D800F081022174019147A
:400100001A011B011C441D801E201F8022402642272829102F80302037203E083F2042014580482249014F2950025608571059055A805EA05F09710277408A028C40C02016
:40014000C2C9C485CA84CC24CE60D018D228D6FB3320CC106302A720D640A721AB20AF01EE305A046020D602D8021B048A048C2096049C20C608E002E404AB0400010C0126
:40018000000300000010100010000800800000808000000000000000000B0B000000000000C0C000C00000000E001801000000000000000000000000000000000000000007
:4001C00000000000000000000000000000000000000000000000000000000000000000000000000000000000000000000000000000000000000000000000000000000000FF
:4002000000000000000000000000000000000000000000000000000000000000000000000000000000000000000000000000000000000000000000000000000000000000BE
:40024000000000000000000000000000000000000000000000000000000000000000000000000000000000000000000000000000000000000000000000000000000000007E
:40028000000000000000000000000000000000000000000000000000000000000000000000000000000000000000000000000000000000000000000000000000000000003E
:0200000490006A
:0400000000004005B7
:0200000490105A
:04000000BC90ACAF55
:0200000490303A
:02000000564167
:0200000490402A
:4000000000000000000000000000000000000000000000000000000000000000000000000000000000000000000000000000000000000000000000000000000000000000C0
:400040000000000000000000000000000000000000000000000000000000000000000000000000000000000000000000000000000000000000000000000000000000000080
:400080000000000000000000000000000000000000000000000000000000000000000000000000000000000000000000000000000000000000000000000000000000000040
:4000C0000000000000000000000000000000000000000000000000000000000000000000000000000000000000000000000000000000000000000000000000000000000000
:0200000490501A
:0C00000000012E16106900012E2D66AACA
:00000001FF