:400000000080002011000000B1210000B121000080B500AF024A034B1B68136002F0FAF8BC760040FA46004010B5054C237833B9044B13B10448AFF300800123237010BD7F
:400040009081FF1F00000000485C0000084B10B51BB108490848AFF300800848036803B910BD074B002BFBD0BDE81040184700BF000000009481FF1F485C0000C880FF1F2A
:400080000000000080B483B000AF78607B6803F108027B685A607B684FF0FF329A607B6803F108027B68DA607B6803F108027B681A617B6800221A6000BF0C37BD4680BC8A
:4000C000704700BF80B483B000AF78607B6800221A6100BF0C37BD4680BC704780B485B000AF786039607B685B68FB603B68FA685A60FB689A683B689A60FB689B683A68D1
:400100005A60FB683A689A603B687A681A617B681B685A1C7B681A6000BF1437BD4680BC704700BF80B485B000AF786039603B681B68BB60BB68B3F1FF3F03D17B681B6904
:40014000FB600CE07B680833FB6002E0FB685B68FB60FB685B681A68BB689A42F6D9FB685A683B685A603B685B683A689A603B68FA689A60FB683A685A603B687A681A61A4
:400180007B681B685A1C7B681A6000BF1437BD4680BC704780B485B000AF78607B681B69FB607B685B687A6892689A607B689B687A6852685A60FB685A687B689A4203D1E4
:4001C0007B689A68FB685A607B6800221A61FB681B685A1EFB681A60FB681B6818461437BD4680BC704700BF80B584B000AF786039607B68FB6001F0F7F8FB681A68FB680F
:40020000DB6BF968096C01FB03F31A44FB689A60FB6800229A63FB681A68FB685A60FB681A68FB68DB6B013BF968096C01FB03F31A44FB68DA60FB68FF2283F84420FB681E
:40024000FF2283F845203B68002B14D1FB681B69002B1AD0FB681033184600F00FFE0346002B12D00C4B4FF080521A60BFF34F8FBFF36F8F09E0FB6810331846FFF702FF71
:40028000FB6824331846FFF7FDFE01F0C5F8012318461037BD4680BD04ED00E080B58AB002AFF860B9601346FB71FB68BA6802FB03F3FB61FB694833184601F027F9B8611C
:4002C000BB69002B0DD0BB697B617B6948337B61FA79BB69009313467A69B968F86800F005F8BB6918462037BD4680BD80B584B000AFF860B9607A60FB70BB68002B03D1BA
:40030000BB69BA691A6002E0BB697A681A60BB69FA68DA63BB69BA681A640121B869FFF763FF00BF1037BD4680BD00BF80B58AB000AFF860B9607A603B6000237B62FB680C
:400340003B6201F051F83B6A9A6B3B6ADB6B9A4202D33B68022B29D13A68B968386A00F031F9F8613B6A5B6A002B10D03B6A2433184600F083FD0346002B13D03F4B4FF05F
:4003800080521A60BFF34F8FBFF36F8F0AE0FB69002B07D0394B4FF080521A60BFF34F8FBFF36F8F01F038F8012363E07B68002B03D101F031F800235CE07B6A002B06D148
:4003C00007F11403184600F0ADFD01237B6201F023F800F08DFB01F007F83B6A93F844305BB2B3F1FF3F03D13B6A002283F844203B6A93F845305BB2B3F1FF3F03D13B6A67
:40040000002283F8452001F007F83A1D07F114031146184600F09CFD0346002B24D1386A00F0C8F90346002B18D03B6A10337A681146184600F00CFD386A00F053F900F0C8
:4004400065FB0346002B7FF47CAF0C4B4FF080521A60BFF34F8FBFF36F8F72E7386A00F041F900F053FB6CE7386A00F03BF900F04DFB002318462837BD4680BD04ED00E043
:4004800080B58AB000AFF860B9607A6000237B62FB683B6200F0A8FF3B6A9B6BFB61FB69002B1FD0B968386A00F0F6F8FB695A1E3B6A9A633B6A1B69002B0FD03B6A10337D
:4004C000184600F0DBFC0346002B07D03C4B4FF080521A60BFF34F8FBFF36F8F00F09CFF012369E07B68002B03D100F095FF002362E07B6A002B06D107F11403184600F033
:4005000011FD01237B6200F087FF00F0F1FA00F06BFF3B6A93F844305BB2B3F1FF3F03D13B6A002283F844203B6A93F845305BB2B3F1FF3F03D13B6A002283F8452000F0F5
:400540006BFF3A1D07F114031146184600F000FD0346002B23D1386A00F016F90346002B17D03B6A24337A681146184600F070FC386A00F0B7F800F0C9FA0346002B89D1F4
:400580000F4B4FF080521A60BFF34F8FBFF36F8F80E7386A00F0A6F800F0B8FA7AE7386A00F0A0F800F0B2FA386A00F0EDF80346002B3FF46FAF002318462837BD4680BD5A
:4005C00004ED00E080B586B000AFF860B9607A6000237B61FB689B6B3B61FB681B6C002B0DD1FB681B68002B4DD1FB689B68184600F0A4FD7861FB6800229A6043E07B68EC
:40060000002B19D1FB685868FB681B6C1A46B96803F032FCFB685A68FB681B6C1A44FB685A60FB685A68FB689B689A422BD3FB681A68FB685A6026E0FB68D868FB681B6C72
:400640001A46B96803F018FCFB68DA68FB681B6C5B421A44FB68DA60FB68DA68FB681B689A4207D2FB689A68FB681B6C5B421A44FB68DA607B68022B05D13B69002B02D01D
:400680003B69013B3B613B695A1CFB689A637B6918461837BD4680BD80B582B000AF786039607B681B6C002B18D07B68DA687B681B6C1A447B68DA607B68DA687B689B685A
:4006C0009A4203D37B681A687B68DA607B68D9687B681B6C1A46386803F0CEFB00BF0837BD4680BD80B584B000AF786000F07CFE7B6893F84530FB7311E07B685B6A002BCF
:4007000012D07B682433184600F0B8FB0346002B01D000F063FCFB7B013BDBB2FB7397F90F30002BE9DC00E000BF7B68FF2283F8452000F071FE00F057FE7B6893F8443093
:40074000BB7311E07B681B69002B12D07B681033184600F093FB0346002B01D000F03EFCBB7B013BDBB2BB7397F90E30002BE9DC00E000BF7B68FF2283F8442000F04CFECE
:4007800000BF1037BD4680BD80B584B000AF786000F02AFE7B689B6B002B02D10123FB6001E00023FB6000F037FEFB6818461037BD4680BD80B584B000AF786000F014FEC7
:4007C0007B689A6B7B68DB6B9A4202D10123FB6001E00023FB6000F01FFEFB6818461037BD4680BD80B58CB004AFF860B9603B601346FB80FB889B00184600F087FE786138
:400800007B69002B0ED0502000F080FEF861FB69002B03D0FB697A691A6305E0786900F007FF01E00023FB61FB69002B13D0FA8800230393FB690293FB6A0193BB6A0093FB
:400840003B68B968F86800F00FF8F86900F08CF80123BB6102E04FF0FF33BB61BB6918462037BD4680BD00BF80B586B000AFF860B9607A603B60BB6A186B7B689B001A467B
:40088000A52103F004FBBB6A1A6B7B6803F18043013B9B0013443B613B6923F007033B61BB68002B1FD000237B6112E0BA687B6913441978BA6A7B69134434330A461A7059
:4008C000BA687B6913441B78002B06D07B6901337B617B690B2BE9D900E000BFBB6A002283F83F2003E0BB6A002283F834203B6A042B01D904233B62BB6A3A6ADA62BB6AE2
:400900003A6A1A64BB6A00225A64BB6A04331846FFF7D8FBBB6A18331846FFF7D3FBBB6ABA6A1A613B6AC3F10502BB6A9A61BB6ABA6A5A62BB6A00229A64BB6A002283F82B
:400940004C203A68F968386900F0C2FC0246BB6A1A607B6A002B02D07B6ABA6A1A6000BF1837BD4680BD00BF80B582B000AF786000F03AFD2A4B1B680133294A1360294BC5
:400980001B68002B09D1274A7B681360244B1B68012B10D100F036FB0DE0234B1B68002B09D1204B1B68DA6A7B68DB6A9A4202D81C4A7B6813601D4B1B6801331B4A136022
:4009C0007B68DB6A01229A40194B1B681343184A13607B68DA6A13469B0013449B00154A1A447B68043319461046FFF777FB00F013FD0D4B1B68002B0ED00A4B1B68DA6ABF
:400A00007B68DB6A9A4207D20B4B4FF080521A60BFF34F8FBFF36F8F00BF0837BD4680BD8482FF1FAC81FF1F9082FF1FA082FF1F8C82FF1FB081FF1F04ED00E080B584B0E6
:400A400000AF78600023FB607B68002B08D000F04FF80021786800F0D5FB00F057F8F860FB68002B07D1064B4FF080521A60BFF34F8FBFF36F8F00BF1037BD4680BD00BF75
:400A800004ED00E080B584B002AF134B0193002300930023642211491148FFF7A3FE78607B68012B14D14FF0A00383F31188BFF36F8FBFF34F8F3B600A4B4FF0FF321A60D9
:400AC000094B01221A60094B00221A6000F06CFC00BF0837BD4680BDA882FF1F505C0000F50F0000A482FF1F9082FF1F8882FF1F80B400AF044B1B680133034A136000BF83
:400B0000BD4680BC704700BFAC82FF1F80B584B000AF0023FB600023BB6000F065FC394B1B68013B374A1360364B1B68002B61D1354B1B68002B5DD02EE0344BDB68DB6889
:400B4000FB60FB6818331846FFF724FBFB6804331846FFF71FFBFB68DB6A01229A402C4B1B6813432A4A1360FB68DA6A13469B0013449B00274A1A44FB680433194610466A
:400B8000FFF7ACFAFB68DA6A234B1B68DB6A9A4202D3224B01221A601C4B1B68002BCCD1FB68002B01D000F0A9FA1D4B1B687B607B68002B10D000F037F80346002B02D044
:400BC000164B01221A607B68013B7B607B68002BF1D1134B00221A60104B1B68002B09D00123BB600F4B4FF080521A60BFF34F8FBFF36F8F00F010FCBB6818461037BD4626
:400C000080BD00BFAC82FF1F8482FF1F4482FF1F8C82FF1FB081FF1FAC81FF1F9882FF1F9482FF1F04ED00E080B586B000AF00237B61464B1B68002B7DD1454B1B68013374
:400C40003B61434A3B6913603B69002B10D1414B1B68FB60404B1B683E4A13603E4AFB6813603E4B1B6801333C4A136000F046FA3B4B1B683A699A4248D3364B1B681B6820
:400C8000002B04D1364B4FF0FF321A603EE0314B1B68DB68DB68BB60BB685B687B603A697B689A4203D22E4A7B6813602EE0BB6804331846FFF76EFABB689B6A002B04D0FA
:400CC000BB6818331846FFF765FABB68DB6A01229A40244B1B681343224A1360BB68DA6A13469B0013449B001F4A1A44BB68043319461046FFF7F2F9BB68DA6A1B4B1B68F3
:400D0000DB6A9A42B9D301237B61B6E7174B1B68DA6A154913469B0013449B000B441B68012B01D901237B61114B1B68002B07D001237B6104E00F4B1B6801330D4A136084
:400D40007B6918461837BD4680BD00BFAC82FF1F8882FF1F3C82FF1F4082FF1F9C82FF1FA482FF1F8C82FF1FB081FF1FAC81FF1F9882FF1F9482FF1F80B586B000AF2F4B6D
:400D80001B68002B03D02E4B01221A6051E02C4B00221A602B4B1B681B6B7B614FF0A5333B617B691A683B699A4211D17B6904331A683B699A420BD17B6908331A683B6944
:400DC0009A4205D17B690C331A683B699A4208D01C4B1A681B4B1B6834331946104600F0B3FC194B1B687B607B68B3FA83F3FB70FB78C3F11F03FB60FA6813469B00134433
:400E00009B00124A1344BB60BB685B685A68BB685A60BB685A68BB6808339A4204D1BB685B685A68BB685A60BB685B68DB68054A136000BF1837BD4680BD00BFAC82FF1F07
:400E40009882FF1FAC81FF1F8C82FF1FB081FF1F80B582B000AF78603960074B1B68183319467868FFF75EF90121386800F0CAF900BF0837BD4680BDAC81FF1F80B584B0DA
:400E800000AF78607B68DB68DB68BB60BB6818331846FFF77FF91D4B1B68002B1CD1BB6804331846FFF776F9BB68DB6A01229A40174B1B681343164A1360BB68DA6A13469A
:400EC0009B0013449B00134A1A44BB68043319461046FFF703F905E0BB68183319460E48FFF7FCF8BB68DA6A0C4B1B68DB6A9A4205D90123FB600A4B01221A6001E0002302
:400F0000FB60FB6818461037BD4680BDAC82FF1F8C82FF1FB081FF1F4482FF1FAC81FF1F9882FF1F80B483B000AF7860064B1A687B681A60054B1A687B685A6000BF0C3751
:400F4000BD4680BC704700BF9C82FF1F8882FF1F80B586B000AF7860396000F045FA1D4B1B683B617B685B683A69D31AFB603B681B68B3F1FF3F02D100237B6123E07B68C6
:400F80001A68154B1B689A4207D07B685A683B699A4202D801237B6115E03B681A68FB689A420BD93B681A68FB68D21A3B681A607868FFF7B7FF00237B6104E03B68002218
:400FC0001A6001237B6100F027FA7B6918461837BD4680BD8882FF1F9C82FF1F80B400AF034B01221A6000BFBD4680BC704700BF9882FF1F80B582B000AF786000F042F89F
:40100000FCE700BF80B582B000AF00237B600CE07A6813469B0013449B00124A13441846FFF730F87B6801337B607B68042BEFD90D48FFF727F80D48FFF724F80C48FFF730
:4010400021F80C48FFF71EF80B48FFF71BF80B4B054A1A600A4B054A1A6000BF0837BD4680BD00BFB081FF1F1482FF1F2882FF1F4482FF1F5882FF1F7082FF1F3C82FF1FCE
:401080004082FF1F80B582B000AF19E000F0ACF90F4BDB68DB687B607B6804331846FFF779F80C4B1B68013B0A4A13600A4B1B68013B094A136000F0AFF9786800F00EF8ED
:4010C000054B1B68002BE1D100BF0837BD4680BD5882FF1F8482FF1F6C82FF1F80B582B000AF78607B681B6B184600F0A1FA786800F09EFA00BF0837BD4680BD80B483B08D
:4011000000AF0C4B1B681B68002B04D10A4B4FF0FF321A6008E0074B1B68DB68DB687B607B685B68044A136000BF0C37BD4680BC704700BF3C82FF1FA482FF1F80B584B09F
:4011400000AF78607B68BB600023FB607B68002B4FD0BB685B6C5A1EBB685A64BB68DA6ABB681B6C9A4244D0BB685B6C002B40D1BB6804331846FFF70DF80346002B15D1C8
:40118000BB68DA6A1D4913469B0013449B000B441B68002B0AD1BB68DB6A012202FA03F3DA43174B1B681340154A1360BB681A6CBB68DA62BB68DB6AC3F10502BB689A61B7
:4011C000BB68DB6A01229A400D4B1B6813430C4A1360BB68DA6A13469B0013449B00074A1A44BB68043319461046FEF777FF0123FB60FB6818461037BD4680BDB081FF1F04
:401200008C82FF1F80B584B000AF78603960294B1B68FB60284B1B6804331846FEF7BAFF0346002B0BD1244B1B68DB6A012202FA03F3DA43214B1B681340204A13607B68B3
:40124000B3F1FF3F0AD13B68002B07D01A4B1B68043319461A48FEF741FF26E0FA687B681344BB60144B1B68BA685A60BA68FB689A4209D2134B1A680F4B1B6804331946ED
:401280001046FEF74FFF10E00F4B1A680A4B1B68043319461046FEF745FF0C4B1B68BA689A4202D2094ABB68136000BF1037BD4680BD00BF8882FF1FAC81FF1F8C82FF1F93
:4012C0007082FF1F4082FF1F3C82FF1FA482FF1F80B485B000AFF860B9607A60FB68043BFB60FB684FF080721A60FB68043BFB60BB6823F00102FB681A60FB68043BFB6060
:40130000084AFB681A60FB68143BFB607A68FB681A60FB68203BFB60FB6818461437BD4680BC70472913000080B483B000AF00233B604FF0A00383F31188BFF36F8FBFF334
:401340004F8F7B6000BF3B68002BFCD000BF0C37BD4680BC704700BF0000000000000000074B19680868B0E8F00F80F30988BFF36F8F4FF0000080F311884EF00D0E7047BB
:40138000AC81FF1F00BF00BF06480068006880F3088862B661B6BFF34F8FBFF36F8F00DF00BF00BF08ED00E080B500AF0C4A0C4B1B6843F460031360094A094B1B6843F024
:4013C0006043136000F088F8064B00221A60FFF7DBFFFFF7D1FCFFF7A7FF0023184680BD20ED00E0CC80FF1F80B483B000AF4FF0A00383F31188BFF36F8FBFF34F8F7B6014
:40140000044B1B680133034A136000BF0C37BD4680BC7047CC80FF1F80B483B000AF094B1B68013B074A1360064B1B68002B04D100237B607B6883F3118800BF0C37BD46CE
:4014400080BC7047CC80FF1F0000000000000000EFF30980BFF36F8F0D4B1A6820E9F00F10602DE908404FF0A00080F31188FFF783FC4FF0000080F31188BDE8084019682B
:401480000868B0E8F00F80F30988BFF36F8F7047AC81FF1F00BF00BF80B582B000AF4FF0A00383F31188BFF36F8FBFF34F8F3B60FFF7BAFB0346002B03D0064B4FF08052BB
:4014C0001A6000237B607B6883F3118800BF0837BD4680BD04ED00E080B400AF084B00221A60084B00221A60074B45F6BF521A60034B07221A6000BFBD4680BC704700BF35
:4015000010E000E018E000E014E000E080B588B000AF786000237B61FFF7EAFA404B1B68002B04D100F0BEF83D4B01221A607B68002B0ED008231A467B6813447B607B681A
:4015400003F00703002B04D07B6823F0070308337B607B68002B57D07B6847F6F772934252D8304BBB612F4B1B68FB6104E0FB69BB61FB691B68FB61FB695A687B689A4220
:4015800003D2FB691B68002BF1D1FB69264A93423AD0BB691B68082213447B61FB691A68BB691A60FB695A687B68D31A08225200934222D9FA697B681344FB60FB695A68E7
:4015C0007B68D21AFB685A60FB697A685A60FB685B68BB60134B3B6102E03B691B683B613B691B685A68BB689A42F6D33B691A68FB681A603B69FA681A600C4B1A68FB69AE
:401600005B68D31A094A1360FFF780FA7B69002B01D100F0A9F87B6918462037BD4680BDC0020020B0020020B8020020D080FF1F80B586B000AF78607B683B617B68002BFE
:4016400027D008235B423A6913443B613B69FB60FFF74EFAFB685B68BB60104B7B6102E07B691B687B617B691B685A68BB689A42F6D37B691A68FB681A607B69FA681A6047
:40168000FB685A68064B1B681344054A1360FFF73DFA00BF1837BD4680BD00BFB0020020D080FF1F80B483B000AF0F4B23F007037B600E4A7B6813600C4B00225A600C4BFE
:4016C00047F6F8725A600A4B00221A607B683B603B6847F6F8725A603B68054A1A6000BF0C37BD4680BC7047B882FF1FB0020020B802002080B500AF00F006F800F042F8B2
:40170000FFF7C0F9FEE700BF80B500AF0A4B0B4ADA62094B0A4A9A63074B0A4ADA6301F0FFF901F0D5FA01F099FB00F0D9FE01F01DFD00BF80BD00BF0080FF1F6113000037
:40174000511400009914000080B485B000AF786039604FF0A00383F31188BFF36F8FBFF34F8FFB60FEE700BF80B483B000AF4FF0A00383F31188BFF36F8FBFF34F8F7B607C
:40178000FEE700BF80B582B002AF002201210120FEF784FD02462E4B1A60002201210120FEF77CFD02462A4B5A60002201210120FEF774FD0246264B9A6000220221012029
:4017C000FEF76CFD0246234B1A60002202210120FEF764FD0246204B1A6000230193022300931E4B64221E491E48FEF7FBFF1E4A0023019302230093134664221B491948DD
:40180000FEF7F0FF1A4A00230193022300931346642216491348FEF7E5FF002301930223009300234FF47A7212491348FEF7DAFF0023019302230093002364220F49104872
:40184000FEF7D0FF00F048FA00BFBD4680BD00BFDC020020EC020020E8020020685C00006C5C000085180000695C0000745C00006A5C00007C5C000051190000805C0000FC
:40188000991B000080B586B000AF78607B687B617B691B78012B1DD0022B35D0002B52D1294B1B6807F10F014FF0FF321846FEF7E7FD38613B69012B40D1FB7B002B04D01E
:4018C0000623184601F0BCF938E01323184601F0B7F933E01C4B5B6807F10F014FF0FF321846FEF7CDFD38613B69012B28D1FB7B002B04D00623184601F0B2F920E013236C
:40190000184601F0ADF91BE00F4B9B6807F10F014FF0FF321846FEF7B3FD38613B69012B10D1FB7B002B04D00623184601F05EFA08E01323184601F059FA03E000BFA7E760
:4019400000BFA5E700BFA3E7DC0200200000000090B587B000AF64233B610023FB75FB7D83F00103DBB2002B04D001F051FB0123FB75F4E7012001F063FB0346002BEED02B
:40198000FB7D002BEBD001F07BFB0346184601F00FFE4FF00002224B01F09AFF03460C46184621461CA3D3E9002301F067FE03460C461846214602F073F80346FB60F86870
:4019C00000F036F8B8601749B86802F0B9F803467B60786802F004FA03467B80124B1A68124913465B0013445B000B447A881A800D4B1B6801330C4A13600B4B1B682822D0
:401A0000934202D1084B00221A600023FB753869FFF714F8A3E700BF000000000070A7400000B04000007A44C4020020F0020020B0B584B000AF7860534B184601F0CAFDBF
:401A40004FA3D3E9002301F065FC03460C46184621464FF000024D4B01F03AFF03460C4625461C464A4B184601F0B4FD44A3D3E9002301F04FFC02460B46104619464FF054
:401A80000002424B01F024FF02460B462046294601F040FC03460C461A4623464FF000003A4901F015FF03460C461846214601F0F7FF0346FB60F86801F08CFD04460D465B
:401AC000314B184601F086FD2DA3D3E9002301F021FC02460B462046294601F0CFFD03460C46184621464FF00002284B01F0F0FE03460C461A4623464FF00000254901F0BB
:401B000009FC03460C461846214601F0C9FF0346BB60F86801F05EFD04460D46786801F059FD17A3D3E9002301F0F4FB02460B462046294601F0A2FD03460C4618462146DC
:401B40004FF00002114B01F0C3FE03460C4625461C46B86801F03EFD02460B462046294601F0DAFB03460C461846214601F098FF034618461037BD46B0BD00BFAFF3008007
:401B800000000000007097400080BB4400000840140EFE4400001C402DE9F04389B000AF4FF49673BB6164237B6152233B80394600230122092000F07FFE00BF00F088FF9A
:401BC000034603F00203002BF8D0B869FEF736FF0A233B6139696B461E464B1EFB600B461A464FF00003DD0045EA5275D4000B461A464FF000034FEAC30949EA52794FEA59
:401C0000C2080B460733DB08DB00ADEB030D6B460033BB60B9683B69DAB20023092000F0CFFE00BF00F054FF034603F00103002BF8D0BB681B78312B3AD1BB6800221A706F
:401C40000023FB610BE0FB690133BA68D15CBA68FB6913440A461A70FB690133FB61FA693B699A42EFDBBB680021184602F038FF7860786802F0B4F803469BB27B80134BAB
:401C80001A687888124913465B0013445B000B44023302461A800D4B1B6801330B4A13600A4B1B682822934202D1084B00221A60084B1868B91C00234FF0FF32FEF736FB8A
:401CC0007869FEF7BBFEB5466FE700BFC8020020F0020020E802002080B582B002AF00230193012300930023642208490848FEF779FD00230193022300930023642205499E
:401D00000548FEF76FFD00BFBD4680BD905C00001D1D00009C5C0000851D000080B582B000AF0123FB700023BB70C8237B60FB78002B04D00023FB700123BB7003E0012327
:401D4000FB700023BB700E4B1868F91C00234FF0FF32FEF7EBFA0A4B5868B91C00234FF0FF32FEF7E3FA064B9868F91C00234FF0FF32FEF7DBFA7868FEF760FED7E700BF8D
:401D8000DC02002080B582B000AF094B1B68B91D4FF0FF321846FEF773FB064801F0ECF9FB88184601F022FA034801F0E5F9ECE7E8020020B85C0000C05C000080B582B091
:401DC00000AF786039603A680021786802F05FF800BF0837BD4680BD80B584B000AFF860B9607A607A68B968F86802F045F800BF1037BD4680BD00BF80B483B000AF034640
:401E0000FB71FEE780B487B000AF7860396000233B6100237B6127E07B699B007A6813441B68BB60BB68FB73BB6823F0FF03BB6014E03B695B003A6813441B781A46BB68C5
:401E4000134419463B695B003A6813445B780B703B6901333B61FB7B013BFB73FB7B002BE7D17B6901337B617B691A2BD4D900BF1C37BD4680BC704780B582B000AF3D4B09
:401E800040F252721A803C4B18221A7004223B493B48FFF7A1FF3B4B02221A704FF0402308221A70384B03221A70384B384A1278D2B21A70374B08221A80374B41F25122BD
:401EC0001A800023FB7019237B6014E0FB785B00DAB2324B1B78DBB203F00103DBB21343DBB203F00303FB704FF4F07001F094F97B68013B7B607B68002B02D0FB78032B51
:401F0000E4D17B68002B02D10320FFF775FF244B4FF480721A80224B07221A70214B00221A70214B48221A701D4B00221A701F4B02221A701E4B04221A701E4A1D4B1B7800
:401F4000DBB243F00103DBB213701B4A1A4B1B78DBB243F00103DBB21370184A174B1B78DBB263F07F03DBB2137000BF0837BD4680BD00BF80400040824000404402004806
:401F8000004100400043004000420040A146004008010049224200402042004025420040044000400640004008400040014000400B400040A2430040A1430040A04300402B
:401FC00080B582B000AF1E4B1B78FB711D4B1B78BB711D4B1B787B711C4AFB7903F00703DBB213701A4AFB791B09DBB21370154ABB7943F00303DBB21370134A7B7943F002
:402000000303DBB21370134B08221A70124B80221A70124B80221A70114B20221A700A2000F098F9084A7B791370064ABB7913700C4B44221A7000BF0837BD4680BD00BF7F
:40204000CF010049F8460040F94600406E5800406F5800400D51004001590040205B0040235B00407658004080B582B000AF72B63C4A3C4B1B78DBB243F00403DBB21370C9
:402080000023FB7113E0FA7913465B0013445B00354A13443B603B681A683B689B889BB219461046FFF78AFEFB790133FB71FB79072BE8D92D494FF09040FFF7A3FE2C4ADC
:4020C0002B4B1B78DBB243F00203DBB21370294A284B1B78DBB243F00203DBB21370264A254B1B78DBB243F04003DBB21370234A224B1B78DBB243F01003DBB213700822B4
:402100001F492048FFF768FE0A221F491F48FFF763FE08221E491F48FFF75EFE08221E491E48FFF759FE1E4A1D4B1B78DBB243F00803DBB213701B4B61221A70FFF79CFE52
:40214000184B81221A70184B01221A70FFF738FF0E2209491548FFF73FFE00BF0837BD4680BD00BFE8460040C45C00006C0000480350014013500140A0430040C2430040A1
:40218000200200480251004028020048C051004034020048125100403C02004822510040224300400048004004000840B043004080B500AF01F034FE03461B680C2B00D17E
:4021C000FEE7FEE780B584B000AF78600F4B1A687B6813441A460E4BD31A802B09DC0B4B1B68FB60094B1A687B681344074A136007E001F015FE02460C2313604FF0FF338B
:40220000FB60FB6818461037BD4680BDD480FF1F0804002080B586B000AF224B7B61224B3B61204B7B6135E03B691B68FB603B695B68BB603B699B683B6000237B600CE065
:40224000FB681A68BB681A60BB680433BB60FB680433FB607B6804337B607A683B689A42EED13B69DB683B6000237B6008E0BB6800221A60BB680433BB607B6804337B60CC
:402280007A683B689A42F2D13B6910333B617B69013B7B617B69002BC6D101F0C7FDFFF729FAFEE701000000945E000080B582B000AF184B184A1A60184A184B1B6843F45B
:4022C0000073136000237B600FE07B68032B04D8134A7B6852F8233000E0124B12497A6841F822307B6801337B607B682F2BECD90E4B1B78DAB20E4B1A700E4B0A4A1A60C6
:40230000FFF7B2FE0C4B00221A6000BF0837BD4680BD00BF0CED00E00004FA0514ED00E000000000B12100000080FF1FBC760040C480FF1F08ED00E0C080FF1F80B483B06C
:4023400000AF0346FB7101BE00BF0C37BD4680BC704700BF80B582B000AF0346FB80FB88054A127802FB03F3184600F055FF00BF0837BD4680BD00BFE080FF1F80B584B0D4
:4023800000AF03463960FB710F4B1B68FB60FB791F2B02D90020FFF7D1FFFB7903F01F0310339B00FA6813441B68BB60FB7903F01F0310339B00FA6813443A681A60BB684C
:4023C00018461037BD4680BD08ED00E080B582B000AF03460A46FB711346BB71BB79072B02D90020FFF7AAFFFB791F2B02D90020FFF7A4FFFB7903F01F0303F1604303F519
:402400006443BA795201D2B21A7000BF0837BD4680BD00BF80B500AF144B02221A70144B81221A70134B08221A70134B0F221A70124B00221A70124B4FF400421A6007212F
:402440000F20FFF7C3FF0F490F20FFF797FF0E4B10221A700D4B00221A700D4B00221A700C4B00221A7000BF80BD00BFD6490040C8490040CA490040DB490040DC490040BB
:4024800080E100E011250000E0030020E6030020EE030020E403002080B582B000AF00F0C3FE0346FB710C4A0B4B1B78DBB243F00403DBB21370094A084B1B78DBB243F0F6
:4024C0000403DBB21370FB79184600F0B1FE00BF0837BD4680BD00BFA5430040B543004080B500AF084B1B78002B04D1FFF792FF054B01221A70FFF7CFFF044B4FF4004211
:402500001A6000BF80BD00BFD002002000E100E080B582B000AFA74B1B78FB71A64B1B78DBB203F04003DBB2002B00F0A981FB7903F00103002B00F080819F4B1B78DBB202
:40254000453B052B00F2758101A252F823F000BF692500008F2600003328000033280000692500007B270000FB7923F02003FB71FB7903F00A03DBB2082B46D18E4B1B780E
:40258000DBB2452B3AD18D4B1B78DBB2002B0FD08B4A8C4B1B681B78DBB21370854B04221A70894B01221A70834B46221A7044E1864B1B78DBB203F00203002B0FD0844B97
:4025C0001B78DBB243F00A03DAB2814B1A707A4B60221A707F4B4FF400421A602DE17E4A7D4B1B78DBB243F01003DBB213707B4B10221A706F4B04221A701EE16D4B002226
:402600001A706D4B4A221A7017E1FB7903F00A03DBB20A2B37D16E4B1B78DBB263F05F03DAB26B4B1A70694B1B78DBB203F00203002B19D0604B1B78DBB203F00803002BFE
:4026400001D0092300E00A23DAB2614B1B78DBB21343DAB25E4B1A70574B60221A705D4B4FF400421A60E8E05B4A5B4B1B78DBB243F01003DBB21370584B10221A704D4B0E
:4026800004221A70D9E00020FFF758FED5E0FB7903F00203002B42D14B4B1B78DAB2474B1B78DBB29A4214D2454A464B1B6846490978C9B20B441B78DBB213703D4B0422EF
:4026C0001A70414B1B78DBB20133DAB23E4B1A70B3E03E4B1B78DBB203F00203002B0FD03B4B1B78DBB243F00A03DAB2384B1A70314B60221A70374B4FF400421A609CE08F
:40270000354A354B1B78DBB243F01003DBB21370324B10221A70274B04221A708DE02B4B1B78DBB203F00203002B0FD0284B1B78DBB263F06503DAB2254B1A701E4B602205
:402740001A70244B4FF400421A6076E0224A224B1B78DBB243F01003DBB213701F4B10221A70144B04221A70194B1B78DBB263F06F03DAB2164B1A705FE0194B1B68194A3E
:402780001278D2B213440E4A1278D2B21A70154B1B78DBB20133DAB2124B1A70114B1B78DAB2114B1B78DBB29A421FD2014B10221A7042E0D7490040E0030020E503002044
:4027C000D8490040F0030020E4030020EC030020E603002080E100E0D6490040D9490040E8030020EE030020ED0300202C4B1B78DBB203F00203002B0FD02A4B1B78DBB2EA
:4028000043F00903DAB2274B1A70274B60221A70264B4FF400421A600FE0254A244B1B78DBB243F01003DBB21370224B00221A7003E00020FFF782FD00BFFB7903F02003C6
:40284000002B28D0184B1B78DBB203F00803002B01D0012300E00223DAB2124B1B78DBB21343DAB20F4B1A70114A114B1B78DBB223F01003DBB213700B4B10221A700AE0B7
:40288000094B1B78DBB203F01003DBB2002B02D1054B10221A7000BF0837BD4680BD00BFEC030020E6030020E003002080E100E0D6490040D749004080B485B000AF39603E
:4028C00011461A460346FB710B46BB7113467B710223FB733B68002B56D02E4B1B78DBB2102B0CD12C4B1B78DBB203F00803002B02D10023FB7315E00123FB7312E0254B65
:402900001B78DBB2602B0DD10023FB73234B4FF400421A60224B1B78DBB223F00803DAB21F4B1A70FB7B002B2ED11A4B45221A701C4B00221A701C4ABB7913701B4A3B68B7
:4029400013601B4A7B791370154B1B78DBB223F00203DAB2124B1A70164AFB795B00DBB213707B7903F00103002B06D00A4B12221A70114B04221A7002E0074B01221A70D2
:402980000E4B4FF400421A60FB7B18461437BD4680BC7047E0030020D949004080E200E0E6030020E4030020E5030020F0030020EC030020D8490040D749004000E100E047
:4029C00080B485B000AF396011461A460346FB710B46BB7113467B710223FB733B68002B59D0304B1B78DBB2102B0CD12E4B1B78DBB203F00803002B02D10023FB7315E0A0
:402A00000123FB7312E0274B1B78DBB2602B0DD10023FB73254B4FF400421A60244B1B78DBB223F00803DAB2214B1A70FB7B002B31D11C4B49221A701E4B00221A701E4A6C
:402A4000BB7913701D4A3B6813601D4A7B791370174B1B78DBB223F00103DAB2144B1A70184AFB795B00DBB243F00103DBB213707B7903F00103002B06D00B4B12221A7031
:402A8000114B04221A7002E0074B01221A700F4B4FF400421A60FB7B18461437BD4680BC704700BFE0030020D949004080E200E0E6030020EE030020ED030020E803002020
:402AC000EC030020D8490040D749004000E100E080B483B000AF0E4B4FF400421A600D4B1B78FB710C4B1B78DBB203F04003DBB2002B03D0FB7943F00403FB71074B4FF499
:402B000000421A60FB7918460C37BD4680BC704780E100E0E6030020E003002000E100E080B500AF064B1B78002B04D100F00AF8034B01221A7000F045F800BF80BD00BF23
:402B4000D102002080B582B000AF1C4B1B78DBB223F03F03FB71194AFB7943F00903DBB21370174A164B1B78DBB243F00103DBB21370FF2000F036F8FF2000F051F80620FA
:402B800000F05EF8132000F06BF8002000F078F800F04AFB0346BB71094A094B1B78DBB243F01003DBB21370BB79184600F040FB00F028F800BF0837BD4680BD7D640040D6
:402BC0009D64004080B400AF054A054B1B78DBB263F07F03DBB2137000BFBD4680BC70477D64004080B483B000AF0346FB71044AFB79137000BF0C37BD4680BC704700BF70
:402C00000D64004080B500AF01E000F055F800F047F8034603F01003002BF6D100BF80BD80B483B000AF0346FB71044AFB79137000BF0C37BD4680BC704700BF4D640040BD
:402C400080B483B000AF0346FB71044AFB79137000BF0C37BD4680BC704700BF2D64004080B483B000AF0346FB71044AFB79137000BF0C37BD4680BC704700BF3D64004014
:402C800080B483B000AF0346FB71044AFB79137000BF0C37BD4680BC704700BF8D64004080B400AF034B1B78DBB21846BD4680BC704700BF6D64004080B400AF034B1B78E3
:402CC000DBB21846BD4680BC704700BF5D64004080B500AF064B1B78002B04D100F00AF8034B01221A7000F043F800BF80BD00BFD202002080B582B000AF1B4B1B78DBB208
:402D000023F03F03FB71184AFB7943F00903DBB21370164A154B1B78DBB243F00103DBB21370FF2000F034F8FF2000F04FF8062000F05CF8002000F069F800F075FA034672
:402D4000BB710A4A094B1B78DBB243F01003DBB21370BB79184600F06BFA00F029F800BF0837BD4680BD00BF726400409264004080B400AF054A054B1B78DBB263F07F0351
:402D8000DBB2137000BFBD4680BC70477264004080B483B000AF0346FB71044AFB79137000BF0C37BD4680BC704700BF0264004080B500AF01E000F045F800F037F8034671
:402DC00003F01003002BF6D100BF80BD80B483B000AF0346FB71044AFB79137000BF0C37BD4680BC704700BF4264004080B483B000AF0346FB71044AFB79137000BF0C3720
:402E0000BD4680BC704700BF2264004080B483B000AF0346FB71044AFB79137000BF0C37BD4680BC704700BF8264004080B400AF034B1B78DBB21846BD4680BC704700BFC6
:402E40006264004080B400AF034B1B78DBB21846BD4680BC704700BF5264004080B500AF064B1B78002B04D100F00AF8034B01221A7000F029F800BF80BD00BFD30200207C
:402E800080B500AF102000F057F907210020FFF79DFA0A490020FFF771FA094A084B1B78DBB243F00603DBB213700C2000F086F8044B00221A8000BF80BD00BF2D31000045
:402EC00001590040F803002080B582B000AF00F0ABF90346FB712E4A2D4B1B78DBB243F00103DBB213702B4A2A4B1B78DBB243F00103DBB21370284A274B1B78DBB243F0DF
:402F00000103DBB21370254A244B1B78DBB243F00103DBB21370224B1B78BB71BB7943F00203BB71BB7943F00103BB711C4ABB7913701C4B18221A701B4A1B4B1B78DBB2AA
:402F400043F04003DBB21370174A174B1B78DBB223F00303DBB21370144BCE221A70144B02221A70134A134B1B78DBB243F00803DBB213700A20FFF7EDF90F4B01221A60B3
:402F8000FB79184600F054F900BF0837BD4680BDAB430040BB430040A1430040B14300400359004006590040055900400059004014460040275B004080E200E080B584B087
:402FC00000AF0346FB71FB790A2B07D00C2B02D0082B06D008E0C223FB730BE08223FB7308E04223FB7305E0C223FB730020FFF7A5F900BF054AFB7B1370FB79184600F032
:4030000057F800BF1037BD4680BD00BF0259004080B400AF094A094B1B78DBB223F00403DBB21370054A054B1B78DBB243F00103DBB2137000BFBD4680BC70470059004079
:4030400080B584B000AF0346FB710C4B1B78DBB203F00103FB73FB7B012B02D0FB79002BF3D0FB7B012B04D10120FFF773F9034B1B78FB7B18461037BD4680BD0159004001
:4030800080B483B000AF084B1B88FB80074B1B881BB29BB2FA88D31A9BB21BB218460C37BD4680BC704700BFA05B0040FA03002080B584B000AF0346FB71FB790A2B08D0F5
:4030C0000C2B02D0082B08D00BE04FF48053FB600DE04FF48063FB6009E04FF48073FB6005E00023FB600020FFF728F900BF0C4B00221A80FB6842F2107202FB03F303F508
:403100008063002B01DA03F2FF73DB121A46054B1A60054B00221A8000BF1037BD4680BDFC030020F4030020FA03002080B400AF00BFBD4680BC704780B483B000AF03468C
:40314000FB710949084B1B78DBB25AB297F9073023F007035BB213435BB2DBB20B7000BF0C37BD4680BC70470241004080B400AF00BFBD4680BC704780B584B000AF7860B3
:403180000123FB737B681B78BB730BE0BB7B184600F052F8FB7B7A6813441B78BB73FB7B0133FB73BB7B002BF0D100BF1037BD4680BD00BF80B582B000AF0346FB71FB7932
:4031C0001B09DBB21A46084B9B5C184600F034F8FB7903F00F03044AD35C184600F02CF800BF0837BD4680BDF45C000080B582B000AF0346FB80FB881B0A9BB2DBB218464A
:40320000FFF7D8FFFB88DBB21846FFF7D3FF00BF0837BD4680BD00BF0230800803D000BF01380046FCD17047EFF3108072B6704780F31088704700BFFEB5494652465B46F2
:403240000EB40746244909688A46244A12682448022100F047F8030020480068C018204900F040F8143883460121C9430C4601250026FFF7D9FF814651460B7823400B7041
:4032800058460130FFF7C8FF3800F04028400B78234003430B705846FFF7BEFF0136072EF2D9002001300138013001200B78234003430B7058460430FFF7AEFF4846FFF707
:4032C000B7FF00BF00BF00BF0EBC894692469B46FEBD00BFAFF30080F080FF1FD880FF1F00C20100002902D0B0FBF1F0704708B14FF0FF3000F008B80029F8D00246B0FB2D
:40330000F1F000FB11217047704700BF81F0004102E000BF83F0004330B54FEA41044FEA430594EA050F08BF90EA020F1FBF54EA000C55EA020C7FEA645C7FEA655C00F0C9
:40334000E2804FEA5454D4EB5555B8BF6D420CDD2C4480EA020281EA030382EA000083EA010180EA020281EA0303362D88BF30BD11F0004F4FEA01314FF4801C4CEA1131E0
:4033800002D0404261EB410113F0004F4FEA03334CEA133302D0524263EB430394EA050F00F0A780A4F10104D5F1200E0DDB02FA0EFC22FA05F2801841F1000103FA0EF2F4
:4033C000801843FA05F359410EE0A5F120050EF1200E012A03FA0EFC28BF4CF0020C43FA05F3C01851EBE37101F0004507D54FF0000EDCF1000C7EEB00006EEB0101B1F5EE
:40340000801F1BD3B1F5001F0CD349085FEA30004FEA3C0C04F101044FEA445212F5800F80F09A80BCF1004F08BF5FEA500C50F1000041EB045141EA050130BD5FEA4C0C3E
:40344000404141EB010111F4801FA4F10104E9D191F0000F04BF01460020B1FA81F308BF2033A3F10B03B3F120020CDA0C3208DD02F1140CC2F10C0201FA0CF021FA02F168
:403480000CE002F11402D8BFC2F1200C01FA02F120FA0CFCDCBF41EA0C019040E41AA2BF01EB0451294330BD6FEA04041F3C1CDA0C340EDC04F11404C4F1200220FA04F027
:4034C00001FA02F340EA030021FA04F345EA030130BDC4F10C04C4F1200220FA02F001FA04F340EA0300294630BD21FA04F0294630BD94F0000F83F4801306BF81F4801187
:403500000134013D4EE77FEA645C18BF7FEA655C29D094EA050F08BF90EA020F05D054EA000C04BF1946104630BD91EA030F1EBF0021002030BD5FEA545C05D14000494127
:4035400028BF41F0004130BD14F580043CBF01F5801130BD01F0004545F0FE4141F470014FF0000030BD7FEA645C1ABF194610467FEA655C1CBF0B46024650EA013406BF04
:4035800052EA033591EA030F41F4002130BD00BF90F0000F04BF0021704730B54FF4806404F132044FF000054FF0000150E700BF90F0000F04BF0021704730B54FF48064F7
:4035C00004F1320410F0004548BF40424FF000013EE700BF42004FEAE2014FEA31014FEA02701FBF12F07F4393F07F4F81F06051704792F0000F14BF93F07F4F704730B51D
:403600004FF4607401F0004521F0004120E700BF50EA010208BF704730B54FF000050AE050EA010208BF704730B511F0004502D5404261EB41014FF4806404F132045FEAEF
:40364000915C3FF4DCAE4FF003025FEADC0C18BF03325FEADC0C18BF033202EBDC02C2F1200300FA03FC20FA02F001FA03FE40EA0E0021FA02F11444C1E600BF70B54FF0D8
:40368000FF0C4CF4E06C1CEA11541DBF1CEA135594EA0C0F95EA0C0F00F0DEF82C4481EA030621EA4C5123EA4C5350EA013518BF52EA033541F4801143F4801338D0A0FB9F
:4036C00002CE4FF00005E1FB02E506F00042E0FB03E54FF00006E1FB03569CF0000F18BF4EF0010EA4F1FF04B6F5007F64F5407404D25FEA4E0E6D4146EB060642EAC62177
:4037000041EA55514FEAC52040EA5E504FEACE2EB4F1FD0C88BFBCF5E06F1ED8BEF1004F08BF5FEA500E50F1000041EB045170BD06F0004646EA010140EA020081EA03013E
:40374000B4EB5C04C2BFD4EB0C0541EA045170BD41F480114FF0000E013C00F3AB8014F1360FDEBF002001F0004170BDC4F10004203C35DA0C341BDC04F11404C4F1200536
:4037800000FA05F320FA04F001FA05F240EA020001F0004221F0004110EBD37021FA04F642EB06015EEA430E08BF20EAD37070BDC4F10C04C4F1200500FA04F320FA05F066
:4037C00001FA04F240EA020001F0004110EBD37041F100015EEA430E08BF20EAD37070BDC4F1200500FA05F24EEA020E20FA04F301FA05F243EA020321FA04F001F00041A6
:4038000021FA04F220EA020000EBD3705EEA430E08BF20EAD37070BD94F0000F0FD101F00046400041EB010111F4801F08BF013CF7D041EA060195F0000F18BF704703F095
:403840000046520043EB030313F4801F08BF013DF7D043EA0603704794EA0C0F0CEA135518BF95EA0C0F0CD050EA410618BF52EA4306D1D181EA030101F000414FF000007A
:4038800070BD50EA410606BF1046194652EA430619D094EA0C0F02D150EA013613D195EA0C0F05D152EA03361CBF104619460AD181EA030101F0004141F0FE4141F47001AA
:4038C0004FF0000070BD41F0FE4141F4780170BD70B54FF0FF0C4CF4E06C1CEA11541DBF1CEA135594EA0C0F95EA0C0F00F0A7F8A4EB050481EA030E52EA03354FEA0131AC
:4039000000F088804FEA03334FF0805545EA131343EA12634FEA022245EA111545EA10654FEA00260EF000419D4208BF964244F1FD0404F5407402D25B084FEA3202B61A4C
:4039400065EB03055B084FEA32024FF480104FF4002CB6EB020E75EB030E22BFB61A754640EA0C005B084FEA3202B6EB020E75EB030E22BFB61A754640EA5C005B084FEA99
:403980003202B6EB020E75EB030E22BFB61A754640EA9C005B084FEA3202B6EB020E75EB030E22BFB61A754640EADC0055EA060E18D04FEA051545EA16754FEA06164FEA45
:4039C000C30343EA52734FEAC2025FEA1C1CC0D111F4801F0BD141EA00014FF000004FF0004CB6E711F4801F04BF01430020B4F1FD0C88BFBCF5E06F3FF6AFAEB5EB030CEC
:403A000004BFB6EB020C5FEA500C50F1000041EB045170BD0EF0004E4EEA113114EB5C04C2BFD4EB0C0541EA045170BD41F480114FF0000E013C90E645EA060E8DE60CEAEB
:403A4000135594EA0C0F08BF95EA0C0F3FF43BAF94EA0C0F0AD150EA01347FF434AF95EA0C0F7FF425AF104619462CE795EA0C0F06D152EA03353FF4FDAE1046194622E764
:403A800050EA410618BF52EA43067FF4C5AE50EA41047FF40DAF52EA43057FF4EBAE12E74FEA4102B2F1E04324BFB3F5001CDCF1FE5C0DD901F0004C4FEAC0024CEA5070E8
:403AC000B2F1004F40EB830008BF20F00100704711F0804F21D113F13872BCBF01F00040704741F480114FEA5252C2F11802C2F1200C10FA0CF320FA02F018BF40F0010058
:403B00004FEAC1234FEAD32303FA0CFC40EA0C0023FA02F34FEA4303CCE77FEA625307D150EA01331EBF4FF0FE4040F44000704701F0004040F0FE4040F40000704700BF88
:403B40004FF0FF0C1CEAD0521EBF1CEAD15392EA0C0F93EA0C0F6FD01A4480EA010C400218BF5FEA41211ED04FF0006343EA501043EA5111A0FB01310CF00040B1F5000F5B
:403B80003EBF490041EAD3715B0040EA010062F17F02FD2A1DD8B3F1004F40EBC25008BF20F00100704790F0000F0CF0004C08BF49024CEA502040EA51207F3AC2BFD2F1F4
:403BC000FF0340EAC250704740F400004FF00003013A5DDC12F1190FDCBF00F000407047C2F10002410021FA02F1C2F1200200FA02FC5FEA310040F1000053EA4C0308BF6A
:403C000020EADC70704792F0000F00F0004C02BF400010F4000F013AF9D040EA0C0093F0000F01F0004C02BF490011F4000F013BF9D041EA0C018FE70CEAD15392EA0C0F0B
:403C400018BF93EA0C0F0AD030F0004C18BF31F0004CD8D180EA010000F00040704790F0000F17BF90F0004F084691F0000F91F0004F14D092EA0C0F01D142020FD193EA80
:403C80000C0F03D14B0218BF084608D180EA010000F0004040F0FE4040F40000704740F0FE4040F4400070474FF0FF0C1CEAD0521EBF1CEAD15392EA0C0F93EA0C0F69D05C
:403CC000A2EB030280EA010C49024FEA402037D04FF0805343EA111143EA10130CF000408B4238BF5B0042F17D024FF4000C8B4224BF5B1A40EA0C00B3EB510F24BFA3EBF9
:403D0000510340EA5C00B3EB910F24BFA3EB910340EA9C00B3EBD10F24BFA3EBD10340EADC001B0118BF5FEA1C1CE0D1FD2A3FF650AF8B4240EBC25008BF20F001007047BE
:403D40000CF0004C4CEA50207F32C2BFD2F1FF0340EAC250704740F400004FF00003013A37E792F0000F00F0004C02BF400010F4000F013AF9D040EA0C0093F0000F01F0FE
:403D8000004C02BF490011F4000F013BF9D041EA0C0195E70CEAD15392EA0C0F08D142027FF47DAF93EA0C0F7FF470AF084676E793EA0C0F04D14B023FF44CAF08466EE713
:403DC00030F0004C18BF31F0004CCAD130F000427FF45CAF31F000437FF43CAF5FE700BF42000ED2B2F1FE4F0BD34FF09E03B3EB126209D44FEA002343F0004323FA02F031
:403E000070474FF00000704712F1610F01D1420202D14FF0FF3070474FF00000704700BF014B1868704700BF5481FF1F0E4B70B51E460E4C0025E41AA410A54204D056F84E
:403E4000253098470135F8E702F012F8084B094C1E46E41AA4100025A54204D056F8253098470135F8E770BD7C5E00007C5E00007C5E0000845E000010B5431E0A449142E4
:403E800004D011F8014B03F8014FF8E710BD03460244934202D003F8011BFAE770472DE9F0410F46904601F01DFC04460D46B8F1000F11D0C7F30A53C3F16B03002B0BDDFF
:403EC0001B0503F17F55002405F5401522462B46FFF7D4FBBDE8F08120462946BDE8F0812DE9F04F82460C469DB00023139218934FF000084FF000091791179B1A780D2AE7
:403F000005D8092A13D2002A00F0AD8112E02B2A04D02D2A04D0202A0CD108E0002200E001220C925A1C17925B782BB99BE101331793E2E700230C93179D2B78302B5CD192
:403F40006B78582B01D0782B4CD10C9BA84A019318AB009317A919AB504600F026FE10F00706044600F08585062E05D10135002317950C9300F07DBD189A3AB135211AA8BB
:403F800001F097FC1899504601F01BF9062E22D8DFE806F0040D08181D0D04004FF00009C84618E0DDF86880DDF86C9013E01B9B199A23F4801302F23342DDF8688043EAB2
:403FC000025908E0DFF82C924FF0000803E06FF000494FF0FF38210740F14B8549F0004900F047BD179B5A1C17925B78302BF9D0002B00F03E85012300E000230593179BEB
:404000000A22069300239B4602930493179D2E78A6F13003D9B2092911D8BBF1080FD5BF0499029902FB013302FB013305F10105D4BF049302930BF1010B1795E6E75046FE
:4040400001F086F80768504601F082F8006801F0EDFC39460246284601F0F0FC074628B1002033465D46024601465AE0504601F06FF8006801F0DAFC179B1A1817921B5CC1
:40408000BBF1000F45D15846302B05D1179B01305A1C17925B78F7E7A3F13102082A46D8179A0692024600200546303B00F1010129D00A44294605EB000C0A2661450FD0D5
:4040C000013101F1FF3EBEF1080F03DC049F77430497F3E71029DEBF029F77430297EDE72844082800F1010505DC04980A2101FB0033049306E0102DDFBF02980A2101FBC7
:40410000003302930021179B581C17905B78084602E05D4638463A46A3F130010929C4D90121652B01D0452B4FD16DB904E0652B40F0AD840022012128B9059B002B00F0A3
:404140009280054600E00025179C631C179363782B2B06D02D2B02D00026039606E0012300E000230393A31C1793A378A3F13006092E29D8302B04D1179B5E1C17965B780C
:40418000F8E7A3F13106082E1FD8A3F1300E179B1F46179B5E1C17965B78A3F1300CBCF1090F05D80A2606FB0E3EAEF1300EF0E7F61B082E44F61F6602DC7645A8BF76462E
:4041C000039F1FB1764201E017940026002D52D1002840F04E84059A002A40F04A84002941D14E2B20D007DC492B0AD03BE000BF285D00000000F07F692B02D06E2B13D01D
:4042000031E0AA4917A800F001FF60B3179BA849013B17A8179300F0F9FE10B9179B01331793DFF8A8921AE0A24917A800F0EEFEC8B1179B1B78282B0FD11AAA9E4917A844
:4042400000F0F7FE052808D11B9BDDF8688043F0FF4949F4E00900F00CBCDFF874924FF0000800F006BC139B1794002B00F00C8400230C93FFE32C46BBF1000F08BFAB4624
:404280000498102DA8BF1024B71AFFF781F9092C8046894613DD894B03EBC40353E91223FFF7ECF9804602988946FFF771F902460B4640464946FFF72FF8804689460F2D8F
:4042C00033DC002F00F0D58322DD162F07DC7B4D424605EBC7014B46D1E9000113E0C5F125039F4221DC754CC5F10F0504EBC5017D1B4246D1E900014B4604EBC504FFF7B4
:40430000BDF9D4E90023FFF7B9F980468946B0E317F1160F09DB694D4046A5EBC703D3E900234946FFF7D4FAEFE72C1B3C44002C5DDD14F00F010AD0604B424603EBC1016A
:40434000D1E900014B46FFF799F98046894634F00F0400F0C180B4F59A7F0FDD4FF0000BCDF808B0CDF814B0CDF810B02223CAF80030DFF858914FF0000889E1404649462C
:4043800000234F4E24110293012C0CDDE20704D5D6E90023FFF772F90123029A6410013202920836F0E70BB180468946444B029AA9F1547903EBC201D1E9000142464B46E0
:4043C000FFF75CF921F0004389460A461B0D3D491B058B428046C1D8A1F580118B4286BFDFF8F0904FF0FF3802F1547974E073D0644214F00F020AD0304B404603EBC2035F
:404400004946D3E90023FFF763FA80468946241162D01F2C08DD4FF0000BCDF808B0CDF814B0CDF810B02CE14046494614F0100F0CBF00236A23244E03930023002C09DDBD
:40444000E20704D5D6E90023FFF718F9012364100836F3E70BB180468946039BEBB1C9F30A53C3F16B03002B494616DD1F2B0EDD342BDEBF203B4FF0FF3202FA03F34FF041
:404480000008CCBF4FF05C7903EA010905E04FF0FF3202FA03F303EA0808002200234046494601F041FB0028B5D117E01C5D00001F5D0000255D0000085D0000705D000045
:4044C000485E00000000A07C405D00000000F07F0000F8FFFFFFEF7F00230393049B5A46009306992B46504600F0BDFE059000283FF434AF002FC7F10003A8BF00230D93C8
:404500004FF0000B27EAE7731293CDF808B0059B5046596800F020FE049000283FF426AF059B0C301A6903F10C0102329200FFF7A3FC1AAB019319AB009342464B465046C1
:40454000CDE9088901F03FF9189000283FF40EAF0121504600F012FF029000283FF406AF199B0399002BACBF0D9A129A1A9CACBFD618D21AA3EB01032344B14903F1FF3363
:40458000ACBF129A0D9E8B42C4F1360480F28580C91A1F29C8BFAB4D4FF00107D4BF07FA01F3ED1AA4EB0104D9BF0793002507FA05F507973719039BBE4214441C443346E3
:4045C000A8BF3B46A342A8BF2346002BC2BFFF1AE41AF61A0D9B002B63D1002F7ADC129B002B40F08180002C00F38880002E00F38F80049A1899504601F015F8834600288B
:404600003FF4B4AEC3680024C4600299069300F0EEFFA04280F28B80069B002B40F00282B8F1000F40F0FE81C9F31303002B40F0F98129F000431B0D1B05B3F1D66F40F2B5
:40464000F181DBF81430002B6CD059460122504600F07CFF0299834600F0C9FF002840F3E18129F00043039A1B0D1B05002A00F08D80B3F1D66F00F38980B3F15C7F00F3EF
:40468000D38122234FF000084FF00009CAF80030059B002B40F0D981EBE101230025079388E71A460299504600F002FF029000283FF45CAE0146189A504600F068FE069079
:4046C00000283FF453AE1899504600F07AFD069B189382E73A461899504600F037FF189000287FF47CAF41E6129A0499504600F0DFFE049000287FF476AF37E62246049957
:40470000504600F023FF049000287FF46FAF2DE632460299504600F019FF029000287FF468AF23E6DBF81030012B8EDC7AE161D1069AC9F3130322B343494A468B422ED10E
:40474000039B414663B1414B1340B3F1D46F07D81B0DC3F16B034FF0FF3000FA03F301E04FF0FF338B421AD139498A4202D101333FF4FCAD354B4FF00008134003F58019CD
:4047800050E163B9B8F1000F09D16AE7A3F580136FEA13594FF0FF386FEA095942E115B115EA090F02E0079B13EA080F00F03A81069B039A4046494653B1FFF770FB024665
:4047C0000B46DDE90801FEF7A7FD8046894629E1FFF765FB02460B46DDE90801FEF79AFD002200238046894601F09EF900287FF448AF17E10299584601F033F800224FF075
:40480000804306460F4601F0A3F900283FD0069B13B100260F4F10E0B8F1000F03D1C9F313033BB91AE0B8F1010F03D1B9F1000F3FF427AF084F00260024064D3CE000BF0D
:4048400002FCFFFFE2FBFFFFFFFF0F000000F07FFFFFEF7F0000F03F0000F0BF00229A4B3046394601F06AF940B90022974B30463946FEF703FF04460D4601E0069C934D62
:4048800005F1004314941593DDE9146714E08F4B002230463946FEF7F1FE069B04460D4623B901F100430E900F9303E002460B46CDE90E23DDE90E6729F000431B0D1B0594
:4048C0000793079A824B9A422BD1DDE90823A9F1547940464946CDE90A2300F003FF02460B4630463946FEF7C9FE42464B46FEF713FD21F000431B0D764A1B059342804637
:404900000CD9754B0B9A9A4203D10A9B01333FF42DADDFF8C4914FF0FF3872E001F1547939E0039B3BB3079BB3F1D46F23D85EA3D3E900232046294601F00AF9B8B129463A
:40494000204601F061F9002808BF0120FEF720FE069B04460D4623B901F100431090119303E002460B46CDE91023DDE91067079A07F1D6639F1ADDE9080100F0B3FE0246EB
:404980000B4630463946FEF779FEDDE90823FEF7C3FC80468946039B9BBB29F000431B0D079A1B059A424E462BD12946204601F003F9FEF7FDFD0B46024629462046FEF752
:4049C000A9FC069B04460D462BB9B8F1000F02D1C9F313067EB136A3D3E900232046294601F0ACF888BB34A3D3E900232046294601F0C2F804E032A3D3E9002301F09EF8A7
:404A000018BB1899504600F0DCFB0499504600F0D8FB0299504600F0D4FB5946504600F0D0FB74E5039B83B12C4B40460B9300230A934946DDE90A23FEF720FE804689460F
:404A400019B910B92223CAF800301899504600F0B8FB0499504600F0B4FB0299504600F0B0FB0599504600F0ACFB5946504600F0A8FB139B13B1179B139A13600C9B1BB192
:404A8000424609F1004307E042464B4604E000252A460121FFF747BB104619461DB0BDE8F08F00BFAFF300800000C0FFFFFFDF419535A094FFFFDF3F35E5AF350000E03F03
:404AC0009535A094FFFFCF3F0000F03F0000E03F0000E07FFFFF9F7CFFFFEF7F0000503938B50B4B0A4601461868FFF7F9F902460B4604460D4601F049F820B10020BDE8B1
:404B0000384000F08FBF20462946FEF7C9FF38BD5481FF1FF0B506694B11B34200F1140527DA11F01F0105EB860605EB830201D1294616E0141D55F823202B46C1F1200E7A
:404B4000CA40B44209D2276807FA0EF73A4343F8042B54F8042BCA40F3E71A6052B1043308E0B2420B4605D252F8043B41F8043BF7E72B465B1B9B10036103B94361F0BDE5
:404B8000A0F13003092B01D820380AE0A0F16103052B01D8473804E0A0F14103052B02D82738C0B27047002070472DE9F04F8BB08A4690460693029000F0CAFA03684FF084
:404BC000000B1846039300F031FF039B0190034413F8013C0793DAF8003002331F4613F8010B302802D10BF1010BF7E7FFF7C8FF0446E0B9019A0399384600F01FFF0028EF
:404C000034D1019BF85CFE18FFF7BAFF80B3334618781F46302803F10103F9D0FFF7B0FFB0FA80F534466D094FF0010B01E000252C463A46164630780132FFF7A1FF002814
:404C4000F8D1019A0399304600F0F8FE50B954B9019BF4182246164630780132FFF790FF0028F8D134B1A41BA40003E03E4600E0044601253378502B01D0702B2AD173788E
:404C80002B2B08D02D2B03D0711C4FF0000905E04FF0010901E04FF00009B11C0878FFF76FFF431EDBB2182B14D8A0F1100211F8010FFFF765FF431EDBB2182B04D80A2351
:404CC00003FB0202103AF2E7B9F1000F00D05242144400E03146CAF800102DB1BBF1000F14BF002006207CE12946F31B013B072B02DD01315B10FAE7029800F02DFA4FF0AA
:404D000000090546CB46019B00F1140AC3F10103CDF810A00893B7422FD2731E0593079A16F8013C93420BD0BBF1200F16D1049BC3F8009004334FF000090493CB460DE01C
:404D4000059B089A13449F42EED81846019A0399099300F073FE099B68B1E5E716F8010CFFF70EFF00F00F0000FA0BF0059B49EA00090BF1040B1E46CDE7049840F8049B54
:404D8000CAEB0000801028614701484600F0A9FAD8F80060381AB04226DD871B3946284600F0A1FDC8B17B1E591103F01F024FF001095AF8211009FA02F20A420ED04B451B
:404DC00002DC4FF0020909E0B91E284600F08BFD0028F6D04FF0030900E0814639462846FFF798FE3C440CE009DA371A29463A46029800F0ABFB0546E41B00F1140A4FF035
:404E00000009D8F808309C4208DD0298294600F0D8F9149A00231360A320E2E0D8F80400844253DA041BA6422EDCD8F80C30022B1AD0032B1CD0012B1DD1A6421BD1012ED9
:404E40000BDCD8F80430069A6220136001232B61CAF80030149B1D60C3E0711E284600F042FD0028EDD106E0159B002BE9D002E0159B002BE5D10298294600F0A2F9149A00
:404E8000002313605020ACE0671EB9F1000F06D13FB13946284600F026FD814601E04FF001097A11012307F01F0703FA07F75AF8223021461F42284618BF49F00209361B5D
:404EC000FFF728FE0227D8F8044000E00127B9F1000F00F08180D8F80C30022B0ED0032B10D0012B76D119F0020F73D0DAF8000049EA000919F0010F07D16BE0159BC3F104
:404F000001031593159B002B64D0D5F810A005F114034FEA8A0903EB090100201A68B2F1FF3F02D001321A6020E043F8040B9942F4D8AB689A4512DB69680298013100F009
:404F40000BF983462A6905F10C01023292000C30FEF792FF2946029800F033F95D462B695A1C2A6105EB830301225A61022F05F1140211D1D8F80030013B9E4227D17111E0
:404F8000012306F01F0603FA06F652F821301E420CBF022701271AE02B699A450ADA01212846FFF7B7FDD8F8083001349C423FF72CAF0BE016F01F0608D0914459F8040CC7
:404FC00000F08FF9C6F12006B042E8DB012747F0200701E047F010073846149B1D60069B1C600BB0BDE8F08FC2F10802920070B5C2F120064368056803FA06F42C43D3406E
:40500000046040F8043F8842F4D370BD30B5036811F8014B01334CB11A78A2F14105192D98BF2032A242F3D0002030BD0360012030BD0B682DE9F04F5E1102EB860613F0CB
:405040001F0318BF0436351F174600228246A8462C46914685B0D0F800B0019346F8042C00921BF8011F00293CD0084603920291FFF786FD039A00BB0299202916D8009BCE
:405080009945EEDD444505D2072A03DC41462046FFF7AAFFBC4223D90023A4F1040844F8043CCDF8009044461A46DAE7292948D10BF10103CAF8003014E00132082A09F161
:4050C000010906DDBC42CCD9002344F8043C0122043C216800F00F0040EA01102060C0E70822BEE7B9F1000F2BD0444505D2072A03DC41462046FFF777FFBC420CD93B4684
:4051000054F8042BA54243F8042BF9D2002243F8042B9D42FBD20BE0019B4BB1C3F120024FF0FF33D34056F8042C134046F8043C2B6843B9BD4202D101232B6003E0043D40
:40514000F6E7042000E0052005B0BDE8F08F0000004870475881FF1F70B5456A04460E463DB9102000F080FC6062456085600560C560656AEB6843B1636ADB6853F82600E9
:4051800078B1026843F8262017E021220421204600F0CBFB636AE860DB68002BECD1002070BD012101FA06F56A1D9200204600F0BCFB0028F3D04660856000230361C36075
:4051C00070BD70B5446A06460D463CB9102000F04BFC7062446084600460C4603DB1736A6A68DB6853F82210296043F8225070BD2DE9F04106460C460D691F4601F1140E3E
:405200000023DEF80000013381B202FB0171000C0F0C02FB007089B201EB00419D424FEA10474EF8041BECDCD7B1A3689D4212DB616830460131FFF78FFF8046226904F16D
:405240000C01023292000C30FEF716FE21463046FFF7B7FF444604EB850301355F6125612046BDE8F0812DE9F843064615461F46092208330C4693FBF2F3002101229A42EC
:4052800002DA52000131FAE73046FFF765FF089B092D43614FF00103036111DD04F10908C1462C4419F8013B0146303B0A223046FFF79EFFA145F5D108EB0504083C01E04D
:4052C0000A3409252D1B63199F4208DD14F8013B0146303B0A223046FFF78AFFF3E7BDE8F883030C1B0413B90004102300E0002310F07F4F04BF0002083310F0704F04BF1F
:405300000001043310F0404F04BF80000233002803DB420003D5581C70471846704720207047036813F007020BD0D90722D49A074BBF5B089B08036003604CBF01200220EA
:40534000704799B209B91B0C102213F0FF0F04BF1B0A0832190704BF1B090432990704BF9B080232D90702D45B0805D00132036010467047002070472020704710B50C46F0
:405380000121FFF7E9FE01224461026110BD2DE9F74F14460A69236988469A42BEBF0B46A0461C46D8F81070D4F81090D8F80830D8F8041007EB09069E42C8BF0131FFF749
:4053C000CBFE00F114052B4605EB860C0022634502D243F8042BFAE704F1140208F1140102EB890301EB87070093009B0192934257D9B2F800B0BBF1000F23D08946AE4661
:405400004FF0000859F8044BBEF800A0A3B20BFB03A34FEA144ADEF8004043444FEA14480BFB0A84F24604EB13449BB243EA04434F454FEA14484AF8043B01D9D646E1E72A
:40544000CEF80480019B0432B3F802A0BAF1000F21D02C4689462B684FF00008B9F800E0B4F802B09BB20AFB0EBEA346F04443EA08434BF8043B59F8043BB4F804E01B0C92
:405480000AFB03E34F4503EB18434FEA134801D95C46E3E763600435A7E75CF8043D13B9013E002EF9DC066103B0BDE8F08F00002DE9F843154612F0030206460F4607D0B4
:4054C000214C013A002354F82220FFF791FE0746AD1036D0746A3CB9102000F0C5FA7062446084600460C460D6F82480D8F808404CB940F271213046FFF740FF04460023BF
:40550000C8F8080003604FF00008EB070AD5394622463046FFF73BFF814639463046FFF750FE4F466D100CD0206808B10446ECE7224621463046FFF72AFF2060C0F8008033
:40554000F4E73846BDE8F883385E00002DE9F0470C460746914626694FEA621A56444968A368751CAB4202DA01315B00FAE73846FFF7F2FD002380461A4600F114015345AD
:4055800003DA41F823200133F9E72AEAEA73206901EB830319F01F0904F1140101EB800E14D0C9F1200C002208689A4600FA09F0024343F8042B51F8042B8E4522FA0CF21A
:4055C000F2D8CAF8042042B1B51C06E0043B51F8042B8E4543F8042FF9D8013D3846C8F810502146FFF7EDFD4046BDE8F08703690A6910B59B1A11D19200143014318318D2
:405600000A4453F8044D52F8041D8C4202D007D3012010BD9842F4D3002010BD184610BD4FF0FF3010BD2DE9F8430C460746114620461546FFF7DBFF061E08D131463846EF
:40564000FFF78AFD012303614661BDE8F883BCBF23462C4638466168BABF1D4601260026FFF77AFD2B69C660266905F1140904F1140101EB860709EB830800F114054FF084
:40568000000C51F8042B59F8044B93B29C44A3B2240CC3EB0C03C4EB124202EB23429BB24FEA224CC84543EA02428E4645F8042BE7D8BE450ED25EF8041B8AB26244131438
:4056C00003EB114392B242EA03424FEA234C45F8042BEEE755F8043D0BB9013EFAE70661BDE8F883104B0B40A3F15073002B02DD0020194670475B421B15132B4FF000004A
:405700004FF0000104DC4FF4002242FA03F17047143B1E2B4FF00102CEBF1346C3F11F0302FA03F3184670470000F07FF8B5056900F1140606EB850555F8044C2F1F2046FF
:40574000FFF7CFFDC0F120030A280B6014DCC0F10B0E24FA0EF1BE4241F07F5334BF55F8081C0021153004FA00F021FA0EF143F4401340EA010223E0BE423ABFA5F10807F2
:4057800055F8081C00210B3815D08440C0F1200544F07F5444F44014B74221FA05FE44EA0E038CBF57F8044C002401FA00F0EC4040EA040204E00A4644F07F5343F4401393
:4057C00010461946F8BD2DE9F3411C4601219046089E099DFFF7C0FCC4F31302C4F30A5407460CB142F480120192B8F1000F19D002A840F8088DFFF794FD009B48B1019A89
:40580000C0F1200102FA01F10B43C2407B61019200E07B61019B002B14BF02210121BB61396107E001A8FFF77CFD019B01217B613961203034B1A4F2334404443460C0F196
:40584000350009E0A0F2324007EB810330601869FFF747FDC0EB41102860384602B0BDE8F0812DE9F743884669468146FFF75EFF0D46044601A94046FFF758FF0F460646D9
:40588000D9F81030D8F8102020469A1A9DE80A00C91A01EB4213002BCCBF05EB0355A7EB035732463B462946FEF712F803B0BDE8F083013910B549111469013102F11403DC
:4058C00000EB810103EB8404A342024604D253F8042B40F8042BF7E700238A4202D242F8043BFAE710BD00F1140200694B11984210B50CDB0CDD11F01F0109D052F8234037
:4059000024FA01F000FA01F18C420CD100E0034602EB8303934204D953F8041D0029F9D001E0002010BD012010BD38B502FB01F4214600F009F8054618B122460021FEF790
:40594000A6FA284638BD000070B5CD1C25F0030508350C2D38BF0C25002D064601DBA94202D90C23336046E000F086F8234B1C681A462146A1B10B685B1B0ED40B2B03D902
:405980000B60CC18CD501EE08C420BBF63684B681360636018BF0C4615E00C464968E9E7174C23681BB9304600F02CF820602946304600F027F8431C18D0C41C24F003043E
:4059C000A0420DD12560304600F057F804F10B00231D20F00700C31A0ED05A42E25070BD211A304600F00EF80130EBD10C233360304600F042F8002070BD00BFD8020020A4
:405A0000D402002038B5064C0023054608462360FCF7D8FB431C02D1236803B12B6038BD00040020004870470000C07F034613F8012B002AFBD1181A0138704730B582B129
:405A4000451E013915F8013F11F8014FA34206D1EC431444E04201D0002BF3D11C46181B30BD104630BD0000024B01461868FFF76BBF00BF5481FF1F704770474FF0FF3C2B
:405A800006E000BF4FF0010C02E000BF4FF0010C4DF804CD4FEA410C7FEA6C5C4FEA430C18BF7FEA6C5C1BD001B050EA410C0CBF52EA430C91EA030F02BF90EA020F002039
:405AC000704710F1000F91EA030F58BF994208BF90422CBFD8176FEAE37040F0010070474FEA410C7FEA6C5C02D150EA013C07D14FEA430C7FEA6C5CD6D152EA033CD3D002
:405B00005DF8040B704700BF8446104662468C461946634600E000BF01B5FFF7B7FF002848BF10F1000F01BD4DF808EDFFF7F4FF0CBF012000205DF808FB00BF4DF808ED6B
:405B4000FFF7EAFF34BF012000205DF808FB00BF4DF808EDFFF7E0FF94BF012000205DF808FB00BF4DF808EDFFF7CEFF94BF012000205DF808FB00BF4DF808EDFFF7C4FFA6
:405B800034BF012000205DF808FB00BF4FEA410C7FEA6C5C02D150EA013C0AD14FEA430C7FEA6C5C02D152EA033C02D14FF0000070474FF0010070474FEA410212F5001262
:405BC00015D211D56FF47873B3EB625212D94FEAC12343F0004343EA505311F0004F23FA02F018BF404270474FF00000704750EA013005D111F0004008BF6FF000407047E6
:405C00004FF00000704700BF4A0011D212F5001211D20DD56FF47873B3EB62520ED44FEAC12343F0004343EA505323FA02F070474FF00000704750EA013002D14FF0FF3057
:405C400070474FF000007047000000000000000049444C4500000000280000000080BB44140EFE44061300000001020050756D702031000050756D702032000050480000B3
:405C80004765742045432076616C756500000000546573742050756D7020310054657374204543207072696E74000000693A2000203078000A000000454356616C7565007D
:405CC0000A200000C84900401900305100404000F0510040100000000140001000140140000800400140000A004C0140000200500140200030313233343536373839414275
:405D0000434445460043000034000000CEFBFFFFCB03000001000000000000006E6600696E69747900616E0035000000CEFBFFFFCB030000010000000000000000000000A9
:405D4000BC89D897B2D29C3C33A7A8D523F649393DA7F444FD0FA5329D978CCF08BA5B25436FAC6428066811504F534958002E00000000000000F03F000000000000244094
:405D800000000000000059400000000000408F40000000000088C34000000000006AF8400000000080842E4100000000D01263410000000084D797410000000065CDCD41A2
:405DC000000000205FA00242000000E876483742000000A2941A6D42000040E59C30A2420000901EC4BCD64200003426F56B0C430080E03779C3414300A0D8855734764366
:405E000000C84E676DC1AB43003D9160E458E143408CB5781DAF154450EFE2D6E41A4B4492D54D06CFF08044F64AE1C7022DB544B49DD9794378EA440500000019000000A2
:405E40007D000000000000000080E03779C34143176E05B5B5B89346F5F93FE9034F384D321D30F94877825A3CBF737FDD4F1575F8B500BFF8BC08BC9E4670474D0000005A
:405E8000AD220000F8B500BFF8BC08BC9E46704729000000A85E0000C880FF1FC8000000788200000000000000000000AAAAAAAAF87F00000804002000366E01C05D000030
:405EC000180000000000E02E070000000C000000675000400000000000000000000000000000000000000000000000000000000000000000055D0000000000000000000010
:405F000000000000000000000000000000000000000000000000000000000000000000000000000000000000000000000000000000000000F480FF1F6E5D00006F5D000038
:405F40006F5D00006F5D00006F5D00006F5D00006F5D00006F5D00006F5D00006F5D0000FFFFFFFFFFFFFFFFFFFFFFFFFFFF000000000000000000000000000000000000CF
:405F800000000000000000000000000000000000000000000000000000000000000000000000000000000000000000000000000000000000000000000000000000000000E1
:405FC00000000000000000000000000000000000000000000000000000000000000000000000000000000000000000000000000000000000000000000000000000000000A1
:406000000000000000000000000000000000000000000000000000000000000000000000000000000000000000000000000000000000000000000000000000000000000060
:406040000000000000000000000000000000000000000000000000000000000000000000000000000000000000000000000000000000000000000000000000000000000020
:020000040003F7
:0200000480007A
:4000000004520040026400402702014018030140020501400107014001090140030B01402D0C01401E0D0140031501400117014001190140031B0140024001400341014039
:4000400004420140034301400445014004460140014701400348014010490140084C0140054D014003500140025101401040114060026403820D8D0F0A040F0114011A0775
:4000800022082701300132023408350136043F104020410545D14602480749FF4AFF4BFF4DA04F04501852805405580459045A045B045F01604062C06440654066C068C05E
:4000C0006AC06CC06EC005100E200F0816801D701E601F2027082F203F8045204F8957405E405F097680C040C260C410CA40CE10D020D210D6D0B140EA80EE04EE04AC04F0
:40010000AF80EC0A83018607870E8E048F03920894019D08B008B108B202B301B401B502B604B704BF04C040C105C5D0C650C721C83AC9FFCAFFCBFFCDA0CF04D018D2804F
:40014000D407D804D904DA04DB04DF01E040E2C0E440E540E6C0E8C0EAC0ECC0EEC0004003200A50184019101A101B8020082180220423803180384A404049014A025005BE
:400180005202532059115A085B807240C005C20CCC08CE0BD001D208D60FE008E401EA05E204E204E008E401EA053320CC106302A720D6403E10A720B301CE209610AB2072
:4001C000EE2063026410D602D8011B04AC10AF01C608AB0482209610E2201220164072207710822086409A209B10AA10AB10C430DC80DE20E010E480EAA010801320170824
:400200007B107F408080C40EDE03831087409780A710AB28000108010E01000303C000000010100010000800830000808300030000000000000B0B000000000000C0C00090
:40024000C00000000E001801000000000000000000000000000000000000000000000000000000000000000000000000000000000000000000000000000000000000000097
:40028000000000000000000000000000000000000000000000000000000000000000000000000000000000000000000000000000000000000000000000000000000000003E
:4002C00000000000000000000000000000000000000000000000000000000000000000000000000000000000000000000000000000000000000000000000000000000000FE
:4003000000000000000000000000000000000000000000000000000000000000000000000000000000000000000000000000000000000000000000000000000000000000BD
:40034000000000000000000000000000000000000000000000000000000000000000000000000000000000000000000000000000000000000000000000000000000000007D
:0200000490006A
:0400000000004005B7
:0200000490105A
:04000000BC90ACAF55
:0200000490303A
:02000000830972
:0200000490402A
:4000000000000000000000000000000000000000000000000000000000000000000000000000000000000000000000000000000000000000000000000000000000000000C0
:400040000000000000000000000000000000000000000000000000000000000000000000000000000000000000000000000000000000000000000000000000000000000080
:400080000000000000000000000000000000000000000000000000000000000000000000000000000000000000000000000000000000000000000000000000000000000040
:4000C0000000000000000000000000000000000000000000000000000000000000000000000000000000000000000000000000000000000000000000000000000000000000
:0200000490501A
:0C00000000012E16106900012E3C9372C6
:00000001FF