:400000000080002011000000A51C0000A51C000080B500AF024A034B1B68136001F04CFEBC760040FA46004010B5054C237833B9044B13B10448AFF300800123237010BD4A
:400040003881FF1F00000000C0210000084B10B51BB108490848AFF300800848036803B910BD074B002BFBD0BDE81040184700BF000000003C81FF1FC0210000C880FF1F60
:400080000000000080B483B000AF78607B6803F108027B685A607B684FF0FF329A607B6803F108027B68DA607B6803F108027B681A617B6800221A6000BF0C37BD4680BC8A
:4000C000704700BF80B483B000AF78607B6800221A6100BF0C37BD4680BC704780B485B000AF786039607B685B68FB603B68FA685A60FB689A683B689A60FB689B683A68D1
:400100005A60FB683A689A603B687A681A617B681B685A1C7B681A6000BF1437BD4680BC704700BF80B485B000AF786039603B681B68BB60BB68B3F1FF3F03D17B681B6904
:40014000FB600CE07B680833FB6002E0FB685B68FB60FB685B681A68BB689A42F6D9FB685A683B685A603B685B683A689A603B68FA689A60FB683A685A603B687A681A61A4
:400180007B681B685A1C7B681A6000BF1437BD4680BC704780B485B000AF78607B681B69FB607B685B687A6892689A607B689B687A6852685A60FB685A687B689A4203D1E4
:4001C0007B689A68FB685A607B6800221A61FB681B685A1EFB681A60FB681B6818461437BD4680BC704700BF80B584B000AF786039607B68FB6001F0F7F8FB681A68FB680F
:40020000DB6BF968096C01FB03F31A44FB689A60FB6800229A63FB681A68FB685A60FB681A68FB68DB6B013BF968096C01FB03F31A44FB68DA60FB68FF2283F84420FB681E
:40024000FF2283F845203B68002B14D1FB681B69002B1AD0FB681033184600F00FFE0346002B12D00C4B4FF080521A60BFF34F8FBFF36F8F09E0FB6810331846FFF702FF71
:40028000FB6824331846FFF7FDFE01F0C5F8012318461037BD4680BD04ED00E080B58AB002AFF860B9601346FB71FB68BA6802FB03F3FB61FB694833184601F027F9B8611C
:4002C000BB69002B0DD0BB697B617B6948337B61FA79BB69009313467A69B968F86800F005F8BB6918462037BD4680BD80B584B000AFF860B9607A60FB70BB68002B03D1BA
:40030000BB69BA691A6002E0BB697A681A60BB69FA68DA63BB69BA681A640121B869FFF763FF00BF1037BD4680BD00BF80B58AB000AFF860B9607A603B6000237B62FB680C
:400340003B6201F051F83B6A9A6B3B6ADB6B9A4202D33B68022B29D13A68B968386A00F031F9F8613B6A5B6A002B10D03B6A2433184600F083FD0346002B13D03F4B4FF05F
:4003800080521A60BFF34F8FBFF36F8F0AE0FB69002B07D0394B4FF080521A60BFF34F8FBFF36F8F01F038F8012363E07B68002B03D101F031F800235CE07B6A002B06D148
:4003C00007F11403184600F0ADFD01237B6201F023F800F08DFB01F007F83B6A93F844305BB2B3F1FF3F03D13B6A002283F844203B6A93F845305BB2B3F1FF3F03D13B6A67
:40040000002283F8452001F007F83A1D07F114031146184600F09CFD0346002B24D1386A00F0C8F90346002B18D03B6A10337A681146184600F00CFD386A00F053F900F0C8
:4004400065FB0346002B7FF47CAF0C4B4FF080521A60BFF34F8FBFF36F8F72E7386A00F041F900F053FB6CE7386A00F03BF900F04DFB002318462837BD4680BD04ED00E043
:4004800080B58AB000AFF860B9607A6000237B62FB683B6200F0A8FF3B6A9B6BFB61FB69002B1FD0B968386A00F0F6F8FB695A1E3B6A9A633B6A1B69002B0FD03B6A10337D
:4004C000184600F0DBFC0346002B07D03C4B4FF080521A60BFF34F8FBFF36F8F00F09CFF012369E07B68002B03D100F095FF002362E07B6A002B06D107F11403184600F033
:4005000011FD01237B6200F087FF00F0F1FA00F06BFF3B6A93F844305BB2B3F1FF3F03D13B6A002283F844203B6A93F845305BB2B3F1FF3F03D13B6A002283F8452000F0F5
:400540006BFF3A1D07F114031146184600F000FD0346002B23D1386A00F016F90346002B17D03B6A24337A681146184600F070FC386A00F0B7F800F0C9FA0346002B89D1F4
:400580000F4B4FF080521A60BFF34F8FBFF36F8F80E7386A00F0A6F800F0B8FA7AE7386A00F0A0F800F0B2FA386A00F0EDF80346002B3FF46FAF002318462837BD4680BD5A
:4005C00004ED00E080B586B000AFF860B9607A6000237B61FB689B6B3B61FB681B6C002B0DD1FB681B68002B4DD1FB689B68184600F0A4FD7861FB6800229A6043E07B68EC
:40060000002B19D1FB685868FB681B6C1A46B96801F0C2FDFB685A68FB681B6C1A44FB685A60FB685A68FB689B689A422BD3FB681A68FB685A6026E0FB68D868FB681B6CE3
:400640001A46B96801F0A8FDFB68DA68FB681B6C5B421A44FB68DA60FB68DA68FB681B689A4207D2FB689A68FB681B6C5B421A44FB68DA607B68022B05D13B69002B02D08E
:400680003B69013B3B613B695A1CFB689A637B6918461837BD4680BD80B582B000AF786039607B681B6C002B18D07B68DA687B681B6C1A447B68DA607B68DA687B689B685A
:4006C0009A4203D37B681A687B68DA607B68D9687B681B6C1A46386801F05EFD00BF0837BD4680BD80B584B000AF786000F07CFE7B6893F84530FB7311E07B685B6A002B3F
:4007000012D07B682433184600F0B8FB0346002B01D000F063FCFB7B013BDBB2FB7397F90F30002BE9DC00E000BF7B68FF2283F8452000F071FE00F057FE7B6893F8443093
:40074000BB7311E07B681B69002B12D07B681033184600F093FB0346002B01D000F03EFCBB7B013BDBB2BB7397F90E30002BE9DC00E000BF7B68FF2283F8442000F04CFECE
:4007800000BF1037BD4680BD80B584B000AF786000F02AFE7B689B6B002B02D10123FB6001E00023FB6000F037FEFB6818461037BD4680BD80B584B000AF786000F014FEC7
:4007C0007B689A6B7B68DB6B9A4202D10123FB6001E00023FB6000F01FFEFB6818461037BD4680BD80B58CB004AFF860B9603B601346FB80FB889B00184600F087FE786138
:400800007B69002B0ED0502000F080FEF861FB69002B03D0FB697A691A6305E0786900F007FF01E00023FB61FB69002B13D0FA8800230393FB690293FB6A0193BB6A0093FB
:400840003B68B968F86800F00FF8F86900F08CF80123BB6102E04FF0FF33BB61BB6918462037BD4680BD00BF80B586B000AFF860B9607A603B60BB6A186B7B689B001A467B
:40088000A52101F094FCBB6A1A6B7B6803F18043013B9B0013443B613B6923F007033B61BB68002B1FD000237B6112E0BA687B6913441978BA6A7B69134434330A461A70CA
:4008C000BA687B6913441B78002B06D07B6901337B617B690B2BE9D900E000BFBB6A002283F83F2003E0BB6A002283F834203B6A042B01D904233B62BB6A3A6ADA62BB6AE2
:400900003A6A1A64BB6A00225A64BB6A04331846FFF7D8FBBB6A18331846FFF7D3FBBB6ABA6A1A613B6AC3F10502BB6A9A61BB6ABA6A5A62BB6A00229A64BB6A002283F82B
:400940004C203A68F968386900F0C2FC0246BB6A1A607B6A002B02D07B6ABA6A1A6000BF1837BD4680BD00BF80B582B000AF786000F03AFD2A4B1B680133294A1360294BC5
:400980001B68002B09D1274A7B681360244B1B68012B10D100F036FB0DE0234B1B68002B09D1204B1B68DA6A7B68DB6A9A4202D81C4A7B6813601D4B1B6801331B4A136022
:4009C0007B68DB6A01229A40194B1B681343184A13607B68DA6A13469B0013449B00154A1A447B68043319461046FFF777FB00F013FD0D4B1B68002B0ED00A4B1B68DA6ABF
:400A00007B68DB6A9A4207D20B4B4FF080521A60BFF34F8FBFF36F8F00BF0837BD4680BD2C82FF1F5481FF1F3882FF1F4882FF1F3482FF1F5881FF1F04ED00E080B584B0F6
:400A400000AF78600023FB607B68002B08D000F04FF80021786800F0D5FB00F057F8F860FB68002B07D1064B4FF080521A60BFF34F8FBFF36F8F00BF1037BD4680BD00BF75
:400A800004ED00E080B584B002AF134B0193002300930023642211491148FFF7A3FE78607B68012B14D14FF0A00383F31188BFF36F8FBFF34F8F3B600A4B4FF0FF321A60D9
:400AC000094B01221A60094B00221A6000F06CFC00BF0837BD4680BD5082FF1FC4210000F50F00004C82FF1F3882FF1F3082FF1F80B400AF044B1B680133034A136000BFAA
:400B0000BD4680BC704700BF5482FF1F80B584B000AF0023FB600023BB6000F065FC394B1B68013B374A1360364B1B68002B61D1354B1B68002B5DD02EE0344BDB68DB68E1
:400B4000FB60FB6818331846FFF724FBFB6804331846FFF71FFBFB68DB6A01229A402C4B1B6813432A4A1360FB68DA6A13469B0013449B00274A1A44FB680433194610466A
:400B8000FFF7ACFAFB68DA6A234B1B68DB6A9A4202D3224B01221A601C4B1B68002BCCD1FB68002B01D000F0A9FA1D4B1B687B607B68002B10D000F037F80346002B02D044
:400BC000164B01221A607B68013B7B607B68002BF1D1134B00221A60104B1B68002B09D00123BB600F4B4FF080521A60BFF34F8FBFF36F8F00F010FCBB6818461037BD4626
:400C000080BD00BF5482FF1F2C82FF1FEC81FF1F3482FF1F5881FF1F5481FF1F4082FF1F3C82FF1F04ED00E080B586B000AF00237B61464B1B68002B7DD1454B1B68013335
:400C40003B61434A3B6913603B69002B10D1414B1B68FB60404B1B683E4A13603E4AFB6813603E4B1B6801333C4A136000F046FA3B4B1B683A699A4248D3364B1B681B6820
:400C8000002B04D1364B4FF0FF321A603EE0314B1B68DB68DB68BB60BB685B687B603A697B689A4203D22E4A7B6813602EE0BB6804331846FFF76EFABB689B6A002B04D0FA
:400CC000BB6818331846FFF765FABB68DB6A01229A40244B1B681343224A1360BB68DA6A13469B0013449B001F4A1A44BB68043319461046FFF7F2F9BB68DA6A1B4B1B68F3
:400D0000DB6A9A42B9D301237B61B6E7174B1B68DA6A154913469B0013449B000B441B68012B01D901237B61114B1B68002B07D001237B6104E00F4B1B6801330D4A136084
:400D40007B6918461837BD4680BD00BF5482FF1F3082FF1FE481FF1FE881FF1F4482FF1F4C82FF1F3482FF1F5881FF1F5481FF1F4082FF1F3C82FF1F80B586B000AF2F4B37
:400D80001B68002B03D02E4B01221A6051E02C4B00221A602B4B1B681B6B7B614FF0A5333B617B691A683B699A4211D17B6904331A683B699A420BD17B6908331A683B6944
:400DC0009A4205D17B690C331A683B699A4208D01C4B1A681B4B1B6834331946104600F0ADFC194B1B687B607B68B3FA83F3FB70FB78C3F11F03FB60FA6813469B00134439
:400E00009B00124A1344BB60BB685B685A68BB685A60BB685A68BB6808339A4204D1BB685B685A68BB685A60BB685B68DB68054A136000BF1837BD4680BD00BF5482FF1F5F
:400E40004082FF1F5481FF1F3482FF1F5881FF1F80B582B000AF78603960074B1B68183319467868FFF75EF90121386800F0CAF900BF0837BD4680BD5481FF1F80B584B092
:400E800000AF78607B68DB68DB68BB60BB6818331846FFF77FF91D4B1B68002B1CD1BB6804331846FFF776F9BB68DB6A01229A40174B1B681343164A1360BB68DA6A13469A
:400EC0009B0013449B00134A1A44BB68043319461046FFF703F905E0BB68183319460E48FFF7FCF8BB68DA6A0C4B1B68DB6A9A4205D90123FB600A4B01221A6001E0002302
:400F0000FB60FB6818461037BD4680BD5482FF1F3482FF1F5881FF1FEC81FF1F5481FF1F4082FF1F80B483B000AF7860064B1A687B681A60054B1A687B685A6000BF0C3762
:400F4000BD4680BC704700BF4482FF1F3082FF1F80B586B000AF7860396000F045FA1D4B1B683B617B685B683A69D31AFB603B681B68B3F1FF3F02D100237B6123E07B6876
:400F80001A68154B1B689A4207D07B685A683B699A4202D801237B6115E03B681A68FB689A420BD93B681A68FB68D21A3B681A607868FFF7B7FF00237B6104E03B68002218
:400FC0001A6001237B6100F027FA7B6918461837BD4680BD3082FF1F4482FF1F80B400AF034B01221A6000BFBD4680BC704700BF4082FF1F80B582B000AF786000F042F8A7
:40100000FCE700BF80B582B000AF00237B600CE07A6813469B0013449B00124A13441846FFF730F87B6801337B607B68042BEFD90D48FFF727F80D48FFF724F80C48FFF730
:4010400021F80C48FFF71EF80B48FFF71BF80B4B054A1A600A4B054A1A6000BF0837BD4680BD00BF5881FF1FBC81FF1FD081FF1FEC81FF1F0082FF1F1882FF1FE481FF1F3A
:40108000E881FF1F80B582B000AF19E000F0ACF90F4BDB68DB687B607B6804331846FFF779F80C4B1B68013B0A4A13600A4B1B68013B094A136000F0AFF9786800F00EF846
:4010C000054B1B68002BE1D100BF0837BD4680BD0082FF1F2C82FF1F1482FF1F80B582B000AF78607B681B6B184600F0A1FA786800F09EFA00BF0837BD4680BD80B483B095
:4011000000AF0C4B1B681B68002B04D10A4B4FF0FF321A6008E0074B1B68DB68DB687B607B685B68044A136000BF0C37BD4680BC704700BFE481FF1F4C82FF1F80B584B050
:4011400000AF78607B68BB600023FB607B68002B4FD0BB685B6C5A1EBB685A64BB68DA6ABB681B6C9A4244D0BB685B6C002B40D1BB6804331846FFF70DF80346002B15D1C8
:40118000BB68DA6A1D4913469B0013449B000B441B68002B0AD1BB68DB6A012202FA03F3DA43174B1B681340154A1360BB681A6CBB68DA62BB68DB6AC3F10502BB689A61B7
:4011C000BB68DB6A01229A400D4B1B6813430C4A1360BB68DA6A13469B0013449B00074A1A44BB68043319461046FEF777FF0123FB60FB6818461037BD4680BD5881FF1F5C
:401200003482FF1F80B584B000AF78603960294B1B68FB60284B1B6804331846FEF7BAFF0346002B0BD1244B1B68DB6A012202FA03F3DA43214B1B681340204A13607B680B
:40124000B3F1FF3F0AD13B68002B07D01A4B1B68043319461A48FEF741FF26E0FA687B681344BB60144B1B68BA685A60BA68FB689A4209D2134B1A680F4B1B6804331946ED
:401280001046FEF74FFF10E00F4B1A680A4B1B68043319461046FEF745FF0C4B1B68BA689A4202D2094ABB68136000BF1037BD4680BD00BF3082FF1F5481FF1F3482FF1F9B
:4012C0001882FF1FE881FF1FE481FF1F4C82FF1F80B485B000AFF860B9607A60FB68043BFB60FB684FF080721A60FB68043BFB60BB6823F00102FB681A60FB68043BFB60C2
:40130000084AFB681A60FB68143BFB607A68FB681A60FB68203BFB60FB6818461437BD4680BC70472913000080B483B000AF00233B604FF0A00383F31188BFF36F8FBFF334
:401340004F8F7B6000BF3B68002BFCD000BF0C37BD4680BC704700BF0000000000000000074B19680868B0E8F00F80F30988BFF36F8F4FF0000080F311884EF00D0E7047BB
:401380005481FF1F00BF00BF06480068006880F3088862B661B6BFF34F8FBFF36F8F00DF00BF00BF08ED00E080B500AF0C4A0C4B1B6843F460031360094A094B1B6843F07C
:4013C0006043136000F088F8064B00221A60FFF7DBFFFFF7D1FCFFF7A7FF0023184680BD20ED00E0CC80FF1F80B483B000AF4FF0A00383F31188BFF36F8FBFF34F8F7B6014
:40140000044B1B680133034A136000BF0C37BD4680BC7047CC80FF1F80B483B000AF094B1B68013B074A1360064B1B68002B04D100237B607B6883F3118800BF0C37BD46CE
:4014400080BC7047CC80FF1F0000000000000000EFF30980BFF36F8F0D4B1A6820E9F00F10602DE908404FF0A00080F31188FFF783FC4FF0000080F31188BDE8084019682B
:401480000868B0E8F00F80F30988BFF36F8F70475481FF1F00BF00BF80B582B000AF4FF0A00383F31188BFF36F8FBFF34F8F3B60FFF7BAFB0346002B03D0064B4FF0805213
:4014C0001A6000237B607B6883F3118800BF0837BD4680BD04ED00E080B400AF084B00221A60084B00221A60074B45F6BF521A60034B07221A6000BFBD4680BC704700BF35
:4015000010E000E018E000E014E000E080B588B000AF786000237B61FFF7EAFA404B1B68002B04D100F0BEF83D4B01221A607B68002B0ED008231A467B6813447B607B681A
:4015400003F00703002B04D07B6823F0070308337B607B68002B57D07B6847F6F772934252D8304BBB612F4B1B68FB6104E0FB69BB61FB691B68FB61FB695A687B689A4220
:4015800003D2FB691B68002BF1D1FB69264A93423AD0BB691B68082213447B61FB691A68BB691A60FB695A687B68D31A08225200934222D9FA697B681344FB60FB695A68E7
:4015C0007B68D21AFB685A60FB697A685A60FB685B68BB60134B3B6102E03B691B683B613B691B685A68BB689A42F6D33B691A68FB681A603B69FA681A600C4B1A68FB69AE
:401600005B68D31A094A1360FFF780FA7B69002B01D100F0A3F87B6918462037BD4680BD680200205802002060020020D080FF1F80B586B000AF78607B683B617B68002B0C
:4016400027D008235B423A6913443B613B69FB60FFF74EFAFB685B68BB60104B7B6102E07B691B687B617B691B685A68BB689A42F6D37B691A68FB681A607B69FA681A6047
:40168000FB685A68064B1B681344054A1360FFF73DFA00BF1837BD4680BD00BF58020020D080FF1F80B483B000AF0F4B23F007037B600E4A7B6813600C4B00225A600C4B56
:4016C00047F6F8725A600A4B00221A607B683B603B6847F6F8725A603B68054A1A6000BF0C37BD4680BC70476082FF1F580200206002002080B500AF00F006F800F03CF8C0
:40170000FFF7C0F9FEE700BF80B500AF074B084ADA62064B074A9A63044B074ADA6300F05FFB00F035FC00BF80BD00BF0080FF1F61130000511400009914000080B485B063
:4017400000AF786039604FF0A00383F31188BFF36F8FBFF34F8FFB60FEE700BF80B483B000AF4FF0A00383F31188BFF36F8FBFF34F8F7B60FEE700BF80B582B002AF002219
:4017800001210120FEF78AFD02461B4B1A60002201210120FEF782FD0246174B5A60002201210120FEF77AFD0246134B9A600023019302230093114B642211491148FFF79A
:4017C00011F8114A0023019302230093134664220E490C48FFF706F80D4A00230193022300931346642209490648FEF7FBFF00F075F800BFBD4680BD70020020D021000085
:40180000D421000015180000D1210000DC210000D221000080B586B000AF78607B687B617B691B78012B1DD0022B35D0002B52D1294B1B6807F10F014FF0FF321846FEF721
:401840001FFE38613B69012B40D1FB7B002B04D00623184600F054FB38E01323184600F04FFB33E01C4B5B6807F10F014FF0FF321846FEF705FE38613B69012B28D1FB7BCD
:40188000002B04D00623184600F04AFB20E01323184600F045FB1BE00F4B9B6807F10F014FF0FF321846FEF7EBFD38613B69012B10D1FB7B002B04D00623184600F0F6FB77
:4018C00008E01323184600F0F1FB03E000BFA7E700BFA5E700BFA3E77002002080B582B002AF00230193012300930023642203490348FEF777FF00BFBD4680BDE421000005
:401900000519000080B582B000AF0123FB700023BB70C8237B60FB78002B04D00023FB700123BB7003E00123FB700023BB700E4B1868F91C00234FF0FF32FEF7F7FC0A4B03
:401940005868B91C00234FF0FF32FEF7EFFC064B9868F91C00234FF0FF32FEF7E7FC7868FFF76CF8D7E700BF7002002080B582B000AF786039603A680021786800F017FC18
:4019800000BF0837BD4680BD80B584B000AFF860B9607A607A68B968F86800F0FDFB00BF1037BD4680BD00BF80B483B000AF0346FB71FEE780B487B000AF786039600023D8
:4019C0003B6100237B6127E07B699B007A6813441B68BB60BB68FB73BB6823F0FF03BB6014E03B695B003A6813441B781A46BB68134419463B695B003A6813445B780B700D
:401A00003B6901333B61FB7B013BFB73FB7B002BE7D17B6901337B617B690B2BD4D900BF1C37BD4680BC704780B582B000AF314B40F252721A80304B18221A702F4B0222F7
:401A40001A704FF0402308221A702D4B03221A702C4B2D4A1278D2B21A702C4B08221A802B4B41F251221A800023FB7019237B6014E0FB785B00DAB2264B1B78DBB203F071
:401A80000103DBB21343DBB203F00303FB704FF4F07000F045FB7B68013B7B607B68002B02D0FB78032BE4D17B68002B02D10320FFF77AFF184B4FF480721A80164B07221C
:401AC0001A70164B00221A70154B48221A70124B00221A70134B02221A70134A124B1B78DBB243F00103DBB2137000BF0837BD4680BD00BF80400040824000400043004043
:401B000000420040A14600400801004922420040204200402542004004400040064000400840004001400040A243004080B483B000AF0B4B1B78FB710A4AFB7903F0070355
:401B4000DBB21370084AFB791B09DBB21370074B44221A7000BF0C37BD4680BC704700BFCF0100496E5800406F5800407658004080B582B000AF72B6394A394B1B78DBB2C9
:401B800043F00403DBB213700023FB7113E0FA7913465B0013445B00324A13443B603B681A683B689B889BB219461046FFF7DEFEFB790133FB71FB79072BE8D92A494FF026
:401BC0009040FFF7F7FE294A284B1B78DBB243F00203DBB21370264A254B1B78DBB243F00203DBB21370234A224B1B78DBB243F04003DBB21370204A1F4B1B78DBB243F0ED
:401C00001003DBB2137008221C491D48FFF7BCFE08221C491C48FFF7B7FE08221B491C48FFF7B2FE1B4A1B4B1B78DBB243F00803DBB21370184B61221A70FFF7F5FE164BB4
:401C400081221A70154B01221A70FFF76FFF0E2208491348FFF798FE00BF0837BD4680BDE8460040F0210000300000480350014013500140A0430040C243004068010048D8
:401C80000251004070010048125100407801004822510040224300400048004004000840B043004080B500AF00F04AFA03461B680C2B00D1FEE7FEE780B586B000AF224BD8
:401CC0007B61224B3B61204B7B6135E03B691B68FB603B695B68BB603B699B683B6000237B600CE0FB681A68BB681A60BB680433BB60FB680433FB607B6804337B607A68B0
:401D00003B689A42EED13B69DB683B6000237B6008E0BB6800221A60BB680433BB607B6804337B607A683B689A42F2D13B6910333B617B69013B7B617B69002BC6D100F09B
:401D400005FAFFF7D7FCFEE7010000004822000080B582B000AF184B184A1A60184A184B1B6843F40073136000237B600FE07B68032B04D8134A7B6852F8233000E0124B9D
:401D800012497A6841F822307B6801337B607B682F2BECD90E4B1B78DAB20E4B1A700E4B0A4A1A60FFF7E4FE0C4B00221A6000BF0837BD4680BD00BF0CED00E00004FA0541
:401DC00014ED00E000000000A51C00000080FF1FBC760040C480FF1F08ED00E0C080FF1F80B500AF064B1B78002B04D100F00AF8034B01221A7000F045F800BF80BD00BFFF
:401E00006C02002080B582B000AF1C4B1B78DBB223F03F03FB71194AFB7943F00903DBB21370174A164B1B78DBB243F00103DBB21370FF2000F036F8FF2000F051F80620AC
:401E400000F05EF8132000F06BF8002000F078F800F06EF90346BB71094A094B1B78DBB243F01003DBB21370BB79184600F064F900F028F800BF0837BD4680BD7B640040E1
:401E80009B64004080B400AF054A054B1B78DBB263F07F03DBB2137000BFBD4680BC70477B64004080B483B000AF0346FB71044AFB79137000BF0C37BD4680BC704700BFC1
:401EC0000B64004080B500AF01E000F055F800F047F8034603F01003002BF6D100BF80BD80B483B000AF0346FB71044AFB79137000BF0C37BD4680BC704700BF4B6400400F
:401F000080B483B000AF0346FB71044AFB79137000BF0C37BD4680BC704700BF2B64004080B483B000AF0346FB71044AFB79137000BF0C37BD4680BC704700BF3B64004065
:401F400080B483B000AF0346FB71044AFB79137000BF0C37BD4680BC704700BF8B64004080B400AF034B1B78DBB21846BD4680BC704700BF6B64004080B400AF034B1B7834
:401F8000DBB21846BD4680BC704700BF5B64004080B500AF064B1B78002B04D100F00AF8034B01221A7000F043F800BF80BD00BF6D02002080B582B000AF1B4B1B78DBB2BC
:401FC00023F03F03FB71184AFB7943F00903DBB21370164A154B1B78DBB243F00103DBB21370FF2000F034F8FF2000F04FF8062000F05CF8002000F069F800F099F803469E
:40200000BB710A4A094B1B78DBB243F01003DBB21370BB79184600F08FF800F029F800BF0837BD4680BD00BF7A6400409A64004080B400AF054A054B1B78DBB263F07F036C
:40204000DBB2137000BFBD4680BC70477A64004080B483B000AF0346FB71044AFB79137000BF0C37BD4680BC704700BF0A64004080B500AF01E000F045F800F037F80346AE
:4020800003F01003002BF6D100BF80BD80B483B000AF0346FB71044AFB79137000BF0C37BD4680BC704700BF4A64004080B483B000AF0346FB71044AFB79137000BF0C3765
:4020C000BD4680BC704700BF2A64004080B483B000AF0346FB71044AFB79137000BF0C37BD4680BC704700BF8A64004080B400AF034B1B78DBB21846BD4680BC704700BF04
:402100006A64004080B400AF034B1B78DBB21846BD4680BC704700BF5A640040000000000230800803D000BF01380046FCD17047EFF3108072B6704780F31088704700BF0E
:40214000014B1868704700BF3481FF1F0E4B70B51E460E4C0025E41AA410A54204D056F8253098470135F8E700F05CF8084B094C1E46E41AA4100025A54204D056F8253060
:4021800098470135F8E770BD3022000030220000302200003822000010B5431E0A44914204D011F8014B03F8014FF8E710BD03460244934202D003F8011BFAE77047000062
:4021C0000000000049444C4500000000061300000001020050756D702031000050756D7020320000546573742050756D70203100305100404000C05100401000F051004028
:40220000100000000140001000140140000800400140000A004C0140000200500140200043000000F8B500BFF8BC08BC9E4670474D000000511D0000F8B500BFF8BC08BCB4
:402240009E4670472900000058220000C880FF1F700000004881000000000000AAAAAAAAF87F00000000000000000000000000000000000000000000000000000000000062
:4022800000000000202200000000000000000000000000000000000000000000000000000000000000000000000000000000000000000000000000000000000000000000DC
:4022C00000000000D480FF1F00000000000000000000000000000000000000000000000000000000000000000000000000000000000000000000000000000000000000006C
:40230000000000000000000000000000000000000000000000000000000000000000000000000000000000000000000000000000000000000000000000000000000000009D
:40234000000000000000000000000000000000000000000000000000000000000000000000000000000000000000000000000000000000000000000000000000000000005D
:40238000000000000000000000000000000000000000000000000000000000000000000000000000000000000000000000000000000000000000000000000000000000001D
:4023C00000000000000000000000000000000000000000000000000000000000000000000000000000000000000000000000000000000000000000000000000000000000DD
:020000040003F7
:0200000480007A
:4000000001520040026400400107014001090140540A0140310B014002410140014201400243014004450140064601400250014011808A0D8B0FEE08AF0103011208140104
:400040001A0426072B01300432023301340836013F044060410445D14720482349FF4AFF4BFF4DA04F04501852805405580459045A045B045F01604062C06440654066C035
:4000800068C06AC06CC06EC0870E88018B0199089A079E04A303AE08B004B102B201B304B402B501B608B708BF10C010C106C5D5C620C701C81BC9FFCAFFCBFFCDA0CF04C4
:4000C000D018D280D407D804D904DA04DB04DF01E040E2C0E440E540E6C0E8C0EAC0ECC0EEC0051009020A140D800F081020174019601A141B011C401D901E201F80220400
:400100002642272829202F80372038023E083F2041014580482049214F29500151015608571059415A085EA05F09710277408A028C40C040C2CEC484CA84CC20CE61D0111B
:40014000D224D6FB6302D640A701AF01EE105A046308D602D8028A048F049604A704E002E40400010C0100000010100010000000000B0B000000000000C0C000C0000000A8
:40018000000000000000000000000000000000000000000000000000000000000000000000000000000000000000000000000000000000000000000000000000000000003F
:4001C00000000000000000000000000000000000000000000000000000000000000000000000000000000000000000000000000000000000000000000000000000000000FF
:4002000000000000000000000000000000000000000000000000000000000000000000000000000000000000000000000000000000000000000000000000000000000000BE
:40024000000000000000000000000000000000000000000000000000000000000000000000000000000000000000000000000000000000000000000000000000000000007E
:0200000490006A
:0400000000004005B7
:0200000490105A
:04000000BC90ACAF55
:0200000490303A
:020000005A1C88
:0200000490402A
:4000000000000000000000000000000000000000000000000000000000000000000000000000000000000000000000000000000000000000000000000000000000000000C0
:400040000000000000000000000000000000000000000000000000000000000000000000000000000000000000000000000000000000000000000000000000000000000080
:400080000000000000000000000000000000000000000000000000000000000000000000000000000000000000000000000000000000000000000000000000000000000040
:4000C0000000000000000000000000000000000000000000000000000000000000000000000000000000000000000000000000000000000000000000000000000000000000
:0200000490501A
:0C00000000012E16106900012E246A85F4
:00000001FF