:4000000000800020110000008D1200008D12000080B500AF024A034B1B68136001F040F9BC760040FA46004010B5054C237833B9044B13B10448AFF300800123237010BD9F
:400040003881FF1F0000000018160000084B10B51BB108490848AFF300800848036803B910BD074B002BFBD0BDE81040184700BF000000003C81FF1F18160000C880FF1FC6
:400080000000000080B483B000AF78607B6803F108027B685A607B684FF0FF329A607B6803F108027B68DA607B6803F108027B681A617B6800221A6000BF0C37BD4680BC8A
:4000C000704700BF80B483B000AF78607B6800221A6100BF0C37BD4680BC704780B485B000AF786039607B685B68FB603B68FA685A60FB689A683B689A60FB689B683A68D1
:400100005A60FB683A689A603B687A681A617B681B685A1C7B681A6000BF1437BD4680BC704700BF80B485B000AF786039603B681B68BB60BB68B3F1FF3F03D17B681B6904
:40014000FB600CE07B680833FB6002E0FB685B68FB60FB685B681A68BB689A42F6D9FB685A683B685A603B685B683A689A603B68FA689A60FB683A685A603B687A681A61A4
:400180007B681B685A1C7B681A6000BF1437BD4680BC704780B485B000AF78607B681B69FB607B685B687A6892689A607B689B687A6852685A60FB685A687B689A4203D1E4
:4001C0007B689A68FB685A607B6800221A61FB681B685A1EFB681A60FB681B6818461437BD4680BC704700BF80B58CB004AFF860B9603B601346FB80FB889B00184600F08E
:400200004DFD78617B69002B0ED0502000F046FDF861FB69002B03D0FB697A691A6305E0786900F0CDFD01E00023FB61FB69002B13D0FA8800230393FB690293FB6A01930D
:40024000BB6A00933B68B968F86800F00FF8F86900F08CF80123BB6102E04FF0FF33BB61BB6918462037BD4680BD00BF80B586B000AFF860B9607A603B60BB6A186B7B68C4
:400280009B001A46A52101F0BEF9BB6A1A6B7B6803F18043013B9B0013443B613B6923F007033B61BB68002B1FD000237B6112E0BA687B6913441978BA6A7B691344343388
:4002C0000A461A70BA687B6913441B78002B06D07B6901337B617B690B2BE9D900E000BFBB6A002283F83F2003E0BB6A002283F834203B6A042B01D904233B62BB6A3A6A6F
:40030000DA62BB6A3A6A1A64BB6A00225A64BB6A04331846FFF7D6FEBB6A18331846FFF7D1FEBB6ABA6A1A613B6AC3F10502BB6A9A61BB6ABA6A5A62BB6A00229A64BB6A6B
:40034000002283F84C203A68F968386900F08CFB0246BB6A1A607B6A002B02D07B6ABA6A1A6000BF1837BD4680BD00BF80B582B000AF786000F000FC2A4B1B680133294A87
:400380001360294B1B68002B09D1274A7B681360244B1B68012B10D100F064FA0DE0234B1B68002B09D1204B1B68DA6A7B68DB6A9A4202D81C4A7B6813601D4B1B680133EC
:4003C0001B4A13607B68DB6A01229A40194B1B681343184A13607B68DA6A13469B0013449B00154A1A447B68043319461046FFF775FE00F0D9FB0D4B1B68002B0ED00A4BEF
:400400001B68DA6A7B68DB6A9A4207D20B4B4FF080521A60BFF34F8FBFF36F8F00BF0837BD4680BD2C82FF1F5481FF1F3882FF1F4882FF1F3482FF1F5881FF1F04ED00E09E
:4004400080B584B000AF78600023FB607B68002B08D000F04FF80021786800F09FFA00F057F8F860FB68002B07D1064B4FF080521A60BFF34F8FBFF36F8F00BF1037BD4645
:4004800080BD00BF04ED00E080B584B002AF134B0193002300930023642211491148FFF7A3FE78607B68012B14D14FF0A00383F31188BFF36F8FBFF34F8F3B600A4B4FF08E
:4004C000FF321A60094B01221A60094B00221A6000F032FB00BF0837BD4680BD5082FF1F1C160000550800004C82FF1F3882FF1F3082FF1F80B400AF044B1B680133034ACC
:40050000136000BFBD4680BC704700BF5482FF1F80B584B000AF0023FB600023BB6000F02BFB394B1B68013B374A1360364B1B68002B61D1354B1B68002B5DD02EE0344B76
:40054000DB68DB68FB60FB6818331846FFF722FEFB6804331846FFF71DFEFB68DB6A01229A402C4B1B6813432A4A1360FB68DA6A13469B0013449B00274A1A44FB6804339D
:4005800019461046FFF7AAFDFB68DA6A234B1B68DB6A9A4202D3224B01221A601C4B1B68002BCCD1FB68002B01D000F0D7F91D4B1B687B607B68002B10D000F037F8034664
:4005C000002B02D0164B01221A607B68013B7B607B68002BF1D1134B00221A60104B1B68002B09D00123BB600F4B4FF080521A60BFF34F8FBFF36F8F00F0D6FABB681846B5
:400600001037BD4680BD00BF5482FF1F2C82FF1FEC81FF1F3482FF1F5881FF1F5481FF1F4082FF1F3C82FF1F04ED00E080B586B000AF00237B61464B1B68002B7DD1454BA8
:400640001B6801333B61434A3B6913603B69002B10D1414B1B68FB60404B1B683E4A13603E4AFB6813603E4B1B6801333C4A136000F074F93B4B1B683A699A4248D3364B48
:400680001B681B68002B04D1364B4FF0FF321A603EE0314B1B68DB68DB68BB60BB685B687B603A697B689A4203D22E4A7B6813602EE0BB6804331846FFF76CFDBB689B6AF8
:4006C000002B04D0BB6818331846FFF763FDBB68DB6A01229A40244B1B681343224A1360BB68DA6A13469B0013449B001F4A1A44BB68043319461046FFF7F0FCBB68DA6AE1
:400700001B4B1B68DB6A9A42B9D301237B61B6E7174B1B68DA6A154913469B0013449B000B441B68012B01D901237B61114B1B68002B07D001237B6104E00F4B1B6801336B
:400740000D4A13607B6918461837BD4680BD00BF5482FF1F3082FF1FE481FF1FE881FF1F4482FF1F4C82FF1F3482FF1F5881FF1F5481FF1F4082FF1F3C82FF1F80B586B09C
:4007800000AF2F4B1B68002B03D02E4B01221A6051E02C4B00221A602B4B1B681B6B7B614FF0A5333B617B691A683B699A4211D17B6904331A683B699A420BD17B69083347
:4007C0001A683B699A4205D17B690C331A683B699A4208D01C4B1A681B4B1B6834331946104600F0A1FB194B1B687B607B68B3FA83F3FB70FB78C3F11F03FB60FA68134618
:400800009B0013449B00124A1344BB60BB685B685A68BB685A60BB685A68BB6808339A4204D1BB685B685A68BB685A60BB685B68DB68054A136000BF1837BD4680BD00BF67
:400840005482FF1F4082FF1F5481FF1F3482FF1F5881FF1F80B582B000AF786000F042F8FCE700BF80B582B000AF00237B600CE07A6813469B0013449B00124A1344184653
:40088000FFF700FC7B6801337B607B68042BEFD90D48FFF7F7FB0D48FFF7F4FB0C48FFF7F1FB0C48FFF7EEFB0B48FFF7EBFB0B4B054A1A600A4B054A1A6000BF0837BD462D
:4008C00080BD00BF5881FF1FBC81FF1FD081FF1FEC81FF1F0082FF1F1882FF1FE481FF1FE881FF1F80B582B000AF19E000F044F90F4BDB68DB687B607B6804331846FFF7E9
:4009000049FC0C4B1B68013B0A4A13600A4B1B68013B094A136000F047F9786800F00EF8054B1B68002BE1D100BF0837BD4680BD0082FF1F2C82FF1F1482FF1F80B582B040
:4009400000AF78607B681B6B184600F039FA786800F036FA00BF0837BD4680BD80B483B000AF0C4B1B681B68002B04D10A4B4FF0FF321A6008E0074B1B68DB68DB687B60F8
:400980007B685B68044A136000BF0C37BD4680BC704700BFE481FF1F4C82FF1F80B584B000AF78603960294B1B68FB60284B1B6804331846FFF7EEFB0346002B0BD1244BA6
:4009C0001B68DB6A012202FA03F3DA43214B1B681340204A13607B68B3F1FF3F0AD13B68002B07D01A4B1B68043319461A48FFF775FB26E0FA687B681344BB60144B1B68B4
:400A0000BA685A60BA68FB689A4209D2134B1A680F4B1B68043319461046FFF783FB10E00F4B1A680A4B1B68043319461046FFF779FB0C4B1B68BA689A4202D2094ABB6865
:400A4000136000BF1037BD4680BD00BF3082FF1F5481FF1F3482FF1F1882FF1FE881FF1FE481FF1F4C82FF1F80B485B000AFF860B9607A60FB68043BFB60FB684FF08072C5
:400A80001A60FB68043BFB60BB6823F00102FB681A60FB68043BFB60084AFB681A60FB68143BFB607A68FB681A60FB68203BFB60FB6818461437BD4680BC7047C10A0000CB
:400AC00080B483B000AF00233B604FF0A00383F31188BFF36F8FBFF34F8F7B6000BF3B68002BFCD000BF0C37BD4680BC704700BF074B19680868B0E8F00F80F30988BFF376
:400B00006F8F4FF0000080F311884EF00D0E70475481FF1F00BF00BF06480068006880F3088862B661B6BFF34F8FBFF36F8F00DF00BF00BF08ED00E080B500AF0C4A0C4B98
:400B40001B6843F460031360094A094B1B6843F06043136000F088F8064B00221A60FFF7DBFFFFF70BFEFFF7ABFF0023184680BD20ED00E0CC80FF1F80B483B000AF4FF03C
:400B8000A00383F31188BFF36F8FBFF34F8F7B60044B1B680133034A136000BF0C37BD4680BC7047CC80FF1F80B483B000AF094B1B68013B074A1360064B1B68002B04D17F
:400BC00000237B607B6883F3118800BF0C37BD4680BC7047CC80FF1F0000000000000000EFF30980BFF36F8F0D4B1A6820E9F00F10602DE908404FF0A00080F31188FFF7F7
:400C0000BDFD4FF0000080F31188BDE8084019680868B0E8F00F80F30988BFF36F8F70475481FF1F00BF00BF80B582B000AF4FF0A00383F31188BFF36F8FBFF34F8F3B607C
:400C4000FFF7F4FC0346002B03D0064B4FF080521A6000237B607B6883F3118800BF0837BD4680BD04ED00E080B400AF084B00221A60084B00221A60074B45F6BF521A6093
:400C8000034B07221A6000BFBD4680BC704700BF10E000E018E000E014E000E080B588B000AF786000237B61FFF724FC404B1B68002B04D100F0BEF83D4B01221A607B688E
:400CC000002B0ED008231A467B6813447B607B6803F00703002B04D07B6823F0070308337B607B68002B57D07B6847F6F772934252D8304BBB612F4B1B68FB6104E0FB6961
:400D0000BB61FB691B68FB61FB695A687B689A4203D2FB691B68002BF1D1FB69264A93423AD0BB691B68082213447B61FB691A68BB691A60FB695A687B68D31A0822520019
:400D4000934222D9FA697B681344FB60FB695A687B68D21AFB685A60FB697A685A60FB685B68BB60134B3B6102E03B691B683B613B691B685A68BB689A42F6D33B691A68E2
:400D8000FB681A603B69FA681A600C4B1A68FB695B68D31A094A1360FFF7BAFB7B69002B01D100F0D1F87B6918462037BD4680BD680200205802002060020020D080FF1F11
:400DC00080B586B000AF78607B683B617B68002B27D008235B423A6913443B613B69FB60FFF788FBFB685B68BB60104B7B6102E07B691B687B617B691B685A68BB689A42E2
:400E0000F6D37B691A68FB681A607B69FA681A60FB685A68064B1B681344054A1360FFF777FB00BF1837BD4680BD00BF58020020D080FF1F80B483B000AF0F4B23F00703EA
:400E40007B600E4A7B6813600C4B00225A600C4B47F6F8725A600A4B00221A607B683B603B6847F6F8725A603B68054A1A6000BF0C37BD4680BC70476082FF1F58020020AD
:400E80006002002080B582B002AF00F035F8002301930323009300234FF47A7203490448FFF7A2F9FFF7F0FAFEE700BF24160000B50E000080B586B000AF78604FF4FA736D
:400EC0003B610623FB731323BB7301237B617B69012B06D1FB7B184600F006FB00237B6105E0BB7B184600F0FFFA01237B613869FFF7A6FAEBE700BF80B500AF064B074A00
:400F0000DA62054B064A9A63034B064ADA6300F05BFA00BF80BD00BF0080FF1FF10A0000E10B0000290C000080B485B000AF786039604FF0A00383F31188BFF36F8FBFF367
:400F40004F8FFB60FEE700BF80B483B000AF4FF0A00383F31188BFF36F8FBFF34F8F7B60FEE700BF80B582B000AF786039603A680021786800F047FB00BF0837BD4680BD34
:400F800080B584B000AFF860B9607A607A68B968F86800F02DFB00BF1037BD4680BD00BF80B483B000AF0346FB71FEE780B487B000AF7860396000233B6100237B6127E04E
:400FC0007B699B007A6813441B68BB60BB68FB73BB6823F0FF03BB6014E03B695B003A6813441B781A46BB68134419463B695B003A6813445B780B703B6901333B61FB7BCF
:40100000013BFB73FB7B002BE7D17B6901337B617B69072BD4D900BF1C37BD4680BC704780B582B000AF314B40F252721A80304B18221A702F4B02221A704FF04023082299
:401040001A702D4B03221A702C4B2D4A1278D2B21A702C4B08221A802B4B41F251221A800023FB7019237B6014E0FB785B00DAB2264B1B78DBB203F00103DBB21343DBB25D
:4010800003F00303FB704FF4F07000F075FA7B68013B7B607B68002B02D0FB78032BE4D17B68002B02D10320FFF77AFF184B4FF480721A80164B07221A70164B00221A70D4
:4010C000154B48221A70124B00221A70134B02221A70134A124B1B78DBB243F00103DBB2137000BF0837BD4680BD00BF80400040824000400043004000420040A14600403B
:401100000801004922420040204200402542004004400040064000400840004001400040A243004080B483B000AF0B4B1B78FB710A4AFB7903F00703DBB21370084AFB7932
:401140001B09DBB21370074B44221A7000BF0C37BD4680BC704700BFCF0100496E5800406F5800407658004080B582B000AF72B6374A374B1B78DBB243F00403DBB2137063
:401180000023FB7113E0FA7913465B0013445B00304A13443B603B681A683B689B889BB219461046FFF7DEFEFB790133FB71FB79082BE8D928494FF09040FFF7F7FE274A51
:4011C000264B1B78DBB243F00203DBB21370244A234B1B78DBB243F00203DBB21370214A204B1B78DBB243F04003DBB213701E4A1D4B1B78DBB243F01003DBB213700822E6
:401200001A491B48FFF7BCFE08221A491A48FFF7B7FE1A4A194B1B78DBB243F00803DBB21370174B61221A70FFF7FAFE144B81221A70144B01221A70FFF774FF0E22094988
:401240001148FFF79DFE00BF0837BD4680BD00BFE846004030160000200000480350014013500140A0430040C2430040D400004812510040DC000048225100402243004090
:401280000048004004000840B043004080B500AF00F082F903461B680C2B00D1FEE7FEE780B586B000AF224B7B61224B3B61204B7B6135E03B691B68FB603B695B68BB606E
:4012C0003B699B683B6000237B600CE0FB681A68BB681A60BB680433BB60FB680433FB607B6804337B607A683B689A42EED13B69DB683B6000237B6008E0BB6800221A609A
:40130000BB680433BB607B6804337B607A683B689A42F2D13B6910333B617B69013B7B617B69002BC6D100F03DF9FFF7ABFDFEE7010000008C16000080B582B000AF184B35
:40134000184A1A60184A184B1B6843F40073136000237B600FE07B68032B04D8134A7B6852F8233000E0124B12497A6841F822307B6801337B607B682F2BECD90E4B1B7890
:40138000DAB20E4B1A700E4B0A4A1A60FFF7ECFE0C4B00221A6000BF0837BD4680BD00BF0CED00E00004FA0514ED00E0000000008D1200000080FF1FBC760040C480FF1FF9
:4013C00008ED00E0C080FF1F80B500AF064B1B78002B04D100F00AF8034B01221A7000F045F800BF80BD00BF6C02002080B582B000AF1C4B1B78DBB223F03F03FB71194ACE
:40140000FB7943F00903DBB21370174A164B1B78DBB243F00103DBB21370FF2000F036F8FF2000F051F8062000F05EF8132000F06BF8002000F078F800F0A6F80346BB71B6
:40144000094A094B1B78DBB243F01003DBB21370BB79184600F09CF800F028F800BF0837BD4680BD7D6400409D64004080B400AF054A054B1B78DBB263F07F03DBB2137002
:4014800000BFBD4680BC70477D64004080B483B000AF0346FB71044AFB79137000BF0C37BD4680BC704700BF0D64004080B500AF01E000F055F800F047F8034603F010035E
:4014C000002BF6D100BF80BD80B483B000AF0346FB71044AFB79137000BF0C37BD4680BC704700BF4D64004080B483B000AF0346FB71044AFB79137000BF0C37BD4680BCF5
:40150000704700BF2D64004080B483B000AF0346FB71044AFB79137000BF0C37BD4680BC704700BF3D64004080B483B000AF0346FB71044AFB79137000BF0C37BD4680BC6B
:40154000704700BF8D64004080B400AF034B1B78DBB21846BD4680BC704700BF6D64004080B400AF034B1B78DBB21846BD4680BC704700BF5D6400400230800803D000BF9E
:4015800001380046FCD17047EFF3108072B6704780F31088704700BF014B1868704700BF3481FF1F0E4B70B51E460E4C0025E41AA410A54204D056F8253098470135F8E7DC
:4015C00000F052F8084B094C1E46E41AA4100025A54204D056F8253098470135F8E770BD7416000074160000741600007C16000010B5431E0A44914204D011F8014B03F8B4
:40160000014FF8E710BD03460244934202D003F8011BFAE7704700000000000049444C4500000000746573742050574D00000000005100401000305100404000C0510040E4
:401640001000F0510040100000000140001000140140000800400140000A004C014000020050014020004300F8B500BFF8BC08BC9E4670474D00000039130000F8B500BF89
:40168000F8BC08BC9E46704729000000A0160000C880FF1F70000000388100000000000000000000AAAAAAAAF87F000000000000000000000000000000000000000000008A
:4016C000000000000000000000000000661600000000000000000000000000000000000000000000000000000000000000000000000000000000000000000000000000006E
:40170000000000000000000000000000D480FF1F00000000000000000000000000000000000000000000000000000000000000000000000000000000000000000000000037
:401740000000000000000000000000000000000000000000000000000000000000000000000000000000000000000000000000000000000000000000000000000000000069
:401780000000000000000000000000000000000000000000000000000000000000000000000000000000000000000000000000000000000000000000000000000000000029
:4017C00000000000000000000000000000000000000000000000000000000000000000000000000000000000000000000000000000000000000000000000000000000000E9
:4018000000000000000000000000000000000000000000000000000000000000000000000000000000000000000000000000000000000000000000000000000000000000A8
:020000040003F7
:0200000480007A
:400000000252004001640040030B01402D0C01401E0D0140044501400246014002500140104011408D0FAC04AF80EC0A83018607870E8E048F03920894019D08B008B1088B
:40004000B202B301B401B502B604B704BF04C040C105C5D0C650C721C83AC9FFCAFFCBFFCDA0CF04D018D280D407D804D904DA04DB04DF01E040E2C0E440E540E6C0E8C0BA
:40008000EAC0ECC0EEC0004003200A50184019101A101B8020082180220423803180384A404049014A0250055202532059115A085B807240C005C20CCC08CE0BD001D208FE
:4000C000D60F63026410D602D801AC10AF0100010E010000000B0B000000000000C0C000C000000000000000000000000000000000000000000000000000000000000000BF
:4001000000000000000000000000000000000000000000000000000000000000000000000000000000000000000000000000000000000000000000000000000000000000BF
:40014000000000000000000000000000000000000000000000000000000000000000000000000000000000000000000000000000000000000000000000000000000000007F
:40018000000000000000000000000000000000000000000000000000000000000000000000000000000000000000000000000000000000000000000000000000000000003F
:4001C00000000000000000000000000000000000000000000000000000000000000000000000000000000000000000000000000000000000000000000000000000000000FF
:0200000490006A
:0400000000004005B7
:0200000490105A
:04000000BC90ACAF55
:0200000490303A
:0200000040308E
:0200000490402A
:4000000000000000000000000000000000000000000000000000000000000000000000000000000000000000000000000000000000000000000000000000000000000000C0
:400040000000000000000000000000000000000000000000000000000000000000000000000000000000000000000000000000000000000000000000000000000000000080
:400080000000000000000000000000000000000000000000000000000000000000000000000000000000000000000000000000000000000000000000000000000000000040
:4000C0000000000000000000000000000000000000000000000000000000000000000000000000000000000000000000000000000000000000000000000000000000000000
:0200000490501A
:0C00000000012E16106900012E1F5099FF
:00000001FF