:400000000080002011000000091F0000091F000080B500AF024A034B1B68136001F07EFFBC760040FA46004010B5054C237833B9044B13B10448AFF300800123237010BD49
:400040008081FF1F00000000544C0000084B10B51BB108490848AFF300800848036803B910BD074B002BFBD0BDE81040184700BF000000008481FF1F544C0000C880FF1F52
:400080000000000080B483B000AF78607B6803F108027B685A607B684FF0FF329A607B6803F108027B68DA607B6803F108027B681A617B6800221A6000BF0C37BD4680BC8A
:4000C000704700BF80B483B000AF78607B6800221A6100BF0C37BD4680BC704780B485B000AF786039607B685B68FB603B68FA685A60FB689A683B689A60FB689B683A68D1
:400100005A60FB683A689A603B687A681A617B681B685A1C7B681A6000BF1437BD4680BC704700BF80B485B000AF786039603B681B68BB60BB68B3F1FF3F03D17B681B6904
:40014000FB600CE07B680833FB6002E0FB685B68FB60FB685B681A68BB689A42F6D9FB685A683B685A603B685B683A689A603B68FA689A60FB683A685A603B687A681A61A4
:400180007B681B685A1C7B681A6000BF1437BD4680BC704780B485B000AF78607B681B69FB607B685B687A6892689A607B689B687A6852685A60FB685A687B689A4203D1E4
:4001C0007B689A68FB685A607B6800221A61FB681B685A1EFB681A60FB681B6818461437BD4680BC704700BF80B584B000AF786039607B68FB6001F0F7F8FB681A68FB680F
:40020000DB6BF968096C01FB03F31A44FB689A60FB6800229A63FB681A68FB685A60FB681A68FB68DB6B013BF968096C01FB03F31A44FB68DA60FB68FF2283F84420FB681E
:40024000FF2283F845203B68002B14D1FB681B69002B1AD0FB681033184600F00FFE0346002B12D00C4B4FF080521A60BFF34F8FBFF36F8F09E0FB6810331846FFF702FF71
:40028000FB6824331846FFF7FDFE01F0C5F8012318461037BD4680BD04ED00E080B58AB002AFF860B9601346FB71FB68BA6802FB03F3FB61FB694833184601F027F9B8611C
:4002C000BB69002B0DD0BB697B617B6948337B61FA79BB69009313467A69B968F86800F005F8BB6918462037BD4680BD80B584B000AFF860B9607A60FB70BB68002B03D1BA
:40030000BB69BA691A6002E0BB697A681A60BB69FA68DA63BB69BA681A640121B869FFF763FF00BF1037BD4680BD00BF80B58AB000AFF860B9607A603B6000237B62FB680C
:400340003B6201F051F83B6A9A6B3B6ADB6B9A4202D33B68022B29D13A68B968386A00F031F9F8613B6A5B6A002B10D03B6A2433184600F083FD0346002B13D03F4B4FF05F
:4003800080521A60BFF34F8FBFF36F8F0AE0FB69002B07D0394B4FF080521A60BFF34F8FBFF36F8F01F038F8012363E07B68002B03D101F031F800235CE07B6A002B06D148
:4003C00007F11403184600F0ADFD01237B6201F023F800F08DFB01F007F83B6A93F844305BB2B3F1FF3F03D13B6A002283F844203B6A93F845305BB2B3F1FF3F03D13B6A67
:40040000002283F8452001F007F83A1D07F114031146184600F09CFD0346002B24D1386A00F0C8F90346002B18D03B6A10337A681146184600F00CFD386A00F053F900F0C8
:4004400065FB0346002B7FF47CAF0C4B4FF080521A60BFF34F8FBFF36F8F72E7386A00F041F900F053FB6CE7386A00F03BF900F04DFB002318462837BD4680BD04ED00E043
:4004800080B58AB000AFF860B9607A6000237B62FB683B6200F0A8FF3B6A9B6BFB61FB69002B1FD0B968386A00F0F6F8FB695A1E3B6A9A633B6A1B69002B0FD03B6A10337D
:4004C000184600F0DBFC0346002B07D03C4B4FF080521A60BFF34F8FBFF36F8F00F09CFF012369E07B68002B03D100F095FF002362E07B6A002B06D107F11403184600F033
:4005000011FD01237B6200F087FF00F0F1FA00F06BFF3B6A93F844305BB2B3F1FF3F03D13B6A002283F844203B6A93F845305BB2B3F1FF3F03D13B6A002283F8452000F0F5
:400540006BFF3A1D07F114031146184600F000FD0346002B23D1386A00F016F90346002B17D03B6A24337A681146184600F070FC386A00F0B7F800F0C9FA0346002B89D1F4
:400580000F4B4FF080521A60BFF34F8FBFF36F8F80E7386A00F0A6F800F0B8FA7AE7386A00F0A0F800F0B2FA386A00F0EDF80346002B3FF46FAF002318462837BD4680BD5A
:4005C00004ED00E080B586B000AFF860B9607A6000237B61FB689B6B3B61FB681B6C002B0DD1FB681B68002B4DD1FB689B68184600F0A4FD7861FB6800229A6043E07B68EC
:40060000002B19D1FB685868FB681B6C1A46B96804F00CFBFB685A68FB681B6C1A44FB685A60FB685A68FB689B689A422BD3FB681A68FB685A6026E0FB68D868FB681B6C98
:400640001A46B96804F0F2FAFB68DA68FB681B6C5B421A44FB68DA60FB68DA68FB681B689A4207D2FB689A68FB681B6C5B421A44FB68DA607B68022B05D13B69002B02D044
:400680003B69013B3B613B695A1CFB689A637B6918461837BD4680BD80B582B000AF786039607B681B6C002B18D07B68DA687B681B6C1A447B68DA607B68DA687B689B685A
:4006C0009A4203D37B681A687B68DA607B68D9687B681B6C1A46386804F0A8FA00BF0837BD4680BD80B584B000AF786000F07CFE7B6893F84530FB7311E07B685B6A002BF5
:4007000012D07B682433184600F0B8FB0346002B01D000F063FCFB7B013BDBB2FB7397F90F30002BE9DC00E000BF7B68FF2283F8452000F071FE00F057FE7B6893F8443093
:40074000BB7311E07B681B69002B12D07B681033184600F093FB0346002B01D000F03EFCBB7B013BDBB2BB7397F90E30002BE9DC00E000BF7B68FF2283F8442000F04CFECE
:4007800000BF1037BD4680BD80B584B000AF786000F02AFE7B689B6B002B02D10123FB6001E00023FB6000F037FEFB6818461037BD4680BD80B584B000AF786000F014FEC7
:4007C0007B689A6B7B68DB6B9A4202D10123FB6001E00023FB6000F01FFEFB6818461037BD4680BD80B58CB004AFF860B9603B601346FB80FB889B00184600F087FE786138
:400800007B69002B0ED0502000F080FEF861FB69002B03D0FB697A691A6305E0786900F007FF01E00023FB61FB69002B13D0FA8800230393FB690293FB6A0193BB6A0093FB
:400840003B68B968F86800F00FF8F86900F08CF80123BB6102E04FF0FF33BB61BB6918462037BD4680BD00BF80B586B000AFF860B9607A603B60BB6A186B7B689B001A467B
:40088000A52104F0DEF9BB6A1A6B7B6803F18043013B9B0013443B613B6923F007033B61BB68002B1FD000237B6112E0BA687B6913441978BA6A7B69134434330A461A7080
:4008C000BA687B6913441B78002B06D07B6901337B617B690B2BE9D900E000BFBB6A002283F83F2003E0BB6A002283F834203B6A042B01D904233B62BB6A3A6ADA62BB6AE2
:400900003A6A1A64BB6A00225A64BB6A04331846FFF7D8FBBB6A18331846FFF7D3FBBB6ABA6A1A613B6AC3F10502BB6A9A61BB6ABA6A5A62BB6A00229A64BB6A002283F82B
:400940004C203A68F968386900F0C2FC0246BB6A1A607B6A002B02D07B6ABA6A1A6000BF1837BD4680BD00BF80B582B000AF786000F03AFD2A4B1B680133294A1360294BC5
:400980001B68002B09D1274A7B681360244B1B68012B10D100F036FB0DE0234B1B68002B09D1204B1B68DA6A7B68DB6A9A4202D81C4A7B6813601D4B1B6801331B4A136022
:4009C0007B68DB6A01229A40194B1B681343184A13607B68DA6A13469B0013449B00154A1A447B68043319461046FFF777FB00F013FD0D4B1B68002B0ED00A4B1B68DA6ABF
:400A00007B68DB6A9A4207D20B4B4FF080521A60BFF34F8FBFF36F8F00BF0837BD4680BD7482FF1F9C81FF1F8082FF1F9082FF1F7C82FF1FA081FF1F04ED00E080B584B046
:400A400000AF78600023FB607B68002B08D000F04FF80021786800F0D5FB00F057F8F860FB68002B07D1064B4FF080521A60BFF34F8FBFF36F8F00BF1037BD4680BD00BF75
:400A800004ED00E080B584B002AF134B0193002300930023642211491148FFF7A3FE78607B68012B14D14FF0A00383F31188BFF36F8FBFF34F8F3B600A4B4FF0FF321A60D9
:400AC000094B01221A60094B00221A6000F06CFC00BF0837BD4680BD9882FF1F584C0000F50F00009482FF1F8082FF1F7882FF1F80B400AF044B1B680133034A136000BFCB
:400B0000BD4680BC704700BF9C82FF1F80B584B000AF0023FB600023BB6000F065FC394B1B68013B374A1360364B1B68002B61D1354B1B68002B5DD02EE0344BDB68DB6899
:400B4000FB60FB6818331846FFF724FBFB6804331846FFF71FFBFB68DB6A01229A402C4B1B6813432A4A1360FB68DA6A13469B0013449B00274A1A44FB680433194610466A
:400B8000FFF7ACFAFB68DA6A234B1B68DB6A9A4202D3224B01221A601C4B1B68002BCCD1FB68002B01D000F0A9FA1D4B1B687B607B68002B10D000F037F80346002B02D044
:400BC000164B01221A607B68013B7B607B68002BF1D1134B00221A60104B1B68002B09D00123BB600F4B4FF080521A60BFF34F8FBFF36F8F00F010FCBB6818461037BD4626
:400C000080BD00BF9C82FF1F7482FF1F3482FF1F7C82FF1FA081FF1F9C81FF1F8882FF1F8482FF1F04ED00E080B586B000AF00237B61464B1B68002B7DD1454B1B680133F4
:400C40003B61434A3B6913603B69002B10D1414B1B68FB60404B1B683E4A13603E4AFB6813603E4B1B6801333C4A136000F046FA3B4B1B683A699A4248D3364B1B681B6820
:400C8000002B04D1364B4FF0FF321A603EE0314B1B68DB68DB68BB60BB685B687B603A697B689A4203D22E4A7B6813602EE0BB6804331846FFF76EFABB689B6A002B04D0FA
:400CC000BB6818331846FFF765FABB68DB6A01229A40244B1B681343224A1360BB68DA6A13469B0013449B001F4A1A44BB68043319461046FFF7F2F9BB68DA6A1B4B1B68F3
:400D0000DB6A9A42B9D301237B61B6E7174B1B68DA6A154913469B0013449B000B441B68012B01D901237B61114B1B68002B07D001237B6104E00F4B1B6801330D4A136084
:400D40007B6918461837BD4680BD00BF9C82FF1F7882FF1F2C82FF1F3082FF1F8C82FF1F9482FF1F7C82FF1FA081FF1F9C81FF1F8882FF1F8482FF1F80B586B000AF2F4B1D
:400D80001B68002B03D02E4B01221A6051E02C4B00221A602B4B1B681B6B7B614FF0A5333B617B691A683B699A4211D17B6904331A683B699A420BD17B6908331A683B6944
:400DC0009A4205D17B690C331A683B699A4208D01C4B1A681B4B1B6834331946104600F0B7FC194B1B687B607B68B3FA83F3FB70FB78C3F11F03FB60FA6813469B0013442F
:400E00009B00124A1344BB60BB685B685A68BB685A60BB685A68BB6808339A4204D1BB685B685A68BB685A60BB685B68DB68054A136000BF1837BD4680BD00BF9C82FF1F17
:400E40008882FF1F9C81FF1F7C82FF1FA081FF1F80B582B000AF78603960074B1B68183319467868FFF75EF90121386800F0CAF900BF0837BD4680BD9C81FF1F80B584B02A
:400E800000AF78607B68DB68DB68BB60BB6818331846FFF77FF91D4B1B68002B1CD1BB6804331846FFF776F9BB68DB6A01229A40174B1B681343164A1360BB68DA6A13469A
:400EC0009B0013449B00134A1A44BB68043319461046FFF703F905E0BB68183319460E48FFF7FCF8BB68DA6A0C4B1B68DB6A9A4205D90123FB600A4B01221A6001E0002302
:400F0000FB60FB6818461037BD4680BD9C82FF1F7C82FF1FA081FF1F3482FF1F9C81FF1F8882FF1F80B483B000AF7860064B1A687B681A60054B1A687B685A6000BF0C37B1
:400F4000BD4680BC704700BF8C82FF1F7882FF1F80B586B000AF7860396000F045FA1D4B1B683B617B685B683A69D31AFB603B681B68B3F1FF3F02D100237B6123E07B68E6
:400F80001A68154B1B689A4207D07B685A683B699A4202D801237B6115E03B681A68FB689A420BD93B681A68FB68D21A3B681A607868FFF7B7FF00237B6104E03B68002218
:400FC0001A6001237B6100F027FA7B6918461837BD4680BD7882FF1F8C82FF1F80B400AF034B01221A6000BFBD4680BC704700BF8882FF1F80B582B000AF786000F042F8CF
:40100000FCE700BF80B582B000AF00237B600CE07A6813469B0013449B00124A13441846FFF730F87B6801337B607B68042BEFD90D48FFF727F80D48FFF724F80C48FFF730
:4010400021F80C48FFF71EF80B48FFF71BF80B4B054A1A600A4B054A1A6000BF0837BD4680BD00BFA081FF1F0482FF1F1882FF1F3482FF1F4882FF1F6082FF1F2C82FF1F3E
:401080003082FF1F80B582B000AF19E000F0ACF90F4BDB68DB687B607B6804331846FFF779F80C4B1B68013B0A4A13600A4B1B68013B094A136000F0AFF9786800F00EF8FD
:4010C000054B1B68002BE1D100BF0837BD4680BD4882FF1F7482FF1F5C82FF1F80B582B000AF78607B681B6B184600F0A1FA786800F09EFA00BF0837BD4680BD80B483B0BD
:4011000000AF0C4B1B681B68002B04D10A4B4FF0FF321A6008E0074B1B68DB68DB687B607B685B68044A136000BF0C37BD4680BC704700BF2C82FF1F9482FF1F80B584B0BF
:4011400000AF78607B68BB600023FB607B68002B4FD0BB685B6C5A1EBB685A64BB68DA6ABB681B6C9A4244D0BB685B6C002B40D1BB6804331846FFF70DF80346002B15D1C8
:40118000BB68DA6A1D4913469B0013449B000B441B68002B0AD1BB68DB6A012202FA03F3DA43174B1B681340154A1360BB681A6CBB68DA62BB68DB6AC3F10502BB689A61B7
:4011C000BB68DB6A01229A400D4B1B6813430C4A1360BB68DA6A13469B0013449B00074A1A44BB68043319461046FEF777FF0123FB60FB6818461037BD4680BDA081FF1F14
:401200007C82FF1F80B584B000AF78603960294B1B68FB60284B1B6804331846FEF7BAFF0346002B0BD1244B1B68DB6A012202FA03F3DA43214B1B681340204A13607B68C3
:40124000B3F1FF3F0AD13B68002B07D01A4B1B68043319461A48FEF741FF26E0FA687B681344BB60144B1B68BA685A60BA68FB689A4209D2134B1A680F4B1B6804331946ED
:401280001046FEF74FFF10E00F4B1A680A4B1B68043319461046FEF745FF0C4B1B68BA689A4202D2094ABB68136000BF1037BD4680BD00BF7882FF1F9C81FF1F7C82FF1FC3
:4012C0006082FF1F3082FF1F2C82FF1F9482FF1F80B485B000AFF860B9607A60FB68043BFB60FB684FF080721A60FB68043BFB60BB6823F00102FB681A60FB68043BFB60A0
:40130000084AFB681A60FB68143BFB607A68FB681A60FB68203BFB60FB6818461437BD4680BC70472913000080B483B000AF00233B604FF0A00383F31188BFF36F8FBFF334
:401340004F8F7B6000BF3B68002BFCD000BF0C37BD4680BC704700BF0000000000000000074B19680868B0E8F00F80F30988BFF36F8F4FF0000080F311884EF00D0E7047BB
:401380009C81FF1F00BF00BF06480068006880F3088862B661B6BFF34F8FBFF36F8F00DF00BF00BF08ED00E080B500AF0C4A0C4B1B6843F460031360094A094B1B6843F034
:4013C0006043136000F088F8064B00221A60FFF7DBFFFFF7D1FCFFF7A7FF0023184680BD20ED00E0CC80FF1F80B483B000AF4FF0A00383F31188BFF36F8FBFF34F8F7B6014
:40140000044B1B680133034A136000BF0C37BD4680BC7047CC80FF1F80B483B000AF094B1B68013B074A1360064B1B68002B04D100237B607B6883F3118800BF0C37BD46CE
:4014400080BC7047CC80FF1F0000000000000000EFF30980BFF36F8F0D4B1A6820E9F00F10602DE908404FF0A00080F31188FFF783FC4FF0000080F31188BDE8084019682B
:401480000868B0E8F00F80F30988BFF36F8F70479C81FF1F00BF00BF80B582B000AF4FF0A00383F31188BFF36F8FBFF34F8F3B60FFF7BAFB0346002B03D0064B4FF08052CB
:4014C0001A6000237B607B6883F3118800BF0837BD4680BD04ED00E080B400AF084B00221A60084B00221A60074B45F6BF521A60034B07221A6000BFBD4680BC704700BF35
:4015000010E000E018E000E014E000E080B588B000AF786000237B61FFF7EAFA404B1B68002B04D100F0BEF83D4B01221A607B68002B0ED008231A467B6813447B607B681A
:4015400003F00703002B04D07B6823F0070308337B607B68002B57D07B6847F6F772934252D8304BBB612F4B1B68FB6104E0FB69BB61FB691B68FB61FB695A687B689A4220
:4015800003D2FB691B68002BF1D1FB69264A93423AD0BB691B68082213447B61FB691A68BB691A60FB695A687B68D31A08225200934222D9FA697B681344FB60FB695A68E7
:4015C0007B68D21AFB685A60FB697A685A60FB685B68BB60134B3B6102E03B691B683B613B691B685A68BB689A42F6D33B691A68FB681A603B69FA681A600C4B1A68FB69AE
:401600005B68D31A094A1360FFF780FA7B69002B01D100F0ADF87B6918462037BD4680BDB0020020A0020020A8020020D080FF1F80B586B000AF78607B683B617B68002B2A
:4016400027D008235B423A6913443B613B69FB60FFF74EFAFB685B68BB60104B7B6102E07B691B687B617B691B685A68BB689A42F6D37B691A68FB681A607B69FA681A6047
:40168000FB685A68064B1B681344054A1360FFF73DFA00BF1837BD4680BD00BFA0020020D080FF1F80B483B000AF0F4B23F007037B600E4A7B6813600C4B00225A600C4B0E
:4016C00047F6F8725A600A4B00221A607B683B603B6847F6F8725A603B68054A1A6000BF0C37BD4680BC7047A882FF1FA0020020A802002080B500AF00F006F800F046F8DE
:40170000FFF7C0F9FEE700BF80B500AF0C4B0D4ADA620B4B0C4A9A63094B0C4ADA6301F005F801F0DBF801F09FF901F021FB01F0D3FA00F087FD01F075FC00BF80BD00BF61
:401740000080FF1F61130000511400009914000080B485B000AF786039604FF0A00383F31188BFF36F8FBFF34F8FFB60FEE700BF80B483B000AF4FF0A00383F31188BFF3D3
:401780006F8FBFF34F8F7B60FEE700BF80B582B002AF002201210120FEF780FD02461A4B1A60002201210120FEF778FD0246174B1A60002201210120FEF770FD0246134BA6
:4017C0005A60002201210120FEF768FD02460F4B9A60002301930223009300234FF47A720B490C48FEF7FEFF00230193022300930023642208490948FEF7F4FF00F088F867
:4018000000BFBD4680BD00BF480300203C030020604C000021180000684C00004D18000080B582B000AF012001F0C4FB42F210737B6001F0AFFB0346FB70034AFB78137017
:401840007868FFF7FBF8F4E72C03002080B584B000AF274A3B1D12881A8042F21073FB606423BB60234B187839460023032200F0D5FE3A78204B9A707A781F4B5A70BA78A5
:401880001D4B1A701D4B186800234FF0FF321C49FEF74CFD194B586800234FF0FF321949FEF744FD154B986800234FF0FF321249FEF73CFDB868FFF7C1F80F4B9A783B795E
:4018C0009A420ED30C4B9A787B799A4209D20E4B01221A70B868FFF7B1F80C4B1B78002B02E0094B00221A70F868FFF7A7F8B9E77C4C0000D480FF1F300300203C030020DA
:4019000032030020310300202D0300202C03002080B582B002AF002301930223009300234FF47A7203490448FEF75CFF00BFBD4680BD00BF804C00003D19000080B582B057
:4019400000AF2F4B1B68F91D4FF0FF321846FEF797FD2B4B5B68B91D4FF0FF321846FEF78FFD274B9B68791D4FF0FF321846FEF787FD244B1B78002B0DD0234B1B7883F020
:401980000103DBB2002B06D01F4B01221A70012001F02EFB10E01B4B1B7883F00103DBB2002B09D0184B1B78002B05D0164B00221A70002001F01CFB144801F093F9FB79DA
:4019C000184601F0ADF9124801F08CF9BB79184601F0A6F90E4801F085F97B79184601F09FF90C4801F07EF90B4801F07BF9064B1B78184601F094F9084801F073F9A0E7F8
:401A00003C0300202D030020390300208C4C00009C4C0000A04C0000A44C0000B04C000080B582B000AF786039603A680021786803F007F900BF0837BD4680BD80B584B03F
:401A400000AFF860B9607A607A68B968F86803F0EDF800BF1037BD4680BD00BF80B483B000AF0346FB71FEE780B487B000AF7860396000233B6100237B6127E07B699B00AD
:401A80007A6813441B68BB60BB68FB73BB6823F0FF03BB6014E03B695B003A6813441B781A46BB68134419463B695B003A6813445B780B703B6901333B61FB7B013BFB73D9
:401AC000FB7B002BE7D17B6901337B617B691D2BD4D900BF1C37BD4680BC704780B582B000AF574B1B78BB70564B40F252721A80554B18221A70554B45F6BF521A80544B88
:401B000018221A70534B47F6FF721A80524B1D221A70042251495248FFF790FF514B02221A704FF0402308221A704F4BF3221A70434B03221A704D4B84221A704C4B05221A
:401B40001A704C4B7B6006E04FF4F07002F0C8FF7B68013B7B607B68002B06D0444B1B78DBB203F02003002BEED0354ABB781370414B03221A70414B414A1278D2B21A707C
:401B8000404B08221A80404B41F251221A800023FB7019237B6014E0FB785B00DAB23B4B1B78DBB203F00103DBB21343DBB203F00303FB704FF4F07002F092FF7B68013B62
:401BC0007B607B68002B02D0FB78032BE4D17B68002B02D10320FFF741FF2D4B4FF480721A802B4B07221A702A4B00221A702A4B48221A70264B00221A70284B02221A7062
:401C0000274B04221A70274A264B1B78DBB243F00703DBB21370244A234B1B78DBB243F00103DBB21370214A204B1B78DBB263F07F03DBB2137000BF0837BD4680BD00BF18
:401C40009846004080400040824000408440004086400040884000408A4000409004004800410040004300400A4300400943004008430040A086010000420040A1460040D4
:401C800008010049224200402042004025420040044000400640004008400040014000400B400040A2430040A1430040A043004080B582B000AF1E4B1B78FB711D4B1B7862
:401CC000BB711D4B1B787B711C4AFB7903F00703DBB213701A4AFB791B09DBB21370154ABB7943F00303DBB21370134A7B7943F00303DBB21370134B08221A70124B802257
:401D00001A70124B80221A70114B20221A700A2000F0A4F9084A7B791370064ABB7913700C4B44221A7000BF0837BD4680BD00BFCF010049F8460040F94600406E58004081
:401D40006F5800400D51004001590040205B0040235B00407658004080B586B000AF72B6514A514B1B78DBB243F00403DBB213700023FB7513E0FA7D13465B0013445B0057
:401D80004A4A13443B613B691A683B699B889BB219461046FFF744FEFB7D0133FB75FB7D072BE8D90023FB751CE0FA7D13469B0013445B003E4A1344FB60FB681B68BB6007
:401DC000FB685B687B60FB681A7A5B7A1B0213437B807B881A467968B868FFF72FFEFB7D0133FB75FB7D002BDFD032494FF09040FFF73AFE304B314A1A60314A304B1B7802
:401E0000DBB243F00203DBB213702E4A2D4B1B78DBB243F00203DBB213702B4A2A4B1B78DBB243F04003DBB21370284A274B1B78DBB243F01003DBB213700A222449254885
:401E4000FFF7FCFD0A2224492448FFF7F7FD082223492448FFF7F2FD082223492348FFF7EDFD082222492348FFF7E8FD224A224B1B78DBB243F00803DBB213701F4B6122AD
:401E80001A70FFF72BFE1D4B81221A701C4B01221A70FFF70DFF0E220B491A48FFF7CEFD00BF1837BD4680BDE8460040B44C0000E44C000078000048D8040140040404440E
:401EC0000350014013500140A0430040C243004060040048005100406C040048C0510040780400481251004080040048225100408804004832510040224300400048004052
:401F000004000840B043004080B500AF02F062FE03461B680C2B00D1FEE7FEE780B586B000AF224B7B61224B3B61204B7B6135E03B691B68FB603B695B68BB603B699B68DB
:401F40003B6000237B600CE0FB681A68BB681A60BB680433BB60FB680433FB607B6804337B607A683B689A42EED13B69DB683B6000237B6008E0BB6800221A60BB6804335A
:401F8000BB607B6804337B607A683B689A42F2D13B6910333B617B69013B7B617B69002BC6D102F01DFEFFF7A5FBFEE701000000444D000080B582B000AF184B184A1A6059
:401FC000184A184B1B6843F40073136000237B600FE07B68032B04D8134A7B6852F8233000E0124B12497A6841F822307B6801337B607B682F2BECD90E4B1B78DAB20E4BFB
:402000001A700E4B0A4A1A60FFF7A6FE0C4B00221A6000BF0837BD4680BD00BF0CED00E00004FA0514ED00E000000000091F00000080FF1FBC760040C480FF1F08ED00E039
:40204000C080FF1F80B483B000AF0346FB7101BE00BF0C37BD4680BC704700BF80B582B000AF0346FB80FB88054A127802FB03F3184602F035FD00BF0837BD4680BD00BF19
:40208000E080FF1F80B584B000AF03463960FB710F4B1B68FB60FB791F2B02D90020FFF7D1FFFB7903F01F0310339B00FA6813441B68BB60FB7903F01F0310339B00FA68FE
:4020C00013443A681A60BB6818461037BD4680BD08ED00E080B582B000AF03460A46FB711346BB71BB79072B02D90020FFF7AAFFFB791F2B02D90020FFF7A4FFFB7903F037
:402100001F0303F1604303F56443BA795201D2B21A7000BF0837BD4680BD00BF80B584B000AF0346FB7102F0E3FC0346FB73104B1B78DAB20F4B1B781343DAB20D4B1A7036
:402140000C4B1B7803F00703BB73FB79DB43DAB2084B1B781340DAB2064B1A70FB7B184602F0CAFCBB7B18461037BD4680BD00BF90430040F602002080B500AF144B022294
:402180001A70144B81221A70134B08221A70134B0F221A70124B00221A70124B4FF400421A6007210F20FFF795FF0F490F20FFF769FF0E4B10221A700D4B00221A700D4B42
:4021C00000221A700C4B00221A7000BF80BD00BFD6490040C8490040CA490040DB490040DC49004080E100E075220000540300205A030020620300205803002080B582B076
:4022000000AF02F075FC0346FB710C4A0B4B1B78DBB243F00403DBB21370094A084B1B78DBB243F00403DBB21370FB79184602F063FC00BF0837BD4680BD00BFA543004069
:40224000B543004080B500AF084B1B78002B04D1FFF792FF054B01221A70FFF7CFFF044B4FF400421A6000BF80BD00BFF702002000E100E080B582B000AFA74B1B78FB712A
:40228000A64B1B78DBB203F04003DBB2002B00F0A981FB7903F00103002B00F080819F4B1B78DBB2453B052B00F2758101A252F823F000BFCD220000F3230000972500005C
:4022C00097250000CD220000DF240000FB7923F02003FB71FB7903F00A03DBB2082B46D18E4B1B78DBB2452B3AD18D4B1B78DBB2002B0FD08B4A8C4B1B681B78DBB2137087
:40230000854B04221A70894B01221A70834B46221A7044E1864B1B78DBB203F00203002B0FD0844B1B78DBB243F00A03DAB2814B1A707A4B60221A707F4B4FF400421A6019
:402340002DE17E4A7D4B1B78DBB243F01003DBB213707B4B10221A706F4B04221A701EE16D4B00221A706D4B4A221A7017E1FB7903F00A03DBB20A2B37D16E4B1B78DBB23D
:4023800063F05F03DAB26B4B1A70694B1B78DBB203F00203002B19D0604B1B78DBB203F00803002B01D0092300E00A23DAB2614B1B78DBB21343DAB25E4B1A70574B60222D
:4023C0001A705D4B4FF400421A60E8E05B4A5B4B1B78DBB243F01003DBB21370584B10221A704D4B04221A70D9E00020FFF72AFED5E0FB7903F00203002B42D14B4B1B78FD
:40240000DAB2474B1B78DBB29A4214D2454A464B1B6846490978C9B20B441B78DBB213703D4B04221A70414B1B78DBB20133DAB23E4B1A70B3E03E4B1B78DBB203F0020391
:40244000002B0FD03B4B1B78DBB243F00A03DAB2384B1A70314B60221A70374B4FF400421A609CE0354A354B1B78DBB243F01003DBB21370324B10221A70274B04221A707E
:402480008DE02B4B1B78DBB203F00203002B0FD0284B1B78DBB263F06503DAB2254B1A701E4B60221A70244B4FF400421A6076E0224A224B1B78DBB243F01003DBB21370BB
:4024C0001F4B10221A70144B04221A70194B1B78DBB263F06F03DAB2164B1A705FE0194B1B68194A1278D2B213440E4A1278D2B21A70154B1B78DBB20133DAB2124B1A70E2
:40250000114B1B78DAB2114B1B78DBB29A421FD2014B10221A7042E0D74900405403002059030020D84900406403002058030020600300205A03002080E100E0D649004057
:40254000D94900405C03002062030020610300202C4B1B78DBB203F00203002B0FD02A4B1B78DBB243F00903DAB2274B1A70274B60221A70264B4FF400421A600FE0254A30
:40258000244B1B78DBB243F01003DBB21370224B00221A7003E00020FFF754FD00BFFB7903F02003002B28D0184B1B78DBB203F00803002B01D0012300E00223DAB2124BD8
:4025C0001B78DBB21343DAB20F4B1A70114A114B1B78DBB223F01003DBB213700B4B10221A700AE0094B1B78DBB203F01003DBB2002B02D1054B10221A7000BF0837BD46DA
:4026000080BD00BF600300205A0300205403002080E100E0D6490040D749004080B485B000AF396011461A460346FB710B46BB7113467B710223FB733B68002B59D0304B43
:402640001B78DBB2102B0CD12E4B1B78DBB203F00803002B02D10023FB7315E00123FB7312E0274B1B78DBB2602B0DD10023FB73254B4FF400421A60244B1B78DBB223F0E6
:402680000803DAB2214B1A70FB7B002B31D11C4B49221A701E4B00221A701E4ABB7913701D4A3B6813601D4A7B791370174B1B78DBB223F00103DAB2144B1A70184AFB791B
:4026C0005B00DBB243F00103DBB213707B7903F00103002B06D00B4B12221A70114B04221A7002E0074B01221A700F4B4FF400421A60FB7B18461437BD4680BC704700BF91
:4027000054030020D949004080E200E05A03002062030020610300205C03002060030020D8490040D749004000E100E080B500AF064B1B78002B04D100F00AF8034B012249
:402740001A7000F045F800BF80BD00BFF802002080B582B000AF1C4B1B78DBB223F03F03FB71194AFB7943F00903DBB21370174A164B1B78DBB243F00103DBB21370FF2001
:4027800000F036F8FF2000F051F8062000F05EF8132000F06BF8002000F078F802F0A8F90346BB71094A094B1B78DBB243F01003DBB21370BB79184602F09EF900F028F8E1
:4027C00000BF0837BD4680BD706400409064004080B400AF054A054B1B78DBB263F07F03DBB2137000BFBD4680BC70477064004080B483B000AF0346FB71044AFB791370F3
:4028000000BF0C37BD4680BC704700BF0064004080B500AF01E000F055F800F047F8034603F01003002BF6D100BF80BD80B483B000AF0346FB71044AFB79137000BF0C37BD
:40284000BD4680BC704700BF4064004080B483B000AF0346FB71044AFB79137000BF0C37BD4680BC704700BF2064004080B483B000AF0346FB71044AFB79137000BF0C3722
:40288000BD4680BC704700BF3064004080B483B000AF0346FB71044AFB79137000BF0C37BD4680BC704700BF8064004080B400AF034B1B78DBB21846BD4680BC704700BF40
:4028C0006064004080B400AF034B1B78DBB21846BD4680BC704700BF5064004080B500AF064B1B78002B04D100F00AF8034B01221A7000F043F800BF80BD00BFF9020020C6
:4029000080B582B000AF1B4B1B78DBB223F03F03FB71184AFB7943F00903DBB21370164A154B1B78DBB243F00103DBB21370FF2000F034F8FF2000F04FF8062000F05CF8F3
:40294000002000F069F802F0D3F80346BB710A4A094B1B78DBB243F01003DBB21370BB79184602F0C9F800F029F800BF0837BD4680BD00BF726400409264004080B400AF14
:40298000054A054B1B78DBB263F07F03DBB2137000BFBD4680BC70477264004080B483B000AF0346FB71044AFB79137000BF0C37BD4680BC704700BF0264004080B500AF57
:4029C00001E000F045F800F037F8034603F01003002BF6D100BF80BD80B483B000AF0346FB71044AFB79137000BF0C37BD4680BC704700BF4264004080B483B000AF034661
:402A0000FB71044AFB79137000BF0C37BD4680BC704700BF2264004080B483B000AF0346FB71044AFB79137000BF0C37BD4680BC704700BF8264004080B400AF034B1B78B7
:402A4000DBB21846BD4680BC704700BF6264004080B400AF034B1B78DBB21846BD4680BC704700BF5264004080B500AF064B1B78002B04D100F00AF8034B01221A7000F0B1
:402A800029F800BF80BD00BFFA02002080B500AF102000F007F907210020FFF71BFB0A490020FFF7EFFA094A084B1B78DBB243F00603DBB213700C2000F086F8044B002257
:402AC0001A8000BF80BD00BF992C0000015900406C03002080B582B000AF02F009F80346FB712E4A2D4B1B78DBB243F00103DBB213702B4A2A4B1B78DBB243F00103DBB2B0
:402B00001370284A274B1B78DBB243F00103DBB21370254A244B1B78DBB243F00103DBB21370224B1B78BB71BB7943F00203BB71BB7943F00103BB711C4ABB7913701C4BA3
:402B400018221A701B4A1B4B1B78DBB243F04003DBB21370174A174B1B78DBB223F00303DBB21370144BCE221A70144B02221A70134A134B1B78DBB243F00803DBB2137005
:402B80000A20FFF76BFA0F4B01221A60FB79184601F0B2FF00BF0837BD4680BDAB430040BB430040A1430040B1430040035900400659004005590040005900401446004017
:402BC000275B004080E200E080B584B000AF0346FB71FB790A2B07D00C2B02D0082B06D008E0C223FB730BE08223FB7308E04223FB7305E0C223FB730020FFF723FA00BF54
:402C0000054AFB7B1370FB79184600F007F800BF1037BD4680BD00BF0259004080B584B000AF0346FB71FB790A2B08D00C2B02D0082B08D00BE04FF48053FB600DE04FF4FD
:402C40008063FB6009E04FF48073FB6005E00023FB600020FFF7F6F900BF0C4B00221A80FB6842F2107202FB03F303F58063002B01DA03F2FF73DB121A46054B1A60054BA7
:402C800000221A8000BF1037BD4680BD70030020680300206E03002080B400AF00BFBD4680BC704780B483B000AF0346FB710949084B1B78DBB25AB297F9073023F007034B
:402CC0005BB213435BB2DBB20B7000BF0C37BD4680BC70470241004080B400AF00BFBD4680BC704780B584B000AF78600123FB737B681B78BB730BE0BB7B184601F000FFB4
:402D0000FB7B7A6813441B78BB73FB7B0133FB73BB7B002BF0D100BF1037BD4680BD00BF80B582B000AF0346FB71FB791B09DBB21A46084B9B5C184601F0E2FEFB7903F0B4
:402D40000F03044AD35C184601F0DAFE00BF0837BD4680BDF04C000080B400AF034B01221A7000BFBD4680BC704700BF2803002080B500AF064800F0BFF840F2EE2000F07D
:402D80008DF800F041F8034B00221A7000BF80BD592D00002803002080B582B000AF40F2ED2000F05FF840F2ED2000F077F801F09FFE0346FB710B4A0A4B1B78DBB243F024
:402DC0001003DBB21370FB79184601F095FE00F075F800F083F8002000F028F800BF0837BD4680BD9564004080B400AF054A054B1B78DBB263F07F03DBB2137000BFBD46A2
:402E000080BC70477364004080B500AF064B1B78002B04D1FFF7C0FF034B01221A70FFF7E3FF00BF80BD00BFFB02002080B483B000AF0346FB71044AFB79137000BF0C374E
:402E4000BD4680BC704700BF8564004080B400AF034B1B78DBB21846BD4680BC704700BF6564004080B483B000AF0346FB80044AFB88138000BF0C37BD4680BC704700BF12
:402E80004868004080B400AF034B1B889BB21846BD4680BC704700BF8868004080B483B000AF0346FB80044AFB88138000BF0C37BD4680BC704700BF0868004080B400AF36
:402EC000054A054B1B78DBB243F01003DBB2137000BFBD4680BC70477364004080B500AF01E0FFF7CFFFFFF7B1FF034603F00803002BF6D100BF80BD80B582B000AF78609F
:402F000000F03CF8786800F009F8072000F018F800F028F800BF0837BD4680BD80B485B000AF7860054B1B68FB60FB6844337A681A6000BF1437BD4680BC704708ED00E0FE
:402F400080B483B000AF0346FB71054AFB795B01DBB2137000BF0C37BD4680BC704700BF01E400E080B400AF034B02221A6000BFBD4680BC704700BF00E100E080B400AFF4
:402F8000034B02221A6000BFBD4680BC704700BF80E100E080B400AF054B1B78DBB203F002035B08DBB21846BD4680BC704700BF0151004080B485B000AF0346FB710B4B6D
:402FC0001B78DBB223F00403FB730849FB799B00DBB203F00403DAB2FB7B1343DBB20B7000BF1437BD4680BC704700BF0051004080B485B000AF0346FB71094B1B78DBB251
:4030000003F07F03FB730649FB79DB01DAB2FB7B1343DBB20B7000BF1437BD4680BC70473051004080B500AF064B1B78002B04D100F096F8034B01221A7000F0A7F800BF5E
:4030400080BD00BFFC02002080B582B000AF0123FB710123BB713F4B1B79D9B23E4B5B899AB2BB79184600F0AFF8034601337B717B79012B03D97B79013B7B7110E005231C
:403080007B710DE0BB790133BB717B7901337B717B79072B04D901237B71FB790133FB712C4B5B78DBB27A799A42EBD105E0BB790733BB71FB790133FB71264B9B78DBB262
:4030C000FA799A42F3D1234ABB79D3700123FB710123BB71214B1B79D9B21F4B5B899AB2BB79184600F070F8034601337B717B79012B03D97B79013B7B7110E005237B7165
:403100000DE0BB790133BB717B7901337B717B79072B04D901237B71FB790133FB710F4B5B78DBB27A799A42EBD105E0BB790733BB71FB790133FB71084B9B78DBB2FA7995
:403140009A42F3D1054ABB79D37000BF0837BD4680BD00BF0C81FF1FF480FF1F1481FF1F80B500AF00F072F8064B04221A6006490220FEF787FF07210220FEF7ABFF00BF39
:4031800080BD00BF80E100E0B13C000080B582B000AF01F0ADFC0346FB71094A084B1B78DBB243F03003DBB21370FB79184601F0A3FC044B04221A6000BF0837BD4680BDB5
:4031C0008243004000E100E090B482B000AF0346FB710B46BB711346BB80BB79022B02D8BB88013BBB80BA88BB889B089BB21846BB881349A1FB03135B099BB2C31AB98836
:403200000F48A0FB0101C90989B20B441344BA79013A0C498A5C1146FA790A441A440A4BA2FB0334111B49080B1999080B46DB005B1AD11ACBB218460837BD4690BC7047B1
:403240001F85EB51104D00002549922480B582B000AF9C4B0022DA809A4B1B79D9B2994BDB889AB28BB213449AB2964BDA80954B5B899BB2944AA2FB0312D2094FF4C871CA
:4032800001FB02F29B1A9BB2002B15D08D4B5B899BB203F003039BB2002B16D1894B5B899BB2894AA2FB03125209642101FB02F29B1A9BB2002B08D0844B1B78DBB243F02A
:4032C0000203DAB2814B1A7007E0804B1B78DBB223F00203DAB27D4B1A700023FB710DE0784BDB889AB2FB797949CB5C9BB213449AB2744BDA80FB790133FB71FA79714B88
:403300001B7ADBB2013B9A42EAD3704B1B78DBB203F00203002B0BD06A4B1B7ADBB2022B06D9684BDB889BB201339AB2654BDA80644B1B79D8B2634B1B7AD9B2614B5B89C2
:403340009BB21A46FFF740FF03460133DAB25D4BDA705C4BDB78DBB2012B07D9594BDB78DBB2013BDAB2574BDA7006E0554BDB78DBB20633DAB2534BDA70564B1B78DBB2D1
:4033800003F00203002B01D0FFF75EFE4D4B1B7ADAB2514B1B79DBB29A4208D94B4B1B78DBB243F00103DAB2484B1A7030E0454B1B7ADAB2484B1B79DBB29A4228D1414B28
:4033C0001B79DAB2444BDB78DBB29A4208D93F4B1B78DBB243F00103DAB23C4B1A7017E0384B1B79DAB23C4BDB78DBB29A420FD1344B9B78DAB2384B1B78DBB29A4207D9C9
:40340000324B1B78DBB243F00103DAB22F4B1A702C4B1B7ADAB2314B1B79DBB29A4208D92A4B1B78DBB223F00103DAB2274B1A7030E0244B1B7ADAB2284B1B79DBB29A42F2
:4034400028D1204B1B79DAB2244BDB78DBB29A4208D91E4B1B78DBB223F00103DAB21B4B1A7017E0174B1B79DAB21C4BDB78DBB29A420FD1134B9B78DAB2184B1B78DBB2A4
:403480009A4207D9114B1B78DBB223F00103DAB20E4B1A70124B00221A70124B00221A700E4B1B79DAB2074B1B7ADBB29A421BD10C4B1B78DBB243F00403DAB2094B1A706C
:4034C0001AE000BFF480FF1F1F85EB5104030020044D0000FD0200200C81FF1F1481FF1FFF020020000300203E4B1B78DBB223F00403DAB23B4B1A703B4B1B79DAB23B4BDD
:403500001B7ADBB29A4208D1394B1B78DBB243F00403DAB2364B1A7007E0354B1B78DBB223F00403DAB2324B1A70324BDB78DAB22E4B1B79DBB29A4208D12A4B1B78DBB2CB
:4035400043F00203DAB2274B1A7007E0254B1B78DBB223F00203DAB2224B1A70224BDB78DAB2224B1B79DBB29A4208D1204B1B78DBB243F00203DAB21D4B1A7007E01C4B5B
:403580001B78DBB223F00203DAB2194B1A70194B1B78DAB2154B9B78DBB29A4208D1114B1B78DBB243F00103DAB20E4B1A7007E00C4B1B78DBB223F00103DAB2094B1A7020
:4035C000094B1B78DAB2094B9B78DBB29A4213D1074B1B78DBB243F00103DAB2044B1A7012E000BF000300200C81FF1FF480FF1FFF0200201481FF1F7C4B1B78DBB223F0B7
:403600000103DAB2794B1A70794B1B78DBB203F00103002B00F0D081764B1B78DBB203F00103002B00F0F480704B1B78DBB203F00703072B40F0C0816F4B1B78DAB26F4BF0
:40364000A3FB021359090B461B015B1A9B00D31ADBB219466A4B5B78DAB2CBB2D31ADAB2674B5A70664B5B78DBB23B2B0DD9644B5B78DBB23C33DAB2614B5A70604B9B78BE
:40368000DBB2013BDAB25E4B9A705B4B1B78DBB25A4AA2FB03235B09DBB21946584B9B78DAB2CBB2D31ADAB2554B9A70544B9B78DBB2172B40F28E80514B9B78DBB218335B
:4036C000DAB24F4B9A704E4B1B79DBB2013BDAB24B4B1A714A4BDB889BB2013B9AB2484BDA80474BDB78DBB2013BDAB2444BDA70434BDB78DBB2002B02D1414B0722DA70BF
:403700003F4B1B79DBB2002B64D13D4B1B7ADBB2013BDAB23A4B1A72394B1B7ADBB2002B50D1374B0C221A72354B1B7ADBB2013B344AD25C324B1A71314B5B899BB2013B52
:403740009AB22F4B5A812E4B5B899BB22E4AA2FB0312D2094FF4C87101FB02F29B1A9BB2002B15D0264B5B899BB203F003039BB2002B1AD1224B5B899BB2234AA2FB0312C0
:403780005209642101FB02F29B1A9BB2002B0CD0184B1B78DBB243F00203DAB2154B1A70174B4FF4B772DA8014E0124B1B78DBB223F00203DAB20F4B1A70114B40F26D12D1
:4037C000DA8007E00E4B1B7ADBB2013B0D4AD25C0B4B1A71074B1B78DBB223F00103DAB2044B1A70094B00221A70E5E0FF020020FD02002004030020FE0200208988888810
:40380000F480FF1F044D00001F85EB5100030020A04B1B78DBB203F00703072B40F0CC809D4B1B78DAB29D4BA3FB021359090B461B015B1A9B00D31ADBB21946984B5B78DC
:40384000DAB2CBB21344DAB2954B5A70944B5B78DBB23B2B0DD9924B5B78DBB23C3BDAB28F4B5A708E4B9B78DBB20133DAB28C4B9A70894B1B78DBB2884AA2FB03235B093C
:40388000DBB21946864B9B78DAB2CBB21344DAB2834B9A70824B9B78DBB2172B40F281807F4B9B78DBB2183BDAB27D4B9A707C4B1B79DBB20133DAB2794B1A71784BDB885A
:4038C0009BB201339AB2764BDA80754BDB78DBB20133DAB2724BDA70714BDB78DBB2072B02D96F4B0122DA706D4B1B79DAB26C4B1B7ADBB2013B6B49CB5C9A4251D9684B28
:403900001B7ADBB20133DAB2654B1A72644B01221A71634B1B7ADBB20C2B42D9604B01221A725F4B5B899BB201339AB25C4B5A815B4B5B899BB25C4AA2FB0312D2094FF466
:40394000C87101FB02F29B1A9BB2002B15D0544B5B899BB203F003039BB2002B16D1504B5B899BB2504AA2FB03125209642101FB02F29B1A9BB2002B08D04C4B1B78DBB240
:4039800043F00203DAB2494B1A7007E0474B1B78DBB223F00203DAB2444B1A70404B0122DA80424B1B78DBB243F00103DAB23F4B1A70384B00221A70394B9B78DBB20B2BBA
:4039C00008D83A4B1B78DBB223F00403DAB2374B1A7007E0354B1B78DBB243F00403DAB2324B1A70324B1B78DBB203F00103002B18D0304B1B78DAB2294B1B78DBB29A428B
:403A000008D12D4B1B78DBB243F00103DAB22A4B1A7007E0284B1B78DBB223F00103DAB2254B1A70224B1B78DBB203F00203002B18D0204B5B78DAB2194B5B78DBB29A423A
:403A400008D11D4B1B78DBB243F00203DAB21A4B1A7007E0184B1B78DBB223F00203DAB2154B1A70124B1B78DBB203F00403002B2CD0104B9B78DAB2094B9B78DBB29A42D2
:403A80001CD10D4B1B78DBB243F00403DAB20A4B1A701BE0FF020020FE02002089888888F480FF1F044D00001F85EB5104030020010300200081FF1F02030020624B1B788D
:403AC000DBB223F00403DAB25F4B1A705F4B1B78DBB203F00803002B18D05D4BDB78DAB25C4BDB78DBB29A4208D1574B1B78DBB243F00803DAB2544B1A7007E0524B1B78F5
:403B0000DBB223F00803DAB24F4B1A704F4B1B78DBB203F02003002B18D04D4BDB889AB24C4BDB889BB29A4208D1474B1B78DBB243F02003DAB2444B1A7007E0424B1B7850
:403B4000DBB223F02003DAB23F4B1A703F4B1B78DBB203F01003002B18D03D4B1B79DAB23C4B1B79DBB29A4208D1374B1B78DBB243F01003DAB2344B1A7007E0324B1B78A6
:403B8000DBB223F01003DAB22F4B1A702F4B1B78DBB203F04003002B18D02D4B1B7ADAB22C4B1B7ADBB29A4208D1274B1B78DBB243F04003DAB2244B1A7007E0224B1B7884
:403BC000DBB223F04003DAB21F4B1A701F4B1B78DBB25BB2002B18DA1D4B5B899AB21D4B5B899BB29A4208D1174B1B78DBB263F07F03DAB2144B1A7007E0134B1B78DBB297
:403C000003F07F03DAB2104B1A70104B1B78BB71BB79002B13D00C4B1B78DAB2BB791340DBB2BA799A420AD10B4B1B78DBB243F00803DAB2084B1A70034B00221A7000BFF8
:403C40000837BD4680BD00BF02030020010300200081FF1FF480FF1F0403002080B400AF00BFBD4680BC704780B400AF00BFBD4680BC704780B400AF00BFBD4680BC70479D
:403C800080B400AF00BFBD4680BC704780B400AF00BFBD4680BC704780B400AF00BFBD4680BC704780B400AF00BFBD4680BC704780B582B000AF0420FEF730FA9E4B1B78CF
:403CC000DBB20133DAB29C4B1A709B4B1B78DBB23B2B40F2B286984B5B78DBB20133DAB2954B5A70944B00221A70934B5B78DBB23B2B40F24E86904B9B78DBB20133DAB213
:403D00008D4B9A708C4B00225A708B4B9B78DBB2172B40F24182884B1B79DBB20133DAB2854B1A71844B00229A70834BDB889BB201339AB2804BDA807F4BDB78DBB2013326
:403D4000DAB27D4BDA707C4BDB78DBB2072B02D9794B0122DA70794B1B78DBB203F00203002B11D0744B1B7ADBB2022B0CD1724B1B79DBB21946704B1B7ADBB2013B704ADD
:403D8000D35C013399422AD86C4B1B78DBB203F00203002B0FD0684B1B7ADBB2022B0AD0654B1B79DAB2644B1B7ADBB2013B6449CB5C9A4213D8614B1B78DBB203F00203D2
:403DC000002B40F026815C4B1B79DAB25A4B1B7ADBB2013B5A49CB5C9A4240F21A81564B1B7ADBB20133DAB2534B1A72524B01221A71514B1B7ADBB20C2B40F285804E4BC7
:403E00005B899BB201339AB24B4B5A814A4B01221A72494B0122DA80474B5B899BB2494AA2FB0312D2094FF4C87101FB02F29B1A9BB2002B15D0404B5B899BB203F00303F5
:403E40009BB2002B16D13C4B5B899BB23D4AA2FB03125209642101FB02F29B1A9BB2002B08D0364B1B78DBB243F00203DAB2334B1A7007E0314B1B78DBB223F00203DAB289
:403E80002E4B1A70304B1B78DBB25BB2002B18DA2E4B5B899AB2284B5B899BB29A4208D12B4B1B78DBB263F07F03DAB2284B1A7007E0274B1B78DBB203F07F03DAB2244B5B
:403EC0001A70214B1B78FB71FB79002B13D0204B1B78DAB2FB791340DBB2FA799A420AD1164B1B78DBB243F00803DAB2134B1A70174B00221A70174B1B78DBB203F040034A
:403F0000002B01D0FFF7CEFE0F4B1B78DBB203F04003002B28D00D4B1B7ADAB2064B1B7ADBB29A4218D10A4B1B78DBB243F04003DAB2074B1A7017E0F480FF1F040300203C
:403F4000044D00001F85EB51010300200081FF1F0203002003030020A34B1B78DBB223F04003DAB2A04B1A70A04B1B79DAB2A04B1B7ADBB29A4208D19E4B1B78DBB243F094
:403F80000403DAB29B4B1A7007E09A4B1B78DBB223F00403DAB2974B1A70974B1B79DAB2934B1B7ADBB29A4208D1944B1B78DBB243F00403DAB2914B1A7007E08F4B1B78CA
:403FC000DBB223F00403DAB28C4B1A708C4B1B78FB71FB79002B13D0834B1B78DAB2FB791340DBB2FA799A420AD1864B1B78DBB243F00803DAB2834B1A707B4B00221A70E5
:40400000814B1B78DBB203F02003002B01D0FFF743FE7B4B1B78DBB203F00803002B18D07A4BDB78DAB2724BDB78DBB29A4208D16D4B1B78DBB243F00803DAB26A4B1A707D
:4040400007E0694B1B78DBB223F00803DAB2664B1A706B4B1B78DBB203F02003002B18D06A4BDB889AB2624BDB889BB29A4208D15D4B1B78DBB243F02003DAB25A4B1A7052
:4040800007E0594B1B78DBB223F02003DAB2564B1A705B4B1B78DBB203F01003002B18D05A4B1B79DAB2524B1B79DBB29A4208D14D4B1B78DBB243F01003DAB24A4B1A70A8
:4040C00007E0494B1B78DBB223F01003DAB2464B1A70464BDB78DAB2454B1B79DBB29A4208D1444B1B78DBB243F00203DAB2414B1A7007E03F4B1B78DBB223F00203DAB2C4
:404100003C4B1A703C4BDB78DAB2394B1B79DBB29A4208D1394B1B78DBB243F00203DAB2364B1A7007E0354B1B78DBB223F00203DAB2324B1A70324B1B78FB71FB79002BEE
:4041400013D0294B1B78DAB2FB791340DBB2FA799A420AD12B4B1B78DBB243F00803DAB2284B1A70204B00221A70274B1B78DBB203F00803002B01D0FFF782FD1C4BDB781C
:40418000DBB2012B08D1204B1B78DBB203F01003002B01D0FFF77AFD154B9B78DBB20B2B08D8184B1B78DBB223F00403DAB2154B1A7007E0134B1B78DBB243F00403DAB21F
:4041C000104B1A70094B1B78DAB2094B9B78DBB29A421DD1074B1B78DBB243F00103DAB2044B1A701CE000BF020300201481FF1FF480FF1F000300200C81FF1FFF02002087
:404200000103002004030020030300200081FF1FA24B1B78DBB223F00103DAB29F4B1A709F4B1B78DAB29F4B9B78DBB29A4208D19D4B1B78DBB243F00103DAB29A4B1A70C8
:4042400007E0994B1B78DBB223F00103DAB2964B1A70964B1B78DBB203F00103002B00F05583934B1B78DBB203F00103002B00F029818A4B1B78DBB203F00703072B40F04C
:404280008C828C4B1B78DAB28B4BA3FB021359090B461B015B1A9B00D31ADBB21946814B5B78DAB2CBB2D31ADAB27E4B5A707D4B5B78DBB23B2B0DD97A4B5B78DBB23C33FD
:4042C000DAB2784B5A70774B9B78DBB2013BDAB2744B9A70774B1B78DBB2774AA2FB03235B09DBB219466F4B9B78DAB2CBB2D31ADAB26C4B9A706B4B9B78DBB2172B40F222
:40430000C180684B9B78DBB21833DAB2654B9A70644B9B78DBB20B2B08D8654B1B78DBB223F00403DAB2624B1A7007E0604B1B78DBB243F00403DAB25D4B1A70594B1B7964
:40434000DBB2013BDAB2574B1A71564BDB889BB2013B9AB2534BDA80524BDB78DBB2013BDAB2504BDA704F4BDB78DBB2002B02D14C4B0722DA704B4B1B79DBB2002B7FD10C
:40438000484B1B7ADBB2013BDAB2464B1A72454B1B7ADBB2002B52D1424B0C221A72414B1B7ADBB2013B454AD25C3E4B1A713D4B5B899BB2013B9AB23A4B5A81394B5B8958
:4043C0009BB23F4AA2FB0312D2094FF4C87101FB02F29B1A9BB2002B15D0324B5B899BB203F003039BB2002B1AD12E4B5B899BB2334AA2FB03125209642101FB02F29B1A74
:404400009BB2002B0CD02A4B1B78DBB243F00203DAB2274B1A70234B4FF4B772DA800BE0234B1B78DBB223F00203DAB2204B1A701C4B40F26D12DA80FFF734FC1EE01C4B90
:404440001B78DBB203F00203002B0FD0154B1B7ADBB2022B0AD1134B1B7ADBB2013B174AD35C0133DAB20F4B1A7107E00D4B1B7ADBB2013B114AD25C0A4B1A71FFF70CFC9B
:40448000FFF7FEFB0A4B1B78DBB223F00103DAB2074B1A70014B00221A707EE1000300200C81FF1FF480FF1FFF020020FD02002004030020FE02002089888888044D000069
:4044C0001F85EB519B4B1B78DBB203F00703072B40F06381984B1B78DAB2984BA3FB021359090B461B015B1A9B00D31ADBB21946934B5B78DAB2CBB21344DAB2904B5A7001
:404500008F4B5B78DBB23B2B0DD98D4B5B78DBB23C3BDAB28A4B5A70894B9B78DBB20133DAB2874B9A70844B1B78DBB2834AA2FB03235B09DBB21946814B9B78DAB2CBB254
:404540001344DAB27E4B9A707D4B9B78DBB2172B40F2D4807A4B9B78DBB2183BDAB2784B9A70774B9B78DBB20B2B08D8754B1B78DBB223F00403DAB2724B1A7007E0714B5C
:404580001B78DBB243F00403DAB26E4B1A706C4B1B79DBB20133DAB2694B1A71684BDB889BB201339AB2664BDA80654BDB78DBB20133DAB2624BDA70614BDB78DBB2072B08
:4045C00002D95F4B0122DA705E4B1B78DBB203F00203002B11D05A4B1B7ADBB2022B0CD1574B1B79DBB21946554B1B7ADBB2013B554AD35C0133994228D8524B1B78DBB271
:4046000003F00203002B0FD04D4B1B7ADBB2022B0AD04B4B1B79DAB2494B1B7ADBB2013B4949CB5C9A4211D8464B1B78DBB203F00203002B60D1424B1B79DAB2404B1B7ABF
:40464000DBB2013B4049CB5C9A4255D93C4B1B7ADBB20133DAB23A4B1A72394B01221A71374B1B7ADBB20C2B44D9354B01221A72334B5B899BB201339AB2314B5A81304BE3
:404680005B899BB2314AA2FB0312D2094FF4C87101FB02F29B1A9BB2002B15D0284B5B899BB203F003039BB2002B16D1244B5B899BB2264AA2FB03125209642101FB02F2B5
:4046C0009B1A9BB2002B08D01E4B1B78DBB243F00203DAB21B4B1A7007E01A4B1B78DBB223F00203DAB2174B1A70154B0122DA80FFF7D8FAFFF7D0FAFFF7C2FA114B1B7876
:40470000DBB243F00103DAB20E4B1A70094B00221A700F4B1B79DAB2094B1B7ADBB29A421AD10C4B1B78DBB243F00403DAB2094B1A7019E0FF020020FE0200208988888819
:40474000F480FF1F04030020044D00001F85EB511481FF1F000300209A4B1B78DBB223F00403DAB2974B1A70974BDB78DAB2974B1B79DBB29A4208D1924B1B78DBB243F0B9
:404780000203DAB28F4B1A7007E08E4B1B78DBB223F00203DAB28B4B1A708D4B1B78DBB203F00803002B18D08A4BDB78DAB2874BDB78DBB29A4208D1874B1B78DBB243F0D7
:4047C0000803DAB2844B1A7007E0834B1B78DBB223F00803DAB2804B1A707D4B1B78DBB203F02003002B18D07A4BDB889AB2774BDB889BB29A4208D1774B1B78DBB243F034
:404800002003DAB2744B1A7007E0734B1B78DBB223F02003DAB2704B1A706D4B1B78DBB203F01003002B18D06A4B1B79DAB2674B1B79DBB29A4208D1674B1B78DBB243F061
:404840001003DAB2644B1A7007E0634B1B78DBB223F01003DAB2604B1A705D4B1B78DBB203F04003002B18D05A4B1B7ADAB2574B1B7ADBB29A4208D1574B1B78DBB243F07F
:404880004003DAB2544B1A7007E0534B1B78DBB223F04003DAB2504B1A704D4B1B78DBB25BB2002B18DA4B4B5B899AB2474B5B899BB29A4208D1484B1B78DBB263F07F03AC
:4048C000DAB2454B1A7007E0434B1B78DBB203F07F03DAB2404B1A703D4B1B78FB71FB79002B13D03C4B1B78DAB2FB791340DBB2FA799A420AD1394B1B78DBB243F0080358
:40490000DAB2364B1A70344B00221A70304B1B78DBB203F00403002B18D02E4B9B78DAB22A4B9B78DBB29A4208D12B4B1B78DBB243F00403DAB2284B1A7007E0264B1B78E7
:40494000DBB223F00403DAB2234B1A70204B1B78FB71FB79002B13D01F4B1B78DAB2FB791340DBB2FA799A420AD11C4B1B78DBB243F00803DAB2194B1A70174B00221A70CC
:40498000174B1B78DBB203F00403002B01D0FFF771F90F4B1B78DBB203F00203002B29D00C4B5B78DAB2094B5B78DBB29A4219D1094B1B78DBB243F00203DAB2064B1A7046
:4049C00018E000BF000300201481FF1FF480FF1F010300200081FF1F020300200403002003030020384B1B78DBB223F00203DAB2354B1A70354B1B78FB71FB79002B13D011
:404A0000314B1B78DAB2FB791340DBB2FA799A420AD12F4B1B78DBB243F00803DAB22C4B1A70294B00221A702A4B1B78DBB203F00203002B01D0FFF717F9244B1B78DBB2BA
:404A400003F00103002B18D0234B1B78DAB2234B1B78DBB29A4208D11B4B1B78DBB243F00103DAB2184B1A7007E0174B1B78DBB223F00103DAB2144B1A70144B1B78FB71D3
:404A8000FB79002B13D0104B1B78DAB2FB791340DBB2FA799A420AD10D4B1B78DBB243F00803DAB20A4B1A70074B00221A70094B1B78DBB203F00103002B01D0FFF7CEF83A
:404AC00000BF0837BD4680BD020300200103002004030020030300200081FF1FF480FF1F0230800803D000BF01380046FCD17047EFF3108072B6704780F31088704700BF90
:404B0000FEB5494652465B460EB40746244909688A46244A12682448022100F047F8030020480068C018204900F040F8143883460121C9430C4601250026FFF7D9FF8146E5
:404B400051460B7823400B7058460130FFF7C8FF3800F04028400B78234003430B705846FFF7BEFF0136072EF2D9002001300138013001200B78234003430B70584604305D
:404B8000FFF7AEFF4846FFF7B7FF00BF00BF00BF0EBC894692469B46FEBD00BFAFF30080F080FF1FD880FF1F00C20100002902D0B0FBF1F0704708B14FF0FF3000F008B811
:404BC0000029F8D00246B0FBF1F000FB11217047704700BF014B1868704700BF7C81FF1F0E4B70B51E460E4C0025E41AA410A54204D056F8253098470135F8E700F090F85C
:404C0000084B094C1E46E41AA4100025A54204D056F8253098470135F8E770BD2C4D00002C4D00002C4D0000344D000010B5431E0A44914204D011F8014B03F8014FF8E78C
:404C400010BD03460244934202D003F8011BFAE7704700000000000049444C45000000004C696768740000004C6967687420636F6E74726F6C6C657200000000080E0000FA
:404C8000546573744C6967687400000043757272656E742074696D653A2000003A0000000A000000624C454473746174653A2000200A0000C84900401900405100403000C5
:404CC000F0510040100000000140001000140140000800400140000A004C0140000200500140200000520040580400480700000030313233343536373839414243444546CB
:404D0000000000001F1C1F1E1F1E1F1F1E1F1E1F00030205000305010406020443000000F8B500BFF8BC08BC9E4670474D000000B51F0000F8B500BFF8BC08BC9E46704781
:404D400029000000584D0000C880FF1FB8000000F88100000000000000000000AAAAAAAAF87F00000900000000366E01C05D0000180000000000E02E070000000C000000AB
:404D800067500040000000010100010001006C07000000010100010001006C0700010101010000000001010101000000000000000000000000000000000000000000000006
:404DC0000000000000000000000000001C4D00000000000000000000000000000000000000000000000000000000000000000000000000000000000000000000000000004A
:404E00000000000000000000000000001C81FF1F000000000000000000000000000000000000000000000000000000000000000000000000000000000000000000000000B7
:404E40000000000000000000000000000000000000000000000000000000000000000000000000000000000000000000000000000000000000000000000000000000000032
:404E800000000000000000000000000000000000000000000000000000000000000000000000000000000000000000000000000000000000000000000000000000000000F2
:404EC00000000000000000000000000000000000000000000000000000000000000000000000000000000000000000000000000000000000000000000000000000000000B2
:404F00000000000000000000000000000000000000000000000000000000000000000000000000000000000000000000000000000000000000000000000000000000000071
:020000040003F7
:0200000480007A
:4000000004520040056400403E00014026010140400201403B03014057040140430501400407014001090140010B0140010D0140091501400417014001190140041A0140CB
:40004000071B0140054001400D41014008420140064301400545014003460140014701400348014010490140084C0140054D01400350014002510140104011406002640375
:4000800071017501800F820D850D03080E040F0C11011208140117072607300831023202330834043501360137043F044040410545D14725483349FF4AFF4BFF4DA04F0409
:4000C000501852805407580459045A045B045F01604062C06440654066C068C06AC06CC06EC08501930795019702A102A201A601B303B504B601B988BA80BB20D804D90447
:40010000DB04DC22DF0100400A501020170A184819401A101F80214222142504270A2F8031023208370A38423D084040482049024A025001520A59425A286D8072408540D9
:40014000C001C20CC434CA80CCC3CE49D001D208D60F02020302060207010E021A011F0122022E0131023401350136023E104010410345D246204701481B49FF4AFF4BFF06
:400180004DA04F04501852805405580459045A045B045C015F01604062C06440654066C068C06AC06CC06EC08004860787038C02980199019C07A207A807AE0FB008B101DE
:4001C000B407B502D290D804D904DB04DC01DD10DF01004001080380050A060209800A040F081082120816801740184019021A041DC01E0821202340261027403120374022
:400200003A043C023D08462047404D014F0855045624581A59805D015E085F40600A61086202708271017202740180048D8090089180A904C0BDC243C49BCC14CEC2D0500E
:40024000D6DFD80FE210E4010319060207080D080E010F04131817021B011E031F102203230124012701291B2C032F0132033303350437184031410549FF4AFF4BFF4F01E3
:400280005018520153015610580459045A045B045C115D115F016040624064406540668068806A806C806E808601930197019A01A301AE01AF01B101B201BE04BF01C034CF
:4002C000C105C5ECC602C807C9FFCAFFCBFFCD83CE03CF01D018D401D804D904DA04DB04DD11DF05E040E240E440E540E680E880EA80EC80EE80014805080A020C200E0462
:40030000104012201340160219081E10200422682780290A2A802B082C402E82302031013249350A380439403A02421043844680470449404B404D014F44568057805D01A9
:400340005F8469406F027F08874A920499439A029C1A9D089E80A508A60AA780A940B210B580C025C241C48DCA9FCCCFCE0BD0CAD218D6D0DE20E801EA80EC409C1AA5081D
:40038000A602EE04EE04E801E401881A89088A029C1AA508A602E008E401EA059C1AA508A602E201E20139A23F5159045F01208A8845E008E2A0E401E620EA0533283521F8
:4003C0008720CCF0E24003105F20630277088D209B209D20A728A901C010D660DC40EA203E1087089F08A728B301B710CE20E2102F089610A708AB20CA20EE205B0466086E
:400400008208D602D8011B04AB04C608AB0480089610E2801220164070087710822086409B10A008AA10AB10C430DC80DE20E010E480EAA01020132017087B107F40802057
:40044000C40EDE03831087409780A710AB28000708070A0200EF03C00101010100000000010002151400110108000000830000808300030000000000000B0B000000000011
:4004800000C0C000C000000000808000000000000E0018010000000000000000000000000000000000000000000000000000000000000000000000000000000000000000D5
:4004C00000000000000000000000000000000000000000000000000000000000000000000000000000000000000000000000000000000000000000000000000000000000FC
:4005000000000000000000000000000000000000000000000000000000000000000000000000000000000000000000000000000000000000000000000000000000000000BB
:40054000000000000000000000000000000000000000000000000000000000000000000000000000000000000000000000000000000000000000000000000000000000007B
:40058000000000000000000000000000000000000000000000000000000000000000000000000000000000000000000000000000000000000000000000000000000000003B
:0200000490006A
:0400000000004005B7
:0200000490105A
:04000000BC90ACAF55
:0200000490303A
:0200000079394C
:0200000490402A
:4000000000000000000000000000000000000000000000000000000000000000000000000000000000000000000000000000000000000000000000000000000000000000C0
:400040000000000000000000000000000000000000000000000000000000000000000000000000000000000000000000000000000000000000000000000000000000000080
:400080000000000000000000000000000000000000000000000000000000000000000000000000000000000000000000000000000000000000000000000000000000000040
:4000C0000000000000000000000000000000000000000000000000000000000000000000000000000000000000000000000000000000000000000000000000000000000000
:0200000490501A
:0C00000000012E16106900012E3689A2A6
:00000001FF