:400000000080002011000000D9140000D914000080B500AF024A034B1B68136001F066FABC760040FA46004010B5054C237833B9044B13B10448AFF300800123237010BDDC
:400040004881FF1F00000000B8250000084B10B51BB108490848AFF300800848036803B910BD074B002BFBD0BDE81040184700BF000000004C81FF1FB8250000C880FF1F48
:400080000000000080B483B000AF78607B6803F108027B685A607B684FF0FF329A607B6803F108027B68DA607B6803F108027B681A617B6800221A6000BF0C37BD4680BC8A
:4000C000704700BF80B483B000AF78607B6800221A6100BF0C37BD4680BC704780B485B000AF786039607B685B68FB603B68FA685A60FB689A683B689A60FB689B683A68D1
:400100005A60FB683A689A603B687A681A617B681B685A1C7B681A6000BF1437BD4680BC704700BF80B485B000AF786039603B681B68BB60BB68B3F1FF3F03D17B681B6904
:40014000FB600CE07B680833FB6002E0FB685B68FB60FB685B681A68BB689A42F6D9FB685A683B685A603B685B683A689A603B68FA689A60FB683A685A603B687A681A61A4
:400180007B681B685A1C7B681A6000BF1437BD4680BC704780B485B000AF78607B681B69FB607B685B687A6892689A607B689B687A6852685A60FB685A687B689A4203D1E4
:4001C0007B689A68FB685A607B6800221A61FB681B685A1EFB681A60FB681B6818461437BD4680BC704700BF80B58CB004AFF860B9603B601346FB80FB889B00184600F08E
:400200004DFD78617B69002B0ED0502000F046FDF861FB69002B03D0FB697A691A6305E0786900F0CDFD01E00023FB61FB69002B13D0FA8800230393FB690293FB6A01930D
:40024000BB6A00933B68B968F86800F00FF8F86900F08CF80123BB6102E04FF0FF33BB61BB6918462037BD4680BD00BF80B586B000AFF860B9607A603B60BB6A186B7B68C4
:400280009B001A46A52102F08EF9BB6A1A6B7B6803F18043013B9B0013443B613B6923F007033B61BB68002B1FD000237B6112E0BA687B6913441978BA6A7B6913443433B7
:4002C0000A461A70BA687B6913441B78002B06D07B6901337B617B690B2BE9D900E000BFBB6A002283F83F2003E0BB6A002283F834203B6A042B01D904233B62BB6A3A6A6F
:40030000DA62BB6A3A6A1A64BB6A00225A64BB6A04331846FFF7D6FEBB6A18331846FFF7D1FEBB6ABA6A1A613B6AC3F10502BB6A9A61BB6ABA6A5A62BB6A00229A64BB6A6B
:40034000002283F84C203A68F968386900F08CFB0246BB6A1A607B6A002B02D07B6ABA6A1A6000BF1837BD4680BD00BF80B582B000AF786000F000FC2A4B1B680133294A87
:400380001360294B1B68002B09D1274A7B681360244B1B68012B10D100F064FA0DE0234B1B68002B09D1204B1B68DA6A7B68DB6A9A4202D81C4A7B6813601D4B1B680133EC
:4003C0001B4A13607B68DB6A01229A40194B1B681343184A13607B68DA6A13469B0013449B00154A1A447B68043319461046FFF775FE00F0D9FB0D4B1B68002B0ED00A4BEF
:400400001B68DA6A7B68DB6A9A4207D20B4B4FF080521A60BFF34F8FBFF36F8F00BF0837BD4680BD3C82FF1F6481FF1F4882FF1F5882FF1F4482FF1F6881FF1F04ED00E03E
:4004400080B584B000AF78600023FB607B68002B08D000F04FF80021786800F09FFA00F057F8F860FB68002B07D1064B4FF080521A60BFF34F8FBFF36F8F00BF1037BD4645
:4004800080BD00BF04ED00E080B584B002AF134B0193002300930023642211491148FFF7A3FE78607B68012B14D14FF0A00383F31188BFF36F8FBFF34F8F3B600A4B4FF08E
:4004C000FF321A60094B01221A60094B00221A6000F032FB00BF0837BD4680BD6082FF1FBC250000550800005C82FF1F4882FF1F4082FF1F80B400AF044B1B680133034ADD
:40050000136000BFBD4680BC704700BF6482FF1F80B584B000AF0023FB600023BB6000F02BFB394B1B68013B374A1360364B1B68002B61D1354B1B68002B5DD02EE0344B66
:40054000DB68DB68FB60FB6818331846FFF722FEFB6804331846FFF71DFEFB68DB6A01229A402C4B1B6813432A4A1360FB68DA6A13469B0013449B00274A1A44FB6804339D
:4005800019461046FFF7AAFDFB68DA6A234B1B68DB6A9A4202D3224B01221A601C4B1B68002BCCD1FB68002B01D000F0D7F91D4B1B687B607B68002B10D000F037F8034664
:4005C000002B02D0164B01221A607B68013B7B607B68002BF1D1134B00221A60104B1B68002B09D00123BB600F4B4FF080521A60BFF34F8FBFF36F8F00F0D6FABB681846B5
:400600001037BD4680BD00BF6482FF1F3C82FF1FFC81FF1F4482FF1F6881FF1F6481FF1F5082FF1F4C82FF1F04ED00E080B586B000AF00237B61464B1B68002B7DD1454B28
:400640001B6801333B61434A3B6913603B69002B10D1414B1B68FB60404B1B683E4A13603E4AFB6813603E4B1B6801333C4A136000F074F93B4B1B683A699A4248D3364B48
:400680001B681B68002B04D1364B4FF0FF321A603EE0314B1B68DB68DB68BB60BB685B687B603A697B689A4203D22E4A7B6813602EE0BB6804331846FFF76CFDBB689B6AF8
:4006C000002B04D0BB6818331846FFF763FDBB68DB6A01229A40244B1B681343224A1360BB68DA6A13469B0013449B001F4A1A44BB68043319461046FFF7F0FCBB68DA6AE1
:400700001B4B1B68DB6A9A42B9D301237B61B6E7174B1B68DA6A154913469B0013449B000B441B68012B01D901237B61114B1B68002B07D001237B6104E00F4B1B6801336B
:400740000D4A13607B6918461837BD4680BD00BF6482FF1F4082FF1FF481FF1FF881FF1F5482FF1F5C82FF1F4482FF1F6881FF1F6481FF1F5082FF1F4C82FF1F80B586B0EC
:4007800000AF2F4B1B68002B03D02E4B01221A6051E02C4B00221A602B4B1B681B6B7B614FF0A5333B617B691A683B699A4211D17B6904331A683B699A420BD17B69083347
:4007C0001A683B699A4205D17B690C331A683B699A4208D01C4B1A681B4B1B6834331946104600F07DFB194B1B687B607B68B3FA83F3FB70FB78C3F11F03FB60FA6813463C
:400800009B0013449B00124A1344BB60BB685B685A68BB685A60BB685A68BB6808339A4204D1BB685B685A68BB685A60BB685B68DB68054A136000BF1837BD4680BD00BF67
:400840006482FF1F5082FF1F6481FF1F4482FF1F6881FF1F80B582B000AF786000F042F8FCE700BF80B582B000AF00237B600CE07A6813469B0013449B00124A1344184603
:40088000FFF700FC7B6801337B607B68042BEFD90D48FFF7F7FB0D48FFF7F4FB0C48FFF7F1FB0C48FFF7EEFB0B48FFF7EBFB0B4B054A1A600A4B054A1A6000BF0837BD462D
:4008C00080BD00BF6881FF1FCC81FF1FE081FF1FFC81FF1F1082FF1F2882FF1FF481FF1FF881FF1F80B582B000AF19E000F044F90F4BDB68DB687B607B6804331846FFF769
:4009000049FC0C4B1B68013B0A4A13600A4B1B68013B094A136000F047F9786800F00EF8054B1B68002BE1D100BF0837BD4680BD1082FF1F3C82FF1F2482FF1F80B582B010
:4009400000AF78607B681B6B184600F039FA786800F036FA00BF0837BD4680BD80B483B000AF0C4B1B681B68002B04D10A4B4FF0FF321A6008E0074B1B68DB68DB687B60F8
:400980007B685B68044A136000BF0C37BD4680BC704700BFF481FF1F5C82FF1F80B584B000AF78603960294B1B68FB60284B1B6804331846FFF7EEFB0346002B0BD1244B86
:4009C0001B68DB6A012202FA03F3DA43214B1B681340204A13607B68B3F1FF3F0AD13B68002B07D01A4B1B68043319461A48FFF775FB26E0FA687B681344BB60144B1B68B4
:400A0000BA685A60BA68FB689A4209D2134B1A680F4B1B68043319461046FFF783FB10E00F4B1A680A4B1B68043319461046FFF779FB0C4B1B68BA689A4202D2094ABB6865
:400A4000136000BF1037BD4680BD00BF4082FF1F6481FF1F4482FF1F2882FF1FF881FF1FF481FF1F5C82FF1F80B485B000AFF860B9607A60FB68043BFB60FB684FF0807255
:400A80001A60FB68043BFB60BB6823F00102FB681A60FB68043BFB60084AFB681A60FB68143BFB607A68FB681A60FB68203BFB60FB6818461437BD4680BC7047C10A0000CB
:400AC00080B483B000AF00233B604FF0A00383F31188BFF36F8FBFF34F8F7B6000BF3B68002BFCD000BF0C37BD4680BC704700BF074B19680868B0E8F00F80F30988BFF376
:400B00006F8F4FF0000080F311884EF00D0E70476481FF1F00BF00BF06480068006880F3088862B661B6BFF34F8FBFF36F8F00DF00BF00BF08ED00E080B500AF0C4A0C4B88
:400B40001B6843F460031360094A094B1B6843F06043136000F088F8064B00221A60FFF7DBFFFFF70BFEFFF7ABFF0023184680BD20ED00E0CC80FF1F80B483B000AF4FF03C
:400B8000A00383F31188BFF36F8FBFF34F8F7B60044B1B680133034A136000BF0C37BD4680BC7047CC80FF1F80B483B000AF094B1B68013B074A1360064B1B68002B04D17F
:400BC00000237B607B6883F3118800BF0C37BD4680BC7047CC80FF1F0000000000000000EFF30980BFF36F8F0D4B1A6820E9F00F10602DE908404FF0A00080F31188FFF7F7
:400C0000BDFD4FF0000080F31188BDE8084019680868B0E8F00F80F30988BFF36F8F70476481FF1F00BF00BF80B582B000AF4FF0A00383F31188BFF36F8FBFF34F8F3B606C
:400C4000FFF7F4FC0346002B03D0064B4FF080521A6000237B607B6883F3118800BF0837BD4680BD04ED00E080B400AF084B00221A60084B00221A60074B45F6BF521A6093
:400C8000034B07221A6000BFBD4680BC704700BF10E000E018E000E014E000E080B588B000AF786000237B61FFF724FC404B1B68002B04D100F0BEF83D4B01221A607B688E
:400CC000002B0ED008231A467B6813447B607B6803F00703002B04D07B6823F0070308337B607B68002B57D07B6847F6F772934252D8304BBB612F4B1B68FB6104E0FB6961
:400D0000BB61FB691B68FB61FB695A687B689A4203D2FB691B68002BF1D1FB69264A93423AD0BB691B68082213447B61FB691A68BB691A60FB695A687B68D31A0822520019
:400D4000934222D9FA697B681344FB60FB695A687B68D21AFB685A60FB697A685A60FB685B68BB60134B3B6102E03B691B683B613B691B685A68BB689A42F6D33B691A68E2
:400D8000FB681A603B69FA681A600C4B1A68FB695B68D31A094A1360FFF7BAFB7B69002B01D100F0ADF87B6918462037BD4680BD780200206802002070020020D080FF1F05
:400DC00080B586B000AF78607B683B617B68002B27D008235B423A6913443B613B69FB60FFF788FBFB685B68BB60104B7B6102E07B691B687B617B691B685A68BB689A42E2
:400E0000F6D37B691A68FB681A607B69FA681A60FB685A68064B1B681344054A1360FFF777FB00BF1837BD4680BD00BF68020020D080FF1F80B483B000AF0F4B23F00703DA
:400E40007B600E4A7B6813600C4B00225A600C4B47F6F8725A600A4B00221A607B683B603B6847F6F8725A603B68054A1A6000BF0C37BD4680BC70477082FF1F680200208D
:400E80007002002080B500AF00F006F800F046F8FFF7FAFAFEE700BF80B500AF0C4B0D4ADA620B4B0C4A9A63094B0C4ADA6300F0F3FE01F07BF800F019FC00F0EFFC00F09F
:400EC000B3FD00F0FBFE022000F03CF800BF80BD0080FF1FF10A0000E10B0000290C000080B485B000AF786039604FF0A00383F31188BFF36F8FBFF34F8FFB60FEE700BFA4
:400F000080B483B000AF4FF0A00383F31188BFF36F8FBFF34F8F7B60FEE700BF80B582B002AF00230193032300930023642203490348FFF759F900BFBD4680BDC4250000F3
:400F4000650F000080B582B000AF0346FB80FB88184600F021F800F02FF800BF0837BD4680BD00BF80B582B000AF4FF496737B6052233B80394600230122612001F002FA85
:400F800000BF01F083FA034603F00203002BF8D07868FFF755FAEBE780B582B000AF0346FB80FB8819464FF48C4000F00DF800BF0837BD4680BD00BF80B500AF00211020E7
:400FC00000F002F800BF80BD80B584B000AF03460A46FB801346BB8007F1080300221A601A71FB881B0A9BB2DBB23B72FB88DBB27B72BB881B0A9BB2DBB2BB72BB88DBB2B6
:40100000FB7207F1080302330221184600F02AF80346FB73FB7B3B7307F108030521184600F004F800BF1037BD4680BD80B582B000AF78600B46FB70FA7800237968612043
:4010400001F0A0F901F022FA034603F00203002B00D1F7E700BF01F041FA00BF0837BD4680BD00BF80B485B000AF78600B46FB70FF237B730023BB7320E0BB7B7A6813445A
:401080001A787B7B53407B730823FB7310E097F90D30002B06DA7B7B5B00DBB283F031037B7302E07B7B5B007B73FB7B013BFB73FB7B002BEBD1BB7B0133BB73BA7BFB7875
:4010C0009A42DAD37B7B18461437BD4680BC704780B582B000AF786039603A680021786801F061FA00BF0837BD4680BD80B584B000AFF860B9607A607A68B968F86801F067
:4011000047FA00BF1037BD4680BD00BF80B483B000AF0346FB71FEE780B487B000AF7860396000233B6100237B6127E07B699B007A6813441B68BB60BB68FB73BB6823F04C
:40114000FF03BB6014E03B695B003A6813441B781A46BB68134419463B695B003A6813445B780B703B6901333B61FB7B013BFB73FB7B002BE7D17B6901337B617B691D2B47
:40118000D4D900BF1C37BD4680BC704780B582B000AF404B40F252721A803F4B18221A703E4B45F6BF521A803D4B18221A7004223C493D48FFF79AFF3C4B02221A704FF00D
:4011C000402308221A703A4B03221A70394B3A4A1278D2B21A70394B08221A80384B41F251221A800023FB7019237B6014E0FB785B00DAB2334B1B78DBB203F00103DBB2E4
:401200001343DBB203F00303FB704FF4F07001F083F97B68013B7B607B68002B02D0FB78032BE4D17B68002B02D10320FFF76EFF254B4FF480721A80234B07221A70234BF2
:4012400000221A70224B48221A701F4B00221A70204B02221A70204B04221A701F4A1F4B1B78DBB243F00303DBB213701C4A1C4B1B78DBB243F00103DBB21370194A194BE0
:401280001B78DBB263F07F03DBB2137000BF0837BD4680BD80400040824000408440004086400040C8030048004100400043004000420040A1460040080100492242004029
:4012C0002042004025420040044000400640004008400040014000400B400040A2430040A1430040A043004080B582B000AF1E4B1B78FB711D4B1B78BB711D4B1B787B710F
:401300001C4AFB7903F00703DBB213701A4AFB791B09DBB21370154ABB7943F00303DBB21370134A7B7943F00303DBB21370134B08221A70124B80221A70124B80221A7020
:40134000114B20221A700A2000F070F9084A7B791370064ABB7913700C4B44221A7000BF0837BD4680BD00BFCF010049F8460040F94600406E5800406F5800400D510040ED
:4013800001590040205B0040235B00407658004080B582B000AF72B63C4A3C4B1B78DBB243F00403DBB213700023FB7113E0FA7913465B0013445B00354A13443B603B68E8
:4013C0001A683B689B889BB219461046FFF780FEFB790133FB71FB79072BE8D92D494FF09040FFF799FE2C4A2B4B1B78DBB243F00203DBB21370294A284B1B78DBB243F015
:401400000203DBB21370264A254B1B78DBB243F04003DBB21370234A224B1B78DBB243F01003DBB213700A221F492048FFF75EFE0A221F491F48FFF759FE0A221E491F4831
:40144000FFF754FE08221E491E48FFF74FFE1E4A1D4B1B78DBB243F00803DBB213701B4B61221A70FFF792FE184B81221A70184B01221A70FFF738FF0E2209491548FFF711
:4014800035FE00BF0837BD4680BD00BFE8460040F4250000780000480350014013500140A0430040C24300409C03004800510040A8030048C0510040B403004810510040B9
:4014C000C003004822510040224300400048004004000840B043004080B500AF01F02CF803461B680C2B00D1FEE7FEE780B586B000AF224B7B61224B3B61204B7B6135E023
:401500003B691B68FB603B695B68BB603B699B683B6000237B600CE0FB681A68BB681A60BB680433BB60FB680433FB607B6804337B607A683B689A42EED13B69DB683B60F8
:4015400000237B6008E0BB6800221A60BB680433BB607B6804337B607A683B689A42F2D13B6910333B617B69013B7B617B69002BC6D100F0E7FFFFF785FCFEE701000000E0
:401580004C26000080B582B000AF184B184A1A60184A184B1B6843F40073136000237B600FE07B68032B04D8134A7B6852F8233000E0124B12497A6841F822307B6801332C
:4015C0007B607B682F2BECD90E4B1B78DAB20E4B1A700E4B0A4A1A60FFF7DAFE0C4B00221A6000BF0837BD4680BD00BF0CED00E00004FA0514ED00E000000000D914000024
:401600000080FF1FBC760040C480FF1F08ED00E0C080FF1F80B483B000AF0346FB7101BE00BF0C37BD4680BC704700BF80B582B000AF0346FB80FB88054A127802FB03F39B
:40164000184600F069FF00BF0837BD4680BD00BFDC80FF1F80B584B000AF03463960FB710F4B1B68FB60FB791F2B02D90020FFF7D1FFFB7903F01F0310339B00FA68134400
:401680001B68BB60FB7903F01F0310339B00FA6813443A681A60BB6818461037BD4680BD08ED00E080B582B000AF03460A46FB711346BB71BB79072B02D90020FFF7AAFFD3
:4016C000FB791F2B02D90020FFF7A4FFFB7903F01F0303F1604303F56443BA795201D2B21A7000BF0837BD4680BD00BF80B500AF064B1B78002B04D100F00AF8034B01221D
:401700001A7000F045F800BF80BD00BF7C02002080B582B000AF1C4B1B78DBB223F03F03FB71194AFB7943F00903DBB21370174A164B1B78DBB243F00103DBB21370FF20CD
:4017400000F036F8FF2000F051F8062000F05EF8132000F06BF8002000F078F800F0E4FE0346BB71094A094B1B78DBB243F01003DBB21370BB79184600F0DAFE00F028F8B3
:4017800000BF0837BD4680BD706400409064004080B400AF054A054B1B78DBB263F07F03DBB2137000BFBD4680BC70477064004080B483B000AF0346FB71044AFB79137043
:4017C00000BF0C37BD4680BC704700BF0064004080B500AF01E000F055F800F047F8034603F01003002BF6D100BF80BD80B483B000AF0346FB71044AFB79137000BF0C370E
:40180000BD4680BC704700BF4064004080B483B000AF0346FB71044AFB79137000BF0C37BD4680BC704700BF2064004080B483B000AF0346FB71044AFB79137000BF0C3772
:40184000BD4680BC704700BF3064004080B483B000AF0346FB71044AFB79137000BF0C37BD4680BC704700BF8064004080B400AF034B1B78DBB21846BD4680BC704700BF90
:401880006064004080B400AF034B1B78DBB21846BD4680BC704700BF5064004080B500AF064B1B78002B04D100F00AF8034B01221A7000F043F800BF80BD00BF7D02002092
:4018C00080B582B000AF1B4B1B78DBB223F03F03FB71184AFB7943F00903DBB21370164A154B1B78DBB243F00103DBB21370FF2000F034F8FF2000F04FF8062000F05CF844
:40190000002000F069F800F00FFE0346BB710A4A094B1B78DBB243F01003DBB21370BB79184600F005FE00F029F800BF0837BD4680BD00BF756400409564004080B400AFDE
:40194000054A054B1B78DBB263F07F03DBB2137000BFBD4680BC70477564004080B483B000AF0346FB71044AFB79137000BF0C37BD4680BC704700BF0564004080B500AFA1
:4019800001E000F045F800F037F8034603F01003002BF6D100BF80BD80B483B000AF0346FB71044AFB79137000BF0C37BD4680BC704700BF4564004080B483B000AF0346AE
:4019C000FB71044AFB79137000BF0C37BD4680BC704700BF2564004080B483B000AF0346FB71044AFB79137000BF0C37BD4680BC704700BF8564004080B400AF034B1B7802
:401A0000DBB21846BD4680BC704700BF6564004080B400AF034B1B78DBB21846BD4680BC704700BF5564004080B500AF064B1B78002B04D100F00AF8034B01221A7000F0FB
:401A400029F800BF80BD00BF7E02002080B500AF102000F007F907210020FFF723FE0A490020FFF7F7FD094A084B1B78DBB243F00603DBB213700C2000F086F8044B00220D
:401A80001A8000BF80BD00BF591C000001590040AC02002080B582B000AF00F045FD0346FB712E4A2D4B1B78DBB243F00103DBB213702B4A2A4B1B78DBB243F00103DBB2D2
:401AC0001370284A274B1B78DBB243F00103DBB21370254A244B1B78DBB243F00103DBB21370224B1B78BB71BB7943F00203BB71BB7943F00103BB711C4ABB7913701C4BF4
:401B000018221A701B4A1B4B1B78DBB243F04003DBB21370174A174B1B78DBB223F00303DBB21370144BCE221A70144B02221A70134A134B1B78DBB243F00803DBB2137055
:401B40000A20FFF773FD0F4B01221A60FB79184600F0EEFC00BF0837BD4680BDAB430040BB430040A1430040B1430040035900400659004005590040005900401446004024
:401B8000275B004080E200E080B584B000AF0346FB71FB790A2B07D00C2B02D0082B06D008E0C223FB730BE08223FB7308E04223FB7305E0C223FB730020FFF72BFD00BF99
:401BC000054AFB7B1370FB79184600F007F800BF1037BD4680BD00BF0259004080B584B000AF0346FB71FB790A2B08D00C2B02D0082B08D00BE04FF48053FB600DE04FF44E
:401C00008063FB6009E04FF48073FB6005E00023FB600020FFF7FEFC00BF0C4B00221A80FB6842F2107202FB03F303F58063002B01DA03F2FF73DB121A46054B1A60054BEC
:401C400000221A8000BF1037BD4680BDB0020020A8020020AE02002080B400AF00BFBD4680BC704780B483B000AF0346FB710949084B1B78DBB25AB297F9073023F00703DE
:401C80005BB213435BB2DBB20B7000BF0C37BD4680BC70470241004080B400AF00BFBD4680BC704780B400AF034B01221A7000BFBD4680BC704700BFA402002080B500AF9D
:401CC000064800F0BFF840F2EE2000F08DF800F041F8034B00221A7000BF80BDA51C0000A402002080B582B000AF40F2ED2000F05FF840F2ED2000F077F800F015FC034610
:401D0000FB710B4A0A4B1B78DBB243F01003DBB21370FB79184600F00BFC00F075F800F083F8002000F028F800BF0837BD4680BD9364004080B400AF054A054B1B78DBB23F
:401D400063F07F03DBB2137000BFBD4680BC70477364004080B500AF064B1B78002B04D1FFF7C0FF034B01221A70FFF7E3FF00BF80BD00BF7F02002080B483B000AF0346A7
:401D8000FB71044AFB79137000BF0C37BD4680BC704700BF8364004080B400AF034B1B78DBB21846BD4680BC704700BF6364004080B483B000AF0346FB80044AFB881380EB
:401DC00000BF0C37BD4680BC704700BF4468004080B400AF034B1B889BB21846BD4680BC704700BF8468004080B483B000AF0346FB80044AFB88138000BF0C37BD4680BC61
:401E0000704700BF0468004080B400AF054A054B1B78DBB243F01003DBB2137000BFBD4680BC70477364004080B500AF01E0FFF7CFFFFFF7B1FF034603F00803002BF6D154
:401E400000BF80BD80B582B000AF786000F03CF8786800F009F8072000F018F800F028F800BF0837BD4680BD80B485B000AF7860054B1B68FB60FB6844337A681A6000BFFB
:401E80001437BD4680BC704708ED00E080B483B000AF0346FB71054AFB795B01DBB2137000BF0C37BD4680BC704700BF01E400E080B400AF034B02221A6000BFBD4680BCC9
:401EC000704700BF00E100E080B400AF034B02221A6000BFBD4680BC704700BF80E100E080B500AF144B02221A70144B81221A70134B08221A70134B0F221A70124B002200
:401F00001A70124B4FF400421A6007210F20FFF7C9FB0F490F20FFF79DFB0E4B10221A700D4B00221A700D4B00221A700C4B00221A7000BF80BD00BFD6490040C84900400A
:401F4000CA490040DB490040DC49004080E100E0DD1F0000B2020020B6020020B8020020B402002080B582B000AF00F0DDFA0346FB710C4A0B4B1B78DBB243F00403DBB287
:401F80001370094A084B1B78DBB243F00403DBB21370FB79184600F0CBFA00BF0837BD4680BD00BFA5430040B543004080B500AF084B1B78002B04D1FFF792FF054B0122E6
:401FC0001A70FFF7CFFF044B4FF400421A6000BF80BD00BF8002002000E100E080B582B000AFA74B1B78FB71A64B1B78DBB203F04003DBB2002B00F0A981FB7903F001039C
:40200000002B00F080819F4B1B78DBB2453B052B00F2758101A252F823F000BF352000005B210000FF220000FF2200003520000047220000FB7923F02003FB71FB7903F0D5
:402040000A03DBB2082B46D18E4B1B78DBB2452B3AD18D4B1B78DBB2002B0FD08B4A8C4B1B681B78DBB21370854B04221A70894B01221A70834B46221A7044E1864B1B78EA
:40208000DBB203F00203002B0FD0844B1B78DBB243F00A03DAB2814B1A707A4B60221A707F4B4FF400421A602DE17E4A7D4B1B78DBB243F01003DBB213707B4B10221A7050
:4020C0006F4B04221A701EE16D4B00221A706D4B4A221A7017E1FB7903F00A03DBB20A2B37D16E4B1B78DBB263F05F03DAB26B4B1A70694B1B78DBB203F00203002B19D0F5
:40210000604B1B78DBB203F00803002B01D0092300E00A23DAB2614B1B78DBB21343DAB25E4B1A70574B60221A705D4B4FF400421A60E8E05B4A5B4B1B78DBB243F0100366
:40214000DBB21370584B10221A704D4B04221A70D9E00020FFF75EFAD5E0FB7903F00203002B42D14B4B1B78DAB2474B1B78DBB29A4214D2454A464B1B6846490978C9B2CB
:402180000B441B78DBB213703D4B04221A70414B1B78DBB20133DAB23E4B1A70B3E03E4B1B78DBB203F00203002B0FD03B4B1B78DBB243F00A03DAB2384B1A70314B6022BB
:4021C0001A70374B4FF400421A609CE0354A354B1B78DBB243F01003DBB21370324B10221A70274B04221A708DE02B4B1B78DBB203F00203002B0FD0284B1B78DBB263F09D
:402200006503DAB2254B1A701E4B60221A70244B4FF400421A6076E0224A224B1B78DBB243F01003DBB213701F4B10221A70144B04221A70194B1B78DBB263F06F03DAB21E
:40224000164B1A705FE0194B1B68194A1278D2B213440E4A1278D2B21A70154B1B78DBB20133DAB2124B1A70114B1B78DAB2114B1B78DBB29A421FD2014B10221A7042E080
:40228000D7490040B2020020B7020020D8490040BC020020B4020020B5020020B602002080E100E0D6490040D9490040C0020020B8020020C40200202C4B1B78DBB203F01F
:4022C0000203002B0FD02A4B1B78DBB243F00903DAB2274B1A70274B60221A70264B4FF400421A600FE0254A244B1B78DBB243F01003DBB21370224B00221A7003E0002026
:40230000FFF788F900BFFB7903F02003002B28D0184B1B78DBB203F00803002B01D0012300E00223DAB2124B1B78DBB21343DAB20F4B1A70114A114B1B78DBB223F0100348
:40234000DBB213700B4B10221A700AE0094B1B78DBB203F01003DBB2002B02D1054B10221A7000BF0837BD4680BD00BFB5020020B6020020B202002080E100E0D649004020
:40238000D749004080B485B000AF396011461A460346FB710B46BB7113467B710223FB733B68002B56D02E4B1B78DBB2102B0CD12C4B1B78DBB203F00803002B02D10023F0
:4023C000FB7315E00123FB7312E0254B1B78DBB2602B0DD10023FB73234B4FF400421A60224B1B78DBB223F00803DAB21F4B1A70FB7B002B2ED11A4B45221A701C4B002255
:402400001A701C4ABB7913701B4A3B6813601B4A7B791370154B1B78DBB223F00203DAB2124B1A70164AFB795B00DBB213707B7903F00103002B06D00A4B12221A70114BF9
:4024400004221A7002E0074B01221A700E4B4FF400421A60FB7B18461437BD4680BC7047B2020020D949004080E200E0B6020020B4020020B7020020BC020020B5020020AA
:40248000D8490040D749004000E100E080B483B000AF0E4B4FF400421A600D4B1B78FB710C4B1B78DBB203F04003DBB2002B03D0FB7943F00403FB71074B4FF400421A6032
:4024C000FB7918460C37BD4680BC704780E100E0B6020020B202002000E100E080B483B000AF0A4B4FF400421A60094B1B78FB71074B00221A70074B4FF400421A60FB79A3
:4025000018460C37BD4680BC704700BF80E100E0B602002000E100E00230800803D000BF01380046FCD17047EFF3108072B6704780F31088704700BF014B1868704700BF08
:402540004481FF1F0E4B70B51E460E4C0025E41AA410A54204D056F8253098470135F8E700F062F8084B094C1E46E41AA4100025A54204D056F8253098470135F8E770BD67
:402580003426000034260000342600003C26000010B5431E0A44914204D011F8014B03F8014FF8E710BD03460244934202D003F8011BFAE7704700000000000049444C4541
:4025C000000000007465737400000000534344333054657374000000434F323A200000000A00000054454D503A20000052483A2000000000C8490040190030510040400027
:40260000F0510040100000000140001000140140000800400140000A004C0140000200500140200043000000F8B500BFF8BC08BC9E4670474D00000085150000F8B500BF7B
:40264000F8BC08BC9E4670472900000060260000C880FF1F80000000808100000000000000000000AAAAAAAAF87F000000366E01C05D0000180000000000E02E00000000AA
:4026800000000000000000000000000000000000000000000000000000000000242600000000000000000000000000000000000000000000000000000000000000000000D0
:4026C00000000000000000000000000000000000000000000000000000000000E480FF1F000000000000000000000000000000000000000000000000000000000000000058
:402700000000000000000000000000000000000000000000000000000000000000000000000000000000000000000000000000000000000000000000000000000000000099
:402740000000000000000000000000000000000000000000000000000000000000000000000000000000000000000000000000000000000000000000000000000000000059
:402780000000000000000000000000000000000000000000000000000000000000000000000000000000000000000000000000000000000000000000000000000000000019
:4027C00000000000000000000000000000000000000000000000000000000000000000000000000000000000000000000000000000000000000000000000000000000000D9
:020000040003F7
:0200000480007A
:40000000075200400564004030000140210101405302014034030140320401402C0501400207014001090140020B0140040C0140010D0140010F014001150140011B01402B
:40004000054001400E4101400642014004430140034401400645014002460140014701400148014002490140104C0140014D01400350014002510140000101110301094069
:400080000CC01040114071017201800F830D850D0B030D020E0D1202150816011B0C26082E04300231013204330434013502360837083E044040410545D146504720482BEE
:4000C00049FF4AFF4BFF4DA04F04501852805407580459045A045B045F01604062C06440654066C068C06AC06CC06EC0DB04DF0100400A400B201022184019441B102108EE
:4001000022502340302031083B604040482249015002531059055AA06D807240854089408F10C001C20CC405CC06CE0CD001D208D60F4065410149FF4AFF4BFF4F015018AB
:400140005A045B045D015F016040624064406540668068806A806C806E8080088240830E8410880E8A808D048E109002924193019404964097089B019CFE9D0CA27FA30DF3
:40018000A66FA701AB04AE3EB00EB101B2C0B30CB401B502B630B701BE10BF40C025C104C5ECC720C823C9FFCAFFCBFFCD83CE03CF01D018D290D401D804D904DA04DB0461
:4001C000DC11DD11DF05E040E240E440E540E680E880EA80EC80EE80000201400210030808800A6010901201134018041A421B182040210822502380281029102A1231889C
:40020000321239403A0140C4458047804801490A4A024E024F205202590A5A806F01708072027340788087018D80C00FC20DC40DCA07CC0FCE09D015D238D60BDE08E21050
:400240002E01340152015301561058045B045C015D105F01830192059A049E09A901AE02B002B101B208B404B601BE10C040C105C5D2C602C710C827C9FFCAFFCBFFCDA060
:40028000CF04D018D280D405D804D904DA04DB04DF01E040E2C0E440E540E6C0E8C0EAC0ECC0EEC00E800F0A1140174019101D021E881F4827802F083F0245024F8957412B
:4002C000580459815B105E085F8161216248694077408121820883108404852086408B4095409D10AC10AE01C2D0C481CA20CE80D080D210D6DFD80FE204E680A980EE04DD
:40030000EE048340A340B880BE40D804DF011B40E090EA01EA01332035208720CC30E24003105F2062086B8087808D209B209D20A720C010D620D840DC20E2403E108A086F
:400340009B10A608A720CE209610AB30E820EE208A028F02E0095B0266029A029B02D602D8011B04C608AB049610AA10EA8008100E041220132017013C013E045B016220B9
:4003800078107C01C203C40ED602D802DE03AB20000308030A03000F03C00000010000111000110108000000800000808000000000000000C000000BCB00C0000000000044
:4003C00000C0C000C00000000E0018010000000000000000000000000000000000000000000000000000000000000000000000000000000000000000000000000000000096
:4004000000000000000000000000000000000000000000000000000000000000000000000000000000000000000000000000000000000000000000000000000000000000BC
:40044000000000000000000000000000000000000000000000000000000000000000000000000000000000000000000000000000000000000000000000000000000000007C
:40048000000000000000000000000000000000000000000000000000000000000000000000000000000000000000000000000000000000000000000000000000000000003C
:4004C00000000000000000000000000000000000000000000000000000000000000000000000000000000000000000000000000000000000000000000000000000000000FC
:0200000490006A
:0400000000004005B7
:0200000490105A
:04000000BC90ACAF55
:0200000490303A
:02000000370ABD
:0200000490402A
:4000000000000000000000000000000000000000000000000000000000000000000000000000000000000000000000000000000000000000000000000000000000000000C0
:400040000000000000000000000000000000000000000000000000000000000000000000000000000000000000000000000000000000000000000000000000000000000080
:400080000000000000000000000000000000000000000000000000000000000000000000000000000000000000000000000000000000000000000000000000000000000040
:4000C0000000000000000000000000000000000000000000000000000000000000000000000000000000000000000000000000000000000000000000000000000000000000
:0200000490501A
:0C00000000012E16106900012E26477327
:00000001FF