:400000000080002011000000F9200000F920000080B500AF024A034B1B68136002F076F8BC760040FA46004010B5054C237833B9044B13B10448AFF300800123237010BD75
:400040005881FF1F00000000E4340000084B10B51BB108490848AFF300800848036803B910BD074B002BFBD0BDE81040184700BF000000005C81FF1FE4340000C880FF1FB2
:400080000000000080B483B000AF78607B6803F108027B685A607B684FF0FF329A607B6803F108027B68DA607B6803F108027B681A617B6800221A6000BF0C37BD4680BC8A
:4000C000704700BF80B483B000AF78607B6800221A6100BF0C37BD4680BC704780B485B000AF786039607B685B68FB603B68FA685A60FB689A683B689A60FB689B683A68D1
:400100005A60FB683A689A603B687A681A617B681B685A1C7B681A6000BF1437BD4680BC704700BF80B485B000AF786039603B681B68BB60BB68B3F1FF3F03D17B681B6904
:40014000FB600CE07B680833FB6002E0FB685B68FB60FB685B681A68BB689A42F6D9FB685A683B685A603B685B683A689A603B68FA689A60FB683A685A603B687A681A61A4
:400180007B681B685A1C7B681A6000BF1437BD4680BC704780B485B000AF78607B681B69FB607B685B687A6892689A607B689B687A6852685A60FB685A687B689A4203D1E4
:4001C0007B689A68FB685A607B6800221A61FB681B685A1EFB681A60FB681B6818461437BD4680BC704700BF80B584B000AF786039607B68FB6001F0F7F8FB681A68FB680F
:40020000DB6BF968096C01FB03F31A44FB689A60FB6800229A63FB681A68FB685A60FB681A68FB68DB6B013BF968096C01FB03F31A44FB68DA60FB68FF2283F84420FB681E
:40024000FF2283F845203B68002B14D1FB681B69002B1AD0FB681033184600F00FFE0346002B12D00C4B4FF080521A60BFF34F8FBFF36F8F09E0FB6810331846FFF702FF71
:40028000FB6824331846FFF7FDFE01F0C5F8012318461037BD4680BD04ED00E080B58AB002AFF860B9601346FB71FB68BA6802FB03F3FB61FB694833184601F027F9B8611C
:4002C000BB69002B0DD0BB697B617B6948337B61FA79BB69009313467A69B968F86800F005F8BB6918462037BD4680BD80B584B000AFF860B9607A60FB70BB68002B03D1BA
:40030000BB69BA691A6002E0BB697A681A60BB69FA68DA63BB69BA681A640121B869FFF763FF00BF1037BD4680BD00BF80B58AB000AFF860B9607A603B6000237B62FB680C
:400340003B6201F051F83B6A9A6B3B6ADB6B9A4202D33B68022B29D13A68B968386A00F031F9F8613B6A5B6A002B10D03B6A2433184600F083FD0346002B13D03F4B4FF05F
:4003800080521A60BFF34F8FBFF36F8F0AE0FB69002B07D0394B4FF080521A60BFF34F8FBFF36F8F01F038F8012363E07B68002B03D101F031F800235CE07B6A002B06D148
:4003C00007F11403184600F0ADFD01237B6201F023F800F08DFB01F007F83B6A93F844305BB2B3F1FF3F03D13B6A002283F844203B6A93F845305BB2B3F1FF3F03D13B6A67
:40040000002283F8452001F007F83A1D07F114031146184600F09CFD0346002B24D1386A00F0C8F90346002B18D03B6A10337A681146184600F00CFD386A00F053F900F0C8
:4004400065FB0346002B7FF47CAF0C4B4FF080521A60BFF34F8FBFF36F8F72E7386A00F041F900F053FB6CE7386A00F03BF900F04DFB002318462837BD4680BD04ED00E043
:4004800080B58AB000AFF860B9607A6000237B62FB683B6200F0A8FF3B6A9B6BFB61FB69002B1FD0B968386A00F0F6F8FB695A1E3B6A9A633B6A1B69002B0FD03B6A10337D
:4004C000184600F0DBFC0346002B07D03C4B4FF080521A60BFF34F8FBFF36F8F00F09CFF012369E07B68002B03D100F095FF002362E07B6A002B06D107F11403184600F033
:4005000011FD01237B6200F087FF00F0F1FA00F06BFF3B6A93F844305BB2B3F1FF3F03D13B6A002283F844203B6A93F845305BB2B3F1FF3F03D13B6A002283F8452000F0F5
:400540006BFF3A1D07F114031146184600F000FD0346002B23D1386A00F016F90346002B17D03B6A24337A681146184600F070FC386A00F0B7F800F0C9FA0346002B89D1F4
:400580000F4B4FF080521A60BFF34F8FBFF36F8F80E7386A00F0A6F800F0B8FA7AE7386A00F0A0F800F0B2FA386A00F0EDF80346002B3FF46FAF002318462837BD4680BD5A
:4005C00004ED00E080B586B000AFF860B9607A6000237B61FB689B6B3B61FB681B6C002B0DD1FB681B68002B4DD1FB689B68184600F0A4FD7861FB6800229A6043E07B68EC
:40060000002B19D1FB685868FB681B6C1A46B96802F054FFFB685A68FB681B6C1A44FB685A60FB685A68FB689B689A422BD3FB681A68FB685A6026E0FB68D868FB681B6C4E
:400640001A46B96802F03AFFFB68DA68FB681B6C5B421A44FB68DA60FB68DA68FB681B689A4207D2FB689A68FB681B6C5B421A44FB68DA607B68022B05D13B69002B02D0F9
:400680003B69013B3B613B695A1CFB689A637B6918461837BD4680BD80B582B000AF786039607B681B6C002B18D07B68DA687B681B6C1A447B68DA607B68DA687B689B685A
:4006C0009A4203D37B681A687B68DA607B68D9687B681B6C1A46386802F0F0FE00BF0837BD4680BD80B584B000AF786000F07CFE7B6893F84530FB7311E07B685B6A002BAB
:4007000012D07B682433184600F0B8FB0346002B01D000F063FCFB7B013BDBB2FB7397F90F30002BE9DC00E000BF7B68FF2283F8452000F071FE00F057FE7B6893F8443093
:40074000BB7311E07B681B69002B12D07B681033184600F093FB0346002B01D000F03EFCBB7B013BDBB2BB7397F90E30002BE9DC00E000BF7B68FF2283F8442000F04CFECE
:4007800000BF1037BD4680BD80B584B000AF786000F02AFE7B689B6B002B02D10123FB6001E00023FB6000F037FEFB6818461037BD4680BD80B584B000AF786000F014FEC7
:4007C0007B689A6B7B68DB6B9A4202D10123FB6001E00023FB6000F01FFEFB6818461037BD4680BD80B58CB004AFF860B9603B601346FB80FB889B00184600F087FE786138
:400800007B69002B0ED0502000F080FEF861FB69002B03D0FB697A691A6305E0786900F007FF01E00023FB61FB69002B13D0FA8800230393FB690293FB6A0193BB6A0093FB
:400840003B68B968F86800F00FF8F86900F08CF80123BB6102E04FF0FF33BB61BB6918462037BD4680BD00BF80B586B000AFF860B9607A603B60BB6A186B7B689B001A467B
:40088000A52102F026FEBB6A1A6B7B6803F18043013B9B0013443B613B6923F007033B61BB68002B1FD000237B6112E0BA687B6913441978BA6A7B69134434330A461A7035
:4008C000BA687B6913441B78002B06D07B6901337B617B690B2BE9D900E000BFBB6A002283F83F2003E0BB6A002283F834203B6A042B01D904233B62BB6A3A6ADA62BB6AE2
:400900003A6A1A64BB6A00225A64BB6A04331846FFF7D8FBBB6A18331846FFF7D3FBBB6ABA6A1A613B6AC3F10502BB6A9A61BB6ABA6A5A62BB6A00229A64BB6A002283F82B
:400940004C203A68F968386900F0C2FC0246BB6A1A607B6A002B02D07B6ABA6A1A6000BF1837BD4680BD00BF80B582B000AF786000F03AFD2A4B1B680133294A1360294BC5
:400980001B68002B09D1274A7B681360244B1B68012B10D100F036FB0DE0234B1B68002B09D1204B1B68DA6A7B68DB6A9A4202D81C4A7B6813601D4B1B6801331B4A136022
:4009C0007B68DB6A01229A40194B1B681343184A13607B68DA6A13469B0013449B00154A1A447B68043319461046FFF777FB00F013FD0D4B1B68002B0ED00A4B1B68DA6ABF
:400A00007B68DB6A9A4207D20B4B4FF080521A60BFF34F8FBFF36F8F00BF0837BD4680BD4C82FF1F7481FF1F5882FF1F6882FF1F5482FF1F7881FF1F04ED00E080B584B036
:400A400000AF78600023FB607B68002B08D000F04FF80021786800F0D5FB00F057F8F860FB68002B07D1064B4FF080521A60BFF34F8FBFF36F8F00BF1037BD4680BD00BF75
:400A800004ED00E080B584B002AF134B0193002300930023642211491148FFF7A3FE78607B68012B14D14FF0A00383F31188BFF36F8FBFF34F8F3B600A4B4FF0FF321A60D9
:400AC000094B01221A60094B00221A6000F06CFC00BF0837BD4680BD7082FF1FE8340000F50F00006C82FF1F5882FF1F5082FF1F80B400AF044B1B680133034A136000BFF3
:400B0000BD4680BC704700BF7482FF1F80B584B000AF0023FB600023BB6000F065FC394B1B68013B374A1360364B1B68002B61D1354B1B68002B5DD02EE0344BDB68DB68C1
:400B4000FB60FB6818331846FFF724FBFB6804331846FFF71FFBFB68DB6A01229A402C4B1B6813432A4A1360FB68DA6A13469B0013449B00274A1A44FB680433194610466A
:400B8000FFF7ACFAFB68DA6A234B1B68DB6A9A4202D3224B01221A601C4B1B68002BCCD1FB68002B01D000F0A9FA1D4B1B687B607B68002B10D000F037F80346002B02D044
:400BC000164B01221A607B68013B7B607B68002BF1D1134B00221A60104B1B68002B09D00123BB600F4B4FF080521A60BFF34F8FBFF36F8F00F010FCBB6818461037BD4626
:400C000080BD00BF7482FF1F4C82FF1F0C82FF1F5482FF1F7881FF1F7481FF1F6082FF1F5C82FF1F04ED00E080B586B000AF00237B61464B1B68002B7DD1454B1B68013334
:400C40003B61434A3B6913603B69002B10D1414B1B68FB60404B1B683E4A13603E4AFB6813603E4B1B6801333C4A136000F046FA3B4B1B683A699A4248D3364B1B681B6820
:400C8000002B04D1364B4FF0FF321A603EE0314B1B68DB68DB68BB60BB685B687B603A697B689A4203D22E4A7B6813602EE0BB6804331846FFF76EFABB689B6A002B04D0FA
:400CC000BB6818331846FFF765FABB68DB6A01229A40244B1B681343224A1360BB68DA6A13469B0013449B001F4A1A44BB68043319461046FFF7F2F9BB68DA6A1B4B1B68F3
:400D0000DB6A9A42B9D301237B61B6E7174B1B68DA6A154913469B0013449B000B441B68012B01D901237B61114B1B68002B07D001237B6104E00F4B1B6801330D4A136084
:400D40007B6918461837BD4680BD00BF7482FF1F5082FF1F0482FF1F0882FF1F6482FF1F6C82FF1F5482FF1F7881FF1F7481FF1F6082FF1F5C82FF1F80B586B000AF2F4BD5
:400D80001B68002B03D02E4B01221A6051E02C4B00221A602B4B1B681B6B7B614FF0A5333B617B691A683B699A4211D17B6904331A683B699A420BD17B6908331A683B6944
:400DC0009A4205D17B690C331A683B699A4208D01C4B1A681B4B1B6834331946104600F0B5FC194B1B687B607B68B3FA83F3FB70FB78C3F11F03FB60FA6813469B00134431
:400E00009B00124A1344BB60BB685B685A68BB685A60BB685A68BB6808339A4204D1BB685B685A68BB685A60BB685B68DB68054A136000BF1837BD4680BD00BF7482FF1F3F
:400E40006082FF1F7481FF1F5482FF1F7881FF1F80B582B000AF78603960074B1B68183319467868FFF75EF90121386800F0CAF900BF0837BD4680BD7481FF1F80B584B0F2
:400E800000AF78607B68DB68DB68BB60BB6818331846FFF77FF91D4B1B68002B1CD1BB6804331846FFF776F9BB68DB6A01229A40174B1B681343164A1360BB68DA6A13469A
:400EC0009B0013449B00134A1A44BB68043319461046FFF703F905E0BB68183319460E48FFF7FCF8BB68DA6A0C4B1B68DB6A9A4205D90123FB600A4B01221A6001E0002302
:400F0000FB60FB6818461037BD4680BD7482FF1F5482FF1F7881FF1F0C82FF1F7481FF1F6082FF1F80B483B000AF7860064B1A687B681A60054B1A687B685A6000BF0C37A1
:400F4000BD4680BC704700BF6482FF1F5082FF1F80B586B000AF7860396000F045FA1D4B1B683B617B685B683A69D31AFB603B681B68B3F1FF3F02D100237B6123E07B6836
:400F80001A68154B1B689A4207D07B685A683B699A4202D801237B6115E03B681A68FB689A420BD93B681A68FB68D21A3B681A607868FFF7B7FF00237B6104E03B68002218
:400FC0001A6001237B6100F027FA7B6918461837BD4680BD5082FF1F6482FF1F80B400AF034B01221A6000BFBD4680BC704700BF6082FF1F80B582B000AF786000F042F847
:40100000FCE700BF80B582B000AF00237B600CE07A6813469B0013449B00124A13441846FFF730F87B6801337B607B68042BEFD90D48FFF727F80D48FFF724F80C48FFF730
:4010400021F80C48FFF71EF80B48FFF71BF80B4B054A1A600A4B054A1A6000BF0837BD4680BD00BF7881FF1FDC81FF1FF081FF1F0C82FF1F2082FF1F3882FF1F0482FF1F58
:401080000882FF1F80B582B000AF19E000F0ACF90F4BDB68DB687B607B6804331846FFF779F80C4B1B68013B0A4A13600A4B1B68013B094A136000F0AFF9786800F00EF825
:4010C000054B1B68002BE1D100BF0837BD4680BD2082FF1F4C82FF1F3482FF1F80B582B000AF78607B681B6B184600F0A1FA786800F09EFA00BF0837BD4680BD80B483B035
:4011000000AF0C4B1B681B68002B04D10A4B4FF0FF321A6008E0074B1B68DB68DB687B607B685B68044A136000BF0C37BD4680BC704700BF0482FF1F6C82FF1F80B584B00F
:4011400000AF78607B68BB600023FB607B68002B4FD0BB685B6C5A1EBB685A64BB68DA6ABB681B6C9A4244D0BB685B6C002B40D1BB6804331846FFF70DF80346002B15D1C8
:40118000BB68DA6A1D4913469B0013449B000B441B68002B0AD1BB68DB6A012202FA03F3DA43174B1B681340154A1360BB681A6CBB68DA62BB68DB6AC3F10502BB689A61B7
:4011C000BB68DB6A01229A400D4B1B6813430C4A1360BB68DA6A13469B0013449B00074A1A44BB68043319461046FEF777FF0123FB60FB6818461037BD4680BD7881FF1F3C
:401200005482FF1F80B584B000AF78603960294B1B68FB60284B1B6804331846FEF7BAFF0346002B0BD1244B1B68DB6A012202FA03F3DA43214B1B681340204A13607B68EB
:40124000B3F1FF3F0AD13B68002B07D01A4B1B68043319461A48FEF741FF26E0FA687B681344BB60144B1B68BA685A60BA68FB689A4209D2134B1A680F4B1B6804331946ED
:401280001046FEF74FFF10E00F4B1A680A4B1B68043319461046FEF745FF0C4B1B68BA689A4202D2094ABB68136000BF1037BD4680BD00BF5082FF1F7481FF1F5482FF1F3B
:4012C0003882FF1F0882FF1F0482FF1F6C82FF1F80B485B000AFF860B9607A60FB68043BFB60FB684FF080721A60FB68043BFB60BB6823F00102FB681A60FB68043BFB6040
:40130000084AFB681A60FB68143BFB607A68FB681A60FB68203BFB60FB6818461437BD4680BC70472913000080B483B000AF00233B604FF0A00383F31188BFF36F8FBFF334
:401340004F8F7B6000BF3B68002BFCD000BF0C37BD4680BC704700BF0000000000000000074B19680868B0E8F00F80F30988BFF36F8F4FF0000080F311884EF00D0E7047BB
:401380007481FF1F00BF00BF06480068006880F3088862B661B6BFF34F8FBFF36F8F00DF00BF00BF08ED00E080B500AF0C4A0C4B1B6843F460031360094A094B1B6843F05C
:4013C0006043136000F088F8064B00221A60FFF7DBFFFFF7D1FCFFF7A7FF0023184680BD20ED00E0CC80FF1F80B483B000AF4FF0A00383F31188BFF36F8FBFF34F8F7B6014
:40140000044B1B680133034A136000BF0C37BD4680BC7047CC80FF1F80B483B000AF094B1B68013B074A1360064B1B68002B04D100237B607B6883F3118800BF0C37BD46CE
:4014400080BC7047CC80FF1F0000000000000000EFF30980BFF36F8F0D4B1A6820E9F00F10602DE908404FF0A00080F31188FFF783FC4FF0000080F31188BDE8084019682B
:401480000868B0E8F00F80F30988BFF36F8F70477481FF1F00BF00BF80B582B000AF4FF0A00383F31188BFF36F8FBFF34F8F3B60FFF7BAFB0346002B03D0064B4FF08052F3
:4014C0001A6000237B607B6883F3118800BF0837BD4680BD04ED00E080B400AF084B00221A60084B00221A60074B45F6BF521A60034B07221A6000BFBD4680BC704700BF35
:4015000010E000E018E000E014E000E080B588B000AF786000237B61FFF7EAFA404B1B68002B04D100F0BEF83D4B01221A607B68002B0ED008231A467B6813447B607B681A
:4015400003F00703002B04D07B6823F0070308337B607B68002B57D07B6847F6F772934252D8304BBB612F4B1B68FB6104E0FB69BB61FB691B68FB61FB695A687B689A4220
:4015800003D2FB691B68002BF1D1FB69264A93423AD0BB691B68082213447B61FB691A68BB691A60FB695A687B68D31A08225200934222D9FA697B681344FB60FB695A68E7
:4015C0007B68D21AFB685A60FB697A685A60FB685B68BB60134B3B6102E03B691B683B613B691B685A68BB689A42F6D33B691A68FB681A603B69FA681A600C4B1A68FB69AE
:401600005B68D31A094A1360FFF780FA7B69002B01D100F0ABF87B6918462037BD4680BD880200207802002080020020D080FF1F80B586B000AF78607B683B617B68002BA4
:4016400027D008235B423A6913443B613B69FB60FFF74EFAFB685B68BB60104B7B6102E07B691B687B617B691B685A68BB689A42F6D37B691A68FB681A607B69FA681A6047
:40168000FB685A68064B1B681344054A1360FFF73DFA00BF1837BD4680BD00BF78020020D080FF1F80B483B000AF0F4B23F007037B600E4A7B6813600C4B00225A600C4B36
:4016C00047F6F8725A600A4B00221A607B683B603B6847F6F8725A603B68054A1A6000BF0C37BD4680BC70478082FF1F780200208002002080B500AF00F006F800F044F858
:40170000FFF7C0F9FEE700BF80B500AF0B4B0C4ADA620A4B0B4A9A63084B0B4ADA6301F0EDF801F0C5FA00F013FE00F0E9FE00F0ADFF01F045F900BF80BD00BF0080FF1F7C
:4017400061130000511400009914000080B485B000AF786039604FF0A00383F31188BFF36F8FBFF34F8FFB60FEE700BF80B483B000AF4FF0A00383F31188BFF36F8FBFF3C1
:401780004F8F7B60FEE700BF80B582B002AF022000F04AF8002301930223009300234FF47A721A491A48FFF71DF800230193032300930023642217491748FFF713F80023D3
:4017C0000193042300930023642214491448FFF709F8002204210120FEF760FD0246114B1A60002204210120FEF758FD02460D4B5A60002204210120FEF750FD0246094B18
:401800009A6000F077F800BFBD4680BDF034000049180000F8340000C118000000350000AD180000D402002080B582B000AF0346FB80FB88184600F0E3F800F0F1F800BFB8
:401840000837BD4680BD00BF80B582B000AF4FF4FA637B6000F0C6F80346002BFAD00F4800F0E6F80E4B186800234FF0FF320B49FEF75CFD0A4B586800234FF0FF32094980
:40188000FEF754FD064B986800234FF0FF320649FEF74CFD7868FFF7D1F8DBE78C020020D4020020900200209402002080B500AF0220FFF7B9FF4FF0FF30FFF7BFF8F7E757
:4018C00080B582B000AF4FF496737B6052233B80394600230122612001F0D6FB00BF01F0DFFC034603F00203002BF8D07868FFF7A5F8EBE780B582B002AF0023019303237A
:40190000009300234FF47A7203490448FEF76AFF00BFBD4680BD00BF083500002119000080B500AF274B1B684FF0FF3226491846FEF7A6FD234B5B684FF0FF32234918467E
:40194000FEF79EFD1F4B9B684FF0FF3220491846FEF796FD1F4800F0D7FF1B4B1B68184601F060FD03469BB2184601F007F81A4800F0CAFF194800F0C7FF134B5B68184654
:4019800001F050FD03469BB2184600F0F7FF124800F0BAFF124800F0B7FF0B4B9B68184601F040FD03469BB2184600F0E7FF0A4800F0AAFF084800F0A7FF074800F0A4FFAA
:4019C000B0E700BFD4020020980200209C020020A0020020143500001C350000203500002835000080B500AF40F2022000F0E2F80346002B14BF01230023DBB2184680BD5D
:401A000080B582B000AF0346FB80FB8819464FF48C4000F099F800BF0837BD4680BD00BF80B500AF0021102000F08EF800BF80BD80B58EB000AF786007F1180300221A600D
:401A40005A609A60DA601A8200237B6100233B610023FB604FF000037B634FF000033B634FF00003FB624FF4407000F049F807F118031221184600F0E7F83B7E1A067B7E98
:401A80001B041A43FB7E1B0213433A7F13437B61BB7F1A06FB7F1B041A4397F821301B02134397F8222013433B6197F824301A0697F825301B041A4397F827301B021343B1
:401AC00097F828201343FB6007F1140304221946786801F0F3FC7B68043307F110010422184601F0EBFC7B68083307F10C010422184601F0E3FC00BF3837BD4680BD00BFE7
:401B000080B584B000AF0346FB80FB881B0A9BB2DBB23B73FB88DBB27B7307F10C0100230222612001F0B0FA01F0BAFB034603F00203002B00D1F7E700BF01F0D9FB00BF2F
:401B40001037BD4680BD00BF80B582B000AF03460A46FB801346BB80FB881B0A9BB2DAB2114B1A70FB88DAB20F4B5A70BB881B0A9BB2DAB20C4B9A70BB88DAB20A4BDA70B7
:401B800002210A4800F07EF803461A46084B1A70074B1A78044B1A710521034800F02CF800BF0837BD4680BDA4020020A6020020A902002080B584B000AF0346FB8007F116
:401BC0000C0300210A461A800A469A70FB881846FFF796FF07F10C030321184600F034F83B7B1B021AB27B7B1BB213431BB29BB218461037BD4680BD80B584B000AF7860B9
:401C00000B46FB7001F074FBFA7800237968612001F03AFA0346FB7301F042FB0346BB73FB7B002B0CD101F03BFB0346FB7301F037FB034603F00203002B00D1F3E700BFBB
:401C400000BF1037BD4680BD80B582B000AF78600B46FB70322000F0F9FAFA7800237968612001F095FA01F01BFB034603F00103002B00D1F7E700BF01F03AFB00BF0837C4
:401C8000BD4680BD80B485B000AF78600B46FB70FF237B730023BB7320E0BB7B7A6813441A787B7B53407B730823FB7310E097F90D30002B06DA7B7B5B00DBB283F0310379
:401CC0007B7302E07B7B5B007B73FB7B013BFB73FB7B002BEBD1BB7B0133BB73BA7BFB789A42DAD37B7B18461437BD4680BC704780B582B000AF786039603A6800217868D0
:401D000001F0E7FB00BF0837BD4680BD80B584B000AFF860B9607A607A68B968F86801F0CDFB00BF1037BD4680BD00BF80B483B000AF0346FB71FEE780B487B000AF78606C
:401D4000396000233B6100237B6127E07B699B007A6813441B68BB60BB68FB73BB6823F0FF03BB6014E03B695B003A6813441B781A46BB68134419463B695B003A6813441B
:401D80005B780B703B6901333B61FB7B013BFB73FB7B002BE7D17B6901337B617B691F2BD4D900BF1C37BD4680BC704780B582B000AF404B40F252721A803F4B18221A7092
:401DC0003E4B45F6BF521A803D4B18221A7004223C493D48FFF79AFF3C4B02221A704FF0402308221A703A4B03221A70394B3A4A1278D2B21A70394B08221A80384B41F20C
:401E000051221A800023FB7019237B6014E0FB785B00DAB2334B1B78DBB203F00103DBB21343DBB203F00303FB704FF4F07001F07FFA7B68013B7B607B68002B02D0FB78DF
:401E4000032BE4D17B68002B02D10320FFF76EFF254B4FF480721A80234B07221A70234B00221A70224B48221A701F4B00221A70204B02221A70204B04221A701F4A1F4B20
:401E80001B78DBB243F00303DBB213701C4A1C4B1B78DBB243F00103DBB21370194A194B1B78DBB263F07F03DBB2137000BF0837BD4680BD80400040824000408440004075
:401EC00086400040F4030048004100400043004000420040A146004008010049224200402042004025420040044000400640004008400040014000400B400040A2430040EE
:401F0000A1430040A043004080B582B000AF1E4B1B78FB711D4B1B78BB711D4B1B787B711C4AFB7903F00703DBB213701A4AFB791B09DBB21370154ABB7943F00303DBB282
:401F40001370134A7B7943F00303DBB21370134B08221A70124B80221A70124B80221A70114B20221A700A2000F092F9084A7B791370064ABB7913700C4B44221A7000BF7D
:401F80000837BD4680BD00BFCF010049F8460040F94600406E5800406F5800400D51004001590040205B0040235B00407658004080B582B000AF72B63C4A3C4B1B78DBB296
:401FC00043F00403DBB213700023FB7113E0FA7913465B0013445B00354A13443B603B681A683B689B889BB219461046FFF780FEFB790133FB71FB79072BE8D92D494FF03A
:402000009040FFF799FE2C4A2B4B1B78DBB243F00203DBB21370294A284B1B78DBB243F00203DBB21370264A254B1B78DBB243F04003DBB21370234A224B1B78DBB243F0EE
:402040001003DBB213700A221F492048FFF75EFE0A221F491F48FFF759FE08221E491F48FFF754FE08221E491E48FFF74FFE1E4A1D4B1B78DBB243F00803DBB213701B4B89
:4020800061221A70FFF792FE184B81221A70184B01221A70FFF738FF0E2209491548FFF735FE00BF0837BD4680BD00BFE846004030350000800000480350014013500140E8
:4020C000A0430040C2430040CC03004800510040D8030048C0510040E403004812510040EC03004822510040224300400048004004000840B043004080B500AF01F0B2F974
:4021000003461B680C2B00D1FEE7FEE780B586B000AF224B7B61224B3B61204B7B6135E03B691B68FB603B695B68BB603B699B683B6000237B600CE0FB681A68BB681A6087
:40214000BB680433BB60FB680433FB607B6804337B607A683B689A42EED13B69DB683B6000237B6008E0BB6800221A60BB680433BB607B6804337B607A683B689A42F2D12B
:402180003B6910333B617B69013B7B617B69002BC6D101F06DF9FFF7ADFAFEE7010000009835000080B582B000AF184B184A1A60184A184B1B6843F40073136000237B609B
:4021C0000FE07B68032B04D8134A7B6852F8233000E0124B12497A6841F822307B6801337B607B682F2BECD90E4B1B78DAB20E4B1A700E4B0A4A1A60FFF7DAFE0C4B002264
:402200001A6000BF0837BD4680BD00BF0CED00E00004FA0514ED00E000000000F92000000080FF1FBC760040C480FF1F08ED00E0C080FF1F80B483B000AF0346FB7101BE22
:4022400000BF0C37BD4680BC704700BF80B582B000AF786008E00C4B1B68184601F068F87B68A3F500437B607B68B3F5004FF2D8064B1B687A6802FB03F3184601F058F8C3
:4022800000BF0837BD4680BDE080FF1FD880FF1F80B582B000AF0346FB80FB88054A127802FB03F3184601F043F800BF0837BD4680BD00BFDC80FF1F80B584B000AF034661
:4022C0003960FB710F4B1B68FB60FB791F2B02D90020FFF7AFFFFB7903F01F0310339B00FA6813441B68BB60FB7903F01F0310339B00FA6813443A681A60BB681846103782
:40230000BD4680BD08ED00E080B582B000AF03460A46FB711346BB71BB79072B02D90020FFF788FFFB791F2B02D90020FFF782FFFB7903F01F0303F1604303F56443BA79E8
:402340005201D2B21A7000BF0837BD4680BD00BF80B500AF064B1B78002B04D100F00AF8034B01221A7000F045F800BF80BD00BFAA02002080B582B000AF1C4B1B78DBB2F9
:4023800023F03F03FB71194AFB7943F00903DBB21370174A164B1B78DBB243F00103DBB21370FF2000F036F8FF2000F051F8062000F05EF8132000F06BF8002000F078F806
:4023C00000F0BEFF0346BB71094A094B1B78DBB243F01003DBB21370BB79184600F0B4FF00F028F800BF0837BD4680BD706400409064004080B400AF054A054B1B78DBB231
:4024000063F07F03DBB2137000BFBD4680BC70477064004080B483B000AF0346FB71044AFB79137000BF0C37BD4680BC704700BF0064004080B500AF01E000F055F800F091
:4024400047F8034603F01003002BF6D100BF80BD80B483B000AF0346FB71044AFB79137000BF0C37BD4680BC704700BF4064004080B483B000AF0346FB71044AFB79137025
:4024800000BF0C37BD4680BC704700BF2064004080B483B000AF0346FB71044AFB79137000BF0C37BD4680BC704700BF3064004080B483B000AF0346FB71044AFB791370F6
:4024C00000BF0C37BD4680BC704700BF8064004080B400AF034B1B78DBB21846BD4680BC704700BF6064004080B400AF034B1B78DBB21846BD4680BC704700BF5064004041
:4025000080B500AF064B1B78002B04D100F00AF8034B01221A7000F043F800BF80BD00BFAB02002080B582B000AF1B4B1B78DBB223F03F03FB71184AFB7943F00903DBB234
:402540001370164A154B1B78DBB243F00103DBB21370FF2000F034F8FF2000F04FF8062000F05CF8002000F069F800F0E9FE0346BB710A4A094B1B78DBB243F01003DBB25E
:402580001370BB79184600F0DFFE00F029F800BF0837BD4680BD00BF756400409564004080B400AF054A054B1B78DBB263F07F03DBB2137000BFBD4680BC70477564004084
:4025C00080B483B000AF0346FB71044AFB79137000BF0C37BD4680BC704700BF0564004080B500AF01E000F045F800F037F8034603F01003002BF6D100BF80BD80B483B0B6
:4026000000AF0346FB71044AFB79137000BF0C37BD4680BC704700BF4564004080B483B000AF0346FB71044AFB79137000BF0C37BD4680BC704700BF2564004080B483B05A
:4026400000AF0346FB71044AFB79137000BF0C37BD4680BC704700BF8564004080B400AF034B1B78DBB21846BD4680BC704700BF6564004080B400AF034B1B78DBB21846B5
:40268000BD4680BC704700BF5564004080B500AF064B1B78002B04D100F00AF8034B01221A7000F029F800BF80BD00BFAC02002080B500AF102000F007F907210020FFF7DB
:4026C00023FE0A490020FFF7F7FD094A084B1B78DBB243F00603DBB213700C2000F086F8044B00221A8000BF80BD00BFBD28000001590040E402002080B582B000AF00F05F
:402700001FFE0346FB712E4A2D4B1B78DBB243F00103DBB213702B4A2A4B1B78DBB243F00103DBB21370284A274B1B78DBB243F00103DBB21370254A244B1B78DBB243F0A3
:402740000103DBB21370224B1B78BB71BB7943F00203BB71BB7943F00103BB711C4ABB7913701C4B18221A701B4A1B4B1B78DBB243F04003DBB21370174A174B1B78DBB24E
:4027800023F00303DBB21370144BCE221A70144B02221A70134A134B1B78DBB243F00803DBB213700A20FFF773FD0F4B01221A60FB79184600F0C8FD00BF0837BD4680BD95
:4027C000AB430040BB430040A1430040B14300400359004006590040055900400059004014460040275B004080E200E080B584B000AF0346FB71FB790A2B07D00C2B02D0AF
:40280000082B06D008E0C223FB730BE08223FB7308E04223FB7305E0C223FB730020FFF709FD00BF054AFB7B1370FB79184600F007F800BF1037BD4680BD00BF02590040DF
:4028400080B584B000AF0346FB71FB790A2B08D00C2B02D0082B08D00BE04FF48053FB600DE04FF48063FB6009E04FF48073FB6005E00023FB600020FFF7DCFC00BF0C4B4B
:4028800000221A80FB6842F2107202FB03F303F58063002B01DA03F2FF73DB121A46054B1A60054B00221A8000BF1037BD4680BDE8020020E0020020E602002080B400AFA8
:4028C00000BFBD4680BC704780B483B000AF0346FB710949084B1B78DBB25AB297F9073023F007035BB213435BB2DBB20B7000BF0C37BD4680BC70470241004080B400AFCD
:4029000000BFBD4680BC704780B584B000AF78600123FB737B681B78BB730BE0BB7B184600F016FDFB7B7A6813441B78BB73FB7B0133FB73BB7B002BF0D100BF1037BD4687
:4029400080BD00BF80B582B000AF0346FB71FB791B09DBB21A46084B9B5C184600F0F8FCFB7903F00F03044AD35C184600F0F0FC00BF0837BD4680BD6035000080B582B015
:4029800000AF0346FB80FB881B0A9BB2DBB21846FFF7D8FFFB88DBB21846FFF7D3FF00BF0837BD4680BD00BF80B400AF034B01221A7000BFBD4680BC704700BFD002002080
:4029C00080B500AF064800F0BFF840F2EE2000F08DF800F041F8034B00221A7000BF80BDA9290000D002002080B582B000AF40F2ED2000F05FF840F2ED2000F077F800F03C
:402A00009FFC0346FB710B4A0A4B1B78DBB243F01003DBB21370FB79184600F095FC00F075F800F083F8002000F028F800BF0837BD4680BD9364004080B400AF054A054BE4
:402A40001B78DBB263F07F03DBB2137000BFBD4680BC70477364004080B500AF064B1B78002B04D1FFF7C0FF034B01221A70FFF7E3FF00BF80BD00BFAD02002080B483B044
:402A800000AF0346FB71044AFB79137000BF0C37BD4680BC704700BF8364004080B400AF034B1B78DBB21846BD4680BC704700BF6364004080B483B000AF0346FB80044AFC
:402AC000FB88138000BF0C37BD4680BC704700BF4468004080B400AF034B1B889BB21846BD4680BC704700BF8468004080B483B000AF0346FB80044AFB88138000BF0C377D
:402B0000BD4680BC704700BF0468004080B400AF054A054B1B78DBB243F01003DBB2137000BFBD4680BC70477364004080B500AF01E0FFF7CFFFFFF7B1FF034603F00803FA
:402B4000002BF6D100BF80BD80B582B000AF786000F03CF8786800F009F8072000F018F800F028F800BF0837BD4680BD80B485B000AF7860054B1B68FB60FB6844337A6835
:402B80001A6000BF1437BD4680BC704708ED00E080B483B000AF0346FB71054AFB795B01DBB2137000BF0C37BD4680BC704700BF01E400E080B400AF034B02221A6000BFC2
:402BC000BD4680BC704700BF00E100E080B400AF034B02221A6000BFBD4680BC704700BF80E100E080B500AF144B02221A70144B81221A70134B08221A70134B0F221A7033
:402C0000124B00221A70124B4FF400421A6007210F20FFF779FB0F490F20FFF74DFB0E4B10221A700D4B00221A700D4B00221A700C4B00221A7000BF80BD00BFD64900406F
:402C4000C8490040CA490040DB490040DC49004080E100E0E12C0000EA020020EE020020F0020020EC02002080B582B000AF00F067FB0346FB710C4A0B4B1B78DBB243F041
:402C80000403DBB21370094A084B1B78DBB243F00403DBB21370FB79184600F055FB00BF0837BD4680BD00BFA5430040B543004080B500AF084B1B78002B04D1FFF792FF2D
:402CC000054B01221A70FFF7CFFF044B4FF400421A6000BF80BD00BFAE02002000E100E080B582B000AFA74B1B78FB71A64B1B78DBB203F04003DBB2002B00F0A981FB79E5
:402D000003F00103002B00F080819F4B1B78DBB2453B052B00F2758101A252F823F000BF392D00005F2E00000330000003300000392D00004B2F0000FB7923F02003FB71D0
:402D4000FB7903F00A03DBB2082B46D18E4B1B78DBB2452B3AD18D4B1B78DBB2002B0FD08B4A8C4B1B681B78DBB21370854B04221A70894B01221A70834B46221A7044E1DA
:402D8000864B1B78DBB203F00203002B0FD0844B1B78DBB243F00A03DAB2814B1A707A4B60221A707F4B4FF400421A602DE17E4A7D4B1B78DBB243F01003DBB213707B4B9B
:402DC00010221A706F4B04221A701EE16D4B00221A706D4B4A221A7017E1FB7903F00A03DBB20A2B37D16E4B1B78DBB263F05F03DAB26B4B1A70694B1B78DBB203F0020340
:402E0000002B19D0604B1B78DBB203F00803002B01D0092300E00A23DAB2614B1B78DBB21343DAB25E4B1A70574B60221A705D4B4FF400421A60E8E05B4A5B4B1B78DBB28B
:402E400043F01003DBB21370584B10221A704D4B04221A70D9E00020FFF7ECF9D5E0FB7903F00203002B42D14B4B1B78DAB2474B1B78DBB29A4214D2454A464B1B684649E7
:402E80000978C9B20B441B78DBB213703D4B04221A70414B1B78DBB20133DAB23E4B1A70B3E03E4B1B78DBB203F00203002B0FD03B4B1B78DBB243F00A03DAB2384B1A70B0
:402EC000314B60221A70374B4FF400421A609CE0354A354B1B78DBB243F01003DBB21370324B10221A70274B04221A708DE02B4B1B78DBB203F00203002B0FD0284B1B7872
:402F0000DBB263F06503DAB2254B1A701E4B60221A70244B4FF400421A6076E0224A224B1B78DBB243F01003DBB213701F4B10221A70144B04221A70194B1B78DBB263F02F
:402F40006F03DAB2164B1A705FE0194B1B68194A1278D2B213440E4A1278D2B21A70154B1B78DBB20133DAB2124B1A70114B1B78DAB2114B1B78DBB29A421FD2014B102221
:402F80001A7042E0D7490040EA020020EF020020D8490040F4020020EC020020ED020020EE02002080E100E0D6490040D9490040F8020020F0020020FC0200202C4B1B78EE
:402FC000DBB203F00203002B0FD02A4B1B78DBB243F00903DAB2274B1A70274B60221A70264B4FF400421A600FE0254A244B1B78DBB243F01003DBB21370224B00221A709C
:4030000003E00020FFF716F900BFFB7903F02003002B28D0184B1B78DBB203F00803002B01D0012300E00223DAB2124B1B78DBB21343DAB20F4B1A70114A114B1B78DBB2D0
:4030400023F01003DBB213700B4B10221A700AE0094B1B78DBB203F01003DBB2002B02D1054B10221A7000BF0837BD4680BD00BFED020020EE020020EA02002080E100E0A4
:40308000D6490040D749004080B485B000AF396011461A460346FB710B46BB7113467B710223FB733B68002B56D02E4B1B78DBB2102B0CD12C4B1B78DBB203F00803002B7A
:4030C00002D10023FB7315E00123FB7312E0254B1B78DBB2602B0DD10023FB73234B4FF400421A60224B1B78DBB223F00803DAB21F4B1A70FB7B002B2ED11A4B45221A70DB
:403100001C4B00221A701C4ABB7913701B4A3B6813601B4A7B791370154B1B78DBB223F00203DAB2124B1A70164AFB795B00DBB213707B7903F00103002B06D00A4B122249
:403140001A70114B04221A7002E0074B01221A700E4B4FF400421A60FB7B18461437BD4680BC7047EA020020D949004080E200E0EE020020EC020020EF020020F402002076
:40318000ED020020D8490040D749004000E100E080B485B000AF396011461A460346FB710B46BB7113467B710223FB733B68002B59D0304B1B78DBB2102B0CD12E4B1B7856
:4031C000DBB203F00803002B02D10023FB7315E00123FB7312E0274B1B78DBB2602B0DD10023FB73254B4FF400421A60244B1B78DBB223F00803DAB2214B1A70FB7B002B71
:4032000031D11C4B49221A701E4B00221A701E4ABB7913701D4A3B6813601D4A7B791370174B1B78DBB223F00103DAB2144B1A70184AFB795B00DBB243F00103DBB213708E
:403240007B7903F00103002B06D00B4B12221A70114B04221A7002E0074B01221A700F4B4FF400421A60FB7B18461437BD4680BC704700BFEA020020D949004080E200E084
:40328000EE020020F0020020FC020020F8020020ED020020D8490040D749004000E100E080B483B000AF0E4B4FF400421A600D4B1B78FB710C4B1B78DBB203F04003DBB224
:4032C000002B03D0FB7943F00403FB71074B4FF400421A60FB7918460C37BD4680BC704780E100E0EE020020EA02002000E100E080B483B000AF0A4B4FF400421A60094B7E
:403300001B78FB71074B00221A70074B4FF400421A60FB7918460C37BD4680BC704700BF80E100E0EE02002000E100E0000000000230800803D000BF01380046FCD1704714
:40334000EFF3108072B6704780F31088704700BFFEB5494652465B460EB40746244909688A46244A12682448022100F047F8030020480068C018204900F040F8143883464C
:403380000121C9430C4601250026FFF7D9FF814651460B7823400B7058460130FFF7C8FF3800F04028400B78234003430B705846FFF7BEFF0136072EF2D90020013001389F
:4033C000013001200B78234003430B7058460430FFF7AEFF4846FFF7B7FF00BF00BF00BF0EBC894692469B46FEBD00BFAFF30080EC80FF1FD480FF1F00C20100002902D040
:40340000B0FBF1F0704708B14FF0FF3000F008B80029F8D00246B0FBF1F000FB11217047704700BF42000ED2B2F1FE4F0BD34FF09E03B3EB126209D44FEA002343F00043C2
:4034400023FA02F070474FF00000704712F1610F01D1420202D14FF0FF3070474FF00000704700BF014B1868704700BF5081FF1F0E4B70B51E460E4C0025E41AA410A5422F
:4034800004D056F8253098470135F8E700F072F8084B094C1E46E41AA4100025A54204D056F8253098470135F8E770BD8035000080350000803500008835000010B5431EE3
:4034C0000A44914204D011F8014B03F8014FF8E710BD03460244934202D003F8011BFAE7704700000000000049444C4500000000534344333000000074657374000000008B
:4035000073686F7700000000534344333054657374000000434F323A200000000A00000054454D503A20000052483A2000000000C84900401900305100404000F051004055
:40354000100000000140001000140140000800400140000A004C014000020050014020003031323334353637383941424344454600430000F8B500BFF8BC08BC9E4670475E
:403580004D000000A5210000F8B500BFF8BC08BC9E46704729000000A8350000C880FF1F90000000A881000000000000AAAAAAAAF87F000000366E01C05D0000180000005B
:4035C0000000E02E070000000C000000675000400000000000000000000000000000000000000000000000000000000000000000713500000000000000000000000000000D
:40360000000000000000000000000000000000000000000000000000000000000000000000000000000000000000000000000000F080FF1F000000000000000000000000FC
:40364000000000000000000000000000000000000000000000000000000000000000000000000000000000000000000000000000000000000000000000000000000000004A
:40368000000000000000000000000000000000000000000000000000000000000000000000000000000000000000000000000000000000000000000000000000000000000A
:4036C00000000000000000000000000000000000000000000000000000000000000000000000000000000000000000000000000000000000000000000000000000000000CA
:403700000000000000000000000000000000000000000000000000000000000000000000000000000000000000000000000000000000000000000000000000000000000089
:020000040003F7
:0200000480007A
:400000000752004005640040300001401F0101405302014035030140320401402D0501400207014001090140030B0140040C0140010D0140010F014003150140011701402C
:4000400001190140031B0140054001400E410140064201400443014002440140054501400446014001470140044801400F4901400A4C0140054D0140035001400251014001
:40008000000101110301104011406002640371017201800F830D850D0B030D020E0D1202150816011B0C26082E04300231013204330434013502360837083E044040410560
:4000C00045D146504720482B49FF4AFF4BFF4DA04F04501852805407580459045A045B045F01604062C06440654066C068C06AC06CC06EC0DB04DF0100400A400B20102271
:4001000018401964210822502340302031083B604040482249015002531059055AA06D80724085408940C001C20CC405CC06CE0CD001D208D60F4065410149FF4AFF4BFF04
:400140004F0150185A045B045D015F016040624064406540668068806A806C806E8080088240830E8410880E8A808D048E109002924193019404964097089B019CFE9D0C0C
:40018000A27FA30DA66FA701AB04AE3EB00EB101B2C0B30CB401B502B630B701BE10BF40C025C104C5ECC720C823C9FFCAFFCBFFCD83CE03CF01D018D290D401D804D9044D
:4001C000DA04DB04DC11DD11DF05E040E240E440E540E680E880EA80EC80EE80000201400210030808800A6010901201134018041A421B18204021082250238028102910D4
:400200002A123188321239403A0140C4458047804801490A4A024E024F205202590A5A806F01708072027340788087018D809920C00FC20DC40DCA07CC0FCE09D015D2385B
:40024000D60BDE08E2102E01340152015301561058045B045C015D105F01830192059A049E09A901AE02B002B101B208B404B601BE10C040C105C5D2C602C710C827C9FFA7
:40028000CAFFCBFFCDA0CF04D018D280D405D804D904DA04DB04DF01E040E2C0E440E540E6C0E8C0EAC0ECC0EEC00E800F0A1140174019101D021E881F4827802F083F02E2
:4002C00045024F895741580459815B105E085F8161216248694077408121820883108404852086408B4095409D10AC10AE01B120C2D0C481CA20CE80D080D210D6DFD80FBC
:40030000E204E680A980EE04EE048340A340E820B880BE40D804DF011B40E080E008E401EA01E624E624E008E401EA01332035208720CC30E24003105F2062086B8087802A
:400340008D209B209D20A720C010D620D840DC20E2403E108A089B10A608A720CE209610AB30E820EE208A02E0015B0266029A02D602D8011B04B302C608E804AB048001D3
:400380008A029610E6201220164070017E02822086409002A202AA10C430DC80DE20E010E480EA801280132017017B107F4082808B01C40EDE03E604831087409780A710AE
:4003C000AB20000308030A03000F03C0010000111000110108000000830000808300030000000000000B0B000000000000C0C000C00000000E001801000000000000000003
:4004000000000000000000000000000000000000000000000000000000000000000000000000000000000000000000000000000000000000000000000000000000000000BC
:40044000000000000000000000000000000000000000000000000000000000000000000000000000000000000000000000000000000000000000000000000000000000007C
:40048000000000000000000000000000000000000000000000000000000000000000000000000000000000000000000000000000000000000000000000000000000000003C
:4004C00000000000000000000000000000000000000000000000000000000000000000000000000000000000000000000000000000000000000000000000000000000000FC
:0200000490006A
:0400000000004005B7
:0200000490105A
:04000000BC90ACAF55
:0200000490303A
:02000000B04608
:0200000490402A
:4000000000000000000000000000000000000000000000000000000000000000000000000000000000000000000000000000000000000000000000000000000000000000C0
:400040000000000000000000000000000000000000000000000000000000000000000000000000000000000000000000000000000000000000000000000000000000000080
:400080000000000000000000000000000000000000000000000000000000000000000000000000000000000000000000000000000000000000000000000000000000000040
:4000C0000000000000000000000000000000000000000000000000000000000000000000000000000000000000000000000000000000000000000000000000000000000000
:0200000490501A
:0C00000000012E16106900012E2CC0AF6C
:00000001FF